:100000000C9448000C947D000C947D000C947D00B1
:100010000C947D000C947D000C947D000C947D006C
:100020000C947D000C9486080C942F070C945508B2
:100030000C94C2070C94F3070C94FE060C949107E1
:100040000C94B1040C947D000C9405020C944B02AA
:100050000C947D000C947D000C947D000C947D002C
:100060000C9424080C944A090C94B7080C94E808E2
:100070000C9419090C9460070C94A4020C94EA02E5
:100080000C947D000C947D000C947D00B60352040A
:1000900011241FBECFEFD0E1DEBFCDBF88E483BF08
:1000A00083B7887F846083BF12BE87B7816087BFB4
:1000B000789411E0A0E0B1E0E2E1F9E100E00BBFEB
:1000C00002C007900D92AE35B107D9F712E0AEE548
:1000D000B1E001C01D92A433B107E1F710E0C0E91F
:1000E000D0E004C02297FE010E94830CCC38D107D7
:1000F000C9F70E947B090C94870C0C9400001F9395
:10010000CF93DF93C0E0D0E0FE01E45DFE4F1081AD
:10011000812F61E00E94F904812F61E00E9429058E
:10012000FE01EC5CFE4F808160E070E00E943006D2
:100130002296C830D10541F7DF91CF911F910895E4
:10014000FC0110828AE090E0938382830895CF932C
:10015000DF93EC01882777FD8095982F0E94700B24
:1001600020E030E044E353E40E94D50A20E030E090
:1001700040EF51E40E94FC0B20E030E040E251E40B
:100180000E94710A0E94420BCB016A30710510F483
:100190008AE090E08932910510F088E290E09B833C
:1001A0008A83DF91CF910895CF93DF93EC018A8109
:1001B00060E00E9429058D8160E00E9459058D81D3
:1001C00060E00E947B058B8161E00E9429058C81A3
:1001D00061E00E9429050000000010C08C8160E0F1
:1001E0000E94290500000000000000008C8161E0F1
:1001F0000E94290500000000000000008D810E947F
:10020000700587FDEBCF8C8160E00E942905DF91AE
:10021000CF910895FF920F931F938C01F62E0E94A9
:10022000D400F801828161E00E942905F8018381F0
:1002300060E00E942905F801848161E00E9429059F
:10024000F801858161E00E945905F80185816F2DD3
:100250000E947B050000000000000000F80184817E
:1002600060E00E942905F801858160E00E9459053F
:10027000F80185816FEF0E947B051F910F91FF9020
:100280000895EF92FF920F931F93CF93DF937C011A
:10029000042F6115710551F0EB0110E005C0C70195
:1002A00069910E940A011F5F1017C8F3DF91CF9177
:1002B0001F910F91FF90EF900895DF93CF930F92CE
:1002C000CDB7DEB76983BE016F5F7F4F41E00E940B
:1002D00041010F90CF91DF910895FF920F931F93EB
:1002E0008C01F62E0E94D400F801828160E00E9409
:1002F0002905F801838160E00E942905F8018481C5
:1003000061E00E942905F801858161E00E9459059C
:10031000F80185816F2D0E947B0500000000000020
:100320000000F801848160E00E942905F8018581C0
:1003300060E00E945905F80185816FEF0E947B05FE
:100340001F910F91FF90089561E00E946D01089543
:100350000F931F938C01FC01828160E00E942905AC
:10036000F801838160E00E942905F801848160E042
:100370000E942905F801828161E00E94F904F801D8
:10038000838161E00E94F904F801848161E00E94A8
:10039000F904F801858160E00E945905F801858122
:1003A0006FEF0E947B051F910F9108950F931F938C
:1003B0008C010E94A801C80168E30E946D01C80178
:1003C00061E00E946D01C80166E00E946D01C801F4
:1003D0006CE00E946D01C80162E00E946D01C801DD
:1003E00060E80E946D011F910F9108950F93FC0129
:1003F00080E491E091838083628343832483058337
:10040000CF010E94D6010F9108951F920F920FB64F
:100410000F920BB60F9211242F933F938F939F93BC
:10042000EF93FF93E091A801F091A90120818091C1
:1004300062019091630180970CF580916201909127
:10044000630101969093630180936201809164013E
:1004500090916501FC01E25AFE4F2287019690932C
:1004600065018093640120916001309161018217E0
:10047000930724F01092650110926401FF91EF91AF
:100480009F918F913F912F910F900BBE0F900FBEB8
:100490000F901F9018951F920F920FB60F920BB6E8
:1004A0000F9211242F933F934F938F939F93AF936A
:1004B000BF93EF93FF9380918A0190918B0118165F
:1004C000190634F5A091A801B091A90180918A0183
:1004D00090918B01019790938B0180938A01809179
:1004E0008E0190918F01FC01E25AFE4F42A90196C4
:1004F00090938F0180938E01209188013091890122
:100500008217930724F010928F0110928E014C9362
:1005100080918A0190918B01892B31F4E091A601A1
:10052000F091A70188E98083FF91EF91BF91AF918E
:100530009F918F914F913F912F910F900BBE0F90F4
:100540000FBE0F901F9018951F920F920FB60F922B
:100550000BB60F9211242F933F938F939F93EF939A
:10056000FF93E091F401F091F50120818091AE01BB
:100570009091AF0180970CF58091AE019091AF0101
:1005800001969093AF018093AE018091B00190915C
:10059000B101FC01E655FE4F228701969093B1010F
:1005A0008093B0012091AC013091AD018217930787
:1005B00024F01092B1011092B001FF91EF919F9140
:1005C0008F913F912F910F900BBE0F900FBE0F9008
:1005D0001F9018951F920F920FB60F920BB60F92A5
:1005E00011242F933F934F938F939F93AF93BF9378
:1005F000EF93FF938091D6019091D70118161906B9
:1006000034F5A091F401B091F5018091D60190915B
:10061000D70101979093D7018093D6018091DA0199
:100620009091DB01FC01E655FE4F42A901969093A3
:10063000DB018093DA012091D4013091D50182173A
:10064000930724F01092DB011092DA014C93809111
:10065000D6019091D701892B31F4E091F201F0910C
:10066000F30188E98083FF91EF91BF91AF919F9152
:100670008F914F913F912F910F900BBE0F900FBE16
:100680000F901F901895FC0124813581C9010895B0
:10069000DC01FC0184819581892B19F42FEF3FEF58
:1006A00018C0FD018481958101979583848380859D
:1006B0009185E80FF91F42850196FD01918780879A
:1006C000228133818217930714F011861086242F1C
:1006D00030E0C9010895CF93DF93DC01EC018C81F8
:1006E0009D81892B19F42FEF3FEF08C0ED01E885BC
:1006F000F985EA0FFB1F8285282F30E0C901DF91C1
:10070000CF910895FC01158214828481958191878F
:100710008087978386830895DC01FD0184A595A5D4
:100720004097DCF7F894FD0184A595A54097ACF4BB
:1007300084A595A5019695A784A786A597A5E80FFA
:10074000F91F62AB0196FD0197A786A722A533A5E5
:100750008217930714F017A616A6A85BBF4FED915A
:10076000FC918081806280837894089566E471E0D2
:1007700070935F0160935E0140E250E0509361012D
:1007800040936001109263011092620180916201B6
:100790009091630190936701809366019093650146
:1007A0008093640120E130E0309389012093880137
:1007B00010928B0110928A0180918A0190918B0195
:1007C00090938F0180938E0190938D0180938C0183
:1007D00080E990E09093A1018093A00189E290E0EC
:1007E0009093A3018093A2018BE290E09093A501E6
:1007F0008093A4018AE290E09093A7018093A601E0
:100800008CE290E09093A9018093A8017093AB01D2
:100810006093AA015093AD014093AC011092AF01D7
:100820001092AE018091AE019091AF019093B3010F
:100830008093B2019093B1018093B0013093D501C0
:100840002093D4011092D7011092D6018091D60145
:100850009091D7019093DB018093DA019093D901B5
:100860008093D80188E990E09093ED018093EC01AA
:1008700089E990E09093EF018093EE018BE990E09D
:100880009093F1018093F0018AE990E09093F30155
:100890008093F2018CE990E09093F5018093F4014C
:1008A000089508950F9386EF91E06AE14BE12CE102
:1008B00002E00E94F6018CEF91E00E947F008EEF33
:1008C00091E00E94A00082E092E00E94A00086E0F9
:1008D00092E00E94A0000F910895CF92DF92EF92D4
:1008E000FF920F931F9386E00E948605AA2797FD2B
:1008F000A095BA2FBC01CD010E94700B20E030E022
:1009000044E353E40E94FC0B20E030E040E85AE36B
:100910000E94FC0B0E943D0B7B018C018EEF91E04D
:10092000B7010E94A70082E092E0B7010E94A700F1
:1009300086E092E0B7010E94A70086EFC82E81E012
:10094000D82EC6010E94A401C601B7014AE050E0BA
:100950000E945D0A1F910F91FF90EF90DF90CF9062
:1009600008951F920F920FB60F9211242F933F9369
:100970008F939F93AF93BF9380910E0290910F023C
:10098000A0911002B0911102309112020196A11DA6
:10099000B11D232F2D5F2D3720F02D570196A11D5E
:1009A000B11D2093120280930E0290930F02A09328
:1009B0001002B093110280910A0290910B02A09153
:1009C0000C02B0910D020196A11DB11D80930A0287
:1009D00090930B02A0930C02B0930D02BF91AF91C4
:1009E0009F918F913F912F910F900FBE0F901F906D
:1009F0001895E82FE695E695E695A82FB0E06130CA
:100A000099F42FB7F894F0E0EE0FFF1FE25FFE4F6E
:100A10000190F081E02D9081A770B070A05BBE4F77
:100A20008C91982B908313C02FB7F894F0E0EE0FC1
:100A3000FF1FE25FFE4F0190F081E02D9081A770D3
:100A4000B070A05BBE4F8C918095892380832FBFAF
:100A50000895E82FE695E695E695A82FB0E0613079
:100A600099F42FB7F894F0E0EE0FFF1FE050FF4F1E
:100A70000190F081E02D9081A770B070A05BBE4F17
:100A80008C91982B908313C02FB7F894F0E0EE0F61
:100A9000FF1FE050FF4F0190F081E02D9081A77083
:100AA000B070A05BBE4F8C918095892380832FBF4F
:100AB0000895E82FF0E0613051F4EE0FFF1FE25F80
:100AC000FE4F0190F081E02D8FEF80830895EE0FAF
:100AD000FF1FE25FFE4F0190F081E02D108208952C
:100AE000E82FF0E0EE0FFF1FE45EFE4F0190F08173
:100AF000E02D80810895E82FF0E0EE0FFF1FE05019
:100B0000FF4F0190F081E02D60830895982F809130
:100B10002A01813051F4109261001092620080E449
:100B200087B987EE86B910922A0180912B01981718
:100B300021F4349A349BFECF0DC090932B0187B1E2
:100B40009770807E892B87B9349A349BFECF349A74
:100B5000349BFECF24B135B1C9010895853031F4FD
:100B60008FB580688FBD8FB58F7B0FC0843031F417
:100B70008FB580628FBD8FB58F7E07C0833039F40B
:100B80008FB588608FBD8FB58B7F8FBD0895823004
:100B900049F480918B00806880938B0080918B005A
:100BA0008F7B0AC0813059F480918B0080628093E2
:100BB0008B0080918B008F7E80938B00089588231B
:100BC00051F480918B00886080938B0080918B0022
:100BD0008B7F80938B000895893031F48FB58260CC
:100BE0008FBD8FB58E7F0AC08A3019F48FB58260B1
:100BF00002C08FB58D7F8FBD8FB581608FBD1BBC4F
:100C00001ABC19BC18BC1092790010927800089593
:100C1000893049F480918B00826080938B008091B1
:100C20008B008E7F0EC08A3021F480918B00826011
:100C300003C080918B008D7F80938B0080918B000F
:100C4000816080938B001092870010928600109232
:100C50008500109284001092830010928200089503
:100C6000FF920F931F93CF93DF93182FF62E072F2A
:100C70008D31B0F08F3111F413E014C08E3111F4C6
:100C800014E010C08D3109F4B1C0853211F410E0C8
:100C900044C0843211F411E040C0833219F4A4C07E
:100CA0008330D8F18091130286FD12C08EB5887F03
:100CB00083608EBD1DBC1CBC87B7846087BF7894E1
:100CC0008AE00E94EC0580911302806480931302F5
:100CD00080911302C12FD0E090E0012E02C09595C3
:100CE00087950A94E2F780FD59C087B3FE01E85A60
:100CF000FE4F9081892B87BB812F0E94AE052091EA
:100D0000130281E090E0012E02C0880F991F0A941F
:100D1000E2F7282B2093130241C08091130287FD34
:100D200018C080918A00887F836080938A00109227
:100D300089001092880080917D00846080937D00FE
:100D400078948AE00E94080680911302806880935C
:100D5000130280911302C12FD0E090E0012E02C057
:100D6000959587950A94E2F780FD22C082B1FE0135
:100D7000E85AFE4F9081892B82B9812F0E94AE05DF
:100D80002091130281E090E0012E02C0880F991F8C
:100D90000A94E2F7282B209313020AC0153019F4A5
:100DA0000BBDFABC25C0143019F409BDF8BC20C035
:100DB000133029F400937900F092780019C01230B2
:100DC00029F400938700F092860012C0113029F4B4
:100DD00000938500F09284000BC0112349F4009326
:100DE0008300F092820004C012E097CF15E05ACF42
:100DF000DF91CF911F910F91FF9008951F920F9255
:100E00000FB60F920BB60F9211242F933F934F936F
:100E10005F936F937F938F939F93AF93BF93EF9362
:100E2000FF9380911A0290911B02892B29F0E09187
:100E30001A02F0911B020995FF91EF91BF91AF91BA
:100E40009F918F917F916F915F914F913F912F91E2
:100E50000F900BBE0F900FBE0F901F9018951F9212
:100E60000F920FB60F920BB60F9211242F933F9350
:100E70004F935F936F937F938F939F93AF93BF93A2
:100E8000EF93FF938091240290912502892B29F002
:100E9000E0912402F09125020995FF91EF91BF9115
:100EA000AF919F918F917F916F915F914F913F9102
:100EB0002F910F900BBE0F900FBE0F901F901895A3
:100EC0001F920F920FB60F920BB60F9211242F9311
:100ED0003F934F935F936F937F938F939F93AF93C2
:100EE000BF93EF93FF9380912A0290912B02892B5D
:100EF00029F0E0912A02F0912B020995FF91EF91E0
:100F0000BF91AF919F918F917F916F915F914F9121
:100F10003F912F910F900BBE0F900FBE0F901F901F
:100F200018951F920F920FB60F920BB60F921124C5
:100F30002F933F934F935F936F937F938F939F93E1
:100F4000AF93BF93EF93FF93809116029091170296
:100F5000892B29F0E0911602F09117020995FF9173
:100F6000EF91BF91AF919F918F917F916F915F9121
:100F70004F913F912F910F900BBE0F900FBE0F908E
:100F80001F9018951F920F920FB60F920BB60F92EB
:100F900011242F933F934F935F936F937F938F937E
:100FA0009F93AF93BF93EF93FF9380911C02909117
:100FB0001D02892B29F0E0911C02F0911D02099578
:100FC000FF91EF91BF91AF919F918F917F916F9121
:100FD0005F914F913F912F910F900BBE0F900FBEDD
:100FE0000F901F9018951F920F920FB60F920BB68D
:100FF0000F9211242F933F934F935F936F937F939F
:101000008F939F93AF93BF93EF93FF9380911E02B3
:1010100090911F02892B29F0E0911E02F0911F028E
:101020000995FF91EF91BF91AF919F918F917F9122
:101030006F915F914F913F912F910F900BBE0F9049
:101040000FBE0F901F9018951F920F920FB60F9220
:101050000BB60F9211242F933F934F935F936F938F
:101060007F938F939F93AF93BF93EF93FF93809161
:10107000200290912102892B29F0E0912002F09129
:1010800021020995FF91EF91BF91AF919F918F91AF
:101090007F916F915F914F913F912F910F900BBE78
:1010A0000F900FBE0F901F9018951F920F920FB6C2
:1010B0000F920BB60F9211242F933F934F935F9390
:1010C0006F937F938F939F93AF93BF93EF93FF9310
:1010D0008091220290912302892B29F0E091220233
:1010E000F09123020995FF91EF91BF91AF919F91EC
:1010F0008F917F916F915F914F913F912F910F90C1
:101100000BBE0F900FBE0F901F9018951F920F925D
:101110000FB60F920BB60F9211242F933F934F935C
:101120005F936F937F938F939F93AF93BF93EF934F
:10113000FF938091260290912702892B29F0E0915C
:101140002602F09127020995FF91EF91BF91AF918F
:101150009F918F917F916F915F914F913F912F91CF
:101160000F900BBE0F900FBE0F901F9018951F92FF
:101170000F920FB60F920BB60F9211242F933F933D
:101180004F935F936F937F938F939F93AF93BF938F
:10119000EF93FF9380912C0290912D02892B29F0DF
:1011A000E0912C02F0912D020995FF91EF91BF91F2
:1011B000AF919F918F917F916F915F914F913F91EF
:1011C0002F910F900BBE0F900FBE0F901F90189590
:1011D0001F920F920FB60F920BB60F9211242F93FE
:1011E0003F934F935F936F937F938F939F93AF93AF
:1011F000BF93EF93FF9380912E0290912F02892B42
:1012000029F0E0912E02F0912F020995FF91EF91C4
:10121000BF91AF919F918F917F916F915F914F910E
:101220003F912F910F900BBE0F900FBE0F901F900C
:1012300018951F920F920FB60F920BB60F921124B2
:101240002F933F934F935F936F937F938F939F93CE
:10125000AF93BF93EF93FF9380913002909131024F
:10126000892B29F0E0913002F09131020995FF912C
:10127000EF91BF91AF919F918F917F916F915F910E
:101280004F913F912F910F900BBE0F900FBE0F907B
:101290001F9018951F920F920FB60F920BB60F92D8
:1012A00011242F933F934F935F936F937F938F936B
:1012B0009F93AF93BF93EF93FF93809132029091EE
:1012C0003302892B29F0E0913202F0913302099523
:1012D000FF91EF91BF91AF919F918F917F916F910E
:1012E0005F914F913F912F910F900BBE0F900FBECA
:1012F0000F901F90189583E061E00E94590584E0EB
:1013000061E00E94590578940E9451040E946D0486
:10131000FDCF2F923F924F925F926F927F928F926A
:101320009F92AF92BF92CF92DF92EF92FF920F9374
:101330001F93DF93CF93CDB7DEB7A0970FB6F89486
:10134000DEBF0FBECDBF1C016A017B0141155105F7
:101350006105710549F4DC01ED91FC910190F0818A
:10136000E02D60E3099554C0882499245401422E4D
:1013700055246624772401E010E00C0F1D1F080D92
:10138000191DC701B601A30192010E945F0CF8016B
:1013900060830894811C911CA11CB11CC701B6017B
:1013A000A30192010E945F0CC901DA016C017D0169
:1013B000C114D104E104F104F1F681E0E82EF12C2E
:1013C000EC0EFD1EE80CF91C3E010894611C711C1A
:1013D000D501C4010197A109B1096C01C818D90848
:1013E00014C0F601EE0DFF1D60816A3010F4605DDF
:1013F00001C0695CD101ED91FC910190F081E02D7B
:10140000C10109950894E108F1086E147F0449F7B9
:10141000A0960FB6F894DEBF0FBECDBFCF91DF917F
:101420001F910F91FF90EF90DF90CF90BF90AF9002
:101430009F908F907F906F905F904F903F902F90F4
:101440000895EF92FF920F931F93CF93DF93EC01D8
:101450007A018B0177FF0FC0E881F9810190F0815B
:10146000E02D6DE2099510950095F094E094E11C53
:10147000F11C011D111DCE01B801A7012AE00E9437
:101480008909DF91CF911F910F91FF90EF900895FF
:10149000DC012115310541F4ED91FC910190F081C1
:1014A000E02D642F099508952A30310519F40E9422
:1014B000210A08950E9489090895EF92FF920F93DF
:1014C0001F937B019A010027F7FC0095102FB801AC
:1014D000A7010E94480A1F910F91FF90EF90089575
:1014E0005058BB27AA270ED04DC13ED130F043D172
:1014F00020F031F49F3F11F41EF433C10EF4E09557
:10150000E7FB29C1E92F4FD180F3BA1762077307B0
:101510008407950718F071F49EF567C10EF4E09505
:101520000B2EBA2FA02D0B01B90190010C01CA019D
:10153000A0011124FF27591B99F0593F50F4503E48
:1015400068F11A16F040A22F232F342F4427585F3A
:10155000F3CF469537952795A795F0405395C9F752
:101560007EF41F16BA0B620B730B840BBAF091500A
:10157000A1F0FF0FBB1F661F771F881FC2F70EC0A9
:10158000BA0F621F731F841F48F48795779567957C
:10159000B795F7959E3F08F0B3CF9395880F08F065
:1015A0009927EE0F9795879508950CD0EBC0E3D05F
:1015B00040F0DAD030F021F45F3F19F0CCC0511187
:1015C00015C1CFC0F0D098F39923C9F35523B1F3D7
:1015D000951B550BBB27AA2762177307840738F0A2
:1015E0009F5F5F4F220F331F441FAA1FA9F333D001
:1015F0000E2E3AF0E0E830D091505040E695001CB5
:10160000CAF729D0FE2F27D0660F771F881FBB1F70
:10161000261737074807AB07B0E809F0BB0B802D4A
:10162000BF01FF2793585F4F2AF09E3F510568F096
:1016300092C0DCC05F3FECF3983EDCF38695779573
:101640006795B795F7959F5FC9F7880F911D969598
:10165000879597F90895E1E0660F771F881FBB1FF4
:10166000621773078407BA0720F0621B730B840BA1
:10167000BA0BEE1F88F7E095089504D06894B11175
:10168000B5C0089598D088F09F5790F0B92F99274A
:10169000B751A0F0D1F0660F771F881F991F1AF07D
:1016A000BA95C9F712C0B13081F09FD0B1E008956A
:1016B0009CC0672F782F8827B85F39F0B93FCCF3EB
:1016C000869577956795B395D9F73EF49095809573
:1016D000709561957F4F8F4F9F4F0895E89409C093
:1016E00097FB3EF490958095709561957F4F8F4F55
:1016F0009F4F9923A9F0F92F96E9BB279395F6956B
:10170000879577956795B795F111F8CFFAF4BB0FE8
:1017100011F460FF1BC06F5F7F4F8F4F9F4F16C04C
:10172000882311F096E911C0772321F09EE8872FD6
:10173000762F05C0662371F096E8862F70E060E092
:101740002AF09A95660F771F881FDAF7880F96950B
:10175000879597F9089597F99F6780E870E060E0B2
:1017600008959FEF80EC089500240A94161617063A
:1017700018060906089500240A9412161306140682
:1017800005060895092E0394000C11F4882352F0E5
:10179000BB0F40F4BF2B11F460FF04C06F5F7F4F9D
:1017A0008F4F9F4F089557FD9058440F551F59F084
:1017B0005F3F71F04795880F97FB991F61F09F3F3E
:1017C00079F087950895121613061406551FF2CF67
:1017D0004695F1DF08C0161617061806991FF1CFB7
:1017E00086957105610508940895E894BB276627DE
:1017F0007727CB0197F908950BD0C4CFB5DF28F038
:10180000BADF18F0952309F0A6CFABCF1124EECFA5
:10181000CADFA0F3959FD1F3950F50E0551F629F4B
:10182000F001729FBB27F00DB11D639FAA27F00D39
:10183000B11DAA1F649F6627B00DA11D661F829F60
:101840002227B00DA11D621F739FB00DA11D621F45
:10185000839FA00D611D221F749F3327A00D611D62
:10186000231F849F600D211D822F762F6A2F112444
:101870009F5750408AF0E1F088234AF0EE0FFF1F97
:10188000BB1F661F771F881F91505040A9F79E3FCE
:10189000510570F060CFAACF5F3FECF3983EDCF3C8
:1018A000869577956795B795F795E7959F5FC1F70B
:1018B000FE2B880F911D9695879597F90895A1E2C3
:1018C0001A2EAA1BBB1BFD010DC0AA1FBB1FEE1FBA
:1018D000FF1FA217B307E407F50720F0A21BB30B05
:1018E000E40BF50B661F771F881F991F1A9469F781
:1018F00060957095809590959B01AC01BD01CF01DD
:101900000895EE0FFF1F0590F491E02D0994F894CF
:02191000FFCF07
:10191200320035003B0038002300620065003100D0
:1019220034003A00370022006100640030003300C6
:101932003900360021002000630001FF1800190061
:10194200260027000500040001000000000000003E
:101952005D01000000008C0343036B034803820314
:0E196200010204081020408020100880402060
:00000001FF
