:100000000C9448000C947D000C947D000C947D00B1
:100010000C947D000C947D000C947D000C947D006C
:100020000C947D000C94900A0C9439090C945F0A8E
:100030000C94CC090C94FD090C9408090C949B09B0
:100040000C9424060C947D000C94FE020C94440342
:100050000C947D000C947D000C947D000C947D002C
:100060000C942E0A0C94540B0C94C10A0C94F20AB2
:100070000C94230B0C946A090C949D030C94E303D9
:100080000C947D000C947D000C947D00AF044A0517
:1000900011241FBECFEFD0E1DEBFCDBF88E483BF08
:1000A00083B7887F846083BF12BE87B7816087BFB4
:1000B000789411E0A0E0B1E0E0E8FFE100E00BBFE0
:1000C00002C007900D92AE36B107D9F712E0AEE646
:1000D000B1E001C01D92AB35B107E1F710E0C0E916
:1000E000D0E004C02297FE010E946C0ECC38D107EC
:1000F000C9F70E94850B0C94BE0F0C9400000F935F
:100100001F93CF93DF93EB018A01CC0FDD1F57FDC7
:100110000CC0FE01ED5CFE4F808161E00E941A0779
:10012000C55CDE4F8881B8010EC0FE01ED5CFE4F5C
:10013000808160E00E941A07C55CDE4F6627772742
:10014000601B710B88810E943A08DF91CF911F914B
:100150000F9108951F93CF93DF93C0E0D0E0FE018D
:10016000ED5CFE4F1081812F61E00E94EA06812F35
:1001700061E00E941A07FE01E55CFE4F808160E0AD
:1001800070E00E943A082296C830D10541F7DF910D
:10019000CF911F910895FC0110828AE090E0938333
:1001A00082830895CF93DF93EC01882777FD8095B4
:1001B000982F0E94280D20E030E044E353E40E9491
:1001C0008D0C20E030E040EF51E40E94070E20E06B
:1001D00030E040E251E40E94290C0E94FA0CCB016D
:1001E0006A30710510F48AE090E08932910510F0D0
:1001F00088E290E09B838A83DF91CF910895E0911C
:100200000601E7FD15C0FF27E7FDF095EE0FFF1F84
:10021000E259FE4F0190F081E02D818160E00E9463
:100220001A0706C02F5F81919191892B69F00EC04A
:10023000209106012F5FE22FFF27E7FDF095215067
:10024000EE0FFF1FE259FE4F273064F320930601A3
:10025000E0910601FF27E7FDF095EE0FFF1FE25941
:10026000FE4F0190F081E02D309761F48FEF809385
:10027000060124EF31E080917F0190918001281BDD
:10028000390B12C0818161E00E941A07E0910601DA
:10029000FF27E7FDF095EE0FFF1FE259FE4F01909B
:1002A000F081E02D2281338183B5820F83BD80915F
:1002B0007F0190918001820F931F90938001809322
:1002C0007F01845F914020F01092800110927F01A5
:1002D00008950E94DD0787B78F7787BF85E00E946A
:1002E000E60789E06FEF70E00E94EB0783B58C5062
:1002F00083BD87B7806887BF1092800110927F010D
:100300008FEF809306010895CF93DF93EC018091E6
:100310007E01893010F080E03DC06983862F61E066
:100320000E94EA06E881F0E0EE0FFF1FE259FE4F5F
:1003300080819181C817D90761F140917E014423E2
:1003400041F4EEE6F1E01192119281E0EE37F80708
:10035000D1F7EEE6F1E020E030E080819181892B59
:1003600061F4F901EE0FFF1FE259FE4FD183C08304
:1003700028834F5F40937E0106C02F5F3F4F329628
:100380002830310551F780917E01813011F40E94AF
:10039000690181E0DF91CF910895CF93DF93EC0164
:1003A0008A8160E00E941A078D8160E00E944A07FE
:1003B0008D8160E00E946C078B8161E00E941A07CA
:1003C0008C8161E00E941A070000000010C08C813F
:1003D00060E00E941A0700000000000000008C810D
:1003E00061E00E941A0700000000000000008D81FB
:1003F0000E94610787FDEBCF8C8160E00E941A07A5
:10040000DF91CF910895FF920F931F938C01F62EE9
:100410000E94CD01F801828161E00E941A07F80173
:10042000838160E00E941A07F801848161E00E94E4
:100430001A07F801858161E00E944A07F801858169
:100440006F2D0E946C070000000000000000F80102
:10045000848160E00E941A07F801858160E00E94B3
:100460004A07F80185816FEF0E946C071F910F9179
:10047000FF900895EF92FF920F931F93CF93DF9316
:100480007C01042F6115710551F0EB0110E005C0EE
:10049000C70169910E9403021F5F1017C8F3DF9123
:1004A000CF911F910F91FF90EF900895DF93CF931D
:1004B0000F92CDB7DEB76983BE016F5F7F4F41E01A
:1004C0000E943A020F90CF91DF910895FF920F930F
:1004D0001F938C01F62E0E94CD01F801828160E00D
:1004E0000E941A07F801838160E00E941A07F80150
:1004F000848161E00E941A07F801858161E00E9411
:100500004A07F80185816F2D0E946C0700000000EA
:1005100000000000F801848160E00E941A07F801E1
:10052000858160E00E944A07F80185816FEF0E9493
:100530006C071F910F91FF90089561E00E94660281
:1005400008950F931F938C01FC01828160E00E944B
:100550001A07F801838160E00E941A07F80184817C
:1005600060E00E941A07F801828161E00E94EA06B9
:10057000F801838161E00E94EA06F801848161E06C
:100580000E94EA06F801858160E00E944A07F801AE
:1005900085816FEF0E946C071F910F9108950F9353
:1005A0001F938C010E94A102C80168E30E946602A9
:1005B000C80161E00E946602C80166E00E9466020E
:1005C000C8016CE00E946602C80162E00E946602F7
:1005D000C80160E80E9466021F910F9108950F9371
:1005E000FC0187E491E091838083628343832483C9
:1005F0000583CF010E94CF020F9108951F920F92A1
:100600000FB60F920BB60F9211242F933F938F9337
:100610009F93EF93FF93E091CB01F091CC01208168
:10062000809185019091860180970CF580918501DC
:100630009091860101969093860180938501809127
:10064000870190918801FC01EF57FE4F22870196A8
:1006500090938801809387012091830130918401D8
:100660008217930724F01092880110928701FF915E
:10067000EF919F918F913F912F910F900BBE0F9013
:100680000FBE0F901F9018951F920F920FB60F92EA
:100690000BB60F9211242F933F934F938F939F93F9
:1006A000AF93BF93EF93FF938091AD019091AE0113
:1006B0001816190634F5A091CB01B091CC018091A8
:1006C000AD019091AE0101979093AE018093AD0181
:1006D0008091B1019091B201FC01EF57FE4F42A908
:1006E00001969093B2018093B1012091AB013091BA
:1006F000AC018217930724F01092B2011092B1015D
:100700004C938091AD019091AE01892B31F4E09131
:10071000C901F091CA0188E98083FF91EF91BF91EF
:10072000AF919F918F914F913F912F910F900BBE61
:100730000F900FBE0F901F9018951F920F920FB63B
:100740000F920BB60F9211242F933F938F939F9389
:10075000EF93FF93E0911702F091180220818091AE
:10076000D1019091D20180970CF58091D1019091A7
:10077000D20101969093D2018093D1018091D3014F
:100780009091D401FC01E353FE4F22870196909390
:10079000D4018093D3012091CF013091D0018217F1
:1007A000930724F01092D4011092D301FF91EF919E
:1007B0009F918F913F912F910F900BBE0F900FBE85
:1007C0000F901F9018951F920F920FB60F920BB6B5
:1007D0000F9211242F933F934F938F939F93AF9337
:1007E000BF93EF93FF938091F9019091FA0118164E
:1007F000190634F5A0911702B09118028091F90101
:100800009091FA0101979093FA018093F9018091F8
:10081000FD019091FE01FC01E353FE4F42A90196B8
:100820009093FE018093FD012091F7013091F80132
:100830008217930724F01092FE011092FD014C9351
:100840008091F9019091FA01892B31F4E091150220
:10085000F091160288E98083FF91EF91BF91AF91EB
:100860009F918F914F913F912F910F900BBE0F90C1
:100870000FBE0F901F901895FC0124813581C9018E
:100880000895DC01FC0184819581892B19F42FEFF7
:100890003FEF18C0FD018481958101979583848382
:1008A00080859185E80FF91F42850196FD019187AA
:1008B0008087228133818217930714F01186108676
:1008C000242F30E0C9010895CF93DF93DC01EC01C0
:1008D0008C819D81892B19F42FEF3FEF08C0ED012A
:1008E000E885F985EA0FFB1F8285282F30E0C901D2
:1008F000DF91CF910895FC01158214828481958146
:1009000091878087978386830895DC01FD0184A504
:1009100095A54097DCF7F894FD0184A595A540972F
:10092000ACF484A595A5019695A784A786A597A55F
:10093000E80FF91F62AB0196FD0197A786A722A5D4
:1009400033A58217930714F017A616A6A85BBF4F0E
:10095000ED91FC91808180628083789408956DE4AC
:1009600071E0709382016093810140E250E0509306
:100970008401409383011092860110928501809139
:1009800085019091860190938A01809389019093CB
:1009900088018093870120E130E03093AC012093FF
:1009A000AB011092AE011092AD018091AD0190911A
:1009B000AE019093B2018093B1019093B001809306
:1009C000AF0180E990E09093C4018093C30189E274
:1009D00090E09093C6018093C5018BE290E09093E4
:1009E000C8018093C7018AE290E09093CA01809386
:1009F000C9018CE290E09093CC018093CB0170937D
:100A0000CE016093CD015093D0014093CF0110925D
:100A1000D2011092D1018091D1019091D201909395
:100A2000D6018093D5019093D4018093D301309364
:100A3000F8012093F7011092FA011092F9018091C8
:100A4000F9019091FA019093FE018093FD0190933A
:100A5000FC018093FB0188E990E090931002809361
:100A60000F0289E990E090931202809311028BE9C2
:100A700090E090931402809313028AE990E090939F
:100A80001602809315028CE990E0909318028093EF
:100A9000170208950F9389E192E06AE14BE12CE19E
:100AA00002E00E94EF028FE192E00E94AA0081E240
:100AB00092E00E94CB0085E292E00E94CB0089E2A6
:100AC00092E00E94CB000F91089586E00E94770784
:100AD0009C01220F331F2F5F3340C9010895CF932C
:100AE000DF93EC018BE591E0998388838A819B8178
:100AF000009711F00E94BD0B1D821C821F821E8276
:100B0000DF91CF910895AF92BF92CF92DF92EF9293
:100B1000FF920F931F93DF93CF93CDB7DEB7289744
:100B20000FB6F894DEBF0FBECDBF0E946505AC01C5
:100B30008FE192E060E070E00E947F0087E00E9419
:100B40007707AA2797FDA095BA2FBC01CD010E9477
:100B5000280D20E030E044E353E40E94070E20E03B
:100B600030E040E85AE30E94070E0E94630D0E94A5
:100B7000F50C6B017C0185E292E0B6010E94D20087
:100B800099E1A92E92E0B92EC5010E949D028E0125
:100B90000F5F1F4FC801B6014AE050E00E94E90B09
:100BA000C501B8010E94930BC8010E946F0564E65D
:100BB00070E080E090E00E946C0628960FB6F894F2
:100BC000DEBF0FBECDBFCF91DF911F910F91FF9080
:100BD000EF90DF90CF90BF90AF900895CF93DF93C9
:100BE000EC018BE591E0998388838A819B81009752
:100BF00011F00E94BD0B1D821C821F821E82CE013D
:100C00000E94C20BDF91CF91089580E061E00E94C5
:100C10004A0781E060E00E944A0781E292E063E2D5
:100C200070E00E94840185E292E06FE170E00E9432
:100C3000840189E292E062E270E00E9484018FB751
:100C4000F894909A8FBF08951F920F920FB60F924B
:100C500011242F933F938F939F93AF93BF938091D2
:100C6000310290913202A0913302B091340230915E
:100C700035020196A11DB11D232F2D5F2D3720F0C8
:100C80002D570196A11DB11D20933502809331028D
:100C900090933202A0933302B093340280912D02DC
:100CA00090912E02A0912F02B09130020196A11DC9
:100CB000B11D80932D0290932E02A0932F02B0932A
:100CC0003002BF91AF919F918F913F912F910F90E3
:100CD0000FBE0F901F901895AF92BF92CF92DF92E8
:100CE000EF92FF920F931F935B016C019FB7F894F3
:100CF00020912D0230912E0240912F02509130020E
:100D000082B7E82EFF2400E010E006B600FE0AC01D
:100D10008FEFE816F1040105110521F02F5F3F4F19
:100D20004F4F5F4F9FBFB42FA32F922F88278E0D59
:100D30009F1DA01FB11F12E0880F991FAA1FBB1F84
:100D40001A95D1F7BC0138C09FB7F89420912D02B5
:100D500030912E0240912F025091300282B7E82E3E
:100D6000FF2400E010E006B600FE0AC08FEFE81690
:100D7000F1040105110521F02F5F3F4F4F4F5F4FE9
:100D80009FBFB42FA32F922F88278E0D9F1DA01FCA
:100D9000B11FE2E0880F991FAA1FBB1FEA95D1F788
:100DA000861B970B885E934078F20894A108B108DF
:100DB000C108D10868517C4FA114B104C104D10409
:100DC00019F61F910F91FF90EF90DF90CF90BF9099
:100DD000AF900895E82FE695E695E695A82FB0E048
:100DE000613099F42FB7F894F0E0EE0FFF1FEB5E3F
:100DF000FE4F0190F081E02D9081A770B070A15A54
:100E0000BE4F8C91982B908313C02FB7F894F0E0CD
:100E1000EE0FFF1FEB5EFE4F0190F081E02D908101
:100E2000A770B070A15ABE4F8C91809589238083A2
:100E30002FBF0895E82FE695E695E695A82FB0E038
:100E4000613099F42FB7F894F0E0EE0FFF1FE95FDF
:100E5000FE4F0190F081E02D9081A770B070A15AF3
:100E6000BE4F8C91982B908313C02FB7F894F0E06D
:100E7000EE0FFF1FE95FFE4F0190F081E02D9081A2
:100E8000A770B070A15ABE4F8C9180958923808342
:100E90002FBF0895E82FF0E0613051F4EE0FFF1FEF
:100EA000EB5EFE4F0190F081E02D8FEF808308957F
:100EB000EE0FFF1FEB5EFE4F0190F081E02D1082E0
:100EC0000895E82FF0E0EE0FFF1FED5DFE4F01905B
:100ED000F081E02D80810895E82FF0E0EE0FFF1FF4
:100EE000E95FFE4F0190F081E02D60830895982F17
:100EF00080913101813051F41092610010926200B2
:100F000080E487B987EE86B9109231018091320171
:100F1000981721F4349A349BFECF0DC09093320180
:100F200087B19770807E892B87B9349A349BFECF26
:100F3000349A349BFECF24B135B1C9010895853070
:100F400031F48FB580688FBD8FB58F7B0FC0843033
:100F500031F48FB580628FBD8FB58F7E07C083302F
:100F600039F48FB588608FBD8FB58B7F8FBD0895A5
:100F7000823049F480918B00806880938B0080914F
:100F80008B008F7B0AC0813059F480918B00806286
:100F900080938B0080918B008F7E80938B000895CF
:100FA000882351F480918B00886080938B0080911E
:100FB0008B008B7F80938B00089585B5887F82603E
:100FC00085BD14BC87B7806487BF089595B5987FA9
:100FD000982B95BD0895803140F4E82FF0E0EE0F96
:100FE000FF1FE95CFD4F718360830895893031F400
:100FF0008FB582608FBD8FB58E7F0AC08A3019F49D
:101000008FB5826002C08FB58D7F8FBD8FB5816037
:101010008FBD1BBC1ABC19BC18BC10927900109271
:1010200078000895893049F480918B008260809324
:101030008B0080918B008E7F0EC08A3021F48091CE
:101040008B00826003C080918B008D7F80938B002A
:1010500080918B00816080938B00109287001092AA
:1010600086001092850010928400109283001092E6
:1010700082000895FF920F931F93CF93DF93182F51
:10108000F62E072F8D31B0F08F3111F413E014C01C
:101090008E3111F414E010C08D3109F4B1C08532E5
:1010A00011F410E044C0843211F411E040C08332E6
:1010B00019F4A4C08330D8F18091360286FD12C0A5
:1010C0008EB5887F83608EBD1DBC1CBC87B78460D5
:1010D00087BF78948AE00E94F60780913602806488
:1010E0008093360280913602C12FD0E090E0012E2D
:1010F00002C0959587950A94E2F780FD59C087B3A1
:10110000FE01E959FE4F9081892B87BB812F0E94F8
:101110009F072091360281E090E0012E02C0880FE7
:10112000991F0A94E2F7282B2093360241C0809140
:10113000360287FD18C080918A00887F8360809383
:101140008A00109289001092880080917D0084604E
:1011500080937D0078948AE00E9412088091360284
:1011600080688093360280913602C12FD0E090E0F3
:10117000012E02C0959587950A94E2F780FD22C062
:1011800082B1FE01E959FE4F9081892B82B9812FEE
:101190000E949F072091360281E090E0012E02C05C
:1011A000880F991F0A94E2F7282B209336020AC071
:1011B000153019F40BBDFABC25C0143019F409BD63
:1011C000F8BC20C0133029F400937900F092780025
:1011D00019C0123029F400938700F092860012C0E3
:1011E000113029F400938500F09284000BC0112384
:1011F00049F400938300F092820004C012E097CF7C
:1012000015E05ACFDF91CF911F910F91FF90089574
:101210001F920F920FB60F920BB60F9211242F93BD
:101220003F934F935F936F937F938F939F93AF936E
:10123000BF93EF93FF9380913D0290913E02892BE3
:1012400029F0E0913D02F0913E020995FF91EF9166
:10125000BF91AF919F918F917F916F915F914F91CE
:101260003F912F910F900BBE0F900FBE0F901F90CC
:1012700018951F920F920FB60F920BB60F92112472
:101280002F933F934F935F936F937F938F939F938E
:10129000AF93BF93EF93FF938091470290914802E1
:1012A000892B29F0E0914702F09148020995FF91BE
:1012B000EF91BF91AF919F918F917F916F915F91CE
:1012C0004F913F912F910F900BBE0F900FBE0F903B
:1012D0001F9018951F920F920FB60F920BB60F9298
:1012E00011242F933F934F935F936F937F938F932B
:1012F0009F93AF93BF93EF93FF9380914D02909193
:101300004E02892B29F0E0914D02F0914E02099591
:10131000FF91EF91BF91AF919F918F917F916F91CD
:101320005F914F913F912F910F900BBE0F900FBE89
:101330000F901F9018951F920F920FB60F920BB639
:101340000F9211242F933F934F935F936F937F934B
:101350008F939F93AF93BF93EF93FF938091390245
:1013600090913A02892B29F0E0913902F0913A02EA
:101370000995FF91EF91BF91AF919F918F917F91CF
:101380006F915F914F913F912F910F900BBE0F90F6
:101390000FBE0F901F9018951F920F920FB60F92CD
:1013A0000BB60F9211242F933F934F935F936F933C
:1013B0007F938F939F93AF93BF93EF93FF9380910E
:1013C0003F0290914002892B29F0E0913F02F09179
:1013D00040020995FF91EF91BF91AF919F918F913D
:1013E0007F916F915F914F913F912F910F900BBE25
:1013F0000F900FBE0F901F9018951F920F920FB66F
:101400000F920BB60F9211242F933F934F935F933C
:101410006F937F938F939F93AF93BF93EF93FF93BC
:101420008091410290914202892B29F0E091410282
:10143000F09142020995FF91EF91BF91AF919F9179
:101440008F917F916F915F914F913F912F910F906D
:101450000BBE0F900FBE0F901F9018951F920F920A
:101460000FB60F920BB60F9211242F933F934F9309
:101470005F936F937F938F939F93AF93BF93EF93FC
:10148000FF938091430290914402892B29F0E091CF
:101490004302F09144020995FF91EF91BF91AF9102
:1014A0009F918F917F916F915F914F913F912F917C
:1014B0000F900BBE0F900FBE0F901F9018951F92AC
:1014C0000F920FB60F920BB60F9211242F933F93EA
:1014D0004F935F936F937F938F939F93AF93BF933C
:1014E000EF93FF938091450290914602892B29F05A
:1014F000E0914502F09146020995FF91EF91BF916D
:10150000AF919F918F917F916F915F914F913F919B
:101510002F910F900BBE0F900FBE0F901F9018953C
:101520001F920F920FB60F920BB60F9211242F93AA
:101530003F934F935F936F937F938F939F93AF935B
:10154000BF93EF93FF938091490290914A02892BB8
:1015500029F0E0914902F0914A020995FF91EF913B
:10156000BF91AF919F918F917F916F915F914F91BB
:101570003F912F910F900BBE0F900FBE0F901F90B9
:1015800018951F920F920FB60F920BB60F9211245F
:101590002F933F934F935F936F937F938F939F937B
:1015A000AF93BF93EF93FF9380914F0290915002BE
:1015B000892B29F0E0914F02F09150020995FF919B
:1015C000EF91BF91AF919F918F917F916F915F91BB
:1015D0004F913F912F910F900BBE0F900FBE0F9028
:1015E0001F9018951F920F920FB60F920BB60F9285
:1015F00011242F933F934F935F936F937F938F9318
:101600009F93AF93BF93EF93FF938091510290917B
:101610005202892B29F0E0915102F0915202099572
:10162000FF91EF91BF91AF919F918F917F916F91BA
:101630005F914F913F912F910F900BBE0F900FBE76
:101640000F901F9018951F920F920FB60F920BB626
:101650000F9211242F933F934F935F936F937F9338
:101660008F939F93AF93BF93EF93FF938091530218
:1016700090915402892B29F0E0915302F091540289
:101680000995FF91EF91BF91AF919F918F917F91BC
:101690006F915F914F913F912F910F900BBE0F90E3
:1016A0000FBE0F901F9018951F920F920FB60F92BA
:1016B0000BB60F9211242F933F934F935F936F9329
:1016C0007F938F939F93AF93BF93EF93FF938091FB
:1016D000550290915602892B29F0E0915502F09124
:1016E00056020995FF91EF91BF91AF919F918F9114
:1016F0007F916F915F914F913F912F910F900BBE12
:101700000F900FBE0F901F90189583E061E00E942C
:101710004A0784E061E00E944A0778940E94050627
:101720000E948305FDCFCF92DF92EF92FF920F933D
:101730001F93CF93DF936C017B01C0E0D0E00EC01C
:10174000D601ED91FC9100811181C701BE010E947B
:10175000CA0B682FC601F80109952196F701868109
:101760009781C817D90760F3DF91CF911F910F912F
:10177000FF90EF90DF90CF900895009711F00E94B6
:101780001C0F0895009711F00E941C0F08950E94ED
:10179000700E0895CF93DF93EC01EA81FB81E60F91
:1017A000F71F8081DF91CF910895CF93DF93EC01F4
:1017B000CB017D836C8301960E94C70B9B838A8338
:1017C000009721F41D821C821F821E82DF91CF911F
:1017D0000895EF92FF920F931F93DF93CF93CDB7AE
:1017E000DEB7A1970FB6F894DEBF0FBECDBF8C0158
:1017F000CB012BE531E0F801318320837E01089491
:10180000E11CF11CB7010E94790FD7010D90002057
:10181000E9F71197AE19BF09F801B783A683C8018C
:10182000BD010E94D50BF80182819381009719F0C8
:10183000B7010E94720FA1960FB6F894DEBF0FBEDB
:10184000CDBFCF91DF911F910F91FF90EF90089541
:101850005058BB27AA270ED089C17AD130F07FD14A
:1018600020F031F49F3F11F41EF46FC10EF4E095A7
:10187000E7FB3CC1E92F8BD180F3BA1762077307EE
:101880008407950718F071F49EF5BAC10EF4E0953F
:101890000B2EBA2FA02D0B01B90190010C01CA012A
:1018A000A0011124FF27591B99F0593F50F4503ED5
:1018B00068F11A16F040A22F232F342F4427585FC7
:1018C000F3CF469537952795A795F0405395C9F7DF
:1018D0007EF41F16BA0B620B730B840BBAF0915097
:1018E000A1F0FF0FBB1F661F771F881FC2F70EC036
:1018F000BA0F621F731F841F48F487957795679509
:10190000B795F7959E3F08F0B3CF9395880F08F0F1
:101910009927EE0F9795879508950CD027C11FD171
:1019200040F016D130F021F45F3F19F0DFC05111C3
:1019300068C10BC12CD198F39923C9F35523B1F396
:10194000951B550BBB27AA2762177307840738F02E
:101950009F5F5F4F220F331F441FAA1FA9F333D08D
:101960000E2E3AF0E0E830D091505040E695001C41
:10197000CAF729D0FE2F27D0660F771F881FBB1FFD
:10198000261737074807AB07B0E809F0BB0B802DD7
:10199000BF01FF2793585F4F2AF09E3F510568F023
:1019A000A5C02FC15F3FECF3983EDCF38695779599
:1019B0006795B795F7959F5FC9F7880F911D969525
:1019C000879597F90895E1E0660F771F881FBB1F81
:1019D000621773078407BA0720F0621B730B840B2E
:1019E000BA0BEE1F88F7E095089504D06894B11102
:1019F00008C10895D4D088F09F5790F0B92F992747
:101A0000B751A0F0D1F0660F771F881F991F1AF009
:101A1000BA95C9F712C0B13081F0F2D0B1E00895A3
:101A2000EFC0672F782F8827B85F39F0B93FCCF324
:101A3000869577956795B395D9F73EF490958095FF
:101A4000709561957F4F8F4F9F4F0895E89409C01F
:101A500097FB3EF490958095709561957F4F8F4FE1
:101A60009F4F9923A9F0F92F96E9BB279395F695F7
:101A7000879577956795B795F111F8CFFAF4BB0F75
:101A800011F460FF1BC06F5F7F4F8F4F9F4F16C0D9
:101A9000882311F096E911C0772321F09EE8872F63
:101AA000762F05C0662371F096E8862F70E060E01F
:101AB0002AF09A95660F771F881FDAF7880F969598
:101AC000879597F9089585D080F09F3740F491115C
:101AD0000EF097C060E070E080E89FEB089526F478
:101AE0001B16611D711D811D07C021C097F99F67DD
:101AF00080E870E060E00895882371F4772321F096
:101B00009850872B762F07C0662311F499270DC0B4
:101B10009051862B70E060E02AF09A95660F771F4F
:101B2000881FDAF7880F9695879597F908959F3F54
:101B300031F0915020F4879577956795B795880F88
:101B4000911D9695879597F908959FEF80EC0895DC
:101B500000240A941616170618060906089500248C
:101B60000A9412161306140605060895092E039406
:101B7000000C11F4882352F0BB0F40F4BF2B11F47A
:101B800060FF04C06F5F7F4F8F4F9F4F089557FDD9
:101B90009058440F551F59F05F3F71F04795880FDB
:101BA00097FB991F61F09F3F79F087950895121672
:101BB00013061406551FF2CF4695F1DF08C016161E
:101BC00017061806991FF1CF8695710561050894CF
:101BD0000895E5DFA0F0BEE7B91788F4BB279F386A
:101BE00060F41616B11D672F782F8827985FF7CFFE
:101BF000869577956795B11D93959639C8F30895A5
:101C0000E894BB2766277727CB0197F908950BD077
:101C1000ADCF9EDF28F0A3DF18F0952309F066CF43
:101C200094CF1124EECFB3DFA0F3959FD1F3950F9E
:101C300050E0551F629FF001729FBB27F00DB11D50
:101C4000639FAA27F00DB11DAA1F649F6627B00DE0
:101C5000A11D661F829F2227B00DA11D621F739FC9
:101C6000B00DA11D621F839FA00D611D221F749FD7
:101C70003327A00D611D231F849F600D211D822F1E
:101C8000762F6A2F11249F5750408AF0E1F0882365
:101C90004AF0EE0FFF1FBB1F661F771F881F915072
:101CA0005040A9F79E3F510570F020CFAACF5F3F6B
:101CB000ECF3983EDCF3869577956795B795F795A5
:101CC000E7959F5FC1F7FE2B880F911D969587952D
:101CD00097F90895EE0FFF1F0590F491E02D0994F8
:101CE000CF93DF93BC018230910510F462E070E085
:101CF000A0915902B0915A02ED01E0E0F0E040E01D
:101D000050E021C0888199818617970769F48A81FC
:101D10009B81309719F09383828304C090935A0279
:101D200080935902FE0133C06817790738F44115D2
:101D3000510519F08417950708F4AC01FE018A815A
:101D40009B819C01E9012097E9F641155105A1F11C
:101D5000CA01861B970B049708F4BA01E0E0F0E093
:101D600029C08D919C91119784179507F1F4641700
:101D7000750779F4ED018A819B81309719F093837F
:101D8000828304C090935A0280935902FD013296D7
:101D90004FC0CA01861B970BFD01E80FF91F619325
:101DA000719302978D939C9343C0FD01828193812F
:101DB0009C01D9011097A9F6809157029091580281
:101DC000892B41F480910201909103019093580274
:101DD000809357024091040150910501411551052E
:101DE00041F44DB75EB78091000190910101481B0D
:101DF000590B209157023091580224173507B0F43F
:101E0000CA01821B930B8617970780F0AB014E5FC8
:101E10005F4F8417950750F0420F531F509358029D
:101E200040935702F9016193719302C0E0E0F0E042
:101E3000CF01DF91CF910895CF93DF93009709F4FD
:101E40004EC0EC0122971B821A82A0915902B091D8
:101E50005A02109701F140E050E0AC17BD0700F1C5
:101E6000BB83AA83FE0121913191E20FF31FAE17CC
:101E7000BF0771F48D919C911197280F391F2E5F28
:101E80003F4F39832883FD01828193819B838A831D
:101E90004115510569F4D0935A02C09359021FC0ED
:101EA000FD0182819381AD01009711F0DC01D5CF56
:101EB000FA01D383C28321913191E20FF31FCE1730
:101EC000DF0769F488819981280F391F2E5F3F4F02
:101ED000FA01318320838A819B8193838283DF91FE
:101EE000CF910895FB01DC0101900D920020E1F7F4
:101EF0000895FB019F01E8944230C4F04532B4F4E8
:101F00004A3029F497FB1EF4909581959F4F642FDA
:101F100077270E94AA0F805D8A330CF0895D819338
:101F2000CB010097A1F716F45DE251931082C9012D
:101F30000C949A0FDC01FC01672F71917723E1F774
:101F4000329704C07C916D9370836291AE17BF0786
:101F5000C8F30895AA1BBB1B51E107C0AA1FBB1FF2
:101F6000A617B70710F0A61BB70B881F991F5A9525
:101F7000A9F780959095BC01CD010895F894FFCF05
:101F800020005B020000FF320035003B00380023D8
:101F90000062006500310034003A00370022006121
:101FA0000064003000330039003600210020006357
:101FB0000001FF1800190026002700050004000199
:101FC0000000000000000056020000000085043CF4
:101FD00004640441047B04000000006F05EE050169
:0E1FE0000204081020408020100880402000DD
:00000001FF
