:100000000C9448000C947D000C947D000C947D00B1
:100010000C947D000C947D000C947D000C947D006C
:100020000C947D000C942C090C94D5070C94FB08BF
:100030000C9468080C9499080C94A4070C94370845
:100040000C9466050C947D000C94A7020C94ED02B0
:100050000C947D000C947D000C947D000C947D002C
:100060000C94CA080C94F0090C945D090C948E0948
:100070000C94BF090C9406080C9446030C948C0352
:100080000C947D000C947D000C947D005804F404C5
:1000900011241FBECFEFD0E1DEBFCDBF88E483BF08
:1000A00083B7887F846083BF12BE87B7816087BFB4
:1000B000789411E0A0E0B1E0E8EBF4E100E00BBFE0
:1000C00002C007900D92A236B107D9F712E0A2E65E
:1000D000B1E001C01D92AC34B107E1F710E0C0E916
:1000E000D0E004C02297FE010E94490ACC38D10713
:1000F000C9F70E94210A0C945A0A0C9400001F931D
:10010000CF93DF93C0E0D0E0FE01E05DFE4F1081B1
:10011000812F61E00E94AE05812F61E00E94DE0523
:10012000FE01E85CFE4F808160E070E00E94D60630
:100130002296C830D10541F7DF91CF911F910895E4
:10014000FC0110828AE090E0938382830895E0911D
:100150000501E7FD15C0FF27E7FDF095EE0FFF1F36
:10016000EE59FE4F0190F081E02D818160E00E9408
:10017000DE0506C02F5F81919191892B69F00EC039
:10018000209105012F5FE22FFF27E7FDF095215019
:10019000EE0FFF1FEE59FE4F273064F32093050149
:1001A000E0910501FF27E7FDF095EE0FFF1FEE59E7
:1001B000FE4F0190F081E02D309761F48FEF809336
:1001C000050124EF31E08091730190917401281BA7
:1001D000390B12C0818161E00E94DE05E0910501CA
:1001E000FF27E7FDF095EE0FFF1FEE59FE4F019040
:1001F000F081E02D2281338183B5820F83BD809110
:10020000730190917401820F931F909374018093F6
:100210007301845F914020F0109274011092730179
:1002200008950E94790687B78F7787BF85E00E947F
:10023000820689E067EA70E00E94870683B58C50E9
:1002400083BD87B7806887BF1092740110927301D5
:100250008FEF809305010895CF93DF93EC01809198
:100260007201893010F080E03DC06983862F61E023
:100270000E94AE05E881F0E0EE0FFF1FEE59FE4F41
:1002800080819181C817D90761F14091720144239F
:1002900041F4E2E6F1E01192119281E0E237F807D1
:1002A000D1F7E2E6F1E020E030E080819181892B16
:1002B00061F4F901EE0FFF1FEE59FE4FD183C083A9
:1002C00028834F5F4093720106C02F5F3F4F3296E5
:1002D0002830310551F780917201813011F40E946C
:1002E000110181E0DF91CF910895CF93DF93EC016D
:1002F0008A8160E00E94DE058D8160E00E940E062A
:100300008D8160E00E9430068B8161E00E94DE05F5
:100310008C8161E00E94DE050000000010C08C812D
:1003200060E00E94DE0500000000000000008C81FB
:1003300061E00E94DE0500000000000000008D81E9
:100340000E94250687FDEBCF8C8160E00E94DE05D0
:10035000DF91CF910895FF920F931F938C01F62E9A
:100360000E947501F801828161E00E94DE05F801BA
:10037000838160E00E94DE05F801848161E00E94D3
:10038000DE05F801858161E00E940E06F801858195
:100390006F2D0E9430060000000000000000F801F0
:1003A000848160E00E94DE05F801858160E00E94A2
:1003B0000E06F80185816FEF0E9430061F910F91A4
:1003C000FF900895EF92FF920F931F93CF93DF93C7
:1003D0007C01042F6115710551F0EB0110E005C09F
:1003E000C70169910E94AB011F5F1017C8F3DF912D
:1003F000CF911F910F91FF90EF900895DF93CF93CE
:100400000F92CDB7DEB76983BE016F5F7F4F41E0CA
:100410000E94E2010F90CF91DF910895FF920F9318
:100420001F938C01F62E0E947501F801828160E015
:100430000E94DE05F801838160E00E94DE05F8017C
:10044000848161E00E94DE05F801858161E00E94FF
:100450000E06F80185816F2D0E9430060000000015
:1004600000000000F801848160E00E94DE05F801D0
:10047000858160E00E940E06F80185816FEF0E9481
:1004800030061F910F91FF9008950F931F938C01D9
:10049000FC01828160E00E94DE05F801838160E05A
:1004A0000E94DE05F801848160E00E94DE05F8010B
:1004B000828161E00E94AE05F801838161E00E94C3
:1004C000AE05F801848161E00E94AE05F8018581E6
:1004D00060E00E940E06F80185816FEF0E943006F1
:1004E0001F910F9108950F931F938C010E94450255
:1004F000C80168E30E940E02C80161E00E940E027A
:10050000C80166E00E940E02C8016CE00E940E0263
:10051000C80162E00E940E02C80160E80E940E025B
:100520001F910F9108950F93FC0184E491E0918352
:1005300080836283438324830583CF010E947302F7
:100540000F910895CB01642F0E944D0A08951F92C8
:100550000F920FB60F920BB60F9211242F933F9369
:100560008F939F93EF93FF93E091C001F091C101AE
:10057000208180917A0190917B0180970CF5809188
:100580007A0190917B01019690937B0180937A018F
:1005900080917C0190917D01FC01EA58FE4F2287F9
:1005A000019690937D0180937C0120917801309198
:1005B00079018217930724F010927D0110927C013B
:1005C000FF91EF919F918F913F912F910F900BBED3
:1005D0000F900FBE0F901F9018951F920F920FB69D
:1005E0000F920BB60F9211242F933F934F938F933B
:1005F0009F93AF93BF93EF93FF938091A20190914C
:10060000A3011816190634F5A091C001B091C101DB
:100610008091A2019091A30101979093A3018093EF
:10062000A2018091A6019091A701FC01EA58FE4F1A
:1006300042A901969093A7018093A6012091A00161
:100640003091A1018217930724F01092A701109214
:10065000A6014C938091A2019091A301892B31F4C2
:10066000E091BE01F091BF0188E98083FF91EF9195
:10067000BF91AF919F918F914F913F912F910F908B
:100680000BBE0F900FBE0F901F9018951F920F92E8
:100690000FB60F920BB60F9211242F933F938F93A7
:1006A0009F93EF93FF93E0910C02F0910D02208154
:1006B0008091C6019091C70180970CF58091C60189
:1006C0009091C70101969093C7018093C6018091D4
:1006D000C8019091C901FC01EE53FE4F228701969B
:1006E0009093C9018093C8012091C4013091C50144
:1006F0008217930724F01092C9011092C801FF914C
:10070000EF919F918F913F912F910F900BBE0F9082
:100710000FBE0F901F9018951F920F920FB60F9259
:100720000BB60F9211242F933F934F938F939F9368
:10073000AF93BF93EF93FF938091EE019091EF0100
:100740001816190634F5A0910C02B0910D02809193
:10075000EE019091EF0101979093EF018093EE01EC
:100760008091F2019091F301FC01EE53FE4F42A9FA
:1007700001969093F3018093F2012091EC01309166
:10078000ED018217930724F01092F3011092F20109
:100790004C938091EE019091EF01892B31F4E0911F
:1007A0000A02F0910B0288E98083FF91EF91BF91DB
:1007B000AF919F918F914F913F912F910F900BBED1
:1007C0000F900FBE0F901F901895FC01248135816A
:1007D000C9010895DC01FC0184819581892B19F4FC
:1007E0002FEF3FEF18C0FD0184819581019795831C
:1007F000848380859185E80FF91F42850196FD016C
:1008000091878087228133818217930714F01186A4
:100810001086242F30E0C9010895CF93DF93DC01C7
:10082000EC018C819D81892B19F42FEF3FEF08C0DB
:10083000ED01E885F985EA0FFB1F8285282F30E05E
:10084000C901DF91CF910895FC0115821482848142
:10085000958191878087978386830895DC01FD01C8
:1008600084A595A54097DCF7F894FD0184A595A58E
:100870004097ACF484A595A5019695A784A786A575
:1008800097A5E80FF91F62AB0196FD0197A786A710
:1008900022A533A58217930714F017A616A6A85B06
:1008A000BF4FED91FC9180818062808378940895A0
:1008B0006AE471E0709377016093760140E250E062
:1008C000509379014093780110927B0110927A0144
:1008D00080917A0190917B0190937F0180937E01BA
:1008E00090937D0180937C0120E130E03093A10161
:1008F0002093A0011092A3011092A2018091A20165
:100900009091A3019093A7018093A6019093A501D4
:100910008093A40180E990E09093B9018093B8019D
:1009200089E290E09093BB018093BA018BE290E062
:100930009093BD018093BC018AE290E09093BF0147
:100940008093BE018CE290E09093C1018093C0013E
:100950007093C3016093C2015093C5014093C401D9
:100960001092C7011092C6018091C6019091C701F3
:100970009093CB018093CA019093C9018093C801E1
:100980003093ED012093EC011092EF011092EE01F3
:100990008091EE019091EF019093F3018093F20129
:1009A0009093F1018093F00188E990E09093050223
:1009B0008093040289E990E09093070280930602F5
:1009C0008BE990E090930902809308028AE990E015
:1009D00090930B0280930A028CE990E090930D02B1
:1009E00080930C02089508950F938EE092E06AE1DF
:1009F0004BE12CE102E00E94930284E192E00E942C
:100A00007F0086E192E00E94A0008AE192E00E94CD
:100A1000A0008EE192E00E94A0000F9108950F9334
:100A20001F9380E061E00E940E0681E060E00E947A
:100A30000E0686E192E063E270E00E942C018AE1FA
:100A400092E06FE170E00E942C018EE192E062E2A0
:100A500070E00E942C0105E711E0C80160E070E041
:100A60004CE30E94A202C80161E070E04CE30E94E6
:100A7000A202C80162E070E046E00E94A202C80142
:100A800063E070E040E00E94A202C80164E070E010
:100A90004CE30E94A202C80165E070E04CE30E94B2
:100AA000A202C80166E070E04CE80E94A202C80100
:100AB00067E070E046E40E94A2028EE092E060E00F
:100AC00071E00E942F0A1F910F9108951F920F92BB
:100AD0000FB60F9211242F933F938F939F93AF9351
:100AE000BF938091260290912702A0912802B09195
:100AF000290230912A020196A11DB11D232F2D5FDD
:100B00002D3720F02D570196A11DB11D20932A02EB
:100B10008093260290932702A0932802B093290283
:100B20008091220290912302A0912402B09125028B
:100B30000196A11DB11D8093220290932302A093E0
:100B40002402B0932502BF91AF919F918F913F9165
:100B50002F910F900FBE0F901F901895E82FE695DC
:100B6000E695E695A82FB0E0613099F42FB7F89498
:100B7000F0E0EE0FFF1FEC5EFE4F0190F081E02DE4
:100B80009081A770B070AC5ABE4F8C91982B908317
:100B900013C02FB7F894F0E0EE0FFF1FEC5EFE4F8E
:100BA0000190F081E02D9081A770B070AC5ABE4FDB
:100BB0008C918095892380832FBF0895E82FE69537
:100BC000E695E695A82FB0E0613099F42FB7F89438
:100BD000F0E0EE0FFF1FEA5FFE4F0190F081E02D85
:100BE0009081A770B070AC5ABE4F8C91982B9083B7
:100BF00013C02FB7F894F0E0EE0FFF1FEA5FFE4F2F
:100C00000190F081E02D9081A770B070AC5ABE4F7A
:100C10008C918095892380832FBF0895E82FF0E081
:100C2000613051F4EE0FFF1FEC5EFE4F0190F0813A
:100C3000E02D8FEF80830895EE0FFF1FEC5EFE4FD7
:100C40000190F081E02D10820895E82FF0E0EE0F82
:100C5000FF1FEE5DFE4F0190F081E02D8081089531
:100C6000E82FF0E0EE0FFF1FEA5FFE4F0190F081EA
:100C7000E02D60830895853031F48FB580688FBD95
:100C80008FB58F7B0FC0843031F48FB580628FBDFC
:100C90008FB58F7E07C0833039F48FB588608FBDE4
:100CA0008FB58B7F8FBD0895823049F480918B0082
:100CB000806880938B0080918B008F7B0AC081308D
:100CC00059F480918B00806280938B0080918B001F
:100CD0008F7E80938B000895882351F480918B0040
:100CE000886080938B0080918B008B7F80938B003A
:100CF000089585B5887F826085BD14BC87B7806400
:100D000087BF089595B5987F982B95BD089580313C
:100D100040F4E82FF0E0EE0FFF1FE45DFD4F71831C
:100D200060830895893031F48FB582608FBD8FB5AF
:100D30008E7F0AC08A3019F48FB5826002C08FB5E9
:100D40008D7F8FBD8FB581608FBD1BBC1ABC19BC58
:100D500018BC10927900109278000895893049F4F7
:100D600080918B00826080938B0080918B008E7FBE
:100D70000EC08A3021F480918B00826003C0809184
:100D80008B008D7F80938B0080918B00816080939E
:100D90008B001092870010928600109285001092AE
:100DA000840010928300109282000895FF920F93A6
:100DB0001F93CF93DF93182FF62E072F8D31B0F0AE
:100DC0008F3111F413E014C08E3111F414E010C00F
:100DD0008D3109F4B1C0853211F410E044C0843281
:100DE00011F411E040C0833219F4A4C08330D8F16B
:100DF00080912B0286FD12C08EB5887F83608EBDE8
:100E00001DBC1CBC87B7846087BF78948AE00E94B1
:100E1000920680912B02806480932B0280912B029A
:100E2000C12FD0E090E0012E02C0959587950A94DD
:100E3000E2F780FD59C087B3FE01E45AFE4F90816E
:100E4000892B87BB812F0E943B0620912B0281E0DA
:100E500090E0012E02C0880F991F0A94E2F7282B18
:100E600020932B0241C080912B0287FD18C08091F6
:100E70008A00887F836080938A0010928900109294
:100E8000880080917D00846080937D0078948AE062
:100E90000E94AE0680912B02806880932B02809185
:100EA0002B02C12FD0E090E0012E02C095958795CE
:100EB0000A94E2F780FD22C082B1FE01E45AFE4F9F
:100EC0009081892B82B9812F0E943B0620912B02B1
:100ED00081E090E0012E02C0880F991F0A94E2F78A
:100EE000282B20932B020AC0153019F40BBDFABC35
:100EF00025C0143019F409BDF8BC20C0133029F402
:100F000000937900F092780019C0123029F4009310
:100F10008700F092860012C0113029F400938500FA
:100F2000F09284000BC0112349F400938300F092E7
:100F3000820004C012E097CF15E05ACFDF91CF9125
:100F40001F910F91FF9008951F920F920FB60F926D
:100F50000BB60F9211242F933F934F935F936F9390
:100F60007F938F939F93AF93BF93EF93FF93809162
:100F7000320290913302892B29F0E0913202F091F4
:100F800033020995FF91EF91BF91AF919F918F919E
:100F90007F916F915F914F913F912F910F900BBE79
:100FA0000F900FBE0F901F9018951F920F920FB6C3
:100FB0000F920BB60F9211242F933F934F935F9391
:100FC0006F937F938F939F93AF93BF93EF93FF9311
:100FD00080913C0290913D02892B29F0E0913C02E6
:100FE000F0913D020995FF91EF91BF91AF919F91D3
:100FF0008F917F916F915F914F913F912F910F90C2
:101000000BBE0F900FBE0F901F9018951F920F925E
:101010000FB60F920BB60F9211242F933F934F935D
:101020005F936F937F938F939F93AF93BF93EF9350
:10103000FF938091420290914302892B29F0E09125
:101040004202F09143020995FF91EF91BF91AF9158
:101050009F918F917F916F915F914F913F912F91D0
:101060000F900BBE0F900FBE0F901F9018951F9200
:101070000F920FB60F920BB60F9211242F933F933E
:101080004F935F936F937F938F939F93AF93BF9390
:10109000EF93FF9380912E0290912F02892B29F0DC
:1010A000E0912E02F0912F020995FF91EF91BF91EF
:1010B000AF919F918F917F916F915F914F913F91F0
:1010C0002F910F900BBE0F900FBE0F901F90189591
:1010D0001F920F920FB60F920BB60F9211242F93FF
:1010E0003F934F935F936F937F938F939F93AF93B0
:1010F000BF93EF93FF938091340290913502892B37
:1011000029F0E0913402F09135020995FF91EF91B9
:10111000BF91AF919F918F917F916F915F914F910F
:101120003F912F910F900BBE0F900FBE0F901F900D
:1011300018951F920F920FB60F920BB60F921124B3
:101140002F933F934F935F936F937F938F939F93CF
:10115000AF93BF93EF93FF93809136029091370244
:10116000892B29F0E0913602F09137020995FF9121
:10117000EF91BF91AF919F918F917F916F915F910F
:101180004F913F912F910F900BBE0F900FBE0F907C
:101190001F9018951F920F920FB60F920BB60F92D9
:1011A00011242F933F934F935F936F937F938F936C
:1011B0009F93AF93BF93EF93FF93809138029091E9
:1011C0003902892B29F0E0913802F0913902099512
:1011D000FF91EF91BF91AF919F918F917F916F910F
:1011E0005F914F913F912F910F900BBE0F900FBECB
:1011F0000F901F9018951F920F920FB60F920BB67B
:101200000F9211242F933F934F935F936F937F938C
:101210008F939F93AF93BF93EF93FF9380913A0285
:1012200090913B02892B29F0E0913A02F0913B0228
:101230000995FF91EF91BF91AF919F918F917F9110
:101240006F915F914F913F912F910F900BBE0F9037
:101250000FBE0F901F9018951F920F920FB60F920E
:101260000BB60F9211242F933F934F935F936F937D
:101270007F938F939F93AF93BF93EF93FF9380914F
:101280003E0290913F02892B29F0E0913E02F091BD
:101290003F020995FF91EF91BF91AF919F918F917F
:1012A0007F916F915F914F913F912F910F900BBE66
:1012B0000F900FBE0F901F9018951F920F920FB6B0
:1012C0000F920BB60F9211242F933F934F935F937E
:1012D0006F937F938F939F93AF93BF93EF93FF93FE
:1012E0008091440290914502892B29F0E0914402BB
:1012F000F09145020995FF91EF91BF91AF919F91B8
:101300008F917F916F915F914F913F912F910F90AE
:101310000BBE0F900FBE0F901F9018951F920F924B
:101320000FB60F920BB60F9211242F933F934F934A
:101330005F936F937F938F939F93AF93BF93EF933D
:10134000FF938091460290914702892B29F0E0910A
:101350004602F09147020995FF91EF91BF91AF913D
:101360009F918F917F916F915F914F913F912F91BD
:101370000F900BBE0F900FBE0F901F9018951F92ED
:101380000F920FB60F920BB60F9211242F933F932B
:101390004F935F936F937F938F939F93AF93BF937D
:1013A000EF93FF938091480290914902892B29F095
:1013B000E0914802F09149020995FF91EF91BF91A8
:1013C000AF919F918F917F916F915F914F913F91DD
:1013D0002F910F900BBE0F900FBE0F901F9018957E
:1013E0001F920F920FB60F920BB60F9211242F93EC
:1013F0003F934F935F936F937F938F939F93AF939D
:10140000BF93EF93FF9380914A0290914B02892BF7
:1014100029F0E0914A02F0914B020995FF91EF917A
:10142000BF91AF919F918F917F916F915F914F91FC
:101430003F912F910F900BBE0F900FBE0F901F90FA
:10144000189583E061E00E940E0684E061E00E944E
:101450000E0678940E940F050E94F304FDCF0F93AF
:101460001F93CF93DF938C01EB0109C02196D80124
:10147000ED91FC910190F081E02DC8010995688102
:101480006623A1F7DF91CF911F910F910895EE0F81
:10149000FF1F0590F491E02D0994262FE199FECFCE
:1014A0009FBB8EBB2DBB0FB6F894E29AE19A0FBE9C
:0814B00001960895F894FFCFA6
:1014B800446F6E6500FF320035003B0038002300A2
:1014C80062006500310034003A00370022006100F4
:1014D800640030003300390036002100200063002A
:1014E800180019002600270005000400010000006C
:1014F80000000000FE01000000002E04E5030D04BA
:10150800EA03240401020408102040802010088007
:02151800402071
:00000001FF
