:100000000C9448000C947D000C947D000C947D00B1
:100010000C947D000C947D000C947D000C947D006C
:100020000C947D000C94CE1F0C94771E0C949D1F95
:100030000C940A1F0C943B1F0C94461E0C94D91E62
:100040000C943F1B0C947D000C941A030C946003D9
:100050000C947D000C947D000C947D000C947D002C
:100060000C946C1F0C9492200C94FF1F0C94302065
:100070000C9461200C94A81E0C94B9030C94FF03FB
:100080000C947D000C947D000C947D00CB046605DF
:1000900011241FBECFEFD0E1DEBFCDBF88E483BF08
:1000A00083B7887F846083BF12BE87B7816087BFB4
:1000B000789417E0A0E0B1E0E8E6F9E400E00BBFD7
:1000C00002C007900D92A83FB107D9F719E0A8EF39
:1000D000B7E001C01D92A830B107E1F710E0C0E918
:1000E000D0E004C02297FE010E949924CC38D107A9
:1000F000C9F70E94C3200C94B2240C9400000F9303
:100100001F93CF93DF93EB018A01CC0FDD1F57FDC7
:100110000CC0FE01EA53F84F808161E00E94581C38
:10012000C253D84F8881B8010EC0FE01EA53F84F80
:10013000808160E00E94581CC253D84F6627772701
:10014000601B710B88810E94781DDF91CF911F91F8
:100150000F9108951F93CF93DF93C0E0D0E0FE018D
:10016000EA53F84F1081812F61E00E940F1C812F0C
:1001700061E00E94581CFE01E253F84F808160E06C
:1001800070E00E94781D2296C830D10541F7DF91BA
:10019000CF911F910895FC0110828AE090E0938333
:1001A00082830895CF93DF93EC01882777FD8095B4
:1001B000982F0E94672320E030E044E353E40E943C
:1001C000CC2220E030E040EF51E40E94F32320E015
:1001D00030E040E251E40E9468220E943923CB01C2
:1001E0006A30710510F48AE090E08932910510F0D0
:1001F00088E290E09B838A83DF91CF910895E0911C
:100200009907E7FD15C0FF27E7FDF095EE0FFF1FEB
:10021000E850F84F0190F081E02D818160E00E946C
:10022000581C06C02F5F81919191892B69F00EC0F7
:10023000209199072F5FE22FFF27E7FDF0952150CE
:10024000EE0FFF1FE850F84F273064F32093990713
:10025000E0919907FF27E7FDF095EE0FFF1FE850AB
:10026000F84F0190F081E02D309761F48FEF80938B
:10027000990724EF31E08091090890910A08281B22
:10028000390B12C0818161E00E94581CE0919907EE
:10029000FF27E7FDF095EE0FFF1FE850F84F0190A4
:1002A000F081E02D2281338183B5820F83BD80915F
:1002B000090890910A08820F931F90930A0880936F
:1002C0000908845F914020F010920A0810920908F2
:1002D00008950E941B1D87B78F7787BF85E00E9416
:1002E000241D89E06FEF70E00E94291D83B58C50BA
:1002F00083BD87B7806887BF10920A0810920908EB
:100300008FEF809399070895CF93DF93EC0180914D
:100310000808893010F080E03DC06983862F61E0D5
:100320000E940F1CE881F0E0EE0FFF1FE850F84F2D
:1003300080819181C817D90761F140910808442351
:1003400041F4E8EFF7E01192119288E0E830F80705
:10035000D1F7E8EFF7E020E030E080819181892B50
:1003600061F4F901EE0FFF1FE850F84FD183C0830D
:1003700028834F5F4093080806C02F5F3F4F329697
:100380002830310551F780910808813011F40E941E
:10039000690181E0DF91CF910895CF93DF93EC0164
:1003A0008A8160E00E94581C8D8160E00E94881C58
:1003B0008D8160E00E94AA1C8B8161E00E94581C24
:1003C0008C8161E00E94581C0000000010C08C81EC
:1003D00060E00E94581C00000000000000008C81BA
:1003E00061E00E94581C00000000000000008D81A8
:1003F0000E949F1C87FDEBCF8C8160E00E94581CFF
:10040000DF91CF910895FF920F931F938C01F62EE9
:100410000E94CD01F801828161E00E94581CF80120
:10042000838160E00E94581CF801848161E00E9491
:10043000581CF801858161E00E94881CF8018581C3
:100440006F2D0E94AA1C0000000000000000F801AF
:10045000848160E00E94581CF801858160E00E9460
:10046000881CF80185816FEF0E94AA1C1F910F91D3
:10047000FF900895EF92FF920F931F93CF93DF9316
:100480007C01042F6115710551F0EB0110E005C0EE
:10049000C70169910E9403021F5F1017C8F3DF9123
:1004A000CF911F910F91FF90EF900895DF93CF931D
:1004B0000F92CDB7DEB76983BE016F5F7F4F41E01A
:1004C0000E943A020F90CF91DF910895FF920F930F
:1004D0001F938C01F62E0E94CD01F801828160E00D
:1004E0000E94581CF801838160E00E94581CF801AA
:1004F000848161E00E94581CF801858161E00E94BE
:10050000881CF80185816F2D0E94AA1C0000000044
:1005100000000000F801848160E00E94581CF8018E
:10052000858160E00E94881CF80185816FEF0E9440
:10053000AA1C1F910F91FF900895423031F0433073
:1005400031F0413029F4605C03C06C5E01C06C5A2C
:1005500060680E946602089562E00E946602089543
:1005600061E00E94660208950F931F938C01FC01C5
:10057000828160E00E94581CF801838160E00E9443
:10058000581CF801848160E00E94581CF8018281A7
:1005900061E00E940F1CF801838161E00E940F1C42
:1005A000F801848161E00E940F1CF801858160E000
:1005B0000E94881CF80185816FEF0E94AA1C1F9180
:1005C0000F9108950F931F938C010E94B402C801EC
:1005D00068E30E946602C80161E00E946602C801E9
:1005E00066E00E946602C8016CE00E946602C801D3
:1005F00062E00E946602C80160E80E9466021F91E4
:100600000F9108950F93FC018AED97E09183808309
:100610006283438324830583CF010E94E2020F910A
:100620000895CB01642F0E94A5240895CB010E9458
:100630009D2408951F920F920FB60F920BB60F9242
:1006400011242F933F938F939F93EF93FF93E09108
:100650005608F09157082081809110089091110858
:1006600080970CF580911008909111080196909355
:100670001108809310088091120890911308FC01D2
:10068000E45FF74F22870196909313088093120836
:1006900020910E0830910F088217930724F01092D2
:1006A000130810921208FF91EF919F918F913F9143
:1006B0002F910F900BBE0F900FBE0F901F901895AB
:1006C0001F920F920FB60F920BB60F9211242F9319
:1006D0003F934F938F939F93AF93BF93EF93FF936A
:1006E00080913808909139081816190634F5A091B0
:1006F0005608B091570880913808909139080197B1
:10070000909339088093380880913C0890913D0877
:10071000FC01E45FF74F42A9019690933D08809356
:100720003C0820913608309137088217930724F04F
:1007300010923D0810923C084C938091380890919B
:100740003908892B31F4E0915408F091550888E973
:100750008083FF91EF91BF91AF919F918F914F91C6
:100760003F912F910F900BBE0F900FBE0F901F90D7
:1007700018951F920F920FB60F920BB60F9211247D
:100780002F933F938F939F93EF93FF93E091A20852
:10079000F091A308208180915C0890915D0880977A
:1007A0000CF580915C0890915D08019690935D082E
:1007B00080935C0880915E0890915F08FC01E85A84
:1007C000F74F2287019690935F0880935E082091EF
:1007D0005A0830915B088217930724F010925F0843
:1007E00010925E08FF91EF919F918F913F912F9111
:1007F0000F900BBE0F900FBE0F901F9018951F9279
:100800000F920FB60F920BB60F9211242F933F93B6
:100810004F938F939F93AF93BF93EF93FF938091E9
:100820008408909185081816190634F5A091A2083D
:10083000B091A308809184089091850801979093C6
:100840008508809384088091880890918908FC012C
:10085000E85AF74F42A90196909389088093880837
:1008600020918208309183088217930724F0109218
:100870008908109288084C9380918408909185088B
:10088000892B31F4E091A008F091A10888E98083D8
:10089000FF91EF91BF91AF919F918F914F913F91B8
:1008A0002F910F900BBE0F900FBE0F901F901895B9
:1008B000FC0124813581C9010895DC01FC0184819A
:1008C0009581892B19F42FEF3FEF18C0FD0184812A
:1008D000958101979583848380859185E80FF91F21
:1008E00042850196FD01918780872281338182179D
:1008F000930714F011861086242F30E0C901089563
:10090000CF93DF93DC01EC018C819D81892B19F45D
:100910002FEF3FEF08C0ED01E885F985EA0FFB1FD7
:100920008285282F30E0C901DF91CF910895FC0125
:10093000158214828481958191878087978386832D
:100940000895DC01FD0184A595A54097DCF7F89496
:10095000FD0184A595A54097ACF484A595A50196C5
:1009600095A784A786A597A5E80FF91F62AB019606
:10097000FD0197A786A722A533A58217930714F038
:1009800017A616A6A85BBF4FED91FC9180818062EF
:1009900080837894089560EE77E070930D086093FB
:1009A0000C0840E250E050930F0840930E0810925C
:1009B00011081092100880911008909111089093DE
:1009C000150880931408909313088093120820E16F
:1009D00030E030933708209336081092390810928F
:1009E0003808809138089091390890933D08809399
:1009F0003C0890933B0880933A0880E990E09093FC
:100A00004F0880934E0889E290E0909351088093BC
:100A100050088BE290E090935308809352088AE24A
:100A200090E090935508809354088CE290E0909366
:100A3000570880935608709359086093580850934C
:100A40005B0840935A0810925D0810925C088091F0
:100A50005C0890915D089093610880936008909382
:100A60005F0880935E083093830820938208109279
:100A7000850810928408809184089091850890934D
:100A8000890880938808909387088093860888E96E
:100A900090E090939B0880939A0889E990E0909366
:100AA0009D0880939C088BE990E090939F08809329
:100AB0009E088AE990E09093A1088093A0088CE9B1
:100AC00090E09093A3088093A2080895FF920F935B
:100AD0001F9384EA98E06AE14BE12CE102E00E9476
:100AE00002038AEA98E00E94AA008CEA98E00E9439
:100AF000CB0080EB98E00E94CB0084EB98E00E9452
:100B0000CB000BE018E0C80160E070E00E94160323
:100B100095E0F92E8F9DC00111249093B908809320
:100B2000B808C80161E070E00E9416038F9DC00103
:100B300011249093BB088093BA08C80162E070E06A
:100B40000E9416038F9DC00111249093BD088093CD
:100B5000BC08C80163E070E00E9416038F9DC001CD
:100B600011249093BF088093BE08C80164E070E030
:100B70000E9416038F9DC00111249093C108809399
:100B8000C008C80165E070E00E9416038F9DC00197
:100B900011249093C3088093C208C80166E070E0F6
:100BA0000E9416038F9DC00111249093C508809365
:100BB000C408C80167E070E00E9416038F9DC00161
:100BC00011249093C7088093C608C80168E070E0BC
:100BD0000E9416038F9DC00111249093C908809331
:100BE000C808C80169E070E00E9416038F9DC0012B
:100BF00011249093CB088093CA08C8016AE070E082
:100C00000E9416038093CC081092CD08C8016BE0B7
:100C100070E00E9416038093CE081092CF08C8019E
:100C20006CE070E00E9416038F9DC0011124909328
:100C3000D1088093D008C8016DE070E00E941603CF
:100C40008F9DC00111249093D3088093D208C801CE
:100C50006EE070E00E9416038093D4081092D508CD
:100C6000C8016FE070E00E9416038093D6081092CE
:100C7000D708C80160E170E00E9416038093D8088D
:100C80001092D908C80161E170E00E9416038093B8
:100C9000DA081092DB081F910F91FF900895EF92F0
:100CA000FF920F931F93CF93DF937C01EB018A0197
:100CB00027C0EC16FD0614F4219704C0CE15DF05FD
:100CC0000CF421960130110549F00230110549F06C
:100CD0000115110559F48CEA98E005C080EB98E005
:100CE00002C084EB98E0BE010E94D2006091CE0861
:100CF0007091CF08882777FD8095982F0E94871BD9
:100D0000CE15DF05B1F6DF91CF911F910F91FF90C6
:100D1000EF9008950F931F9304EA18E0C80160E074
:100D200041E00E949D02C80160E071E00E94D12074
:100D3000C80160E041E00E949D021F910F9108955B
:100D40000F931F9304EA18E0C8010E94B002C80183
:100D50000E94AC021F910F9108950E94A00684EAA0
:100D600098E061E171E00E94D1206CED75E080E0D7
:100D700090E00E94871B08950F931F930E94A00686
:100D800004EA18E0C8016CE171E00E94D120C801BA
:100D900060E041E00E949D02C8016FE271E00E94A4
:100DA000D12068EE73E080E090E00E94871BC801CC
:100DB00060E041E00E949D02C80164E371E00E948E
:100DC000D12068EE73E080E090E00E94871BC801AC
:100DD00060E041E00E949D02C80169E371E00E9469
:100DE000D12068EE73E080E090E00E94871B0E94B3
:100DF000A0061F910F910895CF93DF93EC010E94FD
:100E0000A0062097E1F01C161D066CF08FEFCD3F79
:100E1000D807B9F18FEFCF3FD80711F1CB5FDF4F84
:100E200009F085C03FC0C330D10509F45DC0C530AD
:100E3000D10509F46AC0219709F079C044C084EA59
:100E400098E06EE371E00E94D12084EA98E060E0CF
:100E500041E00E949D0284EA98E06EE371E065C083
:100E600084EA98E06FE471E00E94D12084EA98E07F
:100E700060E041E00E949D0284EA98E063E571E051
:100E800054C084EA98E064E671E00E94D12084EACC
:100E900098E060E041E00E949D0284EA98E064E608
:100EA00071E043C084EA98E065E771E00E94D120D8
:100EB00084EA98E060E041E00E949D0284EA98E0C4
:100EC00065E771E032C084EA98E066E871E00E946C
:100ED000D12084EA98E060E041E00E949D0284EA2B
:100EE00098E066E871E021C084EA98E067E971E083
:100EF0000E94D12084EA98E060E041E00E949D02D7
:100F000084EA98E067E971E010C084EA98E068EA52
:100F100071E00E94D12084EA98E060E041E00E9404
:100F20009D0284EA98E068EA71E00E94D120DF9196
:100F3000CF910895AF92BF92CF92DF92EF92FF923E
:100F40000F931F936C015B010E94A00604EA18E056
:100F500029EBE22E21E0F22EC801B7010E94D12038
:100F6000C80160E041E00E949D02C80164EC71E0AC
:100F70000E94D12084EB90E0B60140E050E00E9456
:100F80004F0664EF71E080E090E00E94871B0E94B2
:100F9000A006C801B7010E94D120C80160E041E06D
:100FA0000E949D02C8016FEC71E00E94D12080E098
:100FB00090E064EB70E040E050E00E944F0664EF88
:100FC00071E080E090E00E94871B0E94A006C801AB
:100FD00069ED71E00E94D120C80160E041E00E940B
:100FE0009D02C80162EE71E00E94D1208DE190E087
:100FF000B50141E050E00E944F0664EF71E080E0EF
:1010000090E00E94871B0E94A006C8016FEE71E06D
:101010000E94D120C80160E041E00E949D02C80109
:101020006EEF71E00E94D1208091D6089091D70890
:101030006DE170E041E050E00E944F068091D408DD
:101040009091D50860E070E040E050E00E944F06CB
:1010500064EF71E080E090E00E94871B1F910F9188
:10106000FF90EF90DF90CF90BF90AF90089581E315
:101070000E943F1C882311F080E0089564EF71E026
:1010800080E090E00E94871B81E008950E94A00606
:1010900016C084EA98E00E94AC0284EA98E06AE014
:1010A00072E00E94D12084EA98E060E041E00E9472
:1010B0009D0284EA98E065E172E00E94D1200E94DE
:1010C0003708882331F308950E94A00616C084EAE9
:1010D00098E00E94AC0284EA98E064E272E00E9428
:1010E000D12084EA98E060E041E00E949D0284EA19
:1010F00098E065E172E00E94D1200E9437088823C1
:1011000031F3089582E30E943F1C882311F080E0B0
:10111000089564EF71E080E090E00E94871B81E019
:10112000089589E00E943F1C811181E0089520C04C
:101130000E94A00684EA98E062E372E00E94D12057
:101140000E949108882371F00E94A00684EA98E02A
:101150006FE372E00E94D12068EE73E080E090E0DF
:101160000E94871B62E370E080E090E00E94871B92
:101170000E9437088823E1F208950F931F93CF93BD
:10118000DF930E94BC066091D4087091D5088CEA68
:1011900098E00E94D2006091D6087091D70880EB49
:1011A00098E00E94D2006CED75E080E090E00E9433
:1011B000871B0091D4081091D508C091D608D09112
:1011C000D7081BC00E94A00684EA98E060E572E0A0
:1011D0000E94D1200E949108882329F408C0C801E8
:1011E000BE010E949A070E9437088823C1F362E378
:1011F00070E080E090E00E94871B0E9437088823FF
:1012000009F3DF91CF911F910F910895EF92FF9213
:101210000F931F93CF93DF93EC0187E00E94B51CDF
:10122000AA2797FDA095BA2FBC01CD010E94672384
:101230002AE939E949E95FE30E94F3237B018C0144
:10124000BE01882777FD8095982F0E9467239B0118
:10125000AC01C801B7010E94F32320E030E040E870
:101260005AE30E94F3230E9434236C177D071CF07D
:10127000BE0161507040CB01DF91CF911F910F9162
:10128000FF90EF900895EF92FF920F931F93CF93EB
:10129000DF93F82EE92EEB0160C084EA98E060E06D
:1012A00041E00E949D0284EA98E060E071E00E94C3
:1012B000D12084EA98E060E041E00E949D02CE01E6
:1012C0000E940609182F092F84EA98E0612F702FD9
:1012D0004AE050E00E94BD2184EA98E06BE572E0AC
:1012E0000E94D12084EA98E06F2D7E2D4AE050E0E4
:1012F0000E94BD210E948208882349F184EA98E077
:1013000060E041E00E949D0284EA98E060E071E0C4
:101310000E94D12084EA98E060E041E00E949D02B2
:1013200084EA98E062E672E00E94D12084EA98E0C4
:10133000612F702F4AE050E00E94BD216CED75E0F6
:1013400080E090E00E94871B612F702F0DC062E348
:1013500070E080E090E00E94871B0E94370888239D
:1013600009F49BCF6F2D7E2DCB01DF91CF911F9183
:101370000F91FF90EF9008958F929F92AF92BF923E
:10138000CF92DF92EF92FF920F931F93982E892EA8
:101390005B01CC24B7FCC094DC2C5FC00E948A06A1
:1013A000C601B5010E94672320E030E040E250E42E
:1013B0000E94CC220E943423DC01CB018C010E94CC
:1013C0000609880F991F801B910BAA2797FDA095EE
:1013D000BA2FBC01CD010E94672320E030E040E23B
:1013E00050E40E94F3230E9434237B018C0184EAA1
:1013F00098E0B7014AE050E00E94BD2184EA98E0FD
:101400006BE572E00E94D12084EA98E0692D782D86
:101410004AE050E00E94BD210E9482088823B9F072
:101420000E948A0684EA98E062E672E00E94D12077
:1014300084EA98E0B7014AE050E00E94BD216CEDDB
:1014400075E080E090E00E94871BB7010DC062E369
:1014500070E080E090E00E94871B0E94370888239C
:1014600009F49CCF692D782DCB011F910F91FF902E
:10147000EF90DF90CF90BF90AF909F908F900895A6
:10148000CF92DF92EF92FF920F931F93CF93DF9350
:10149000D82EC92E7B010027F7FC0095102F4FC0D6
:1014A0000E948A06C801B7010E94672320E030E04D
:1014B00040EA50E40E94CC220E943423DC01CB019C
:1014C0000E940609EC01CC0FDD1FCC0FDD1FC80FF9
:1014D000D91F84EA98E0BE014AE050E00E94BD2195
:1014E00084EA98E06BE572E00E94D12084EA98E0FB
:1014F0006D2D7C2D4AE050E00E94BD210E948208A3
:101500008823B9F00E948A0684EA98E062E672E0D5
:101510000E94D12084EA98E0BE014AE050E00E9497
:10152000BD216CED75E080E090E00E94871BBE015C
:101530000DC062E370E080E090E00E94871B0E9493
:101540003708882309F4ACCF6D2D7C2DCB01DF91BA
:10155000CF911F910F91FF90EF90DF90CF90089562
:101560000F931F9382E090E00E9406098C0184EAA9
:1015700098E060E041E00E949D020130110561F4B5
:1015800084EA98E068E672E00E94D1200E94820816
:10159000882349F081E007C084EA98E06CE672E0B5
:1015A0000E94D12080E01F910F910895CF92DF9289
:1015B000EF92FF920F931F93CF93DF938C010E94C2
:1015C000BC0684EA98E06FE672E00E94D12084EACB
:1015D00098E0B8014AE050E00E94BD2184EA98E01A
:1015E00065E772E00E94D1206091D0087091D10827
:1015F00084EA98E04AE050E00E94BD2101301105E4
:1016000069F00230110589F001151105E1F46091CE
:10161000D0087091D1088CEA98E00DC06091D00894
:101620007091D10880EB98E006C06091D00870916D
:10163000D10884EB98E00E94D2006CED75E080E068
:1016400090E00E94871BC091D008D091D1080E94E1
:10165000A00684EA98E06DE772E00E94D12084EA57
:1016600098E0B8014AE050E00E94BD2184EA98E089
:1016700064E872E00E94D12068C00E948A0685EB6F
:1016800090E00E9406096C0184EA98E067E872E045
:101690000E94D12084EA98E0BE014AE050E00E9416
:1016A000BD2184EA98E06CE872E00E94D12084EACF
:1016B00098E0B6014AE050E00E94BD21EE24FF24EC
:1016C0002AC0CC16DD0614F4219704C0CC15DD0524
:1016D0000CF421960130110549F00230110549F052
:1016E0000115110559F48CEA98E005C080EB98E0EB
:1016F00002C084EB98E0BE010E94D2006091CE0847
:101700007091CF08882777FD8095982F0E94871BBE
:101710000894E11CF11C6091CE087091CF086F5FB6
:101720007F4F882777FD8095982F0E9467239B0124
:10173000AC0160E070E088E492E40E94CC220E9458
:101740003423E616F7060CF4BCCF0E943708882332
:1017500009F493CFDF91CF911F910F91FF90EF90FC
:10176000DF90CF900895EF92FF920F931F93CF9346
:10177000DF93EC0186E00E94B51CAA2797FDA09597
:10178000BA2FBC01CD010E9467232AE939E949E952
:101790005FE30E94F3237B018C01BE01882777FD64
:1017A0008095982F0E9467239B01AC01C801B70167
:1017B0000E94F32320E030E040E85AE30E94F32344
:1017C0000E9434236C177D071CF0BE0161507040ED
:1017D000CB01DF91CF911F910F91FF90EF90089572
:1017E00030C00E94A00682E090E00E94B30B90936C
:1017F000DD088093DC08009719F00197E1F40DC033
:1018000084EA98E063E972E00E94D1200E94B00A65
:10181000882389F080E090E00CC084EA98E061EAD7
:1018200072E00E94D1200E94B00A882321F081E05A
:1018300090E00E94D60A62E370E080E090E00E94AF
:10184000871B0E943708882361F208952CC00E94EC
:10185000A00682E090E00E94B30B9093DD08809395
:10186000DC08009719F00197C1F411C084EA98E0F0
:1018700069EA72E00E94D12084EA98E060E041E0E9
:101880000E949D0284EA98E069EB72E004C084EA59
:1018900098E065EC72E00E94D12062E370E080E0A5
:1018A00090E00E94871B0E943708882381F20895E8
:1018B00038C00E94A00682E090E00E94B30B909393
:1018C000DD088093DC08009719F0019721F511C01D
:1018D00084EA98E064ED72E00E94D12084EA98E006
:1018E00060E041E00E949D0284EA98E063EE72E0CD
:1018F00010C084EA98E060EF72E00E94D12084EA90
:1019000098E060E041E00E949D0284EA98E060E097
:1019100073E00E94D12062E370E080E090E00E94DA
:10192000871B0E943708882321F20895B9C00E94BE
:10193000A00688E090E00E94B30B9093DD088093AE
:10194000DC088330910509F44FC0843091054CF4D4
:101950008130910539F182309105ACF5892B89F000
:1019600099C08530910509F461C0853091050CF46A
:101970004CC08630910509F46AC0079709F08AC007
:1019800077C084EA98E06FE073E00E94D12084EA97
:1019900098E060E041E00E949D0284EA98E06EE1F8
:1019A00073E076C084EA98E06DE273E00E94D12093
:1019B00084EA98E060E041E00E949D0284EA98E0B9
:1019C0006CE373E065C084EA98E06BE473E00E9426
:1019D000D12084EA98E060E041E00E949D0284EA20
:1019E00098E06AE573E054C084EA98E069E673E041
:1019F0000E94D12084EA98E060E041E00E949D02CC
:101A000084EA98E068E773E043C084EA98E066E817
:101A100073E00E94D12084EA98E060E041E00E94F7
:101A20009D0284EA98E063E973E032C084EA98E0BA
:101A300063EA73E00E94D12084EA98E060E041E02C
:101A40000E949D0284EA98E063EB73E021C084EA7F
:101A500098E063EC73E00E94D12084EA98E060E0B3
:101A600041E00E949D0284EA98E063ED73E010C0BB
:101A700084EA98E063EE73E00E94D12084EA98E063
:101A800060E041E00E949D0284EA98E063EF73E029
:101A90000E94D12062E370E080E090E00E94871B0A
:101AA0000E943708882309F442CF089565C00E9438
:101AB000A00684E090E00E94B30B9093DD08809331
:101AC000DC0881309105F1F0823091051CF4892BFE
:101AD00041F04CC08230910531F1039709F046C0C6
:101AE00033C084EA98E063E074E00E94D12084EA85
:101AF00098E060E041E00E949D0284EA98E062E1A3
:101B000074E032C084EA98E061E274E00E94D1207F
:101B100084EA98E060E041E00E949D0284EA98E057
:101B200060E374E021C084EA98E06FE374E00E940F
:101B3000D12084EA98E060E041E00E949D0284EABE
:101B400098E06CE474E010C084EA98E06AE574E020
:101B50000E94D12084EA98E060E041E00E949D026A
:101B600084EA98E068E674E00E94D12062E370E0C5
:101B700080E090E00E94871B0E943708882309F4C8
:101B800096CF089552C00E94A00684E090E00E9483
:101B9000B30B9093DD088093DC0881309105C9F088
:101BA000823091051CF4892B39F039C082309105BF
:101BB000E9F00397A1F527C084EA98E067E774E0AD
:101BC0000E94D1200E94B00A882349F10E94560D3C
:101BD00026C084EA98E06FE774E00E94D1200E945A
:101BE000B00A8823E1F00E94960C19C084EA98E0BC
:101BF00068E874E00E94D1200E94B00A882379F03E
:101C00000E94580C0CC084EA98E06FE874E00E94CF
:101C1000D1200E94B00A882311F00E94260C62E3B2
:101C200070E080E090E00E94871B0E9437088823C4
:101C300009F4A9CF08952EC081E090E00E94B30B73
:101C40009093DD088093DC080E94A0068091DC0858
:101C50009091DD08009719F00997B1F40DC084EA5E
:101C600098E066E974E00E94D1200E94B00A8823BF
:101C700059F00E94AD0608C084EA98E062EA74E078
:101C80000E94D1200E94B00A62E370E080E090E000
:101C90000E94871B0E943708882371F208950F93D2
:101CA0001F93CF93DF934CC00E94A00681E00E9457
:101CB000B51CEC0182E00E94B51C8C0184EA98E01E
:101CC0006DEA74E00E94D12083E0CF3FD8071CF476
:101CD000CD33D1053CF484EA98E064EB74E00E94D3
:101CE000D12007C084EA98E0BE014AE050E00E949B
:101CF000BD2184EA98E060E041E00E949D0284EA10
:101D000098E068EB74E00E94D12083E00F3F180751
:101D10001CF40D3311053CF484EA98E064EB74E0A4
:101D20000E94D12007C084EA98E0B8014AE050E060
:101D30000E94BD2162E370E080E090E00E94871B7A
:101D40000E943708882309F4AFCFDF91CF911F910C
:101D50000F910895EF92FF920F931F93CF93DF930C
:101D6000F8C00E94A00684E090E00E94B30B90931C
:101D7000DD088093DC0884E00E94B51CEC0185E05E
:101D80000E94B51C8C0183E00E94B51C7C018091EF
:101D9000DC089091DD088130910509F46BC0823038
:101DA00091051CF4892B49F0CEC08230910509F4CD
:101DB00083C0039709F0C7C0A1C084EA98E06FEB25
:101DC00074E00E94D1208091B8089091B908C8179A
:101DD000D9072CF084EA98E061EC74E004C084EA4E
:101DE00098E064EC74E00E94D12084EA98E0BE019F
:101DF0004AE050E00E94BD2184EA98E068EC74E07B
:101E00000E94D1208091BA089091BB080817190749
:101E10002CF084EA98E061EC74E004C084EA98E075
:101E200064EC74E00E94D12084EA98E0B8014AE0B2
:101E300050E00E94BD2184EA98E060E041E00E9409
:101E40009D0284EA98E06BEC74E00E94D1208091BE
:101E5000D2089091D308E816F9062CF084EA98E0AD
:101E600061EC74E004C084EA98E064EC74E00E94E1
:101E7000D12062C084EA98E06DEC74E00E94D12029
:101E80008091B8089091B908C817D9072CF084EA56
:101E900098E065ED74E004C084EA98E06AED74E0CF
:101EA0000E94D12084EA98E060E041E00E949D0217
:101EB00084EA98E0BE0143C084EA98E06FED74E0E4
:101EC0000E94D1208091BA089091BB080817190789
:101ED0002CF084EA98E065ED74E004C084EA98E0B0
:101EE0006AED74E00E94D12084EA98E060E041E06D
:101EF0000E949D0284EA98E0B80121C084EA98E03B
:101F000067EE74E00E94D1208091D2089091D308AE
:101F1000E816F9062CF084EA98E065ED74E004C058
:101F200084EA98E06AED74E00E94D12084EA98E0A7
:101F300060E041E00E949D0284EA98E0B7014AE037
:101F400050E00E94BD2162E370E080E090E00E94DA
:101F5000871B0E943708882309F403CFDF91CF91B4
:101F60001F910F91FF90EF9008950F931F930AEA2E
:101F700018E0C80160E070E040E050E00E947F009F
:101F8000C80162E070E040E050E00E947F001F91D5
:101F90000F9108952F923F924F925F926F927F928E
:101FA0008F929F92AF92BF92CF92DF92EF92FF9269
:101FB0000F931F93DF93CF9300D000D0CDB7DEB740
:101FC0000E94A0060E94BC066091D4087091D508BA
:101FD0008CEA98E00E94D2006091D6087091D708F0
:101FE00080EB98E00E94D2006CED75E080E090E01C
:101FF0000E94871B222433248824992444245524B6
:1020000021C184E00E94B51C8C0185E00E94B51CB2
:102010006C0183E00E94B51CBC018091B8089091CE
:10202000B9084091D2085091D308081719076CF4E9
:102030002091BA083091BB08641775070CF1C216DD
:10204000D3069CF4AA24BB2436C02091BA08309150
:10205000BB08641775076CF080E090E0C216D306E9
:1020600014F481E090E05C0126C0AA24AA94BA2C62
:1020700022C0C216D306FCF4E3E0AE2EB12C1BC086
:10208000C216D3062CF07DEFA72E7FEFB72E13C01C
:102090001814190424F465E0A62EB12C0CC0811488
:1020A000910429F4CC24DD24AA24BB2410C05BEFC6
:1020B000A52E5FEFB52EA814B90419F4CC24DD24A5
:1020C00006C062010894C11CD11C442455242091EF
:1020D000BC083091BD083A8329830091BE08109155
:1020E000BF0834E62316310429F4C5010E94FC061A
:1020F000222433248091C2089091C3089C838B834F
:1021000084549D4F9CF48AEA98E060E070E04CEBC8
:1021100052E00E947F004091C0085091C108809118
:10212000C2089091C308481B590B6FC06090C0084B
:102130007090C1082B813C8182E02D3B380794F0E0
:10214000260D371D3C832B838AEA98E060E070E01F
:10215000A9010E947F008AEA98E062E070E04CEBFF
:1021600052E057C0B801882777FD8095982F0E94CC
:1021700067237B018C01B50168197909882777FDF0
:102180008095982F0E9467239B01AC01C801B7017D
:102190000E94F3237B018C01C40CD51CB601882757
:1021A00077FD8095982F0E9467239B01AC01C801A1
:1021B000B7010E94CC220E9434237B018C01E9816B
:1021C000FA81AE9EC001AF9E900DBE9E900D11246F
:1021D000E80EF91E2B813C81260D371D2E193F0973
:1021E0003C832B838AEA98E060E070E0A9010E94BA
:1021F0007F004091C0085091C1088091C208909121
:10220000C308481B590B4E0D5F1D8AEA98E062E037
:1022100070E00E947F000E949108882361F00E9474
:10222000B50F6091D6087091D7088091D40890912D
:10223000D5080E949A070894211C311C0894411C5F
:10224000511C45010E943708882309F4DACE0E9408
:10225000B50F0F900F900F900F90CF91DF911F91BE
:102260000F91FF90EF90DF90CF90BF90AF909F9035
:102270008F907F906F905F904F903F902F90089538
:102280000F931F9388E795E00E94060921C088E715
:1022900095E00E9406098C010C5B12408AEA98E0E6
:1022A00061E070E0A8010E947F0084EA98E06FEE90
:1022B00074E00E94D12084EA98E0B8014AE050E03E
:1022C0000E94BD2162E370E080E090E00E94871BE5
:1022D0000E9437088823D9F21F910F9108950F9318
:1022E0001F93CF93DF930E94BC0612C185E090E05C
:1022F0000E94B30B9093DD088093DC088230910537
:1023000009F44BC08330910534F4009761F00197D4
:1023100009F0F8C01AC08330910509F463C004972E
:1023200009F0F0C089C00E94A00684EA98E06CEF32
:1023300074E00E94D1202091C0083091C1088091A2
:10234000C2089091C308A9019DC00E94A00684EA1A
:1023500098E063E175E00E94D1206091C808709117
:10236000C90884EA98E04AE050E00E94BD2184EA6E
:1023700098E065E175E00E94D1204091C00850913D
:10238000C1088091C2089091C308EC01C40FD51F09
:102390002091C8083091C9084CC00E94A00684EA68
:1023A00098E063E175E00E94D1206091C8087091C7
:1023B000C90884EA98E04AE050E00E94BD2184EA1E
:1023C00098E06BE175E00E94D1202091C008309127
:1023D000C1088091C2089091C3084091C8085091EB
:1023E000C9084EC00E94A00684EA98E063E175E047
:1023F0000E94D1206091CA087091CB0884EA98E0CD
:102400004AE050E00E94BD2184EA98E065E175E071
:102410000E94D1204091C0085091C1088091C2080B
:102420009091C308EC01C40FD51F2091CA083091C8
:10243000CB08481B590B29C00E94A00684EA98E0EB
:1024400063E175E00E94D1206091CA087091CB08C9
:1024500084EA98E04AE050E00E94BD2184EA98E0D6
:102460006BE175E00E94D1202091C0083091C10835
:102470008091C2089091C3084091CA085091CB083E
:10248000420F531F481B590BEC01C20FD31F82E0B0
:10249000CD3BD80714F0CCEBD2E08A0182E04D3B73
:1024A000580714F00CEB12E08AEA98E060E070E064
:1024B000AE010E947F008AEA98E062E070E0A80125
:1024C0000E947F0084EA98E060E041E00E949D0263
:1024D00084EA98E06AE075E00E94D12084EA98E0FE
:1024E000BE014AE050E00E94BD2184EA98E06EE01F
:1024F00075E00E94D12084EA98E0B8014AE050E0FB
:102500000E94BD2162E370E080E090E00E94871BA2
:102510000E943708882309F4E9CE0E94B50FDF91A5
:10252000CF911F910F9108956F927F928F929F92FA
:10253000AF92BF92CF92DF92EF92FF920F931F93D1
:10254000CF93DF930E94A0060E94BC06AA24BB245E
:10255000662477248824992439C184E00E94B51C1C
:102560008C0185E00E94B51CEC0183E00E94B51C43
:10257000BC018091B8089091B9084091D20850915F
:10258000D308081719076CF42091BA083091BB08DA
:10259000641775070CF1C217D3079CF4CC24DD2413
:1025A0003BC02091BA083091BB08641775076CF0E6
:1025B00060E070E0C217D30714F461E070E06B01D3
:1025C0002BC0CC24CA94DC2C27C0C217D30724F517
:1025D000A3E0CA2ED12C20C0C217D3072CF0FDEFE8
:1025E000CF2EFFEFDF2E18C01A141B042CF4C0905E
:1025F000CC08D090CD0810C0A114B10429F4C0E0DB
:10260000D0E0CC24DD2412C08091CC089091CD087C
:10261000CC24DD24C81AD90ACA14DB0419F4C0E09A
:10262000D0E004C0E3012196662477246091BE08BF
:102630007091BF08882777FD8095982F0E946723A7
:102640007B018C01B6016A197B09882777FD80958B
:10265000982F0E9467239B01AC01C801B7010E941B
:10266000F3237B018C01C60DD71DBE01882777FDA2
:102670008095982F0E9467239B01AC01C801B70188
:102680000E94CC220E943423EB018091BC089091DF
:10269000BD089C01C29EC001C39E900DD29E900DAC
:1026A0001124C80FD91F4091C2085091C3083DEFB3
:1026B000443453079CF48AEA98E060E070E04CEB05
:1026C00052E00E947F004091C0085091C108809163
:1026D000C2089091C308481B590B2DC08091C008B7
:1026E0009091C10822E04D3B52077CF0480F591FE2
:1026F0008AEA98E060E070E00E947F008AEA98E051
:1027000062E070E04CEB52E01AC0480F591F4C1BBE
:102710005D0B8AEA98E060E070E00E947F004091E3
:10272000C0085091C1088091C2089091C308481B0D
:10273000590B4C0F5D1F8AEA98E062E070E00E943E
:102740007F0034E683169104D1F50E94A00684EA46
:1027500098E062E275E00E94D1206091C208709119
:10276000C3088091C0089091C108680F791F6C1B45
:102770007D0B84EA98E04AE050E00E94BD2184EAA3
:1027800098E060E041E00E949D0284EA98E06AE2FD
:1027900075E00E94D1206091C0087091C1088091BD
:1027A000C2089091C308681B790B6C0F7D1F84EAE7
:1027B00098E04AE050E00E94BD21882499240894C2
:1027C000811C911C0894611C711C56010E943708E1
:1027D000882309F4C2CE0E94B50FDF91CF911F91DB
:1027E0000F91FF90EF90DF90CF90BF90AF909F90B0
:1027F0008F907F906F9008950E94BC06D2C088E0B1
:1028000090E00E94B30B9093DD088093DC08833046
:10281000910509F453C0843091054CF48130910541
:1028200019F18230910584F5892B89F0B4C0853087
:10283000910509F467C0853091050CF456C08630C7
:10284000910509F46FC0079709F0A5C085C00E94E3
:10285000A00684EA98E062E375E00E94D1204091EE
:10286000C6085091C7081FC00E94A00684EA98E0DD
:102870006FE375E00E94D1204091C6085091C708CF
:10288000509541955F4F26C00E94A00684EA98E0CB
:102890006DE475E00E94D1204091C6085091C708B0
:1028A000509541955F4F8AEA98E060E070E00E94A1
:1028B0007F004091C6085091C70867C00E94A006DB
:1028C00084EA98E067E575E00E94D1204091C6084F
:1028D0005091C7088AEA98E060E070E00E947F00AB
:1028E0004091C6085091C7084DC00E94A00684EAD6
:1028F00098E062E675E00E94D1204091C4085091B2
:10290000C5081FC00E94A00684EA98E06FE675E043
:102910000E94D1204091C4085091C508509541951E
:102920005F4F26C00E94A00684EA98E06DE775E03C
:102930000E94D1204091C4085091C50850954195FE
:102940005F4F8AEA98E060E070E00E947F0040916B
:10295000C4085091C50819C00E94A00684EA98E0F6
:1029600067E875E00E94D1204091C4085091C508E5
:102970008AEA98E060E070E00E947F004091C4081D
:102980005091C508509541955F4F8AEA98E062E002
:1029900070E00E947F0062E370E080E090E00E94BF
:1029A000871B0E943708882309F429CF0E94B50F9E
:1029B00008958FB7F89497988FBF82E090E00E94B7
:1029C000051C8FB7F894979A8FBF85E090E00E941E
:1029D000051C8FB7F89497988FBF88E061E00E943C
:1029E00060220E94652320E030E044E153E40E942D
:1029F000CC220E9434239B01AC01CA010895EF92BE
:102A0000FF920F931F931EC00E94D9147B018C016B
:102A100084EA98E062E975E00E94D12084EA98E0B7
:102A2000B801A7012AE030E00E94A82184EA98E0DA
:102A300069E975E00E94D12062E370E080E090E0F7
:102A40000E94871B0E9437088823F1F21F910F9183
:102A5000FF90EF90089552C083E090E00E94B30B86
:102A60009093DD088093DC080E94A0068091DC082A
:102A70009091DD0881309105C9F0823091051CF4F8
:102A8000892B39F035C082309105E9F0099781F53D
:102A900027C084EA98E06CE975E00E94D1200E948A
:102AA000B00A882329F10E946F1122C084EA98E0BD
:102AB0006CEA75E00E94D1200E94B00A8823C1F020
:102AC0000E94FF1415C084EA98E068EB75E00E944C
:102AD000D1200E94B00A882359F00E94401108C0FA
:102AE00084EA98E067EC75E00E94D1200E94B00A69
:102AF00062E370E080E090E00E94871B0E9437084C
:102B0000882309F4A9CF0895C8C08AE090E00E9404
:102B1000B30B9093DD088093DC080E94A00680919F
:102B2000DC089091DD088430910509F462C085309D
:102B3000910584F48130910591F1823091051CF466
:102B4000892BF9F0A4C082309105B9F1039709F0FF
:102B50009EC041C08730910509F473C0883091054B
:102B600044F48530910509F452C0069709F08FC0EE
:102B70005BC08830910509F471C0099709F087C0DE
:102B80007AC084EA98E062ED75E00E94D1200E944C
:102B9000B00A882309F47BC00E94FC1378C084EA41
:102BA00098E061EE75E00E94D1200E94B00A88236F
:102BB00009F46DC00E9494126AC084EA98E062EF42
:102BC00075E00E94D1200E94B00A882309F45FC0FA
:102BD0000E9497085CC084EA98E061E076E00E9479
:102BE000D1200E94B00A882309F451C00E94F00B42
:102BF0004EC084EA98E06EE076E00E94D1200E9408
:102C0000B00A882309F443C00E94AA0E40C084EA97
:102C100098E069E176E00E94D1200E94B00A882302
:102C2000B1F10E944F0E33C084EA98E069E276E089
:102C30000E94D1200E94B00A882349F10E946408B2
:102C400026C084EA98E068E376E00E94D1200E94E2
:102C5000B00A8823E1F00E94460819C084EA98E08F
:102C600069E476E00E94D1200E94B00A882379F0BE
:102C70000E94BD080CC084EA98E068E576E00E94F6
:102C8000D1200E94B00A882311F00E942B1562E324
:102C900070E080E090E00E94871B0E943708882344
:102CA00009F433CF08951F9315E0DBC18AE090E06B
:102CB0000E94B30B9093DD088093DC080E94A0066D
:102CC0008091DC089091DD088430910509F4EAC018
:102CD0008530910594F48130910509F45FC082300C
:102CE00091051CF4892B01F1B6C18230910509F4DC
:102CF0007AC0039709F0AFC19BC08730910509F4F2
:102D000055C18830910544F48530910509F404C11A
:102D1000069709F0A0C125C18830910509F46BC15F
:102D2000099709F098C18BC184EA98E063E676E0E0
:102D30000E94D1200E94B00A882309F48CC180919E
:102D4000CA089091CB0864EF71E00E94400AAA275C
:102D500097FDA095BA2FBC01CD010E94672320E00A
:102D600030E040EA50E40E94CC220E9434239B01D0
:102D7000AC018BE098E069E070E0422F0E94110303
:102D80008BE098E069E070E00E941603819FC0012B
:102D900011249093CB088093CA085DC184EA98E01F
:102DA00061E776E00E94D1200E94B00A882309F4EE
:102DB00052C18091CC089091CD086AE070E00E94E9
:102DC0004309482F8BE098E06AE070E00E9411030D
:102DD0008BE098E06AE070E00E9416038093CC08D4
:102DE0001092CD0838C184EA98E062E876E00E944B
:102DF000D1200E94B00A882309F42DC18091CE0809
:102E00009091CF086AE170E00E944309482F8BE05F
:102E100098E06BE070E00E9411038BE098E06BE0BB
:102E200070E00E9416038093CE081092CF0813C161
:102E300084EA98E06EE876E00E94D1200E94B00A11
:102E4000882309F408C18091D0089091D10869EBDA
:102E500070E00E94400AAA2797FDA095BA2FBC01F6
:102E6000CD010E94672320E030E040EA50E40E9458
:102E7000CC220E9434239B01AC018BE098E06CE0F3
:102E800070E0422F0E9411038BE098E06CE070E04C
:102E90000E941603819FC00111249093D108809352
:102EA000D008D9C084EA98E06FE976E00E94D1208A
:102EB0000E94B00A882309F4CEC08091D208909174
:102EC000D3086CEB72E00E94400AAA2797FDA095F8
:102ED000BA2FBC01CD010E94672320E030E040EA18
:102EE00050E40E94CC220E9434239B01AC018BE071
:102EF00098E06DE070E0422F0E9411038BE098E0B3
:102F00006DE070E00E941603819FC0011124909330
:102F1000D3088093D2089FC084EA98E06CEA76E0F8
:102F20000E94D1200E94B00A882309F494C08091A5
:102F3000D4089091D50864EB70E00E944309482FB3
:102F40008BE098E06EE070E00E9411038BE098E067
:102F50006EE070E00E9416038093D4081092D508AA
:102F60007AC084EA98E06DEB76E00E94D1200E945E
:102F7000B00A882309F46FC08091D6089091D708D1
:102F800064EB70E00E944309482F8BE098E06FE00B
:102F900070E00E9411038BE098E06FE070E00E9407
:102FA00016038093D6081092D70855C084EA98E09B
:102FB0006EEC76E00E94D1200E94B00A882309F4CA
:102FC0004AC08091D8089091D90868E770E00E94C3
:102FD0004309482F8BE098E060E170E00E94110304
:102FE0008BE098E060E170E00E9416038093D808BF
:102FF0001092D90830C084EA98E06CED76E00E9427
:10300000D1200E94B00A882331F18091DA08909192
:10301000DB0868E770E00E944309482F8BE098E0E6
:1030200061E170E00E9411038BE098E061E170E0E3
:103030000E9416038093DA081092DB080CC084EA21
:1030400098E067EC75E00E94D1200E94B00A8823C6
:1030500011F00E941B0E62E370E080E090E00E949D
:10306000871B0E943708882309F420CE1F910895FA
:103070001F93CF93DF9315E0CBEFDFEF7DC28AE0A4
:1030800090E00E94B30B9093DD088093DC080E94CF
:10309000A0068091DC089091DD088430910509F448
:1030A00014C18530910594F48130910509F45FC015
:1030B000823091051CF4892B01F158C282309105B0
:1030C00009F48FC0039709F051C2C5C0873091053C
:1030D00009F4CDC18830910544F48530910509F497
:1030E0002EC1069709F042C288C18830910509F4C3
:1030F000F8C1099709F03AC22DC284EA98E06AEE55
:1031000076E00E94D1200E94B00A882309F42EC2E2
:103110008091B8089091B9086CEB72E00E94400A67
:10312000AA2797FDA095BA2FBC01CD010E94672365
:1031300020E030E040EA50E40E94CC220E94342398
:103140009B01AC018BE098E060E070E0422F0E94B0
:1031500011038BE098E060E070E00E941603819F0D
:10316000C00111249093B9088093B808FFC184EA84
:1031700098E067EF76E00E94D1200E94B00A882391
:1031800009F4F4C18091BA089091BB086CEB72E02D
:103190000E94400AAA2797FDA095BA2FBC01CD0135
:1031A0000E94672320E030E040EA50E40E94CC22F5
:1031B0000E9434239B01AC018BE098E061E070E059
:1031C000422F0E9411038BE098E061E070E00E94C2
:1031D0001603819FC00111249093BB088093BA0805
:1031E000C5C184EA98E064E077E00E94D1200E94A3
:1031F000B00A882309F4BAC18091BC089091BD0837
:1032000064E670E00E94400AAA2797FDA095BA2FB5
:10321000BC01CD010E94672320E030E040EA50E489
:103220000E94CC220E9434239B01AC018BE098E0E9
:1032300062E070E0422F0E9411038BE098E062E0B0
:1032400070E00E941603819FC00111249093BD0875
:103250008093BC088BC184EA98E06EE077E00E941E
:10326000D1200E94B00A882309F480C18091BE0851
:103270009091BF0864E670E00E94400AAA2797FD7B
:10328000A095BA2FBC01CD010E94672320E030E059
:1032900040EA50E40E94CC220E9434239B01AC01FE
:1032A0008BE098E063E070E0422F0E9411038BE016
:1032B00098E063E070E00E941603819FC001112432
:1032C0009093BF088093BE0851C184EA98E068E1FA
:1032D00077E00E94D1200E94B00A882309F446C1F9
:1032E0008091C0089091C1086CEB72E00E94400A86
:1032F000AA2797FDA095BA2FBC01CD010E94672394
:1033000020E030E040EA50E40E94CC220E943423C6
:103310009B01AC018BE098E064E070E0422F0E94DA
:1033200011038BE098E064E070E00E941603819F37
:10333000C00111249093C1088093C00817C184EA8A
:1033400098E066E277E00E94D1200E94B00A8823CC
:1033500009F40CC18091C2089091C3086EE571E038
:103360000E94BC09AA2797FDA095BA2FBC01CD01E8
:103370000E94672320E030E040EA50E40E94CC2223
:103380000E943423462F77FD17C08BE098E065E05C
:1033900070E00E9411038BE098E062E170E041E090
:1033A0000E9411038BE098E065E070E00E94160334
:1033B000819FC00111241CC08BE098E065E070E0A3
:1033C0000E9411038BE098E062E170E040E00E940F
:1033D00011038BE098E065E070E00E94160390E036
:1033E0009C012C9FC0012D9F900D3C9F900D11249E
:1033F0009093C3088093C208B9C084EA98E066E35A
:1034000077E00E94D1200E94B00A882309F4AEC060
:103410008091C4089091C5086CEB72E00E94400A4C
:10342000AA2797FDA095BA2FBC01CD010E94672362
:1034300020E030E040EA50E40E94CC220E94342395
:103440009B01AC018BE098E066E070E0422F0E94A7
:1034500011038BE098E066E070E00E941603819F04
:10346000C00111249093C5088093C4087FC084EAEA
:1034700098E066E477E00E94D1200E94B00A882399
:1034800009F474C08091C6089091C7086CEB72E093
:103490000E94400AAA2797FDA095BA2FBC01CD0132
:1034A0000E94672320E030E040EA50E40E94CC22F2
:1034B0000E9434239B01AC018BE098E067E070E050
:1034C000422F0E9411038BE098E067E070E00E94B9
:1034D0001603819FC00111249093C7088093C608EA
:1034E00045C084EA98E066E577E00E94D1200E941A
:1034F000B00A8823D9F18091C8089091C9086CE27C
:1035000071E00E94400AAA2797FDA095BA2FBC013E
:10351000CD010E94672320E030E040EA50E40E94A1
:10352000CC220E9434239B01AC018BE098E068E040
:1035300070E0422F0E9411038BE098E068E070E099
:103540000E941603819FC00111249093C9088093A3
:10355000C8080CC084EA98E068E576E00E94D120B3
:103560000E94B00A882311F00E94531662E370E0B3
:1035700080E090E00E94871B0E943708882309F4AE
:103580007ECDDF91CF911F9108950E94A00684E027
:1035900090E00E94B30B9093DD088093DC088130AB
:1035A0009105C9F0823091051CF4892B39F039C09E
:1035B00082309105E9F00397A1F527C084EA98E0ED
:1035C00066E677E00E94D1200E94B00A882349F184
:1035D0000E94CA0F26C084EA98E061E777E00E9463
:1035E000D1200E94B00A8823E1F00E94841519C0FE
:1035F00084EA98E06CE777E00E94D1200E94B00A4C
:10360000882379F00E9438180CC084EA98E06BE8AF
:1036100077E00E94D1200E94B00A882311F00E9416
:10362000C20D62E370E080E090E00E94871B089585
:1036300080E061E00E94881C81E060E00E94881CBC
:103640008CEA98E063E270E00E94840180EB98E0ED
:103650006FE170E00E94840184EB98E062E270E028
:103660000E9484018BE098E062E170E00E94160302
:103670008BE098E065E070E00E94160308951F92C9
:103680000F920FB60F9211242F933F938F939F9316
:10369000AF93BF938091E2089091E308A091E40872
:1036A000B091E5083091E6080196A11DB11D232FC8
:1036B0002D5F2D3720F02D570196A11DB11D2093B0
:1036C000E6088093E2089093E308A093E408B0939F
:1036D000E5088091DE089091DF08A091E008B091A4
:1036E000E1080196A11DB11D8093DE089093DF08CB
:1036F000A093E008B093E108BF91AF919F918F91A3
:103700003F912F910F900FBE0F901F901895AF9281
:10371000BF92CF92DF92EF92FF920F931F935B01C4
:103720006C019FB7F8942091DE083091DF0840913A
:10373000E0085091E10882B7E82EFF2400E010E095
:1037400006B600FE0AC08FEFE816F1040105110568
:1037500021F02F5F3F4F4F4F5F4F9FBFB42FA32FDD
:10376000922F88278E0D9F1DA01FB11F12E0880F7A
:10377000991FAA1FBB1F1A95D1F7BC0138C09FB76C
:10378000F8942091DE083091DF084091E0085091D4
:10379000E10882B7E82EFF2400E010E006B600FE44
:1037A0000AC08FEFE816F1040105110521F02F5F23
:1037B0003F4F4F4F5F4F9FBFB42FA32F922F8827AC
:1037C0008E0D9F1DA01FB11FE2E0880F991FAA1F39
:1037D000BB1FEA95D1F7861B970B885E934078F262
:1037E0000894A108B108C108D10868517C4FA11400
:1037F000B104C104D10419F61F910F91FF90EF900D
:10380000DF90CF90BF90AF900895019739F0880F67
:10381000991F880F991F02970197F1F70895E82FD4
:10382000E695E695E695A82FB0E0613099F42FB7BC
:10383000F894F0E0EE0FFF1FE855F84F0190F0818B
:10384000E02D9081A770B070A651B84F8C91982B45
:10385000908313C02FB7F894F0E0EE0FFF1FE855E8
:10386000F84F0190F081E02D9081A770B070A651C3
:10387000B84F8C918095892380832FBF0895A82FFE
:10388000E82FE695E695E695F0E0EE0FFF1FEA5487
:10389000F84F0190F081E02DE081B0E0A770B070AA
:1038A000A651B84F8C91E82309F0E1E08E2F0895DE
:1038B000E82FE695E695E695A82FB0E0613099F4FB
:1038C0002FB7F894F0E0EE0FFF1FE656F84F019087
:1038D000F081E02D9081A770B070A651B84F8C9107
:1038E000982B908313C02FB7F894F0E0EE0FFF1FD2
:1038F000E656F84F0190F081E02D9081A770B070EE
:10390000A651B84F8C918095892380832FBF08954D
:10391000E82FF0E0613051F4EE0FFF1FE855F84F4B
:103920000190F081E02D8FEF80830895EE0FFF1F4F
:10393000E855F84F0190F081E02D10820895E82FAE
:10394000F0E0EE0FFF1FEA54F84F0190F081E02DF8
:1039500080810895E82FF0E0EE0FFF1FE656F84F44
:103960000190F081E02D60830895982F8091C40725
:10397000813051F4109261001092620080E487B9A6
:1039800087EE86B91092C4078091C507981721F475
:10399000349A349BFECF0DC09093C50787B19770C2
:1039A000807E892B87B9349A349BFECF349A349B1E
:1039B000FECF24B135B1C9010895853031F48FB5FA
:1039C00080688FBD8FB58F7B0FC0843031F48FB589
:1039D00080628FBD8FB58F7E07C0833039F48FB57D
:1039E00088608FBD8FB58B7F8FBD0895823049F47D
:1039F00080918B00806880938B0080918B008F7BFF
:103A00000AC0813059F480918B00806280938B00D2
:103A100080918B008F7E80938B000895882351F4D2
:103A200080918B00886080938B0080918B008B7FCE
:103A300080938B00089585B5887F826085BD14BC16
:103A400087B7806487BF089595B5987F982B95BDFB
:103A50000895803140F4E82FF0E0EE0FFF1FE851A9
:103A6000F74F718360830895893031F48FB5826098
:103A70008FBD8FB58E7F0AC08A3019F48FB58260F2
:103A800002C08FB58D7F8FBD8FB581608FBD1BBC90
:103A90001ABC19BC18BC10927900109278000895D5
:103AA000893049F480918B00826080938B008091F3
:103AB0008B008E7F0EC08A3021F480918B00826053
:103AC00003C080918B008D7F80938B0080918B0051
:103AD000816080938B001092870010928600109274
:103AE0008500109284001092830010928200089545
:103AF000FF920F931F93CF93DF93182FF62E072F6C
:103B00008D31B0F08F3111F413E014C08E3111F407
:103B100014E010C08D3109F4B1C0853211F410E009
:103B200044C0843211F411E040C0833219F4A4C0BF
:103B30008330D8F18091E70886FD12C08EB5887F6A
:103B400083608EBD1DBC1CBC87B7846087BF789422
:103B50008AE00E94341D8091E70880648093E70822
:103B60008091E708C12FD0E090E0012E02C095952A
:103B700087950A94E2F780FD59C087B3FE01EE50A5
:103B8000F84F9081892B87BB812F0E94DD1C2091EB
:103B9000E70881E090E0012E02C0880F991F0A9487
:103BA000E2F7282B2093E70841C08091E70887FDC2
:103BB00018C080918A00887F836080938A00109269
:103BC00089001092880080917D00846080937D0040
:103BD00078948AE00E94501D8091E7088068809365
:103BE000E7088091E708C12FD0E090E0012E02C0E5
:103BF000959587950A94E2F780FD22C082B1FE0177
:103C0000EE50F84F9081892B82B9812F0E94DD1CE4
:103C10002091E70881E090E0012E02C0880F991FF3
:103C20000A94E2F7282B2093E7080AC0153019F40C
:103C30000BBDFABC25C0143019F409BDF8BC20C076
:103C4000133029F400937900F092780019C01230F3
:103C500029F400938700F092860012C0113029F4F5
:103C600000938500F09284000BC0112349F4009367
:103C70008300F092820004C012E097CF15E05ACF83
:103C8000DF91CF911F910F91FF9008951F920F9296
:103C90000FB60F920BB60F9211242F933F934F93B1
:103CA0005F936F937F938F939F93AF93BF93EF93A4
:103CB000FF938091EE089091EF08892B29F0E09115
:103CC000EE08F091EF080995FF91EF91BF91AF9148
:103CD0009F918F917F916F915F914F913F912F9124
:103CE0000F900BBE0F900FBE0F901F9018951F9254
:103CF0000F920FB60F920BB60F9211242F933F9392
:103D00004F935F936F937F938F939F93AF93BF93E3
:103D1000EF93FF938091F8089091F908892B29F08F
:103D2000E091F808F091F9080995FF91EF91BF91A2
:103D3000AF919F918F917F916F915F914F913F9143
:103D40002F910F900BBE0F900FBE0F901F901895E4
:103D50001F920F920FB60F920BB60F9211242F9352
:103D60003F934F935F936F937F938F939F93AF9303
:103D7000BF93EF93FF938091FE089091FF08892BEA
:103D800029F0E091FE08F091FF080995FF91EF916D
:103D9000BF91AF919F918F917F916F915F914F9163
:103DA0003F912F910F900BBE0F900FBE0F901F9061
:103DB00018951F920F920FB60F920BB60F92112407
:103DC0002F933F934F935F936F937F938F939F9323
:103DD000AF93BF93EF93FF938091EA089091EB0824
:103DE000892B29F0E091EA08F091EB080995FF9101
:103DF000EF91BF91AF919F918F917F916F915F9163
:103E00004F913F912F910F900BBE0F900FBE0F90CF
:103E10001F9018951F920F920FB60F920BB60F922C
:103E200011242F933F934F935F936F937F938F93BF
:103E30009F93AF93BF93EF93FF938091F00890917E
:103E4000F108892B29F0E091F008F091F10809952B
:103E5000FF91EF91BF91AF919F918F917F916F9162
:103E60005F914F913F912F910F900BBE0F900FBE1E
:103E70000F901F9018951F920F920FB60F920BB6CE
:103E80000F9211242F933F934F935F936F937F93E0
:103E90008F939F93AF93BF93EF93FF938091F2081B
:103EA0009091F308892B29F0E091F208F091F30842
:103EB0000995FF91EF91BF91AF919F918F917F9164
:103EC0006F915F914F913F912F910F900BBE0F908B
:103ED0000FBE0F901F9018951F920F920FB60F9262
:103EE0000BB60F9211242F933F934F935F936F93D1
:103EF0007F938F939F93AF93BF93EF93FF938091A3
:103F0000F4089091F508892B29F0E091F408F091DC
:103F1000F5080995FF91EF91BF91AF919F918F9116
:103F20007F916F915F914F913F912F910F900BBEB9
:103F30000F900FBE0F901F9018951F920F920FB603
:103F40000F920BB60F9211242F933F934F935F93D1
:103F50006F937F938F939F93AF93BF93EF93FF9351
:103F60008091F6089091F708892B29F0E091F608E6
:103F7000F091F7080995FF91EF91BF91AF919F9153
:103F80008F917F916F915F914F913F912F910F9002
:103F90000BBE0F900FBE0F901F9018951F920F929F
:103FA0000FB60F920BB60F9211242F933F934F939E
:103FB0005F936F937F938F939F93AF93BF93EF9391
:103FC000FF938091FA089091FB08892B29F0E091EA
:103FD000FA08F091FB080995FF91EF91BF91AF911D
:103FE0009F918F917F916F915F914F913F912F9111
:103FF0000F900BBE0F900FBE0F901F9018951F9241
:104000000F920FB60F920BB60F9211242F933F937E
:104010004F935F936F937F938F939F93AF93BF93D0
:10402000EF93FF938091000990910109892B29F06A
:10403000E0910009F09101090995FF91EF91BF917D
:10404000AF919F918F917F916F915F914F913F9130
:104050002F910F900BBE0F900FBE0F901F901895D1
:104060001F920F920FB60F920BB60F9211242F933F
:104070003F934F935F936F937F938F939F93AF93F0
:10408000BF93EF93FF938091020990910309892BCD
:1040900029F0E0910209F09103090995FF91EF9150
:1040A000BF91AF919F918F917F916F915F914F9150
:1040B0003F912F910F900BBE0F900FBE0F901F904E
:1040C00018951F920F920FB60F920BB60F921124F4
:1040D0002F933F934F935F936F937F938F939F9310
:1040E000AF93BF93EF93FF938091040990910509DB
:1040F000892B29F0E0910409F09105090995FF91B8
:10410000EF91BF91AF919F918F917F916F915F914F
:104110004F913F912F910F900BBE0F900FBE0F90BC
:104120001F9018951F920F920FB60F920BB60F9219
:1041300011242F933F934F935F936F937F938F93AC
:104140009F93AF93BF93EF93FF9380910609909154
:104150000709892B29F0E0910609F09107090995D3
:10416000FF91EF91BF91AF919F918F917F916F914F
:104170005F914F913F912F910F900BBE0F900FBE0B
:104180000F901F90189583E061E00E94881C84E0E6
:1041900061E00E94881C78940E94181B0E94C51A36
:1041A000FDCF0F931F93CF93DF938C01EB0109C0D9
:1041B0002196D801ED91FC910190F081E02DC8018C
:1041C000099568816623A1F7DF91CF911F910F9127
:1041D00008952F923F924F925F926F927F928F92AB
:1041E0009F92AF92BF92CF92DF92EF92FF920F9386
:1041F0001F93DF93CF93CDB7DEB7A0970FB6F89498
:10420000DEBF0FBECDBF1C016A017B014115510508
:104210006105710549F4DC01ED91FC910190F0819B
:10422000E02D60E3099554C0882499245401422E5E
:1042300055246624772401E010E00C0F1D1F080DA3
:10424000191DC701B601A30192010E947524F8014E
:1042500060830894811C911CA11CB11CC701B6018C
:10426000A30192010E947524C901DA016C017D014C
:10427000C114D104E104F104F1F681E0E82EF12C3F
:10428000EC0EFD1EE80CF91C3E010894611C711C2B
:10429000D501C4010197A109B1096C01C818D90859
:1042A00014C0F601EE0DFF1D60816A3010F4605DF0
:1042B00001C0695CD101ED91FC910190F081E02D8C
:1042C000C10109950894E108F1086E147F0449F7CB
:1042D000A0960FB6F894DEBF0FBECDBFCF91DF9191
:1042E0001F910F91FF90EF90DF90CF90BF90AF9014
:1042F0009F908F907F906F905F904F903F902F9006
:104300000895EF92FF920F931F93CF93DF93EC01E9
:104310007A018B0177FF0FC0E881F9810190F0816C
:10432000E02D6DE2099510950095F094E094E11C64
:10433000F11C011D111DCE01B801A7012AE00E9448
:10434000E920DF91CF911F910F91FF90EF90089599
:10435000DC012115310541F4ED91FC910190F081D2
:10436000E02D642F099508952A30310519F40E9433
:10437000812108950E94E9200895EF92FF920F9302
:104380001F937B019A010027F7FC0095102FB801BD
:10439000A7010E94A8211F910F91FF90EF9008950F
:1043A000EF92FF920F931F93CF93DF9379018A01CE
:1043B000E82FE695E695E695F0E0EE0FFF1FEA544C
:1043C000F84F0190F081E02DB09790E087709070E9
:1043D000C1E0D0E0082E02C0CC0FDD1F0A94E2F746
:1043E0002FEF3FEF4FEF5FE0E222F322042315238C
:1043F000A0E0B0E0662311F0A1E0B0E002C0AA0F97
:10440000BB1F8A95E2F720E030E040E050E0B09634
:104410006A2F70E00AC02E153F054007510709F4C6
:1044200042C02F5F3F4F4F4F5F4F808190E08C2302
:104430009D238617970779F309C02E153F0540077E
:10444000510789F12F5F3F4F4F4F5F4F808190E0C1
:104450008C239D238617970781F720E030E040E00A
:1044600050E004C02F5F3F4F4F4F5F4F808190E07F
:104470008C239D2386179707A9F3CA01B9012AE067
:1044800030E040E050E00E9456249B01AC01205FE8
:104490003F4F4F4F5F4F84E056954795379527958F
:1044A0008A95D1F704C020E030E040E050E0B90147
:1044B000CA01DF91CF911F910F91FF90EF90089566
:1044C00020E432E44FE050E00E94D021089550589B
:1044D000BB27AA270ED04DC13ED130F043D120F0EA
:1044E00031F49F3F11F41EF433C10EF4E095E7FB65
:1044F00029C1E92F4FD180F3BA17620773078407E8
:10450000950718F071F49EF567C10EF4E0950B2E37
:10451000BA2FA02D0B01B90190010C01CA01A00115
:104520001124FF27591B99F0593F50F4503E68F170
:104530001A16F040A22F232F342F4427585FF3CFB1
:10454000469537952795A795F0405395C9F77EF482
:104550001F16BA0B620B730B840BBAF09150A1F0CB
:10456000FF0FBB1F661F771F881FC2F70EC0BA0F51
:10457000621F731F841F48F4879577956795B795D9
:10458000F7959E3F08F0B3CF9395880F08F09927D1
:10459000EE0F9795879508950CD0EBC0E3D040F0CF
:1045A000DAD030F021F45F3F19F0CCC0511115C1C1
:1045B000CFC0F0D098F39923C9F35523B1F3951BDD
:1045C000550BBB27AA2762177307840738F09F5F34
:1045D0005F4F220F331F441FAA1FA9F333D00E2EA3
:1045E0003AF0E0E830D091505040E695001CCAF710
:1045F00029D0FE2F27D0660F771F881FBB1F2617D5
:1046000037074807AB07B0E809F0BB0B802DBF01A7
:10461000FF2793585F4F2AF09E3F510568F092C0E4
:10462000DCC05F3FECF3983EDCF3869577956795A9
:10463000B795F7959F5FC9F7880F911D9695879558
:1046400097F90895E1E0660F771F881FBB1F621777
:1046500073078407BA0720F0621B730B840BBA0B35
:10466000EE1F88F7E095089504D06894B111B5C0A5
:10467000089598D088F09F5790F0B92F9927B75197
:10468000A0F0D1F0660F771F881F991F1AF0BA9516
:10469000C9F712C0B13081F09FD0B1E008959CC03D
:1046A000672F782F8827B85F39F0B93FCCF386950C
:1046B00077956795B395D9F73EF490958095709569
:1046C00061957F4F8F4F9F4F0895E89409C097FBE6
:1046D0003EF490958095709561957F4F8F4F9F4FD9
:1046E0009923A9F0F92F96E9BB279395F69587951D
:1046F00077956795B795F111F8CFFAF4BB0F11F4E0
:1047000060FF1BC06F5F7F4F8F4F9F4F16C0882386
:1047100011F096E911C0772321F09EE8872F762FBC
:1047200005C0662371F096E8862F70E060E02AF0FD
:104730009A95660F771F881FDAF7880F96958795E9
:1047400097F9089597F99F6780E870E060E0089511
:104750009FEF80EC089500240A9416161706180699
:104760000906089500240A94121613061406050675
:104770000895092E0394000C11F4882352F0BB0F06
:1047800040F4BF2B11F460FF04C06F5F7F4F8F4F69
:104790009F4F089557FD9058440F551F59F05F3FA4
:1047A00071F04795880F97FB991F61F09F3F79F053
:1047B00087950895121613061406551FF2CF4695D5
:1047C000F1DF08C0161617061806991FF1CF869557
:1047D0007105610508940895E894BB27662777273B
:1047E000CB0197F908950BD0C4CFB5DF28F0BADF1D
:1047F00018F0952309F0A6CFABCF1124EECFCADF76
:10480000A0F3959FD1F3950F50E0551F629FF001E3
:10481000729FBB27F00DB11D639FAA27F00DB11D3C
:10482000AA1F649F6627B00DA11D661F829F2227C5
:10483000B00DA11D621F739FB00DA11D621F839F4C
:10484000A00D611D221F749F3327A00D611D231F22
:10485000849F600D211D822F762F6A2F11249F5770
:1048600050408AF0E1F088234AF0EE0FFF1FBB1F93
:10487000661F771F881F91505040A9F79E3F510532
:1048800070F060CFAACF5F3FECF3983EDCF38695E3
:1048900077956795B795F795E7959F5FC1F7FE2BDD
:1048A000880F911D9695879597F90895629FD0017D
:1048B000739FF001829FE00DF11D649FE00DF11DDB
:1048C000929FF00D839FF00D749FF00D659FF00D8A
:1048D0009927729FB00DE11DF91F639FB00DE11D77
:1048E000F91FBD01CF0111240895A1E21A2EAA1BC0
:1048F000BB1BFD010DC0AA1FBB1FEE1FFF1FA21790
:10490000B307E407F50720F0A21BB30BE40BF50B8C
:10491000661F771F881F991F1A9469F76095709515
:10492000809590959B01AC01BD01CF010895EE0FDC
:10493000FF1F0590F491E02D0994E199FECF9FBBF4
:104940008EBBE09A99278DB30895262FE199FECF6B
:104950009FBB8EBB2DBB0FB6F894E29AE19A0FBEB7
:0849600001960895F894FFCFC1
:10496800202020202020202020202020202020203F
:1049780000506172616D7320536574004D6F7665E8
:104988006D656E7420426567696E7320696E0033C9
:104998002E2E2E00322E2E2E00312E2E2E002020CE
:1049A800202020232323232323202020202000230A
:1049B8002323002323232020202020202020202000
:1049C80020202000232323232320202020202020F0
:1049D80020202020002323232323232323202020D7
:1049E80020202020200020202020202020202020DF
:1049F80020202023232300202020202020202020C6
:104A080020202323232323002020202020202020AF
:104A1800232323232323232300436F6C6C656374B0
:104A28006F723A00546F7563682049646F6C005266
:104A3800616973652041726D0053776565706572B1
:104A48003A004465706F7369742049646F6C004361
:104A58006F6C6C2E202B2053776565703A00526579
:104A68007475726E20486F6D65005A4C20547269D7
:104A78006767657200496E2050726F67726573735D
:104A88002E2E2E0054454C4553434F50452041523D
:104A98004D005072657373205377697463680043DF
:104AA8006F6C6C6563746F7220416374697665001E
:104AB8004C6F6F6B696E672E2E2E00204375723A0D
:104AC80020004E65773A2000596573004E6F0053F9
:104AD8006572766F00204020506F73200053657216
:104AE800766F20003A200043763A20002046696E0F
:104AF8003A2000436F6C6C6563746F722041726D6D
:104B080000537765657065720053303A20436F6CC7
:104B18006C6563742041726D0053313A2053776598
:104B2800657065720053323A203C20556E75736586
:104B380064203E004D303A204D6F746F72204C65F2
:104B48006674004D313A20436F6E7665796F720056
:104B58004D323A204D6F746F722052696768740045
:104B68004D333A203C20556E75736564203E0044F1
:104B7800303A203C20556E75736564203E00443100
:104B88003A203C20556E75736564203E0044323AE5
:104B9800203C20556E75736564203E0044333A20EE
:104BA8003C20556E75736564203E0044343A203CC1
:104BB80020556E75736564203E0044353A203C20CC
:104BC800556E75736564203E0044363A203C205586
:104BD8006E75736564203E0044373A20536F6E61EA
:104BE80072204F75740044383A20536F6E617220FA
:104BF800496E0044393A2049646F6C436F6C6C65A8
:104C08006374004431303A203C20556E75736564F6
:104C1800203E004431313A203C20556E757365645E
:104C2800203E004431323A203C20556E757365644D
:104C3800203E004431333A203C20556E757365643C
:104C4800203E004431343A203C20556E757365642B
:104C5800203E004431353A203C20556E757365641A
:104C6800203E0041303A203C20556E757365642023
:104C78003E0041313A203C20556E75736564203EF4
:104C88000041323A203C20556E75736564203E0021
:104C980041333A205152442043656E747265004195
:104CA800343A20515244204C6566740041353A200C
:104CB8005152442052696768740041363A204D6564
:104CC8006E75204B6E6F620041373A2056616C75E5
:104CD80065204B6E6F6200416E616C6F673F0044E8
:104CE80069676974616C3F004D6F746F723F005360
:104CF8006572766F3F00496E697420454550524F82
:104D08004D003C20504147452034203E004C20496E
:104D1800523A20004F4F5200522049523A20004C3C
:104D2800004F4E004F46460020520043004C205191
:104D380052443A2000204F4E20004F464620005251
:104D4800205152443A200043205152443A20004313
:104D58006F6E762053706565643A20004556454E5F
:104D6800205374726169676874004C3A20002052BD
:104D78003A20002B00204C65667400205269676851
:104D880074004C204D4F543A200052204D4F543A55
:104D98002000466F727761726420534C4F5700426F
:104DA80061636B7761726420534C4F57004C6566A2
:104DB8007420534C4F5700526967687420534C4F06
:104DC8005700466F7277617264204641535400421F
:104DD80061636B776172642046415354004C656689
:104DE8007420464153540052696768742046415301
:104DF8005400446973743A2000696E0054657374F2
:104E0800204672776444726976653F00546573740E
:104E180020536F6E61723F005465737420436F6E48
:104E28007665796F723F003C20504147452033201A
:104E38003E005465737420482D4272696467653F6B
:104E480000546573742054617065466F6C6C6F779D
:104E58003F00546573742053776974636865733FC2
:104E6800005465737420536572766F733F00546500
:104E7800737420515244733F00546573742049522F
:104E8800204465746563743F0054657374205465E9
:104E98006C2E2041726D3F0054657374205A4C206B
:104EA800547269676765723F00546573742049647A
:104EB8006F6C477261623F003C2050414745203289
:104EC800203E004C6F74732D537472616967687467
:104ED800004C61726765204572726F72204D756C67
:104EE8007400536572766F2044656C617900536570
:104EF80072766F2044656661756C74506F730043F9
:104F0800205152442054687265736800436F6C6C7A
:104F18002E2044656661756C74506F730053776515
:104F280065702044656661756C74506F73004869DC
:104F38006C6C20536F6E617256616C0045646765D6
:104F480020536F6E617256616C004C2051524420A0
:104F58005468726573680052205152442054687234
:104F68006573680050726F70204761696E00446510
:104F78007276204761696E0042617365204D6F74D7
:104F88005370656564004F6666736574204D6F7471
:104F98005370656564004D6F746F72466173742059
:104FA8005370656564004D6F746F72536C6F772032
:104FB800537065656400536C696768742D53747227
:104FC80061696768740046756C6C204D6F64653F55
:104FD8000044656D6F204D6F64653F0041646A75DC
:104FE800737420506172616D733F0050696E6F7504
:104FF800742047756964653F00FF320035003B0047
:105008003800230062006500310034003A003700A0
:1050180022006100640030003300390036002100AE
:105028002000630001FF1800190026002700050072
:10503800040001000000000000005602000000000B
:10504800A104580480045D04970401020408102098
:08505800408020100880402078
:00000001FF
