:100000000C9448000C947D000C947D000C947D00B1
:100010000C947D000C947D000C947D000C947D006C
:100020000C947D000C946A100C94130F0C943910EE
:100030000C94A60F0C94D70F0C94E20E0C94750F31
:100040000C94E50B0C947D000C94E4020C942A03B0
:100050000C947D000C947D000C947D000C947D002C
:100060000C9408100C942E110C949B100C94CC1032
:100070000C94FD100C94440F0C9483030C94C9034E
:100080000C947D000C947D000C947D00950430054B
:1000900011241FBECFEFD0E1DEBFCDBF88E483BF08
:1000A00083B7887F846083BF12BE87B7816087BFB4
:1000B000789413E0A0E0B1E0E0E4F8E200E00BBFE8
:1000C00002C007900D92A038B107D9F714E0A0E85C
:1000D000B3E001C01D92AD36B107E1F710E0C0E911
:1000E000D0E004C02297FE010E941A14CC38D10738
:1000F000C9F70E945F110C941E140C9400000F931A
:100100001F93CF93DF93EB018A01CC0FDD1F57FDC7
:100110000CC0FE01E35BFC4F808161E00E94F40CA7
:10012000CB5ADC4F8881B8010EC0FE01E35BFC4F67
:10013000808160E00E94F40CCB5ADC4F6627772761
:10014000601B710B88810E94140EDF91CF911F916B
:100150000F9108951F93CF93DF93C0E0D0E0FE018D
:10016000E35BFC4F1081812F61E00E94AB0C812F7B
:1001700061E00E94F40CFE01EB5AFC4F808160E0CC
:1001800070E00E94140E2296C830D10541F7DF912D
:10019000CF911F910895FC0110828AE090E0938333
:1001A00082830895E0911203E7FD15C0FF27E7FD64
:1001B000F095EE0FFF1FE058FC4F0190F081E02D0D
:1001C000818160E00E94F40C06C02F5F81919191C3
:1001D000892B69F00EC0209112032F5FE22FFF27B9
:1001E000E7FDF0952150EE0FFF1FE058FC4F273040
:1001F00064F320931203E0911203FF27E7FDF095CB
:10020000EE0FFF1FE058FC4F0190F081E02D30977A
:1002100061F48FEF8093120324EF31E0809191031A
:1002200090919203281B390B12C0818161E00E94DA
:10023000F40CE0911203FF27E7FDF095EE0FFF1F8E
:10024000E058FC4F0190F081E02D2281338183B58D
:10025000820F83BD8091910390919203820F931F2F
:100260009093920380939103845F914020F01092C9
:1002700092031092910308950E94B70D87B78F776C
:1002800087BF85E00E94C00D89E062ED70E00E94AA
:10029000C50D83B58C5083BD87B7806887BF10922A
:1002A0009203109291038FEF809312030895CF93DE
:1002B000DF93EC0180919003893010F080E03DC025
:1002C0006983862F61E00E94AB0CE881F0E0EE0FBD
:1002D000FF1FE058FC4F80819181C817D90761F159
:1002E00040919003442341F4E0E8F3E0119211922D
:1002F00083E0E039F807D1F7E0E8F3E020E030E010
:1003000080819181892B61F4F901EE0FFF1FE05884
:10031000FC4FD183C08328834F5F4093900306C076
:100320002F5F3F4F32962830310551F7809190036F
:10033000813011F40E943C0181E0DF91CF9108955A
:10034000CF93DF93EC018A8160E00E94F40C8D81F1
:1003500060E00E94240D8D8160E00E94460D8B813B
:1003600061E00E94F40C8C8161E00E94F40C0000BA
:10037000000010C08C8160E00E94F40C00000000BE
:10038000000000008C8161E00E94F40C000000007D
:10039000000000008D810E943B0D87FDEBCF8C811A
:1003A00060E00E94F40CDF91CF910895FF920F93CB
:1003B0001F938C01F62E0E94A001F801828161E05A
:1003C0000E94F40CF801838160E00E94F40CF801B3
:1003D000848161E00E94F40CF801858161E00E9453
:1003E000240DF80185816F2D0E94460D000000004C
:1003F00000000000F801848160E00E94F40CF80124
:10040000858160E00E94240DF80185816FEF0E94D4
:10041000460D1F910F91FF900895EF92FF920F9359
:100420001F93CF93DF937C01042F6115710551F069
:10043000EB0110E005C0C70169910E94D6011F5F62
:100440001017C8F3DF91CF911F910F91FF90EF909C
:100450000895DF93CF930F92CDB7DEB76983BE01C6
:100460006F5F7F4F41E00E940D020F90CF91DF91AF
:100470000895FF920F931F938C01F62E0E94A00106
:10048000F801828160E00E94F40CF801838160E051
:100490000E94F40CF801848161E00E94F40CF801E0
:1004A000858161E00E94240DF80185816F2D0E94F5
:1004B000460D0000000000000000F801848160E0AB
:1004C0000E94F40CF801858160E00E94240DF8017F
:1004D00085816FEF0E94460D1F910F91FF90089547
:1004E000423031F0433031F0413029F4605C03C0D8
:1004F0006C5E01C06C5A60680E943902089562E027
:100500000E943902089561E00E94390208950F9314
:100510001F938C01FC01828160E00E94F40CF801C1
:10052000838160E00E94F40CF801848160E00E9405
:10053000F40CF801828161E00E94AB0CF801838128
:1005400061E00E94AB0CF801848161E00E94AB0C79
:10055000F801858160E00E94240DF80185816FEF2C
:100560000E94460D1F910F9108950F931F938C01C8
:100570000E948702C80168E30E943902C80161E055
:100580000E943902C80166E00E943902C8016CE08D
:100590000E943902C80162E00E943902C80160E885
:1005A0000E9439021F910F9108950F93FC0181E67B
:1005B00093E0918380836283438324830583CF0107
:1005C0000E94B5020F9108951F920F920FB60F92DD
:1005D0000BB60F9211242F933F938F939F93EF931A
:1005E000FF93E091DD03F091DE032081809197037A
:1005F0009091980380970CF58091970390919803C0
:10060000019690939803809397038091990390911A
:100610009A03FC01ED56FC4F2287019690939A03B2
:100620008093990320919503309196038217930745
:1006300024F010929A0310929903FF91EF919F91E9
:100640008F913F912F910F900BBE0F900FBE0F9087
:100650001F9018951F920F920FB60F920BB60F9224
:1006600011242F933F934F938F939F93AF93BF93F7
:10067000EF93FF938091BF039091C0031816190662
:1006800034F5A091DD03B091DE038091BF0390911A
:10069000C00301979093C0038093BF038091C3036D
:1006A0009091C403FC01ED56FC4F42A90196909332
:1006B000C4038093C3032091BD033091BE0382170E
:1006C000930724F01092C4031092C3034C938091BB
:1006D000BF039091C003892B31F4E091DB03F091CB
:1006E000DC0388E98083FF91EF91BF91AF919F91E7
:1006F0008F914F913F912F910F900BBE0F900FBE96
:100700000F901F9018951F920F920FB60F920BB675
:100710000F9211242F933F938F939F93EF93FF9307
:10072000E0912904F0912A0420818091E3039091C3
:10073000E40380970CF58091E3039091E403019624
:100740009093E4038093E3038091E5039091E603A3
:10075000FC01E152FC4F228701969093E6038093BF
:10076000E5032091E1033091E2038217930724F01F
:100770001092E6031092E503FF91EF919F918F9104
:100780003F912F910F900BBE0F900FBE0F901F90B7
:1007900018951F920F920FB60F920BB60F9211245D
:1007A0002F933F934F938F939F93AF93BF93EF9369
:1007B000FF9380910B0490910C041816190634F5E0
:1007C000A0912904B0912A0480910B0490910C040B
:1007D000019790930C0480930B0480910F049091E7
:1007E0001004FC01E152FC4F42A9019690931004C1
:1007F00080930F042091090430910A048217930713
:1008000024F01092100410920F044C9380910B046A
:1008100090910C04892B31F4E0912704F091280485
:1008200088E98083FF91EF91BF91AF919F918F9164
:100830004F913F912F910F900BBE0F900FBE0F90D5
:100840001F901895FC0124813581C9010895DC01B0
:10085000FC0184819581892B19F42FEF3FEF18C09B
:10086000FD0184819581019795838483808591859D
:10087000E80FF91F42850196FD019187808722814B
:1008800033818217930714F011861086242F30E0ED
:10089000C9010895CF93DF93DC01EC018C819D8128
:1008A000892B19F42FEF3FEF08C0ED01E885F9859A
:1008B000EA0FFB1F8285282F30E0C901DF91CF911D
:1008C0000895FC0115821482848195819187808727
:1008D000978386830895DC01FD0184A595A5409743
:1008E000DCF7F894FD0184A595A54097ACF484A5A8
:1008F00095A5019695A784A786A597A5E80FF91F4A
:1009000062AB0196FD0197A786A722A533A58217A2
:10091000930714F017A616A6A85BBF4FED91FC91A4
:100920008081806280837894089567E673E0709395
:1009300094036093930340E250E0509396034093F6
:1009400095031092980310929703809197039091CA
:10095000980390939C0380939B0390939A038093B6
:10096000990320E130E03093BE032093BD03109241
:10097000C0031092BF038091BF039091C003909376
:10098000C4038093C3039093C2038093C10380E99F
:1009900090E09093D6038093D50389E290E0909302
:1009A000D8038093D7038BE290E09093DA0380938F
:1009B000D9038AE290E09093DC038093DB038CE21E
:1009C00090E09093DE038093DD037093E0036093E7
:1009D000DF035093E2034093E1031092E40310928B
:1009E000E3038091E3039091E4039093E803809301
:1009F000E7039093E6038093E50330930A04209382
:100A0000090410920C0410920B0480910B04909135
:100A10000C049093100480930F0490930E04809321
:100A20000D0488E990E0909322048093210489E9E1
:100A300090E090932404809323048BE990E09093BA
:100A40002604809325048AE990E0909328048093FB
:100A500027048CE990E090932A0480932904089558
:100A60000F938BE294E06AE14BE12CE102E00E94FB
:100A7000D50281E394E00E94AA0083E394E00E94FF
:100A8000CB0087E394E00E94CB008BE394E00E94CC
:100A9000CB000F9108950F931F930BE214E0C80150
:100AA0000E948302C8010E947F021F910F91089546
:100AB0000F931F930E944B050BE214E0C80160E006
:100AC00071E00E946D11C80160E041E00E94700277
:100AD000C80163E171E00E946D1168EE73E080E08F
:100AE00090E00E942D0CC80160E041E00E9470027D
:100AF000C80168E171E00E946D1168EE73E080E06A
:100B000090E00E942D0CC80160E041E00E9470025C
:100B1000C8016DE171E00E946D1168EE73E080E044
:100B200090E00E942D0C0E944B051F910F9108959B
:100B300081E30E94DB0C882311F080E0089564EFCC
:100B400071E080E090E00E942D0C81E008950E9409
:100B50004B0516C08BE294E00E947F028BE294E08A
:100B600062E271E00E946D118BE294E060E041E08E
:100B70000E9470028BE294E06DE271E00E946D11C0
:100B80000E949805882331F308950E944B0516C0F2
:100B90008BE294E00E947F028BE294E06CE371E0D0
:100BA0000E946D118BE294E060E041E00E947002CF
:100BB0008BE294E06DE271E00E946D110E94980555
:100BC000882331F308950E944B0516C08BE294E010
:100BD0000E947F028BE294E06AE471E00E946D1152
:100BE0008BE294E060E041E00E9470028BE294E0CE
:100BF0006DE271E00E946D110E949805882331F327
:100C000008950E944B0516C08BE294E00E947F027B
:100C10008BE294E06DE471E00E946D118BE294E050
:100C200060E041E00E9470028BE294E06DE271E0CE
:100C30000E946D110E949805882331F308950E9447
:100C40004B0516C08BE294E00E947F028BE294E099
:100C500066E571E00E946D118BE294E060E041E096
:100C60000E9470028BE294E06DE271E00E946D11CF
:100C70000E949805882331F308950E944B050AC00D
:100C80008BE294E00E947F028BE294E06DE571E0DC
:100C90000E946D110E949805882391F308950E9487
:100CA0004B050AC08BE294E00E947F028BE294E045
:100CB0006DE571E00E946D110E949805882391F303
:100CC000089582E30E94DB0C882311F080E00895F0
:100CD00064EF71E080E090E00E942D0C81E00895C7
:100CE000EF92FF920F931F93CF93DF93EC0187E076
:100CF0000E94510DAA2797FDA095BA2FBC01CD01E6
:100D00000E9407132DEC3CEC4CE85FE30E94931328
:100D10007B018C01BE01882777FD8095982F0E946A
:100D200007139B01AC01C801B7010E94931320E097
:100D300030E040E85AE30E9493130E94D4126C17EB
:100D40007D071CF0BE0161507040CB01DF91CF9157
:100D50001F910F91FF90EF900895EF92FF920F93E4
:100D60001F93CF93DF93F82EE92EEB0164C08BE243
:100D700094E060E041E00E9470028BE294E069E65A
:100D800071E00E946D118BE294E060E041E00E940E
:100D90007002CE010E947006182F092F8BE294E09A
:100DA000612F702F4AE050E00E9459128BE294E0CC
:100DB0006AE771E00E946D118BE294E06F2D7E2D49
:100DC0004AE050E00E9459120E946106882349F1CE
:100DD0008BE294E060E041E00E9470028BE294E0DC
:100DE00069E671E00E946D118BE294E060E041E001
:100DF0000E9470028BE294E061E871E00E946D1144
:100E00008BE294E0612F702F4AE050E00E9459126B
:100E100060ED77E080E090E00E942D0C612F702F54
:100E200011C060911F0370912003882777FD809582
:100E3000982F0E942D0C0E949805882309F497CFC3
:100E40006F2D7E2DCB01DF91CF911F910F91FF90E0
:100E5000EF9008950F931F9382E090E00E94700638
:100E60008C018BE294E060E041E00E94700201306E
:100E7000110561F48BE294E067E871E00E946D1166
:100E80000E946106882349F081E007C08BE294E06C
:100E90006BE871E00E946D1180E01F910F91089541
:100EA000EF92FF920F931F93CF93DF93EC0186E0B5
:100EB0000E94510DAA2797FDA095BA2FBC01CD0124
:100EC0000E9407132DEC3CEC4CE85FE30E94931367
:100ED0007B018C01BE01882777FD8095982F0E94A9
:100EE00007139B01AC01C801B7010E94931320E0D6
:100EF00030E040E85AE30E9493130E94D4126C172A
:100F00007D071CF0BE0161507040CB01DF91CF9195
:100F10001F910F91FF90EF900895BDC086E090E083
:100F20000E94500790934204809341040E944B0515
:100F300080914104909142048230910509F445C0AA
:100F40008330910534F4009781F0019709F099C03E
:100F500024C08430910509F467C0843091050CF4F5
:100F60004CC0059709F08DC076C08BE294E06EE826
:100F700071E00E946D110E942A07882309F481C044
:100F800080911303909114036CEB72E00E94AD0604
:100F9000909314038093130374C08BE294E06CE984
:100FA00071E00E946D110E942A07882309F469C02C
:100FB000809115039091160364E670E00E94AD06DF
:100FC00090931603809315035CC08BE294E066EA6D
:100FD00071E00E946D110E942A07882309F451C014
:100FE00080913F049091400464E670E00E94AD0659
:100FF0009093400480933F0444C08BE294E060EB04
:1010000071E00E946D110E942A078823D1F180911E
:101010001703909118036CEB72E00E94AD06909359
:101020001803809317032DC08BE294E06EEB71E000
:101030000E946D110E942A07882319F180911903DB
:1010400090911A036CEB72E00E94AD0690931A0324
:101050008093190316C08BE294E06EEC71E00E945D
:101060006D110E942A07882361F080911B039091E3
:101070001C036CEB72E00E94AD0690931C038093FE
:101080001B0360911F0370912003882777FD8095D3
:10109000982F0E942D0C0E949805882309F43ECFBA
:1010A00008950F931F93CF93DF9358C00E944B0571
:1010B00084E00E94510DEC0185E00E94510D8C01ED
:1010C0008BE294E06EED71E00E946D11809113034C
:1010D000909114038C179D072CF48BE294E066EE3C
:1010E00071E004C08BE294E06BEE71E00E946D1140
:1010F0008BE294E0BE014AE050E00E9459128BE27C
:1011000094E060E041E00E9470028BE294E060EFC6
:1011100071E00E946D118091130390911403801768
:1011200091072CF48BE294E066EE71E004C08BE250
:1011300094E06BEE71E00E946D118BE294E0B801D7
:101140004AE050E00E94591260911F037091200301
:10115000882777FD8095982F0E942D0C0E94980576
:10116000882309F4A3CFDF91CF911F910F910895A8
:101170002F923F924F925F926F927F928F929F92A7
:10118000AF92BF92CF92DF92EF92FF920F931F9395
:10119000CF93DF930E944B050E945805CC24DD2499
:1011A0006624772488249924222433242101D9C059
:1011B00084E00E94510DEC0185E00E94510D2091C8
:1011C0001303309114032C173D076CF428173907CB
:1011D0001CF4AA24BB241FC082179307E4F4AA249A
:1011E000AA94BA2C18C0C217D307ACF42817390731
:1011F00024F421E0A22EB12C0EC0821793075CF4D8
:101200001C141D0424F495E0A92EB12C04C08BEF0E
:10121000A82E8FEFB82EAC14BD0419F4C0E0D0E0B6
:1012200004C0E301219666247724C201B1010E9423
:1012300007137B018C01B5016C197D09882777FDA7
:101240008095982F0E9407139B01AC01C801B7013C
:101250000E9493137B018C01C60DD71DBE01882708
:1012600077FD8095982F0E9407139B01AC01C80160
:10127000B7010E946C120E94D412EB018DEF64340E
:1012800078076CF481E394E060E070E04CEB52E0AE
:101290000E947F00409117035091180323C0409192
:1012A00017035091180382E06D3B78076CF081E3DF
:1012B00094E060E070E00E947F0081E394E062E0EF
:1012C00070E04CEB52E012C0461B570B81E394E0F8
:1012D00060E070E00E947F00409117035091180376
:1012E0004C0F5D1F81E394E062E070E00E947F009C
:1012F00084E68816910471F50E944B058BE294E018
:1013000068EF71E00E946D116091170370911803EE
:101310006C1B7D0B8BE294E04AE050E00E94591276
:101320008BE294E060E041E00E9470028BE294E086
:1013300060E072E00E946D116091170370911803D4
:101340006C0F7D1F8BE294E04AE050E00E9459123E
:10135000882499240894811C911C0894611C711C98
:1013600065010E949805882309F422CF81E394E067
:1013700060E070E040E050E00E947F0081E394E094
:1013800062E070E040E050E00E947F00DF91CF918A
:101390001F910F91FF90EF90DF90CF90BF90AF9093
:1013A0009F908F907F906F905F904F903F902F9085
:1013B00008950E945805D6C088E090E00E9450072A
:1013C00090934204809341048330910509F453C003
:1013D000843091054CF48130910519F182309105EA
:1013E00084F5892B89F0B4C08530910509F467C074
:1013F000853091050CF456C08630910509F46FC014
:10140000079709F0A5C085C00E944B058BE294E0C8
:1014100068E072E00E946D1140911B0350911C0323
:101420001FC00E944B058BE294E065E172E00E94D0
:101430006D1140911B0350911C03509541955F4FD6
:1014400026C00E944B058BE294E063E272E00E94AA
:101450006D1140911B0350911C03509541955F4FB6
:1014600081E394E060E070E00E947F0040911B0304
:1014700050911C0367C00E944B058BE294E06DE223
:1014800072E00E946D1140911B0350911C0381E397
:1014900094E060E070E00E947F0040911B03509157
:1014A0001C034DC00E944B058BE294E068E372E0A0
:1014B0000E946D114091190350911A031FC00E94A0
:1014C0004B058BE294E065E472E00E946D1140915F
:1014D000190350911A03509541955F4F26C00E9401
:1014E0004B058BE294E063E572E00E946D11409140
:1014F000190350911A03509541955F4F81E394E091
:1015000060E070E00E947F004091190350911A033F
:1015100019C00E944B058BE294E06DE572E00E94D9
:101520006D114091190350911A0381E394E060E03A
:1015300070E00E947F004091190350911A0350956A
:1015400041955F4F81E394E062E070E00E947F008C
:1015500060911F0370912003882777FD8095982F55
:101560000E942D0C0E949805882309F425CF81E361
:1015700094E060E070E040E050E00E947F0081E392
:1015800094E062E070E040E050E00E947F00089547
:10159000A2C088E090E00E9450079093420480939C
:1015A00041040E944B058091410490914204833094
:1015B000910509F446C0843091054CF481309105C1
:1015C00021F1823091057CF5892B89F07AC0853034
:1015D000910509F450C0853091050CF43FC0863068
:1015E000910509F455C0079709F06BC05EC08BE206
:1015F00094E068E672E00E946D110E942A07882339
:1016000009F45FC00E94D9095CC08BE294E067E7EF
:1016100072E00E946D110E942A07882309F451C0CC
:101620000E94B8084EC08BE294E068E872E00E9425
:101630006D110E942A07882309F443C00E94010605
:1016400040C08BE294E067E972E00E946D110E9455
:101650002A078823B1F10E941F0633C08BE294E071
:1016600064EA72E00E946D110E942A07882349F102
:101670000E94510826C08BE294E06FEA72E00E945B
:101680006D110E942A078823E1F00E94E30519C02A
:101690008BE294E06FEB72E00E946D110E942A07CA
:1016A000882379F00E94C5050CC08BE294E06EECB3
:1016B00072E00E946D110E942A07882311F00E9497
:1016C000A70560911F0370912003882777FD8095FF
:1016D000982F0E942D0C0E949805882309F459CF59
:1016E00008950E944B0580911D0390911E030E9456
:1016F0005007909342048093410481309105C9F0D2
:10170000823091051CF4892B39F039C08230910563
:10171000E9F00397A1F527C08BE294E06FED72E04A
:101720000E946D110E942A07882349F10E944F06EA
:1017300026C08BE294E06AEE72E00E946D110E9476
:101740002A078823E1F00E94C80A19C08BE294E0BE
:1017500065EF72E00E946D110E942A07882379F0DC
:101760000E948D070CC08BE294E064E073E00E945D
:101770006D110E942A07882311F00E943D06609196
:101780001F0370912003882777FD8095982F0E9472
:101790002D0C089580E061E00E94240D81E060E05E
:1017A0000E94240D83E394E063E270E00E945701FD
:1017B00087E394E06FE170E00E9457018BE394E0CF
:1017C00062E270E00E94570108951F920F920FB6D7
:1017D0000F9211242F933F938F939F93AF93BF93B7
:1017E0008091470490914804A0914904B0914A0423
:1017F00030914B040196A11DB11D232F2D5F2D3774
:1018000020F02D570196A11DB11D20934B0480930C
:10181000470490934804A0934904B0934A048091EC
:10182000430490914404A0914504B091460401966C
:10183000A11DB11D8093430490934404A0934504DB
:10184000B0934604BF91AF919F918F913F912F919B
:101850000F900FBE0F901F901895AF92BF92CF922E
:10186000DF92EF92FF920F931F935B016C019FB782
:10187000F8942091430430914404409145045091E0
:10188000460482B7E82EFF2400E010E006B600FE12
:101890000AC08FEFE816F1040105110521F02F5F52
:1018A0003F4F4F4F5F4F9FBFB42FA32F922F8827DB
:1018B0008E0D9F1DA01FB11F12E0880F991FAA1F38
:1018C000BB1F1A95D1F7BC0138C09FB7F89420917F
:1018D000430430914404409145045091460482B73A
:1018E000E82EFF2400E010E006B600FE0AC08FEFED
:1018F000E816F1040105110521F02F5F3F4F4F4F0E
:101900005F4F9FBFB42FA32F922F88278E0D9F1D4F
:10191000A01FB11FE2E0880F991FAA1FBB1FEA9505
:10192000D1F7861B970B885E934078F20894A10844
:10193000B108C108D10868517C4FA114B104C10499
:10194000D10419F61F910F91FF90EF90DF90CF9087
:10195000BF90AF900895E82FE695E695E695A82FFD
:10196000B0E0613099F42FB7F894F0E0EE0FFF1F6C
:10197000E15DFC4F0190F081E02D9081A770B07087
:10198000AF58BC4F8C91982B908313C02FB7F8940D
:10199000F0E0EE0FFF1FE15DFC4F0190F081E02DC4
:1019A0009081A770B070AF58BC4F8C9180958923FF
:1019B00080832FBF0895A82FE82FE695E695E6953A
:1019C000F0E0EE0FFF1FE35CFC4F0190F081E02D93
:1019D000E081B0E0A770B070AF58BC4F8C91E823A5
:1019E00009F0E1E08E2F0895E82FE695E695E6955B
:1019F000A82FB0E0613099F42FB7F894F0E0EE0F23
:101A0000FF1FEF5DFC4F0190F081E02D9081A770EA
:101A1000B070AF58BC4F8C91982B908313C02FB7E8
:101A2000F894F0E0EE0FFF1FEF5DFC4F0190F081A6
:101A3000E02D9081A770B070AF58BC4F8C9180950D
:101A4000892380832FBF0895E82FF0E0613051F49F
:101A5000EE0FFF1FE15DFC4F0190F081E02D8FEF55
:101A600080830895EE0FFF1FE15DFC4F0190F08130
:101A7000E02D10820895E82FF0E0EE0FFF1FE35CE9
:101A8000FC4F0190F081E02D80810895E82FF0E077
:101A9000EE0FFF1FEF5DFC4F0190F081E02D6083A2
:101AA0000895982F80914B03813051F4109261007A
:101AB0001092620080E487B987EE86B910924B03DA
:101AC00080914C03981721F4349A349BFECF0DC0BB
:101AD00090934C0387B19770807E892B87B9349A95
:101AE000349BFECF349A349BFECF24B135B1C9016B
:101AF0000895853031F48FB580688FBD8FB58F7BA9
:101B00000FC0843031F48FB580628FBD8FB58F7E6A
:101B100007C0833039F48FB588608FBD8FB58B7F58
:101B20008FBD0895823049F480918B008068809346
:101B30008B0080918B008F7B0AC0813059F480919B
:101B40008B00806280938B0080918B008F7E8093CE
:101B50008B000895882351F480918B0088608093D6
:101B60008B0080918B008B7F80938B00089585B5CF
:101B7000887F826085BD14BC87B7806487BF089565
:101B800095B5987F982B95BD0895803140F4E82F46
:101B9000F0E0EE0FFF1FE35BFB4F7183608308955E
:101BA000893031F48FB582608FBD8FB58E7F0AC0CA
:101BB0008A3019F48FB5826002C08FB58D7F8FBDDA
:101BC0008FB581608FBD1BBC1ABC19BC18BC1092AC
:101BD0007900109278000895893049F480918B0043
:101BE000826080938B0080918B008E7F0EC08A3044
:101BF00021F480918B00826003C080918B008D7FE7
:101C000080938B0080918B00816080938B00109279
:101C10008700109286001092850010928400109226
:101C20008300109282000895FF920F931F93CF9329
:101C3000DF93182FF62E072F8D31B0F08F3111F46E
:101C400013E014C08E3111F414E010C08D3109F48A
:101C5000B1C0853211F410E044C0843211F411E0B7
:101C600040C0833219F4A4C08330D8F180914C0471
:101C700086FD12C08EB5887F83608EBD1DBC1CBCE6
:101C800087B7846087BF78948AE00E94D00D8091E6
:101C90004C04806480934C0480914C04C12FD0E0AC
:101CA00090E0012E02C0959587950A94E2F780FD99
:101CB00059C087B3FE01E758FC4F9081892B87BB41
:101CC000812F0E94790D20914C0481E090E0012E3B
:101CD00002C0880F991F0A94E2F7282B20934C0426
:101CE00041C080914C0487FD18C080918A00887F94
:101CF000836080938A0010928900109288008091FE
:101D00007D00846080937D0078948AE00E94EC0DD1
:101D100080914C04806880934C0480914C04C12FC6
:101D2000D0E090E0012E02C0959587950A94E2F7E5
:101D300080FD22C082B1FE01E758FC4F9081892BC3
:101D400082B9812F0E94790D20914C0481E090E0AE
:101D5000012E02C0880F991F0A94E2F7282B2093C6
:101D60004C040AC0153019F40BBDFABC25C0143060
:101D700019F409BDF8BC20C0133029F40093790090
:101D8000F092780019C0123029F400938700F09285
:101D9000860012C0113029F400938500F09284006F
:101DA0000BC0112349F400938300F092820004C019
:101DB00012E097CF15E05ACFDF91CF911F910F918D
:101DC000FF9008951F920F920FB60F920BB60F92CD
:101DD00011242F933F934F935F936F937F938F9330
:101DE0009F93AF93BF93EF93FF9380915304909190
:101DF0005404892B29F0E0915304F091540409957F
:101E0000FF91EF91BF91AF919F918F917F916F91D2
:101E10005F914F913F912F910F900BBE0F900FBE8E
:101E20000F901F9018951F920F920FB60F920BB63E
:101E30000F9211242F933F934F935F936F937F9350
:101E40008F939F93AF93BF93EF93FF9380915D0424
:101E500090915E04892B29F0E0915D04F0915E047D
:101E60000995FF91EF91BF91AF919F918F917F91D4
:101E70006F915F914F913F912F910F900BBE0F90FB
:101E80000FBE0F901F9018951F920F920FB60F92D2
:101E90000BB60F9211242F933F934F935F936F9341
:101EA0007F938F939F93AF93BF93EF93FF93809113
:101EB000630490916404892B29F0E0916304F0910C
:101EC00064040995FF91EF91BF91AF919F918F911C
:101ED0007F916F915F914F913F912F910F900BBE2A
:101EE0000F900FBE0F901F9018951F920F920FB674
:101EF0000F920BB60F9211242F933F934F935F9342
:101F00006F937F938F939F93AF93BF93EF93FF93C1
:101F100080914F0490915004892B29F0E0914F0457
:101F2000F09150040995FF91EF91BF91AF919F916E
:101F30008F917F916F915F914F913F912F910F9072
:101F40000BBE0F900FBE0F901F9018951F920F920F
:101F50000FB60F920BB60F9211242F933F934F930E
:101F60005F936F937F938F939F93AF93BF93EF9301
:101F7000FF938091550490915604892B29F0E091AC
:101F80005504F09156040995FF91EF91BF91AF91DF
:101F90009F918F917F916F915F914F913F912F9181
:101FA0000F900BBE0F900FBE0F901F9018951F92B1
:101FB0000F920FB60F920BB60F9211242F933F93EF
:101FC0004F935F936F937F938F939F93AF93BF9341
:101FD000EF93FF938091570490915804892B29F037
:101FE000E0915704F09158040995FF91EF91BF914A
:101FF000AF919F918F917F916F915F914F913F91A1
:102000002F910F900BBE0F900FBE0F901F90189541
:102010001F920F920FB60F920BB60F9211242F93AF
:102020003F934F935F936F937F938F939F93AF9360
:10203000BF93EF93FF938091590490915A04892B99
:1020400029F0E0915904F0915A040995FF91EF911C
:10205000BF91AF919F918F917F916F915F914F91C0
:102060003F912F910F900BBE0F900FBE0F901F90BE
:1020700018951F920F920FB60F920BB60F92112464
:102080002F933F934F935F936F937F938F939F9380
:10209000AF93BF93EF93FF9380915B0490915C04A7
:1020A000892B29F0E0915B04F0915C040995FF9184
:1020B000EF91BF91AF919F918F917F916F915F91C0
:1020C0004F913F912F910F900BBE0F900FBE0F902D
:1020D0001F9018951F920F920FB60F920BB60F928A
:1020E00011242F933F934F935F936F937F938F931D
:1020F0009F93AF93BF93EF93FF9380915F04909171
:102100006004892B29F0E0915F04F0916004099547
:10211000FF91EF91BF91AF919F918F917F916F91BF
:102120005F914F913F912F910F900BBE0F900FBE7B
:102130000F901F9018951F920F920FB60F920BB62B
:102140000F9211242F933F934F935F936F937F933D
:102150008F939F93AF93BF93EF93FF938091650409
:1021600090916604892B29F0E0916504F091660452
:102170000995FF91EF91BF91AF919F918F917F91C1
:102180006F915F914F913F912F910F900BBE0F90E8
:102190000FBE0F901F9018951F920F920FB60F92BF
:1021A0000BB60F9211242F933F934F935F936F932E
:1021B0007F938F939F93AF93BF93EF93FF93809100
:1021C000670490916804892B29F0E0916704F091ED
:1021D00068040995FF91EF91BF91AF919F918F9105
:1021E0007F916F915F914F913F912F910F900BBE17
:1021F0000F900FBE0F901F9018951F920F920FB661
:102200000F920BB60F9211242F933F934F935F932E
:102210006F937F938F939F93AF93BF93EF93FF93AE
:102220008091690490916A04892B29F0E0916904F6
:10223000F0916A040995FF91EF91BF91AF919F9141
:102240008F917F916F915F914F913F912F910F905F
:102250000BBE0F900FBE0F901F9018951F920F92FC
:102260000FB60F920BB60F9211242F933F934F93FB
:102270005F936F937F938F939F93AF93BF93EF93EE
:10228000FF9380916B0490916C04892B29F0E0916D
:102290006B04F0916C040995FF91EF91BF91AF91A0
:1022A0009F918F917F916F915F914F913F912F916E
:1022B0000F900BBE0F900FBE0F901F90189583E0EC
:1022C00061E00E94240D84E061E00E94240D789476
:1022D0000E94CA0B0E94710BFDCF0F931F93CF93E7
:1022E000DF938C01EB0109C02196D801ED91FC919F
:1022F0000190F081E02DC801099568816623A1F75E
:10230000DF91CF911F910F9108952F923F924F929D
:102310005F926F927F928F929F92AF92BF92CF9275
:10232000DF92EF92FF920F931F93DF93CF93CDB77E
:10233000DEB7A0970FB6F894DEBF0FBECDBF1C016D
:102340006A017B01411551056105710549F4DC0104
:10235000ED91FC910190F081E02D60E3099554C06E
:10236000882499245401422E55246624772401E0C0
:1023700010E00C0F1D1F080D191DC701B601A301A8
:1023800092010E94F613F80160830894811C911C4D
:10239000A11CB11CC701B601A30192010E94F61352
:1023A000C901DA016C017D01C114D104E104F10419
:1023B000F1F681E0E82EF12CEC0EFD1EE80CF91C84
:1023C0003E010894611C711CD501C4010197A1094B
:1023D000B1096C01C818D90814C0F601EE0DFF1D33
:1023E00060816A3010F4605D01C0695CD101ED91DB
:1023F000FC910190F081E02DC10109950894E1085C
:10240000F1086E147F0449F7A0960FB6F894DEBF6A
:102410000FBECDBFCF91DF911F910F91FF90EF9035
:10242000DF90CF90BF90AF909F908F907F906F90F4
:102430005F904F903F902F900895EF92FF920F93EF
:102440001F93CF93DF93EC017A018B0177FF0FC0CD
:10245000E881F9810190F081E02D6DE209951095F8
:102460000095F094E094E11CF11C011D111DCE01BA
:10247000B801A7012AE00E948511DF91CF911F9139
:102480000F91FF90EF900895DC012115310541F483
:10249000ED91FC910190F081E02D642F0995089554
:1024A0002A30310519F40E941D1208950E948511E9
:1024B0000895EF92FF920F931F937B019A010027DB
:1024C000F7FC0095102FB801A7010E9444121F913C
:1024D0000F91FF90EF9008950CD0EBC0E3D040F047
:1024E000DAD030F021F45F3F19F0CCC0511115C1A2
:1024F000CFC0F0D098F39923C9F35523B1F3951BBE
:10250000550BBB27AA2762177307840738F09F5F14
:102510005F4F220F331F441FAA1FA9F333D00E2E83
:102520003AF0E0E830D091505040E695001CCAF7F0
:1025300029D0FE2F27D0660F771F881FBB1F2617B5
:1025400037074807AB07B0E809F0BB0B802DBF0188
:10255000FF2793585F4F2AF09E3F510568F092C0C5
:10256000DCC05F3FECF3983EDCF38695779567958A
:10257000B795F7959F5FC9F7880F911D9695879539
:1025800097F90895E1E0660F771F881FBB1F621758
:1025900073078407BA0720F0621B730B840BBA0B16
:1025A000EE1F88F7E095089504D06894B111B5C086
:1025B000089598D088F09F5790F0B92F9927B75178
:1025C000A0F0D1F0660F771F881F991F1AF0BA95F7
:1025D000C9F712C0B13081F09FD0B1E008959CC01E
:1025E000672F782F8827B85F39F0B93FCCF38695ED
:1025F00077956795B395D9F73EF49095809570954A
:1026000061957F4F8F4F9F4F0895E89409C097FBC6
:102610003EF490958095709561957F4F8F4F9F4FB9
:102620009923A9F0F92F96E9BB279395F6958795FD
:1026300077956795B795F111F8CFFAF4BB0F11F4C0
:1026400060FF1BC06F5F7F4F8F4F9F4F16C0882367
:1026500011F096E911C0772321F09EE8872F762F9D
:1026600005C0662371F096E8862F70E060E02AF0DE
:102670009A95660F771F881FDAF7880F96958795CA
:1026800097F9089597F99F6780E870E060E00895F2
:102690009FEF80EC089500240A941616170618067A
:1026A0000906089500240A94121613061406050656
:1026B0000895092E0394000C11F4882352F0BB0FE7
:1026C00040F4BF2B11F460FF04C06F5F7F4F8F4F4A
:1026D0009F4F089557FD9058440F551F59F05F3F85
:1026E00071F04795880F97FB991F61F09F3F79F034
:1026F00087950895121613061406551FF2CF4695B6
:10270000F1DF08C0161617061806991FF1CF869537
:102710007105610508940895E894BB27662777271B
:10272000CB0197F908950BD0C4CFB5DF28F0BADFFD
:1027300018F0952309F0A6CFABCF1124EECFCADF56
:10274000A0F3959FD1F3950F50E0551F629FF001C4
:10275000729FBB27F00DB11D639FAA27F00DB11D1D
:10276000AA1F649F6627B00DA11D661F829F2227A6
:10277000B00DA11D621F739FB00DA11D621F839F2D
:10278000A00D611D221F749F3327A00D611D231F03
:10279000849F600D211D822F762F6A2F11249F5751
:1027A00050408AF0E1F088234AF0EE0FFF1FBB1F74
:1027B000661F771F881F91505040A9F79E3F510513
:1027C00070F060CFAACF5F3FECF3983EDCF38695C4
:1027D00077956795B795F795E7959F5FC1F7FE2BBE
:1027E000880F911D9695879597F90895A1E21A2E65
:1027F000AA1BBB1BFD010DC0AA1FBB1FEE1FFF1FA5
:10280000A217B307E407F50720F0A21BB30BE40BF4
:10281000F50B661F771F881F991F1A9469F760953B
:102820007095809590959B01AC01BD01CF010895F5
:10283000EE0FFF1F0590F491E02D0994F894FFCF5F
:102840004D6F76656D656E7420426567696E7320A5
:10285000696E00332E2E2E00322E2E2E00312E2E9B
:102860002E005A4C205472696767657200496E20C9
:1028700050726F67726573732E2E2E0054454C454F
:1028800053434F50452041524D0049520053574940
:10289000544348455300534552564F5300504C4102
:1028A0004345484F4C444552002020202020202002
:1028B00020202020202020202000204375723A2054
:1028C000004E65773A2000596573004E6F005152F3
:1028D00044205468726573686F6C640050726F7046
:1028E000204761696E0044657276204761696E0019
:1028F00042617365204D6F745370656564004D6F60
:10290000746F7246617374205370656564004D6F17
:10291000746F72536C6F77205370656564004C2040
:102920005152443A2000204F4E20004F464620008E
:1029300052205152443A20004C204D4F543A20002E
:1029400052204D4F543A2000466F727761726420D6
:10295000534C4F57004261636B7761726420534C54
:102960004F57004C65667420534C4F5700526967AF
:10297000687420534C4F5700466F72776172642021
:1029800046415354004261636B7761726420464153
:102990005354004C65667420464153540052696795
:1029A00068742046415354005465737420482D4286
:1029B00072696467653F0054657374205461706583
:1029C000466F6C6C6F773F00546573742053776962
:1029D00074636865733F0054657374205365727641
:1029E0006F733F005465737420515244733F005419
:1029F000657374204952204465746563743F0054C4
:102A00006573742054656C2E2041726D3F005465CF
:102A10007374205A4C20547269676765723F004690
:102A2000756C6C204D6F64653F0044656D6F204D83
:102A30006F64653F0041646A757374205061726110
:102A40006D733F0050696E6F7574204775696465DA
:102A50003F00FF2C011E002C01BC025E010400326D
:102A600000320035003B0038002300620065003171
:102A70000034003A00370022006100640030003367
:102A8000003900360021002000630001FF18001902
:102A900000260027000500040001000000000000DF
:102AA000002902000000006B0422044A042704618C
:102AB00004010204081020408020100880402000FB
:00000001FF
