:100000000C9448000C947D000C947D000C947D00B1
:100010000C947D000C947D000C947D000C947D006C
:100020000C947D000C943E190C94E7170C940D1958
:100030000C947A180C94AB180C94B6170C944918BD
:100040000C94B9140C947D000C941A030C94600366
:100050000C947D000C947D000C947D000C947D002C
:100060000C94DC180C94021A0C946F190C94A019BF
:100070000C94D1190C9418180C94B9030C94FF0328
:100080000C947D000C947D000C947D00CB046605DF
:1000900011241FBECFEFD0E1DEBFCDBF88E483BF08
:1000A00083B7887F846083BF12BE87B7816087BFB4
:1000B000789416E0A0E0B1E0ECEDFAE300E00BBFCD
:1000C00002C007900D92AE36B107D9F717E0AEE641
:1000D000B6E001C01D92A437B107E1F710E0C0E916
:1000E000D0E004C02297FE010E94531DCC38D107F6
:1000F000C9F70E94331A0C946C1D0C9400000F93E6
:100100001F93CF93DF93EB018A01CC0FDD1F57FDC7
:100110000CC0FE01E55CF94F808161E00E94C815CA
:10012000CD5BD94F8881B8010EC0FE01E55CF94F67
:10013000808160E00E94C815CD5BD94F6627772784
:10014000601B710B88810E94E816DF91CF911F918F
:100150000F9108951F93CF93DF93C0E0D0E0FE018D
:10016000E55CF94F1081812F61E00E947F15812F9E
:1001700061E00E94C815FE01ED5BF94F808160E0EF
:1001800070E00E94E8162296C830D10541F7DF9151
:10019000CF911F910895FC0110828AE090E0938333
:1001A00082830895CF93DF93EC01882777FD8095B4
:1001B000982F0E94401C20E030E044E353E40E946A
:1001C000A51B20E030E040EF51E40E94CC1C20E071
:1001D00030E040E251E40E94411B0E94121CCB011E
:1001E0006A30710510F48AE090E08932910510F0D0
:1001F00088E290E09B838A83DF91CF910895E0911C
:100200000C06E7FD15C0FF27E7FDF095EE0FFF1F79
:10021000E259F94F0190F081E02D818160E00E9468
:10022000C81506C02F5F81919191892B69F00EC08E
:1002300020910C062F5FE22FFF27E7FDF09521505C
:10024000EE0FFF1FE259F94F273064F320930C069D
:10025000E0910C06FF27E7FDF095EE0FFF1FE25936
:10026000F94F0190F081E02D309761F48FEF80938A
:100270000C0624EF31E080917F0690918006281BC8
:10028000390B12C0818161E00E94C815E0910C0613
:10029000FF27E7FDF095EE0FFF1FE259F94F0190A0
:1002A000F081E02D2281338183B5820F83BD80915F
:1002B0007F0690918006820F931F90938006809313
:1002C0007F06845F914020F01092800610927F0696
:1002D00008950E948B1687B78F7787BF85E00E94AD
:1002E000941689E06FEF70E00E94991683B58C50E8
:1002F00083BD87B7806887BF1092800610927F0603
:100300008FEF80930C060895CF93DF93EC018091DB
:100310007E06893010F080E03DC06983862F61E061
:100320000E947F15E881F0E0EE0FFF1FE259F94FC0
:1003300080819181C817D90761F140917E064423DD
:1003400041F4EEE6F6E01192119286E0EE37F807FE
:10035000D1F7EEE6F6E020E030E080819181892B54
:1003600061F4F901EE0FFF1FE259F94FD183C08309
:1003700028834F5F40937E0606C02F5F3F4F329623
:100380002830310551F780917E06813011F40E94AA
:10039000690181E0DF91CF910895CF93DF93EC0164
:1003A0008A8160E00E94C8158D8160E00E94F81586
:1003B0008D8160E00E941A168B8161E00E94C81551
:1003C0008C8161E00E94C8150000000010C08C8183
:1003D00060E00E94C81500000000000000008C8151
:1003E00061E00E94C81500000000000000008D813F
:1003F0000E940F1687FDEBCF8C8160E00E94C8152C
:10040000DF91CF910895FF920F931F938C01F62EE9
:100410000E94CD01F801828161E00E94C815F801B7
:10042000838160E00E94C815F801848161E00E9428
:10043000C815F801858161E00E94F815F8018581F1
:100440006F2D0E941A160000000000000000F80145
:10045000848160E00E94C815F801858160E00E94F7
:10046000F815F80185816FEF0E941A161F910F9100
:10047000FF900895EF92FF920F931F93CF93DF9316
:100480007C01042F6115710551F0EB0110E005C0EE
:10049000C70169910E9403021F5F1017C8F3DF9123
:1004A000CF911F910F91FF90EF900895DF93CF931D
:1004B0000F92CDB7DEB76983BE016F5F7F4F41E01A
:1004C0000E943A020F90CF91DF910895FF920F930F
:1004D0001F938C01F62E0E94CD01F801828160E00D
:1004E0000E94C815F801838160E00E94C815F801D8
:1004F000848161E00E94C815F801858161E00E9455
:10050000F815F80185816F2D0E941A160000000071
:1005100000000000F801848160E00E94C815F80125
:10052000858160E00E94F815F80185816FEF0E94D7
:100530001A161F910F91FF900895423031F0433009
:1005400031F0413029F4605C03C06C5E01C06C5A2C
:1005500060680E946602089562E00E946602089543
:1005600061E00E94660208950F931F938C01FC01C5
:10057000828160E00E94C815F801838160E00E94DA
:10058000C815F801848160E00E94C815F8018281D5
:1005900061E00E947F15F801838161E00E947F1570
:1005A000F801848161E00E947F15F801858160E097
:1005B0000E94F815F80185816FEF0E941A161F91AD
:1005C0000F9108950F931F938C010E94B402C801EC
:1005D00068E30E946602C80161E00E946602C801E9
:1005E00066E00E946602C8016CE00E946602C801D3
:1005F00062E00E946602C80160E80E9466021F91E4
:100600000F9108950F93FC018FE496E0918380830E
:100610006283438324830583CF010E94E2020F910A
:100620000895CB01642F0E945F1D0895CB010E94A5
:10063000571D08951F920F920FB60F920BB60F928F
:1006400011242F933F938F939F93EF93FF93E09108
:10065000CC06F091CD062081809186069091870688
:1006600080970CF58091860690918706019690936D
:100670008706809386068091880690918906FC0102
:10068000EE57F94F2287019690938906809388064A
:1006900020918406309185068217930724F01092EA
:1006A000890610928806FF91EF919F918F913F915B
:1006B0002F910F900BBE0F900FBE0F901F901895AB
:1006C0001F920F920FB60F920BB60F9211242F9319
:1006D0003F934F938F939F93AF93BF93EF93FF936A
:1006E0008091AE069091AF061816190634F5A091C8
:1006F000CC06B091CD068091AE069091AF060197E1
:100700009093AF068093AE068091B2069091B306A7
:10071000FC01EE57F94F42A901969093B3068093DE
:10072000B2062091AC063091AD068217930724F0F3
:100730001092B3061092B2064C938091AE0690913F
:10074000AF06892B31F4E091CA06F091CB0688E917
:100750008083FF91EF91BF91AF919F918F914F91C6
:100760003F912F910F900BBE0F900FBE0F901F90D7
:1007700018951F920F920FB60F920BB60F9211247D
:100780002F933F938F939F93EF93FF93E0911807DD
:10079000F091190720818091D2069091D30680971D
:1007A0000CF58091D2069091D30601969093D306D2
:1007B0008093D2068091D4069091D506FC01E25335
:1007C000F94F228701969093D5068093D406209105
:1007D000D0063091D1068217930724F01092D506E7
:1007E0001092D406FF91EF919F918F913F912F919D
:1007F0000F900BBE0F900FBE0F901F9018951F9279
:100800000F920FB60F920BB60F9211242F933F93B6
:100810004F938F939F93AF93BF93EF93FF938091E9
:10082000FA069091FB061816190634F5A0911807E0
:10083000B09119078091FA069091FB060197909369
:10084000FB068093FA068091FE069091FF06FC015C
:10085000E253F94F42A901969093FF068093FE065A
:100860002091F8063091F9068217930724F0109230
:10087000FF061092FE064C938091FA069091FB06BB
:10088000892B31F4E0911607F091170788E98083EE
:10089000FF91EF91BF91AF919F918F914F913F91B8
:1008A0002F910F900BBE0F900FBE0F901F901895B9
:1008B000FC0124813581C9010895DC01FC0184819A
:1008C0009581892B19F42FEF3FEF18C0FD0184812A
:1008D000958101979583848380859185E80FF91F21
:1008E00042850196FD01918780872281338182179D
:1008F000930714F011861086242F30E0C901089563
:10090000CF93DF93DC01EC018C819D81892B19F45D
:100910002FEF3FEF08C0ED01E885F985EA0FFB1FD7
:100920008285282F30E0C901DF91CF910895FC0125
:10093000158214828481958191878087978386832D
:100940000895DC01FD0184A595A54097DCF7F89496
:10095000FD0184A595A54097ACF484A595A50196C5
:1009600095A784A786A597A5E80FF91F62AB019606
:10097000FD0197A786A722A533A58217930714F038
:1009800017A616A6A85BBF4FED91FC9180818062EF
:1009900080837894089565E576E07093830660938C
:1009A000820640E250E05093850640938406109200
:1009B000870610928606809186069091870690930E
:1009C0008B0680938A06909389068093880620E19F
:1009D00030E03093AD062093AC061092AF06109233
:1009E000AE068091AE069091AF069093B3068093C9
:1009F000B2069093B1068093B00680E990E09093A0
:100A0000C5068093C40689E290E09093C706809360
:100A1000C6068BE290E09093C9068093C8068AE2EE
:100A200090E09093CB068093CA068CE290E090937E
:100A3000CD068093CC067093CF066093CE0650937C
:100A4000D1064093D0061092D3061092D206809120
:100A5000D2069091D3069093D7068093D6069093B2
:100A6000D5068093D4063093F9062093F8061092A9
:100A7000FB061092FA068091FA069091FB0690937D
:100A8000FF068093FE069093FD068093FC0688E99E
:100A900090E0909311078093100789E990E090937C
:100AA0001307809312078BE990E0909315078093CA
:100AB00014078AE990E090931707809316078CE952
:100AC00090E090931907809318070895FF920F9371
:100AD0001F938AE197E06AE14BE12CE102E00E947A
:100AE000020380E297E00E94AA0082E297E00E945F
:100AF000CB0086E297E00E94CB008AE297E00E945A
:100B0000CB0001E816E0C80160E070E00E94160327
:100B100095E0F92E8F9DC001112490932F078093AB
:100B20002E07C80161E070E00E9416038F9DC0018E
:100B300011249093310780933007C80162E070E080
:100B40000E9416038F9DC001112490933307809358
:100B50003207C80163E070E00E9416038F9DC00158
:100B600011249093350780933407C80164E070E046
:100B70000E9416038F9DC001112490933707809324
:100B80003607C80165E070E00E9416038F9DC00122
:100B900011249093390780933807C80166E070E00C
:100BA0000E9416038F9DC001112490933B078093F0
:100BB0003A07C80167E070E00E9416038F9DC001EC
:100BC000112490933D0780933C07C80168E070E0D2
:100BD0000E9416038F9DC001112490933F078093BC
:100BE0003E07C80169E070E00E9416038F9DC001B6
:100BF00011249093410780934007C8016AE070E098
:100C00000E9416038093420710924307C8016BE0CD
:100C100070E00E9416038093440710924507C801B4
:100C20006CE070E00E9416038F9DC0011124909328
:100C30004707809346071F910F91FF9008950F93E8
:100C40001F930AE117E0C80160E041E00E949D02A5
:100C5000C80160E071E00E94411AC80160E041E013
:100C60000E949D021F910F9108950F931F930AE117
:100C700017E0C8010E94B002C8010E94AC021F9197
:100C80000F9108950E9435068AE197E061E171E0D5
:100C90000E94411A6CED75E080E090E00E94011521
:100CA00008950F931F930E9435060AE117E0C801CB
:100CB0006DE171E00E94411AC80160E041E00E94CC
:100CC0009D02C80160E371E00E94411A68EE73E082
:100CD00080E090E00E940115C80160E041E00E94C0
:100CE0009D02C80165E371E00E94411A68EE73E05D
:100CF00080E090E00E940115C80160E041E00E94A0
:100D00009D02C8016AE371E00E94411A68EE73E037
:100D100080E090E00E9401150E9435061F910F911E
:100D2000089581E30E94AF15882311F080E00895B3
:100D300064EF71E080E090E00E94011581E0089589
:100D40000E94350616C08AE197E00E94AC028AE153
:100D500097E06FE371E00E94411A8AE197E060E05A
:100D600041E00E949D028AE197E06AE471E00E94FE
:100D7000411A0E949106882331F308950E94350696
:100D800016C08AE197E00E94AC028AE197E069E52B
:100D900071E00E94411A8AE197E060E041E00E9420
:100DA0009D028AE197E06AE471E00E94411A0E9484
:100DB0009106882331F308950E94350616C08AE112
:100DC00097E00E94AC028AE197E067E671E00E943A
:100DD000411A8AE197E060E041E00E949D028AE1C9
:100DE00097E06AE471E00E94411A0E94910688230C
:100DF00031F308950E94350616C08AE197E00E94FB
:100E0000AC028AE197E06AE671E00E94411A8AE149
:100E100097E060E041E00E949D028AE197E06AE489
:100E200071E00E94411A0E949106882331F30895CF
:100E30000E94350616C08AE197E00E94AC028AE162
:100E400097E063E771E00E94411A8AE197E060E071
:100E500041E00E949D028AE197E06AE471E00E940D
:100E6000411A0E949106882331F308950E943506A5
:100E70000AC08AE197E00E94AC028AE197E06DE740
:100E800071E00E94411A0E949106882391F308950F
:100E900082E30E94AF15882311F080E0089564EF8B
:100EA00071E080E090E00E94011581E00895EF92EA
:100EB000FF920F931F93CF93DF93EC0187E00E9483
:100EC0002516AA2797FDA095BA2FBC01CD010E9437
:100ED000401C26E636E646E85FE30E94CC1C7B0118
:100EE0008C01BE01882777FD8095982F0E94401CB9
:100EF0009B01AC01C801B7010E94CC1C20E030E08E
:100F000040E85AE30E94CC1C0E940D1C6C177D0720
:100F10001CF0BE0161507040CB01DF91CF911F9159
:100F20000F91FF90EF900895EF92FF920F931F9310
:100F3000CF93DF93F82EE92EEB0164C08AE197E0AE
:100F400060E041E00E949D028AE197E060E071E08C
:100F50000E94411A8AE197E060E041E00E949D0210
:100F6000CE010E945707182F092F8AE197E0612FC1
:100F7000702F4AE050E00E942D1B8AE197E069E85B
:100F800071E00E94411A8AE197E06F2D7E2D4AE0C0
:100F900050E00E942D1B0E944807882349F18AE1F6
:100FA00097E060E041E00E949D028AE197E060E006
:100FB00071E00E94411A8AE197E060E041E00E94FE
:100FC0009D028AE197E060E971E00E94411A8AE19E
:100FD00097E0612F702F4AE050E00E942D1B6CEDCE
:100FE00075E080E090E00E940115612F702F11C024
:100FF00060910D0670910E06882777FD8095982FD9
:101000000E9401150E949106882309F497CF6F2D45
:101010007E2DCB01DF91CF911F910F91FF90EF902B
:101020000895CF92DF92EF92FF920F931F93CF9389
:10103000DF93D82EC92E7B010027F7FC0095102FD7
:1010400073C08AE197E060E041E00E949D028AE17E
:1010500097E060E071E00E94411A8AE197E060E069
:1010600041E00E949D02C801B7010E94401C20E09F
:1010700030E040EA50E40E94A51B0E940D1CDC01F8
:10108000CB010E945707EC01CC0FDD1FCC0FDD1FF9
:10109000C80FD91F8AE197E0BE014AE050E00E94E4
:1010A0002D1B8AE197E069E871E00E94411A8AE10C
:1010B00097E06D2D7C2D4AE050E00E942D1B0E9490
:1010C0004807882339F18AE197E060E041E00E9417
:1010D0009D028AE197E060E071E00E94411A8AE196
:1010E00097E060E041E00E949D028AE197E060E9BC
:1010F00071E00E94411A8AE197E0BE014AE050E0A7
:101100000E942D1B6CED75E080E090E00E940115BF
:10111000BE0111C060910D0670910E06882777FD03
:101120008095982F0E9401150E949106882309F44A
:1011300088CF6D2D7C2DCB01DF91CF911F910F9129
:10114000FF90EF90DF90CF9008950F931F9382E070
:1011500090E00E9457078C018AE197E060E041E04F
:101160000E949D020130110561F48AE197E066E971
:1011700071E00E94411A0E944807882349F081E0EB
:1011800007C08AE197E06AE971E00E94411A80E0B5
:101190001F910F910895EF92FF920F931F93CF939A
:1011A000DF93EC0186E00E942516AA2797FDA09503
:1011B000BA2FBC01CD010E94401C26E636E646E867
:1011C0005FE30E94CC1C7B018C01BE01882777FD68
:1011D0008095982F0E94401C9B01AC01C801B7016B
:1011E0000E94CC1C20E030E040E85AE30E94CC1C76
:1011F0000E940D1C6C177D071CF0BE0161507040F1
:10120000CB01DF91CF911F910F91FF90EF90089547
:1012100030C00E94350682E090E00E94CB08909397
:10122000490780934807009719F00197C1F411C04E
:101230008AE197E06DE971E00E94411A8AE197E046
:1012400060E041E00E949D028AE197E06DEA71E072
:1012500004C08AE197E069EB71E00E94411A609155
:101260000D0670910E06882777FD8095982F0E94B5
:1012700001150E949106882361F208953CC00E94E6
:10128000350682E090E00E94CB0890934907809356
:101290004807009719F0019721F511C08AE197E0FE
:1012A00068EC71E00E94411A8AE197E060E041E059
:1012B0000E949D028AE197E067ED71E010C08AE12B
:1012C00097E066EE71E00E94411A8AE197E060E0E3
:1012D00041E00E949D028AE197E066EF71E00E9482
:1012E000411A60910D0670910E06882777FD809552
:1012F000982F0E9401150E949106882309F4BFCF00
:101300000895BDC00E94350688E090E00E94CB0899
:1013100090934907809348078330910509F44FC0A3
:10132000843091054CF48130910539F1823091057A
:10133000ACF5892B89F099C08530910509F461C01D
:10134000853091050CF44CC08630910509F46AC0D3
:10135000079709F08AC077C08AE197E065E072E0FC
:101360000E94411A8AE197E060E041E00E949D02FC
:101370008AE197E064E172E076C08AE197E063E297
:1013800072E00E94411A8AE197E060E041E00E9429
:101390009D028AE197E062E372E065C08AE197E02E
:1013A00061E472E00E94411A8AE197E060E041E066
:1013B0000E949D028AE197E060E572E054C08AE1F4
:1013C00097E06FE572E00E94411A8AE197E060E0E1
:1013D00041E00E949D028AE197E06EE672E043C020
:1013E0008AE197E06DE772E00E94411A8AE197E096
:1013F00060E041E00E949D028AE197E06CE872E0C3
:1014000032C08AE197E06BE972E00E94411A8AE1FA
:1014100097E060E041E00E949D028AE197E06BEA7C
:1014200072E021C08AE197E06BEB72E00E94411A02
:101430008AE197E060E041E00E949D028AE197E046
:101440006BEC72E010C08AE197E06BED72E00E94F5
:10145000411A8AE197E060E041E00E949D028AE142
:1014600097E06BEE72E00E94411A60910D06709158
:101470000E06882777FD8095982F0E9401150E94FF
:101480009106882309F43ECF089569C00E9435066D
:1014900084E090E00E94CB0890934907809348072E
:1014A00081309105F1F0823091051CF4892B41F0D7
:1014B0004CC08230910531F1039709F046C033C02A
:1014C0008AE197E06BEF72E00E94411A8AE197E0AF
:1014D00060E041E00E949D028AE197E06AE073E0EB
:1014E00032C08AE197E069E173E00E94411A8AE123
:1014F00097E060E041E00E949D028AE197E068E2A7
:1015000073E021C08AE197E067E373E00E94411A2B
:101510008AE197E060E041E00E949D028AE197E065
:1015200064E473E010C08AE197E062E573E00E9432
:10153000411A8AE197E060E041E00E949D028AE161
:1015400097E060E673E00E94411A60910D06709189
:101550000E06882777FD8095982F0E9401150E941E
:101560009106882309F492CF089556C00E9435064B
:1015700084E090E00E94CB0890934907809348074D
:1015800081309105C9F0823091051CF4892B39F026
:1015900039C082309105E9F00397A1F527C08AE1AF
:1015A00097E06FE673E00E94411A0E94A508882325
:1015B00049F10E94450A26C08AE197E067E773E097
:1015C0000E94411A0E94A5088823E1F00E94810927
:1015D00019C08AE197E060E873E00E94411A0E9416
:1015E000A508882379F00E943E090CC08AE197E0A3
:1015F00067E873E00E94411A0E94A508882311F051
:101600000E94080960910D0670910E06882777FDEB
:101610008095982F0E9401150E949106882309F455
:10162000A5CF08950F931F93CF93DF9358C00E94C7
:10163000350684E00E942516EC0185E00E942516FF
:101640008C018AE197E06EE873E00E94411A809174
:101650002E0790912F078C179D072CF48AE197E0B5
:1016600066E973E004C08AE197E06BE973E00E94E9
:10167000411A8AE197E0BE014AE050E00E942D1B2A
:101680008AE197E060E041E00E949D028AE197E0F4
:1016900060EA73E00E94411A80913007909131070F
:1016A000801791072CF48AE197E066E973E004C0A3
:1016B0008AE197E06BE973E00E94411A8AE197E0C2
:1016C000B8014AE050E00E942D1B60910D06709118
:1016D0000E06882777FD8095982F0E9401150E949D
:1016E0009106882309F4A3CFDF91CF911F910F9129
:1016F00008958F929F92AF92BF92CF92DF92EF9216
:10170000FF920F931F93CF93DF934C010E945106DA
:101710008AE197E068EA73E00E94411A8AE197E063
:10172000B4014AE050E00E942D1B8AE197E06EEA86
:1017300073E00E94411A60914607709147078AE161
:1017400097E04AE050E00E942D1B8114910429F09B
:1017500081E088169104B1F407C06091460770914A
:10176000470782E297E006C06091460770914707FD
:1017700086E297E00E94D2006CED75E080E090E098
:101780000E940115C0914607D09147070E94350677
:101790008AE197E066EB73E00E94411A8AE197E0E4
:1017A000B4014AE050E00E942D1B8AE197E06DEB06
:1017B00073E00E94411A6EC00E941F0685EB90E004
:1017C0000E9457075C018AE197E060EC73E00E9499
:1017D000411A8AE197E0BE014AE050E00E942D1BC9
:1017E0008AE197E065EC73E00E94411A8AE197E094
:1017F000B5014AE050E00E942D1BCC24DD2426C018
:10180000AC16BD0614F4219704C0CA15DB050CF410
:1018100021968114910429F081E08816910449F4FD
:1018200003C082E297E002C086E297E0BE010E9418
:10183000D2006091440770914507882777FD809515
:10184000982F0E9401150894C11CD11C60910D06AF
:1018500070910E06882777FD8095982F0E94401C76
:101860007B018C0160914407709145076F5F7F4F4A
:10187000882777FD8095982F0E94401C9B01AC0122
:10188000C801B7010E94A51B0E940D1CC616D706F1
:101890000CF4B6CF0E949106882309F48DCFDF9116
:1018A000CF911F910F91FF90EF90DF90CF90BF905D
:1018B000AF909F908F90089534C00E94350682E0CB
:1018C00090E00E94CB0890934907809348070097C7
:1018D00019F00197E1F40DC08AE197E06CEC73E038
:1018E0000E94411A0E94A508882389F080E090E0B8
:1018F0000CC08AE197E06AED73E00E94411A0E94F1
:10190000A508882321F081E090E00E94790B609186
:101910000D0670910E06882777FD8095982F0E94FE
:1019200001150E949106882341F208950F931F9399
:10193000CF93DF930E94510600C185E090E00E94A2
:10194000CB0890934907809348078230910509F4AA
:101950004BC08330910534F4009761F0019709F092
:10196000E2C025C08330910509F45BC0049709F0FB
:10197000DAC098C00E9435068AE197E062EE73E013
:101980000E94411A1091380700913907809136075B
:10199000909137079C0182E02D3B380714F02CEB27
:1019A00032E080E297E060E070E0A9016AC00E9446
:1019B00035068AE197E060EF73E00E94411A60917A
:1019C0003E0770913F078AE197E04AE050E00E94AD
:1019D0002D1B8AE197E062EF73E00E94411A40916B
:1019E0003E0750913F0739C00E9435068AE197E0D3
:1019F00060EF73E00E94411A60913E0770913F07CB
:101A00008AE197E04AE050E00E942D1B8AE197E0CE
:101A100068EF73E00E94411AC0913E07D0913F07E2
:101A20005DC00E9435068AE197E060EF73E00E9496
:101A3000411A60914007709141078AE197E04AE0BE
:101A400050E00E942D1B8AE197E062EF73E00E9454
:101A5000411A40914007509141078091360790917B
:101A600037071091380700913907480F591F82E056
:101A70004D3B580714F04CEB52E080E297E060E0F9
:101A800070E00E947F00812F902F9C0182E02D3B0F
:101A9000380714F02CEB32E080E297E062E070E06F
:101AA000A9013FC00E9435068AE197E060EF73E02C
:101AB0000E94411A60914007709141078AE197E0C6
:101AC0004AE050E00E942D1B8AE197E068EF73E046
:101AD0000E94411AC0914007D09141078091380778
:101AE00090913907C80FD91F2091360730913707D9
:101AF000C901AC0182E04D3B580714F04CEB52E0B9
:101B000080E297E060E070E00E947F00AE0182E03A
:101B1000CD3BD80714F04CEB52E080E297E062E056
:101B200070E00E947F0060910D0670910E0688277C
:101B300077FD8095982F0E9401150E9491068823B9
:101B400009F4FBCE80E297E060E070E040E050E016
:101B50000E947F0080E297E062E070E040E050E0A9
:101B60000E947F00DF91CF911F910F91089532C0A5
:101B700081E090E00E94CB0890934907809348074A
:101B80000E9435068091480790914907009719F007
:101B90000997B1F40DC08AE197E06FEF73E00E94FE
:101BA000411A0E94A508882359F00E94960C08C08B
:101BB0008AE197E06FE074E00E94411A0E94A50854
:101BC00060910D0670910E06882777FD8095982FFD
:101BD0000E9401150E949106882351F208956F9288
:101BE0007F928F929F92AF92BF92CF92DF92EF92AD
:101BF000FF920F931F93CF93DF930E9435060E94AD
:101C0000510666247724AA24BB2488249924ECC096
:101C100084E00E9425168C0185E00E942516AC0107
:101C200080912E0790912F07209130073091310736
:101C30000817190754F04217530724F4CC24CA9408
:101C4000DC2C17C0CC24DD2414C04217530724F029
:101C500031E0C32ED12C0DC08091420790914307F3
:101C60001A141B042CF4CC24DD24C81AD90A01C090
:101C70006C01CA14DB0419F4C0E0D0E004C0E40134
:101C8000219688249924609134077091350788271C
:101C900077FD8095982F0E94401C7B018C01B60136
:101CA0006A197B09882777FD8095982F0E94401C30
:101CB0009B01AC01C801B7010E94CC1C7B018C01C7
:101CC000C80DD91DBE01882777FD8095982F0E94E9
:101CD000401C9B01AC01C801B7010E94A51B0E94DA
:101CE0000D1CEB0180913207909133079C01C29E3D
:101CF000C001C39E900DD29E900D1124C80FD91F14
:101D00003DEFC434D3076CF480E297E060E070E00C
:101D10004CEB52E00E947F00409138075091390708
:101D200023C0409136075091370782E0CD3BD8075A
:101D30006CF080E297E060E070E00E947F0080E25B
:101D400097E062E070E04CEB52E012C04C1B5D0B80
:101D500080E297E060E070E00E947F0040913807E9
:101D6000509139074C0F5D1F80E297E062E070E010
:101D70000E947F0024E66216710479F50E94350600
:101D80008AE197E06DE174E00E94411A60913607A4
:101D9000709137076C1B7D0B8AE197E04AE050E0B9
:101DA0000E942D1B8AE197E060E041E00E949D02C5
:101DB0008AE197E065E274E00E94411A8091380759
:101DC00090913907C80FD91F8AE197E0BE014AE018
:101DD00050E00E942D1B662477240894611C711C1E
:101DE0000894811C911C56010E949106882309F4D5
:101DF0000FCF80E297E060E070E040E050E00E94AA
:101E00007F0080E297E062E070E040E050E00E94F6
:101E10007F00DF91CF911F910F91FF90EF90DF90A6
:101E2000CF90BF90AF909F908F907F906F900895CC
:101E30000E945106D6C088E090E00E94CB089093A3
:101E40004907809348078330910509F453C08430D3
:101E500091054CF48130910519F18230910584F59A
:101E6000892B89F0B4C08530910509F467C08530AD
:101E700091050CF456C08630910509F46FC00797A0
:101E800009F0A5C085C00E9435068AE197E06DE2A1
:101E900074E00E94411A40913C0750913D071FC0D9
:101EA0000E9435068AE197E06AE374E00E94411AD5
:101EB00040913C0750913D07509541955F4F26C09A
:101EC0000E9435068AE197E068E474E00E94411AB6
:101ED00040913C0750913D07509541955F4F80E2FE
:101EE00097E060E070E00E947F0040913C075091D5
:101EF0003D0767C00E9435068AE197E062E574E01D
:101F00000E94411A40913C0750913D0780E297E0C2
:101F100060E070E00E947F0040913C0750913D07D7
:101F20004DC00E9435068AE197E06DE574E00E949D
:101F3000411A40913A0750913B071FC00E94350655
:101F40008AE197E06AE674E00E94411A40913A07FC
:101F500050913B07509541955F4F26C00E94350632
:101F60008AE197E068E774E00E94411A40913A07DD
:101F700050913B07509541955F4F80E297E060E0BC
:101F800070E00E947F0040913A0750913B0719C0D2
:101F90000E9435068AE197E062E874E00E94411AE7
:101FA00040913A0750913B0780E297E060E070E093
:101FB0000E947F0040913A0750913B075095419510
:101FC0005F4F80E297E062E070E00E947F006091E6
:101FD0000D0670910E06882777FD8095982F0E9438
:101FE00001150E949106882309F425CF80E297E02D
:101FF00060E070E040E050E00E947F0080E297E007
:1020000062E070E040E050E00E947F000895CCC0A4
:102010008AE090E00E94CB0890934907809348079C
:102020000E943506809148079091490784309105B8
:1020300009F462C08530910584F48130910591F1F5
:10204000823091051CF4892BF9F0A4C082309105EF
:10205000B9F1039709F09EC041C08730910509F49A
:1020600073C08830910544F48530910509F452C05D
:10207000069709F08FC05BC08830910509F471C0E4
:10208000099709F087C07AC08AE197E06DE874E0AB
:102090000E94411A0E94A508882309F47BC00E946F
:1020A000180F78C08AE197E06CE974E00E94411A49
:1020B0000E94A508882309F46DC00E94EF0D6AC034
:1020C0008AE197E06DEA74E00E94411A0E94A50837
:1020D000882309F45FC00E94FA065CC08AE197E099
:1020E0006CEB74E00E94411A0E94A508882309F451
:1020F00051C00E945C0C4EC08AE197E069EC74E02C
:102100000E94411A0E94A508882309F443C00E9436
:10211000120B40C08AE197E064ED74E00E94411A1E
:102120000E94A5088823B1F10E94DC0633C08AE131
:1021300097E064EE74E00E94411A0E94A50888238B
:1021400049F10E94BE0626C08AE197E063EF74E081
:102150000E94411A0E94A5088823E1F00E94A0066F
:1021600019C08AE197E064E075E00E94411A0E947C
:10217000A508882379F00E9418070CC08AE197E02F
:102180006FE074E00E94411A0E94A508882311F0B4
:102190000E94B70D60910D0670910E06882777FD9D
:1021A0008095982F0E9401150E949106882309F4BA
:1021B0002FCF08951F9315E004C185E090E00E94A1
:1021C000CB0890934907809348070E943506809179
:1021D0004807909149078230910509F474C0833013
:1021E000910534F4009781F0019709F0E0C046C0F2
:1021F0008430910509F4C6C0843091050CF488C080
:10220000099709F0D4C0CBC08AE197E063E175E09B
:102210000E94411A0E94A508882309F4C8C0809131
:1022200040079091410764EF71E00E941108AA27CE
:1022300097FDA095BA2FBC01CD010E94401C20E063
:1022400030E040EA50E40E94A51B0E940D1C9B0157
:10225000AC0181E896E069E070E0422F0E94110332
:1022600081E896E069E070E00E941603819FC0015A
:102270001124909341078093400799C08AE197E029
:1022800061E275E00E94411A0E94A508882309F4C2
:102290008EC080914207909143076AE070E00E94EF
:1022A0009407482F81E896E06AE070E00E941103ED
:1022B00081E896E06AE070E00E941603809342078E
:1022C0001092430774C08AE197E062E375E00E94D0
:1022D000411A0E94A508882309F469C08091440727
:1022E000909145076AE170E00E949407482F81E8C9
:1022F00096E06BE070E00E94110381E896E06BE0ED
:1023000070E00E94160380934407109245074FC067
:102310008AE197E06EE375E00E94411A0E94A508E9
:10232000882309F444C0809146079091470769EBE0
:1023300070E00E941108AA2797FDA095BA2FBC0152
:10234000CD010E94401C20E030E040EA50E40E94B1
:10235000A51B0E940D1C9B01AC0181E896E06CE07E
:1023600070E0422F0E94110381E896E06CE070E07B
:102370000E941603819FC001112490934707809308
:10238000460715C08AE197E06FE475E00E94411AA4
:102390000E94A508882359F00E94420608C08AE1DD
:1023A00097E06FE074E00E94411A0E94A5086091D6
:1023B0000D0670910E06882777FD8095982F0E9454
:1023C00001150E949106882309F4F7CE1F91089504
:1023D0001F9315E055C28AE090E00E94CB089093CD
:1023E0004907809348070E943506809148079091DD
:1023F00049078430910509F410C18530910594F4A2
:102400008130910509F45EC0823091051CF4892B5E
:1024100001F12CC28230910509F48DC0039709F0B7
:1024200025C2C2C08730910509F4A2C18830910548
:1024300044F48530910509F429C1069709F016C2C4
:102440005EC18830910509F4CCC1099709F00EC22C
:1024500001C28AE197E06BE575E00E94411A0E9493
:10246000A508882309F180912E0790912F076CEB26
:1024700072E00E941108AA2797FDA095BA2FBC010F
:10248000CD010E94401C20E030E040EA50E40E9470
:10249000A51B0E940D1C9B01AC0181E896E060E049
:1024A00070E0422F0E94110381E896E060E070E046
:1024B0000E941603819FC001112490932F078093DF
:1024C0002E07D4C18AE197E068E675E00E94411AC0
:1024D0000E94A508882309F1809130079091310767
:1024E0006CEB72E00E941108AA2797FDA095BA2F05
:1024F000BC01CD010E94401C20E030E040EA50E4E5
:102500000E94A51B0E940D1C9B01AC0181E896E076
:1025100061E070E0422F0E94110381E896E061E0E3
:1025200070E00E941603819FC0011124909331072F
:10253000809330079BC18AE197E065E775E00E94D0
:10254000411A0E94A508882309F1809132079091D1
:10255000330764E670E00E941108AA2797FDA09552
:10256000BA2FBC01CD010E94401C20E030E040EABF
:1025700050E40E94A51B0E940D1C9B01AC0181E848
:1025800096E062E070E0422F0E94110381E896E03D
:1025900062E070E00E941603819FC00111249093B5
:1025A00033078093320762C18AE197E06FE775E0F5
:1025B0000E94411A0E94A508882309F180913407DE
:1025C0009091350764E670E00E941108AA2797FDF4
:1025D000A095BA2FBC01CD010E94401C20E030E044
:1025E00040EA50E40E94A51B0E940D1C9B01AC0117
:1025F00081E896E063E070E0422F0E94110381E8D9
:1026000096E063E070E00E941603819FC0011124F0
:10261000909335078093340729C18AE197E069E8F0
:1026200075E00E94411A0E94A508882309F1809153
:102630003607909137076CEB72E00E941108AA27C9
:1026400097FDA095BA2FBC01CD010E94401C20E04F
:1026500030E040EA50E40E94A51B0E940D1C9B0143
:10266000AC0181E896E064E070E0422F0E94110323
:1026700081E896E064E070E00E941603819FC0014B
:1026800011249093370780933607F0C08AE197E0D2
:1026900069E975E00E94411A0E94A508882309F1A2
:1026A00080913807909139076CEB72E00E94110815
:1026B000AA2797FDA095BA2FBC01CD010E94401C0E
:1026C00020E030E040EA50E40E94A51B0E940D1C6F
:1026D0009B01AC0181E896E065E070E0422F0E942A
:1026E000110381E896E065E070E00E941603819F87
:1026F000C00111249093390780933807B7C08AE14D
:1027000097E069EA75E00E94411A0E94A5088823B3
:1027100009F180913A0790913B076CEB72E00E94BF
:102720001108AA2797FDA095BA2FBC01CD010E94E0
:10273000401C20E030E040EA50E40E94A51B0E94CB
:102740000D1C9B01AC0181E896E066E070E0422F31
:102750000E94110381E896E066E070E00E94160393
:10276000819FC001112490933B0780933A077EC05C
:102770008AE197E069EB75E00E94411A0E94A50882
:10278000882309F180913C0790913D076CEB72E042
:102790000E941108AA2797FDA095BA2FBC01CD0170
:1027A0000E94401C20E030E040EA50E40E94A51B5B
:1027B0000E940D1C9B01AC0181E896E067E070E08F
:1027C000422F0E94110381E896E067E070E00E94CA
:1027D0001603819FC001112490933D0780933C070D
:1027E00045C08AE197E069EC75E00E94411A0E94B9
:1027F000A508882309F180913E0790913F076CE27C
:1028000071E00E941108AA2797FDA095BA2FBC017C
:10281000CD010E94401C20E030E040EA50E40E94DC
:10282000A51B0E940D1C9B01AC0181E896E068E0AD
:1028300070E0422F0E94110381E896E068E070E0AA
:102840000E941603819FC001112490933F0780933B
:102850003E070CC08AE197E06FE074E00E94411AE5
:102860000E94A508882311F00E94DA1060910D06DD
:1028700070910E06882777FD8095982F0E9401158C
:102880000E949106882309F4A6CD1F9108950E9405
:10289000350684E090E00E94CB089093490780932E
:1028A000480781309105C9F0823091051CF4892BCD
:1028B00039F039C082309105E9F00397A1F527C0BE
:1028C0008AE197E069ED75E00E94411A0E94A5082F
:1028D000882349F10E94360726C08AE197E064EE1A
:1028E00075E00E94411A0E94A5088823E1F00E9429
:1028F000071019C08AE197E06FEE75E00E94411A57
:102900000E94A508882379F00E94E8110CC08AE192
:1029100097E06EEF75E00E94411A0E94A508882397
:1029200011F00E94B50A60910D0670910E0688277D
:1029300077FD8095982F0E940115089580E061E051
:102940000E94F81581E060E00E94F81582E297E0AD
:1029500063E270E00E94840186E297E06FE170E03C
:102960000E9484018AE297E062E270E00E948401A2
:1029700008951F920F920FB60F9211242F933F9339
:102980008F939F93AF93BF9380914E0790914F0782
:10299000A0915007B0915107309152070196A11DA7
:1029A000B11D232F2D5F2D3720F02D570196A11D2E
:1029B000B11D2093520780934E0790934F07A09329
:1029C0005007B093510780914A0790914B07A0910F
:1029D0004C07B0914D070196A11DB11D80934A0788
:1029E00090934B07A0934C07B0934D07BF91AF91C5
:1029F0009F918F913F912F910F900FBE0F901F903D
:102A00001895AF92BF92CF92DF92EF92FF920F9301
:102A10001F935B016C019FB7F89420914A07309196
:102A20004B0740914C0750914D0782B7E82EFF2489
:102A300000E010E006B600FE0AC08FEFE816F104D1
:102A40000105110521F02F5F3F4F4F4F5F4F9FBF93
:102A5000B42FA32F922F88278E0D9F1DA01FB11F6B
:102A600012E0880F991FAA1FBB1F1A95D1F7BC014E
:102A700038C09FB7F89420914A0730914B07409196
:102A80004C0750914D0782B7E82EFF2400E010E07C
:102A900006B600FE0AC08FEFE816F1040105110525
:102AA00021F02F5F3F4F4F4F5F4F9FBFB42FA32F9A
:102AB000922F88278E0D9F1DA01FB11FE2E0880F67
:102AC000991FAA1FBB1FEA95D1F7861B970B885E3B
:102AD000934078F20894A108B108C108D108685160
:102AE0007C4FA114B104C104D10419F61F910F91B8
:102AF000FF90EF90DF90CF90BF90AF900895E82FB8
:102B0000E695E695E695A82FB0E0613099F42FB7E9
:102B1000F894F0E0EE0FFF1FE35EF94F0190F081B3
:102B2000E02D9081A770B070A15AB94F8C91982B6D
:102B3000908313C02FB7F894F0E0EE0FFF1FE35E11
:102B4000F94F0190F081E02D9081A770B070A15AEB
:102B5000B94F8C918095892380832FBF0895A82F2A
:102B6000E82FE695E695E695F0E0EE0FFF1FE55DB0
:102B7000F94F0190F081E02DE081B0E0A770B070D6
:102B8000A15AB94F8C91E82309F0E1E08E2F089506
:102B9000E82FE695E695E695A82FB0E0613099F428
:102BA0002FB7F894F0E0EE0FFF1FE15FF94F0190AF
:102BB000F081E02D9081A770B070A15AB94F8C912F
:102BC000982B908313C02FB7F894F0E0EE0FFF1FFF
:102BD000E15FF94F0190F081E02D9081A770B07016
:102BE000A15AB94F8C918095892380832FBF089576
:102BF000E82FF0E0613051F4EE0FFF1FE35EF94F74
:102C00000190F081E02D8FEF80830895EE0FFF1F7C
:102C1000E35EF94F0190F081E02D10820895E82FD6
:102C2000F0E0EE0FFF1FE55DF94F0190F081E02D20
:102C300080810895E82FF0E0EE0FFF1FE15FF94F6C
:102C40000190F081E02D60830895982F80913906DE
:102C5000813051F4109261001092620080E487B9D3
:102C600087EE86B91092390680913A06981721F4BA
:102C7000349A349BFECF0DC090933A0687B197707B
:102C8000807E892B87B9349A349BFECF349A349B4B
:102C9000FECF24B135B1C9010895853031F48FB527
:102CA00080688FBD8FB58F7B0FC0843031F48FB5B6
:102CB00080628FBD8FB58F7E07C0833039F48FB5AA
:102CC00088608FBD8FB58B7F8FBD0895823049F4AA
:102CD00080918B00806880938B0080918B008F7B2C
:102CE0000AC0813059F480918B00806280938B0000
:102CF00080918B008F7E80938B000895882351F400
:102D000080918B00886080938B0080918B008B7FFB
:102D100080938B00089585B5887F826085BD14BC43
:102D200087B7806487BF089595B5987F982B95BD28
:102D30000895803140F4E82FF0E0EE0FFF1FEC5AC9
:102D4000F84F718360830895893031F48FB58260C4
:102D50008FBD8FB58E7F0AC08A3019F48FB582601F
:102D600002C08FB58D7F8FBD8FB581608FBD1BBCBD
:102D70001ABC19BC18BC1092790010927800089502
:102D8000893049F480918B00826080938B00809120
:102D90008B008E7F0EC08A3021F480918B00826080
:102DA00003C080918B008D7F80938B0080918B007E
:102DB000816080938B0010928700109286001092A1
:102DC0008500109284001092830010928200089572
:102DD000FF920F931F93CF93DF93182FF62E072F99
:102DE0008D31B0F08F3111F413E014C08E3111F435
:102DF00014E010C08D3109F4B1C0853211F410E037
:102E000044C0843211F411E040C0833219F4A4C0EC
:102E10008330D8F18091530786FD12C08EB5887F2C
:102E200083608EBD1DBC1CBC87B7846087BF78944F
:102E30008AE00E94A4168091530780648093530710
:102E400080915307C12FD0E090E0012E02C09595EC
:102E500087950A94E2F780FD59C087B3FE01E959CE
:102E6000F94F9081892B87BB812F0E944D162091AD
:102E7000530781E090E0012E02C0880F991F0A9449
:102E8000E2F7282B2093530741C08091530787FD19
:102E900018C080918A00887F836080938A00109296
:102EA00089001092880080917D00846080937D006D
:102EB00078948AE00E94C0168091530780688093BE
:102EC000530780915307C12FD0E090E0012E02C03C
:102ED000959587950A94E2F780FD22C082B1FE01A4
:102EE000E959F94F9081892B82B9812F0E944D16A3
:102EF0002091530781E090E0012E02C0880F991FB6
:102F00000A94E2F7282B209353070AC0153019F4CE
:102F10000BBDFABC25C0143019F409BDF8BC20C0A3
:102F2000133029F400937900F092780019C0123020
:102F300029F400938700F092860012C0113029F422
:102F400000938500F09284000BC0112349F4009394
:102F50008300F092820004C012E097CF15E05ACFB0
:102F6000DF91CF911F910F91FF9008951F920F92C3
:102F70000FB60F920BB60F9211242F933F934F93DE
:102F80005F936F937F938F939F93AF93BF93EF93D1
:102F9000FF9380915A0790915B07892B29F0E0916C
:102FA0005A07F0915B070995FF91EF91BF91AF919F
:102FB0009F918F917F916F915F914F913F912F9151
:102FC0000F900BBE0F900FBE0F901F9018951F9281
:102FD0000F920FB60F920BB60F9211242F933F93BF
:102FE0004F935F936F937F938F939F93AF93BF9311
:102FF000EF93FF938091640790916507892B29F0E7
:10300000E0916407F09165070995FF91EF91BF91F9
:10301000AF919F918F917F916F915F914F913F9170
:103020002F910F900BBE0F900FBE0F901F90189511
:103030001F920F920FB60F920BB60F9211242F937F
:103040003F934F935F936F937F938F939F93AF9330
:10305000BF93EF93FF9380916A0790916B07892B41
:1030600029F0E0916A07F0916B070995FF91EF91C4
:10307000BF91AF919F918F917F916F915F914F9190
:103080003F912F910F900BBE0F900FBE0F901F908E
:1030900018951F920F920FB60F920BB60F92112434
:1030A0002F933F934F935F936F937F938F939F9350
:1030B000AF93BF93EF93FF9380915607909157077B
:1030C000892B29F0E0915607F09157070995FF9158
:1030D000EF91BF91AF919F918F917F916F915F9190
:1030E0004F913F912F910F900BBE0F900FBE0F90FD
:1030F0001F9018951F920F920FB60F920BB60F925A
:1031000011242F933F934F935F936F937F938F93EC
:103110009F93AF93BF93EF93FF9380915C07909140
:103120005D07892B29F0E0915C07F0915D07099517
:10313000FF91EF91BF91AF919F918F917F916F918F
:103140005F914F913F912F910F900BBE0F900FBE4B
:103150000F901F9018951F920F920FB60F920BB6FB
:103160000F9211242F933F934F935F936F937F930D
:103170008F939F93AF93BF93EF93FF9380915E07DD
:1031800090915F07892B29F0E0915E07F0915F072E
:103190000995FF91EF91BF91AF919F918F917F9191
:1031A0006F915F914F913F912F910F900BBE0F90B8
:1031B0000FBE0F901F9018951F920F920FB60F928F
:1031C0000BB60F9211242F933F934F935F936F93FE
:1031D0007F938F939F93AF93BF93EF93FF938091D0
:1031E000600790916107892B29F0E0916007F091C9
:1031F00061070995FF91EF91BF91AF919F918F91D9
:103200007F916F915F914F913F912F910F900BBEE6
:103210000F900FBE0F901F9018951F920F920FB630
:103220000F920BB60F9211242F933F934F935F93FE
:103230006F937F938F939F93AF93BF93EF93FF937E
:103240008091620790916307892B29F0E0916207D2
:10325000F09163070995FF91EF91BF91AF919F9115
:103260008F917F916F915F914F913F912F910F902F
:103270000BBE0F900FBE0F901F9018951F920F92CC
:103280000FB60F920BB60F9211242F933F934F93CB
:103290005F936F937F938F939F93AF93BF93EF93BE
:1032A000FF938091660790916707892B29F0E09141
:1032B0006607F09167070995FF91EF91BF91AF9174
:1032C0009F918F917F916F915F914F913F912F913E
:1032D0000F900BBE0F900FBE0F901F9018951F926E
:1032E0000F920FB60F920BB60F9211242F933F93AC
:1032F0004F935F936F937F938F939F93AF93BF93FE
:10330000EF93FF9380916C0790916D07892B29F0C3
:10331000E0916C07F0916D070995FF91EF91BF91D6
:10332000AF919F918F917F916F915F914F913F915D
:103330002F910F900BBE0F900FBE0F901F901895FE
:103340001F920F920FB60F920BB60F9211242F936C
:103350003F934F935F936F937F938F939F93AF931D
:10336000BF93EF93FF9380916E0790916F07892B26
:1033700029F0E0916E07F0916F070995FF91EF91A9
:10338000BF91AF919F918F917F916F915F914F917D
:103390003F912F910F900BBE0F900FBE0F901F907B
:1033A00018951F920F920FB60F920BB60F92112421
:1033B0002F933F934F935F936F937F938F939F933D
:1033C000AF93BF93EF93FF93809170079091710734
:1033D000892B29F0E0917007F09171070995FF9111
:1033E000EF91BF91AF919F918F917F916F915F917D
:1033F0004F913F912F910F900BBE0F900FBE0F90EA
:103400001F9018951F920F920FB60F920BB60F9246
:1034100011242F933F934F935F936F937F938F93D9
:103420009F93AF93BF93EF93FF9380917207909117
:103430007307892B29F0E0917207F09173070995C2
:10344000FF91EF91BF91AF919F918F917F916F917C
:103450005F914F913F912F910F900BBE0F900FBE38
:103460000F901F90189583E061E00E94F81584E0AA
:1034700061E00E94F81578940E949E140E944714FF
:10348000FDCF0F931F93CF93DF938C01EB0109C006
:103490002196D801ED91FC910190F081E02DC801B9
:1034A000099568816623A1F7DF91CF911F910F9154
:1034B00008952F923F924F925F926F927F928F92D8
:1034C0009F92AF92BF92CF92DF92EF92FF920F93B3
:1034D0001F93DF93CF93CDB7DEB7A0970FB6F894C5
:1034E000DEBF0FBECDBF1C016A017B014115510536
:1034F0006105710549F4DC01ED91FC910190F081C9
:10350000E02D60E3099554C0882499245401422E8B
:1035100055246624772401E010E00C0F1D1F080DD0
:10352000191DC701B601A30192010E942F1DF801C8
:1035300060830894811C911CA11CB11CC701B601B9
:10354000A30192010E942F1DC901DA016C017D01C6
:10355000C114D104E104F104F1F681E0E82EF12C6C
:10356000EC0EFD1EE80CF91C3E010894611C711C58
:10357000D501C4010197A109B1096C01C818D90886
:1035800014C0F601EE0DFF1D60816A3010F4605D1D
:1035900001C0695CD101ED91FC910190F081E02DB9
:1035A000C10109950894E108F1086E147F0449F7F8
:1035B000A0960FB6F894DEBF0FBECDBFCF91DF91BE
:1035C0001F910F91FF90EF90DF90CF90BF90AF9041
:1035D0009F908F907F906F905F904F903F902F9033
:1035E0000895EF92FF920F931F93CF93DF93EC0117
:1035F0007A018B0177FF0FC0E881F9810190F0819A
:10360000E02D6DE2099510950095F094E094E11C91
:10361000F11C011D111DCE01B801A7012AE00E9475
:10362000591ADF91CF911F910F91FF90EF9008955C
:10363000DC012115310541F4ED91FC910190F081FF
:10364000E02D642F099508952A30310519F40E9460
:10365000F11A08950E94591A0895EF92FF920F935C
:103660001F937B019A010027F7FC0095102FB801EA
:10367000A7010E94181B1F910F91FF90EF900895D2
:103680005058BB27AA270ED04DC13ED130F043D1B0
:1036900020F031F49F3F11F41EF433C10EF4E09595
:1036A000E7FB29C1E92F4FD180F3BA1762077307EF
:1036B0008407950718F071F49EF567C10EF4E09544
:1036C0000B2EBA2FA02D0B01B90190010C01CA01DC
:1036D000A0011124FF27591B99F0593F50F4503E87
:1036E00068F11A16F040A22F232F342F4427585F79
:1036F000F3CF469537952795A795F0405395C9F791
:103700007EF41F16BA0B620B730B840BBAF0915048
:10371000A1F0FF0FBB1F661F771F881FC2F70EC0E7
:10372000BA0F621F731F841F48F4879577956795BA
:10373000B795F7959E3F08F0B3CF9395880F08F0A3
:103740009927EE0F9795879508950CD0EBC0E3D09D
:1037500040F0DAD030F021F45F3F19F0CCC05111C5
:1037600015C1CFC0F0D098F39923C9F35523B1F315
:10377000951B550BBB27AA2762177307840738F0E0
:103780009F5F5F4F220F331F441FAA1FA9F333D03F
:103790000E2E3AF0E0E830D091505040E695001CF3
:1037A000CAF729D0FE2F27D0660F771F881FBB1FAF
:1037B000261737074807AB07B0E809F0BB0B802D89
:1037C000BF01FF2793585F4F2AF09E3F510568F0D5
:1037D00092C0DCC05F3FECF3983EDCF386957795B2
:1037E0006795B795F7959F5FC9F7880F911D9695D7
:1037F000879597F90895E1E0660F771F881FBB1F33
:10380000621773078407BA0720F0621B730B840BDF
:10381000BA0BEE1F88F7E095089504D06894B111B3
:10382000B5C0089598D088F09F5790F0B92F992788
:10383000B751A0F0D1F0660F771F881F991F1AF0BB
:10384000BA95C9F712C0B13081F09FD0B1E00895A8
:103850009CC0672F782F8827B85F39F0B93FCCF329
:10386000869577956795B395D9F73EF490958095B1
:10387000709561957F4F8F4F9F4F0895E89409C0D1
:1038800097FB3EF490958095709561957F4F8F4F93
:103890009F4F9923A9F0F92F96E9BB279395F695A9
:1038A000879577956795B795F111F8CFFAF4BB0F27
:1038B00011F460FF1BC06F5F7F4F8F4F9F4F16C08B
:1038C000882311F096E911C0772321F09EE8872F15
:1038D000762F05C0662371F096E8862F70E060E0D1
:1038E0002AF09A95660F771F881FDAF7880F96954A
:1038F000879597F9089597F99F6780E870E060E0F1
:1039000008959FEF80EC089500240A941616170678
:1039100018060906089500240A94121613061406C0
:1039200005060895092E0394000C11F4882352F023
:10393000BB0F40F4BF2B11F460FF04C06F5F7F4FDB
:103940008F4F9F4F089557FD9058440F551F59F0C2
:103950005F3F71F04795880F97FB991F61F09F3F7C
:1039600079F087950895121613061406551FF2CFA5
:103970004695F1DF08C0161617061806991FF1CFF5
:1039800086957105610508940895E894BB2766271C
:103990007727CB0197F908950BD0C4CFB5DF28F076
:1039A000BADF18F0952309F0A6CFABCF1124EECFE4
:1039B000CADFA0F3959FD1F3950F50E0551F629F8A
:1039C000F001729FBB27F00DB11D639FAA27F00D78
:1039D000B11DAA1F649F6627B00DA11D661F829F9F
:1039E0002227B00DA11D621F739FB00DA11D621F84
:1039F000839FA00D611D221F749F3327A00D611DA1
:103A0000231F849F600D211D822F762F6A2F112482
:103A10009F5750408AF0E1F088234AF0EE0FFF1FD5
:103A2000BB1F661F771F881F91505040A9F79E3F0C
:103A3000510570F060CFAACF5F3FECF3983EDCF306
:103A4000869577956795B795F795E7959F5FC1F749
:103A5000FE2B880F911D9695879597F90895A1E201
:103A60001A2EAA1BBB1BFD010DC0AA1FBB1FEE1FF8
:103A7000FF1FA217B307E407F50720F0A21BB30B43
:103A8000E40BF50B661F771F881F991F1A9469F7BF
:103A900060957095809590959B01AC01BD01CF011B
:103AA0000895EE0FFF1F0590F491E02D0994E19920
:103AB000FECF9FBB8EBBE09A99278DB30895262F2A
:103AC000E199FECF9FBB8EBB2DBB0FB6F894E29A57
:0C3AD000E19A0FBE01960895F894FFCF14
:103ADC0020202020202020202020202020202020DA
:103AEC0000506172616D7320446F6E65004D6F768E
:103AFC00656D656E7420426567696E7320696E0032
:103B0C00332E2E2E00322E2E2E00312E2E2E005A1B
:103B1C004C205472696767657200496E2050726F51
:103B2C0067726573732E2E2E0054454C4553434FCC
:103B3C0050452041524D0049520053574954434877
:103B4C0045530049444F4C204752414200504C4190
:103B5C004345484F4C44455200204375723A20006F
:103B6C004E65773A2000596573004E6F0053303A1A
:103B7C0020436F6C6C6563742041726D0053313A55
:103B8C0020537765657065720053323A203C20559E
:103B9C006E75736564203E004D303A204D6F746F26
:103BAC0072204C656674004D313A203C20556E7580
:103BBC00736564203E004D323A204D6F746F722055
:103BCC005269676874004D333A203C20556E75730A
:103BDC006564203E0044303A203C20556E75736578
:103BEC0064203E0044313A203C20556E7573656468
:103BFC00203E0044323A203C20556E75736564209B
:103C0C003E0044333A203C20556E75736564203E6B
:103C1C000044343A203C20556E75736564203E0098
:103C2C0044353A203C20556E75736564203E004443
:103C3C00363A203C20556E75736564203E0044373F
:103C4C003A203C20556E75736564203E0044383A2A
:103C5C00203C20556E75736564203E0044393A2033
:103C6C003C20556E75736564203E004431303A201B
:103C7C003C20556E75736564203E004431313A200A
:103C8C003C20556E75736564203E004431323A20F9
:103C9C003C20556E75736564203E004431333A20E8
:103CAC003C20556E75736564203E004431343A20D7
:103CBC003C20556E75736564203E004431353A20C6
:103CCC003C20556E75736564203E0041303A203CB3
:103CDC0020556E75736564203E0041313A203C20BE
:103CEC00556E75736564203E0041323A203C205578
:103CFC006E75736564203E0041333A203C20556E4E
:103D0C0075736564203E0041343A20515244204C76
:103D1C006566740041353A205152442052696768F7
:103D2C00740041363A204D656E75204B6E6F620003
:103D3C0041373A2056616C7565204B6E6F620041BD
:103D4C006E616C6F673F004469676974616C3F001A
:103D5C004D6F746F723F00536572766F3F004C204D
:103D6C005152443A2000204F4E20004F464620002E
:103D7C0052205152443A2000536572766F00204015
:103D8C0020506F732000536572766F20003A20002C
:103D9C0043763A20002046696E3A2000436F6C6CE3
:103DAC0065637465722041726D005377656570654B
:103DBC0072004556454E20537472616967687400F1
:103DCC002B00204C6566740020526967687400549F
:103DDC00657374204672776444726976653F003C63
:103DEC00204E4558542050414745203E004C204D14
:103DFC004F543A200052204D4F543A2000466F72D7
:103E0C007761726420534C4F57004261636B77614A
:103E1C00726420534C4F57004C65667420534C4FC2
:103E2C005700526967687420534C4F5700466F72A5
:103E3C00776172642046415354004261636B776131
:103E4C0072642046415354004C65667420464153BD
:103E5C00540052696768742046415354005465738A
:103E6C007420482D4272696467653F005465737411
:103E7C002054617065466F6C6C6F773F00546573AE
:103E8C00742053776974636865733F005465737469
:103E9C0020536572766F733F0054657374205152D2
:103EAC0044733F0054657374204952204465746513
:103EBC0063743F00546573742054656C2E204172FA
:103ECC006D3F0054657374205A4C205472696767B7
:103EDC0065723F00546573742049646F6C4772615E
:103EEC00623F004C6F74732D537472616967687410
:103EFC00004C61726765204572726F72204D756C53
:103F0C007400536572766F2044656C61790053655B
:103F1C0072766F2044656661756C74506F730049DE
:103F2C006E697420454550524F4D004C20515244FF
:103F3C0020546872657368005220515244205468B2
:103F4C00726573680050726F70204761696E00442F
:103F5C00657276204761696E004C20426173652062
:103F6C004D6F745370656564005220426173652017
:103F7C004D6F745370656564004D6F746F7246615C
:103F8C007374205370656564004D6F746F72536C5D
:103F9C006F7720537065656400536C696768742D86
:103FAC0053747261696768740046756C6C204D6F50
:103FBC0064653F0044656D6F204D6F64653F004143
:103FCC00646A75737420506172616D733F0050693F
:103FDC006E6F75742047756964653F00FF3200325F
:103FEC000035003B003800230062006500310034CE
:103FFC00003A0037002200610064003000330039C1
:10400C0000360021002000630001FF180019002673
:10401C00002700050004000100000000000000560D
:10402C000200000000A104580480045D0497040100
:0E403C00020408102040802010088040200060
:00000001FF
