:100000000C9448000C947D000C947D000C947D00B1
:100010000C947D000C947D000C947D000C947D006C
:100020000C947D000C94F4240C949D230C94C32414
:100030000C9430240C9461240C946C230C94FF23B6
:100040000C9465200C947D000C941A030C946003AE
:100050000C947D000C947D000C947D000C947D002C
:100060000C9492240C94B8250C9425250C945625B8
:100070000C9487250C94CE230C94B9030C94FF03A5
:100080000C947D000C947D000C947D00CB046605DF
:1000900011241FBECFEFD0E1DEBFCDBF88E483BF08
:1000A00083B7887F846083BF12BE87B7816087BFB4
:1000B000789418E0A0E0B1E0E4EBF3E500E00BBFDA
:1000C00002C007900D92A63BB107D9F719E0A6EB45
:1000D000B8E001C01D92A63CB107E1F710E0C0E90D
:1000E000D0E004C02297FE010E94BF29CC38D1077E
:1000F000C9F70E94E9250C94D8290C9400000F93AD
:100100001F93CF93DF93EB018A01CC0FDD1F57FDC7
:100110000CC0FE01EC57F74F808161E00E947E2108
:10012000C457D74F8881B8010EC0FE01EC57F74F76
:10013000808160E00E947E21C457D74F66277727D1
:10014000601B710B88810E949E22DF91CF911F91CD
:100150000F9108951F93CF93DF93C0E0D0E0FE018D
:10016000EC57F74F1081812F61E00E943521812FDC
:1001700061E00E947E21FE01E457F74F808160E03C
:1001800070E00E949E222296C830D10541F7DF918F
:10019000CF911F910895FC0110828AE090E0938333
:1001A00082830895CF93DF93EC01882777FD8095B4
:1001B000982F0E948D2820E030E044E353E40E9411
:1001C000F22720E030E040EF51E40E94192920E0BE
:1001D00030E040E251E40E948E270E945F28CB016C
:1001E0006A30710510F48AE090E08932910510F0D0
:1001F00088E290E09B838A83DF91CF910895E0911C
:100200005708E7FD15C0FF27E7FDF095EE0FFF1F2C
:10021000EA54F74F0190F081E02D818160E00E9467
:100220007E2106C02F5F81919191892B69F00EC0CC
:10023000209157082F5FE22FFF27E7FDF09521500F
:10024000EE0FFF1FEA54F74F273064F3209357084F
:10025000E0915708FF27E7FDF095EE0FFF1FEA54E6
:10026000F74F0190F081E02D309761F48FEF80938C
:10027000570824EF31E08091C7089091C808281BE7
:10028000390B12C0818161E00E947E21E091570804
:10029000FF27E7FDF095EE0FFF1FEA54F74F01909F
:1002A000F081E02D2281338183B5820F83BD80915F
:1002B000C7089091C808820F931F9093C808809335
:1002C000C708845F914020F01092C8081092C708B8
:1002D00008950E94412287B78F7787BF85E00E94EB
:1002E0004A2289E06FEF70E00E944F2283B58C5064
:1002F00083BD87B7806887BF1092C8081092C7086F
:100300008FEF809357080895CF93DF93EC0180918E
:10031000C608893010F080E03DC06983862F61E017
:100320000E943521E881F0E0EE0FFF1FEA54F74FFD
:1003300080819181C817D90761F14091C608442393
:1003400041F4E6EBF8E01192119288E0E63CF80700
:10035000D1F7E6EBF8E020E030E080819181892B55
:1003600061F4F901EE0FFF1FEA54F74FD183C08308
:1003700028834F5F4093C60806C02F5F3F4F3296D9
:100380002830310551F78091C608813011F40E9460
:10039000690181E0DF91CF910895CF93DF93EC0164
:1003A0008A8160E00E947E218D8160E00E94AE2102
:1003B0008D8160E00E94D0218B8161E00E947E21CE
:1003C0008C8161E00E947E210000000010C08C81C1
:1003D00060E00E947E2100000000000000008C818F
:1003E00061E00E947E2100000000000000008D817D
:1003F0000E94C52187FDEBCF8C8160E00E947E21A9
:10040000DF91CF910895FF920F931F938C01F62EE9
:100410000E94CD01F801828161E00E947E21F801F5
:10042000838160E00E947E21F801848161E00E9466
:100430007E21F801858161E00E94AE21F80185816D
:100440006F2D0E94D0210000000000000000F80184
:10045000848160E00E947E21F801858160E00E9435
:10046000AE21F80185816FEF0E94D0211F910F917D
:10047000FF900895EF92FF920F931F93CF93DF9316
:100480007C01042F6115710551F0EB0110E005C0EE
:10049000C70169910E9403021F5F1017C8F3DF9123
:1004A000CF911F910F91FF90EF900895DF93CF931D
:1004B0000F92CDB7DEB76983BE016F5F7F4F41E01A
:1004C0000E943A020F90CF91DF910895FF920F930F
:1004D0001F938C01F62E0E94CD01F801828160E00D
:1004E0000E947E21F801838160E00E947E21F80154
:1004F000848161E00E947E21F801858161E00E9493
:10050000AE21F80185816F2D0E94D02100000000EE
:1005100000000000F801848160E00E947E21F80163
:10052000858160E00E94AE21F80185816FEF0E9415
:10053000D0211F910F91FF900895423031F0433048
:1005400031F0413029F4605C03C06C5E01C06C5A2C
:1005500060680E946602089562E00E946602089543
:1005600061E00E94660208950F931F938C01FC01C5
:10057000828160E00E947E21F801838160E00E9418
:100580007E21F801848160E00E947E21F801828151
:1005900061E00E943521F801838161E00E943521EC
:1005A000F801848161E00E943521F801858160E0D5
:1005B0000E94AE21F80185816FEF0E94D0211F912A
:1005C0000F9108950F931F938C010E94B402C801EC
:1005D00068E30E946602C80161E00E946602C801E9
:1005E00066E00E946602C8016CE00E946602C801D3
:1005F00062E00E946602C80160E80E9466021F91E4
:100600000F9108950F93FC0188E998E0918380830E
:100610006283438324830583CF010E94E2020F910A
:100620000895CB01642F0E94CB290895CB010E942D
:10063000C32908951F920F920FB60F920BB60F9217
:1006400011242F933F938F939F93EF93FF93E09108
:100650001409F091150920818091CE089091CF085E
:1006600080970CF58091CE089091CF0801969093D9
:10067000CF088093CE088091D0089091D108FC01DA
:10068000E653F74F228701969093D1088093D008C4
:100690002091CC083091CD088217930724F0109256
:1006A000D1081092D008FF91EF919F918F913F91C7
:1006B0002F910F900BBE0F900FBE0F901F901895AB
:1006C0001F920F920FB60F920BB60F9211242F9319
:1006D0003F934F938F939F93AF93BF93EF93FF936A
:1006E0008091F6089091F7081816190634F5A09134
:1006F0001409B09115098091F6089091F7080197B7
:100700009093F7088093F6088091FA089091FB087F
:10071000FC01E653F74F42A901969093FB088093A2
:10072000FA082091F4083091F5088217930724F015
:100730001092FB081092FA084C938091F608909161
:10074000F708892B31F4E0911209F091130988E937
:100750008083FF91EF91BF91AF919F918F914F91C6
:100760003F912F910F900BBE0F900FBE0F901F90D7
:1007700018951F920F920FB60F920BB60F9211247D
:100780002F933F938F939F93EF93FF93E091600993
:10079000F0916109208180911A0990911B0980973D
:1007A0000CF580911A0990911B09019690931B09F1
:1007B00080931A0980911C0990911D09FC01EA5E41
:1007C000F64F2287019690931D0980931C09209172
:1007D0001809309119098217930724F010921D0906
:1007E00010921C09FF91EF919F918F913F912F9152
:1007F0000F900BBE0F900FBE0F901F9018951F9279
:100800000F920FB60F920BB60F9211242F933F93B6
:100810004F938F939F93AF93BF93EF93FF938091E9
:100820004209909143091816190634F5A091600900
:10083000B091610980914209909143090197909389
:100840004309809342098091460990914709FC0130
:10085000EA5EF64F42A901969093470980934609B4
:1008600020914009309141098217930724F010929A
:100870004709109246094C9380914209909143098F
:10088000892B31F4E0915E09F0915F0988E980835A
:10089000FF91EF91BF91AF919F918F914F913F91B8
:1008A0002F910F900BBE0F900FBE0F901F901895B9
:1008B000FC0124813581C9010895DC01FC0184819A
:1008C0009581892B19F42FEF3FEF18C0FD0184812A
:1008D000958101979583848380859185E80FF91F21
:1008E00042850196FD01918780872281338182179D
:1008F000930714F011861086242F30E0C901089563
:10090000CF93DF93DC01EC018C819D81892B19F45D
:100910002FEF3FEF08C0ED01E885F985EA0FFB1FD7
:100920008285282F30E0C901DF91CF910895FC0125
:10093000158214828481958191878087978386832D
:100940000895DC01FD0184A595A54097DCF7F89496
:10095000FD0184A595A54097ACF484A595A50196C5
:1009600095A784A786A597A5E80FF91F62AB019606
:10097000FD0197A786A722A533A58217930714F038
:1009800017A616A6A85BBF4FED91FC9180818062EF
:100990008083789408956EE978E07093CB08609333
:1009A000CA0840E250E05093CD084093CC08109222
:1009B000CF081092CE088091CE089091CF089093E6
:1009C000D3088093D2089093D1088093D00820E177
:1009D00030E03093F5082093F4081092F708109255
:1009E000F6088091F6089091F7089093FB088093A1
:1009F000FA089093F9088093F80880E990E09093C2
:100A00000D0980930C0989E290E090930F0980937F
:100A10000E098BE290E090931109809310098AE20D
:100A200090E090931309809312098CE290E09093E8
:100A30001509809314097093170960931609509350
:100A400019094093180910921B0910921A098091F4
:100A50001A0990911B0990931F0980931E09909386
:100A60001D0980931C09309341092093400910927D
:100A70004309109242098091420990914309909351
:100A8000470980934609909345098093440988E972
:100A900090E0909359098093580989E990E09093E8
:100AA0005B0980935A098BE990E090935D098093EC
:100AB0005C098AE990E090935F0980935E098CE974
:100AC00090E090936109809360090895FF920F93DD
:100AD0001F9382E699E06AE14BE12CE102E00E947B
:100AE000020388E699E00E94AA008AE699E00E9443
:100AF000CB008EE699E00E94CB0082E799E00E944D
:100B0000CB0009EC18E0C80160E070E00E94160319
:100B100095E0F92E8F9DC001112490937709809361
:100B20007609C80161E070E00E9416038F9DC00144
:100B300011249093790980937809C80162E070E0EC
:100B40000E9416038F9DC001112490937B0980930E
:100B50007A09C80163E070E00E9416038F9DC0010E
:100B6000112490937D0980937C09C80164E070E0B2
:100B70000E9416038F9DC001112490937F098093DA
:100B80007E09C80165E070E00E9416038F9DC001D8
:100B900011249093810980938009C80166E070E078
:100BA0000E9416038F9DC0011124909383098093A6
:100BB0008209C80167E070E00E9416038F9DC001A2
:100BC00011249093850980938409C80168E070E03E
:100BD0000E9416038F9DC001112490938709809372
:100BE0008609C80169E070E00E9416038F9DC0016C
:100BF00011249093890980938809C8016AE070E004
:100C00000E94160380938A0910928B09C8016BE039
:100C100070E00E94160380938C0910928D09C80120
:100C20006CE070E00E9416038F9DC0011124909328
:100C30008F0980938E09C8016DE070E00E94160351
:100C40008F9DC00111249093910980939009C80150
:100C50006EE070E00E94160380939209109293094F
:100C6000C8016FE070E00E9416038093940910920F
:100C70009509C80160E170E00E941603809396090F
:100C800010929709C80161E170E00E9416038093F9
:100C90009809109299091F910F91FF900895EF9272
:100CA000FF920F931F93CF93DF937C01EB018A0197
:100CB00027C0EC16FD0614F4219704C0CE15DF05FD
:100CC0000CF421960130110549F00230110549F06C
:100CD0000115110559F48AE699E005C08EE699E000
:100CE00002C082E799E0BE010E94D20060918C09A7
:100CF00070918D09882777FD8095982F0E94AD20EF
:100D0000CE15DF05B1F6DF91CF911F910F91FF90C6
:100D1000EF9008950F931F9302E619E0C80160E079
:100D200041E00E949D02C80160E071E00E94F72549
:100D3000C80160E041E00E949D021F910F9108955B
:100D40000F931F9302E619E0C8010E94B002C80188
:100D50000E94AC021F910F9108950E94A00682E6A6
:100D600099E061E171E00E94F7256CED75E080E0AB
:100D700090E00E94AD2008950F931F930E94A0065B
:100D800002E619E0C8016CE171E00E94F725C80194
:100D900060E041E00E949D02C8016FE271E00E94A4
:100DA000F72568EE73E080E090E00E94AD20C80176
:100DB00060E041E00E949D02C80164E371E00E948E
:100DC000F72568EE73E080E090E00E94AD20C80156
:100DD00060E041E00E949D02C80169E371E00E9469
:100DE000F72568EE73E080E090E00E94AD200E945D
:100DF000A0061F910F910895EF92FF920F931F93FA
:100E00000E94A00602E619E0C8016EE371E00E94AC
:100E1000F725C80160E041E00E949D02C80168E436
:100E200071E00E94F72522E7E22E29E0F22EC701A9
:100E300062E370E00E94D20064EF71E080E090E035
:100E40000E94AD200E94A006C80160E571E00E94EA
:100E5000F725C80160E041E00E949D02C80169E5F4
:100E600071E00E94F725C70164EB70E00E94D20098
:100E700064EF71E080E090E00E94AD201F910F913F
:100E8000FF90EF900895CF93DF93EC010E94A006AE
:100E90002097E1F01C161D066CF08FEFCD3FD807B0
:100EA000B9F18FEFCF3FD80711F1CB5FDF4F09F0DA
:100EB00085C03FC0C330D10509F45DC0C530D10540
:100EC00009F46AC0219709F079C044C082E699E02C
:100ED00060E671E00E94F72582E699E060E041E07B
:100EE0000E949D0282E699E060E671E065C082E6BC
:100EF00099E061E771E00E94F72582E699E060E001
:100F000041E00E949D0282E699E065E771E054C0ED
:100F100082E699E066E871E00E94F72582E699E0B2
:100F200060E041E00E949D0282E699E066E871E09F
:100F300043C082E699E067E971E00E94F72582E606
:100F400099E060E041E00E949D0282E699E067E955
:100F500071E032C082E699E068EA71E00E94F7250C
:100F600082E699E060E041E00E949D0282E699E01D
:100F700068EA71E021C082E699E069EB71E00E94C5
:100F8000F72582E699E060E041E00E949D0282E65A
:100F900099E069EB71E010C082E699E06AEC71E0DB
:100FA0000E94F72582E699E060E041E00E949D0200
:100FB00082E699E06AEC71E00E94F725DF91CF911B
:100FC000089581E30E946521882311F080E008954F
:100FD00064EF71E080E090E00E94AD2081E0089530
:100FE0000E94A00616C082E699E00E94AC0282E64A
:100FF00099E06BED71E00E94F72582E699E060E0F0
:1010000041E00E949D0282E699E069EE71E00E9453
:10101000F7250E94E107882331F3089582E30E94B7
:101020006521882311F080E0089564EF71E080E08D
:1010300090E00E94AD2081E008950E94A00615C0B6
:101040000E94A00682E699E068EF71E00E94F72511
:1010500082E30E946521882311F40E94FC0662E36A
:1010600070E080E090E00E94AD200E94E1078823BC
:1010700039F308958AE00E946521811181E0089585
:1010800089E00E946521811181E0089532C00E94AB
:10109000A00682E699E063E072E00E94F7250E94D4
:1010A0004008882371F00E94A00682E699E060E182
:1010B00072E00E94F72568EE73E080E090E00E9405
:1010C000AD200E943A08882371F00E94A00682E6B3
:1010D00099E061E272E00E94F72568EE73E080E03B
:1010E00090E00E94AD2062E370E080E090E00E941A
:1010F000AD200E94E107882351F20895EF92FF92FC
:101100000F931F93CF93DF93EC0187E00E94DB21C5
:10111000AA2797FDA095BA2FBC01CD010E948D286A
:101120002AE939E949E95FE30E9419297B018C0129
:10113000BE01882777FD8095982F0E948D289B01FE
:10114000AC01C801B7010E94192920E030E040E855
:101150005AE30E9419290E945A286C177D071CF037
:10116000BE0161507040CB01DF91CF911F910F9173
:10117000FF90EF900895EF92FF920F931F93CF93FC
:10118000DF93F82EE92EEB0160C082E699E060E083
:1011900041E00E949D0282E699E060E071E00E94D9
:1011A000F72582E699E060E041E00E949D02CE01D1
:1011B0000E947E08182F092F82E699E0612F702F78
:1011C0004AE050E00E94E32682E699E062E372E0A2
:1011D0000E94F72582E699E06F2D7E2D4AE050E0CF
:1011E0000E94E3260E940E08882349F182E699E0D6
:1011F00060E041E00E949D0282E699E060E071E0DB
:101200000E94F72582E699E060E041E00E949D029D
:1012100082E699E069E372E00E94F72582E699E0B0
:10122000612F702F4AE050E00E94E3266CED75E0DC
:1012300080E090E00E94AD20612F702F0DC062E32E
:1012400070E080E090E00E94AD200E94E1078823DA
:1012500009F49BCF6F2D7E2DCB01DF91CF911F9194
:101260000F91FF90EF9008958F929F92AF92BF924F
:10127000CF92DF92EF92FF920F931F93982E892EB9
:101280005B01CC24B7FCC094DC2C5FC00E948A06B2
:10129000C601B5010E948D2820E030E040E250E414
:1012A0000E94F2270E945A28DC01CB018C010E9487
:1012B0007E08880F991F801B910BAA2797FDA09588
:1012C000BA2FBC01CD010E948D2820E030E040E221
:1012D00050E40E9419290E945A287B018C0182E661
:1012E00099E0B7014AE050E00E94E32682E699E0E7
:1012F00062E372E00E94F72582E699E0692D782D7D
:101300004AE050E00E94E3260E940E088823B9F0CC
:101310000E948A0682E699E069E372E00E94F7255E
:1013200082E699E0B7014AE050E00E94E3266CEDC6
:1013300075E080E090E00E94AD20B7010DC062E34F
:1013400070E080E090E00E94AD200E94E1078823D9
:1013500009F49CCF692D782DCB011F910F91FF903F
:10136000EF90DF90CF90BF90AF909F908F900895B7
:10137000CF92DF92EF92FF920F931F93CF93DF9361
:10138000D82EC92E7B010027F7FC0095102F4FC0E7
:101390000E948A06C801B7010E948D2820E030E033
:1013A00040EA50E40E94F2270E945A28DC01CB0157
:1013B0000E947E08EC01CC0FDD1FCC0FDD1FC80F93
:1013C000D91F82E699E0BE014AE050E00E94E32680
:1013D00082E699E062E372E00E94F72582E699E0F6
:1013E0006D2D7C2D4AE050E00E94E3260E940E08FD
:1013F0008823B9F00E948A0682E699E069E372E0E8
:101400000E94F72582E699E0BE014AE050E00E9482
:10141000E3266CED75E080E090E00E94AD20BE0117
:101420000DC062E370E080E090E00E94AD200E9479
:10143000E107882309F4ACCF6D2D7C2DCB01DF9122
:10144000CF911F910F91FF90EF90DF90CF90089573
:101450000F931F9382E090E00E947E088C0182E649
:1014600099E060E041E00E949D020130110561F4C5
:1014700082E699E06FE372E00E94F7250E940E0871
:10148000882349F081E007C082E699E063E472E0D6
:101490000E94F72580E01F910F910895CF92DF926F
:1014A000EF92FF920F931F93CF93DF938C010E94D3
:1014B000BC0682E699E066E472E00E94F72582E6C7
:1014C00099E0B8014AE050E00E94E32682E699E004
:1014D0006CE472E00E94F72560918E0970918F098B
:1014E00082E699E04AE050E00E94E32601301105CF
:1014F00069F00230110589F001151105E1F46091E0
:101500008E0970918F098AE699E00DC060918E096D
:1015100070918F098EE699E006C060918E097091F6
:101520008F0982E799E00E94D2006CED75E080E0BF
:1015300090E00E94AD20C0918E09D0918F090E9449
:10154000A00682E699E064E572E00E94F72582E653
:1015500099E0B8014AE050E00E94E32682E699E073
:101560006BE572E00E94F72568C00E948A0685EB51
:1015700090E00E947E086C0182E699E06EE572E0E0
:101580000E94F72582E699E0BE014AE050E00E9401
:10159000E32682E699E063E672E00E94F72582E6A0
:1015A00099E0B6014AE050E00E94E326EE24FF24D1
:1015B0002AC0CC16DD0614F4219704C0CC15DD0535
:1015C0000CF421960130110549F00230110549F063
:1015D0000115110559F48AE699E005C08EE699E0F7
:1015E00002C082E799E0BE010E94D20060918C099E
:1015F00070918D09882777FD8095982F0E94AD20E6
:101600000894E11CF11C60918C0970918D096F5F49
:101610007F4F882777FD8095982F0E948D289B010A
:10162000AC0160E070E088E492E40E94F2270E943E
:101630005A28E616F7060CF4BCCF0E94E10788236F
:1016400009F493CFDF91CF911F910F91FF90EF900D
:10165000DF90CF900895EF92FF920F931F93CF9357
:10166000DF93EC0186E00E94DB21AA2797FDA0957D
:10167000BA2FBC01CD010E948D282AE939E949E938
:101680005FE30E9419297B018C01BE01882777FD49
:101690008095982F0E948D289B01AC01C801B7014D
:1016A0000E94192920E030E040E85AE30E941929FD
:1016B0000E945A286C177D071CF0BE0161507040D3
:1016C000CB01DF91CF911F910F91FF90EF90089583
:1016D00040C00E94A00683E090E00E942B0B9093F4
:1016E0009B0980939A098130910591F08230910590
:1016F000E1F0892B41F582E699E06AE672E00E940A
:10170000F7250E94280A8823F1F080E090E019C0B4
:1017100082E699E068E772E00E94F7250E94280AB5
:10172000882389F081E090E00CC082E699E060E8CF
:1017300072E00E94F7250E94280A882321F082E0A7
:1017400090E00E944E0A62E370E080E090E00E9428
:10175000AD200E94E107882309F4BBCF08952CC077
:101760000E94A00682E090E00E942B0B90939B09C0
:1017700080939A09009719F00197C1F411C082E68D
:1017800099E06CE872E00E94F72582E699E060E05B
:1017900041E00E949D0282E699E06CE972E004C09B
:1017A00082E699E068EA72E00E94F72562E370E061
:1017B00080E090E00E94AD200E94E107882381F242
:1017C000089538C00E94A00682E090E00E942B0B92
:1017D00090939B0980939A09009719F0019721F53E
:1017E00011C082E699E068EB72E00E94F72582E67C
:1017F00099E060E041E00E949D0282E699E067EC9A
:1018000072E010C082E699E064ED72E00E94F72574
:1018100082E699E060E041E00E949D0282E699E064
:1018200064EE72E00E94F72562E370E080E090E0F1
:101830000E94AD200E94E107882321F20895D1C0C3
:101840000E94A00689E090E00E942B0B90939B09D8
:1018500080939A098430910509F467C08530910519
:1018600084F48130910571F1823091051CF4892B4B
:10187000C1F0B1C082309105B1F1039709F0ABC05E
:1018800043C08630910509F472C0863091050CF48E
:101890005DC08730910509F47BC0089709F09BC0B3
:1018A00088C082E699E06EEE72E00E94F72582E63B
:1018B00099E060E041E00E949D0282E699E06EEFCF
:1018C00072E087C082E699E06EE073E00E94F7253F
:1018D00082E699E060E041E00E949D0282E699E0A4
:1018E0006DE173E076C082E699E06CE273E00E94FD
:1018F000F72582E699E060E041E00E949D0282E6E1
:1019000099E06BE373E065C082E699E06AE473E016
:101910000E94F72582E699E060E041E00E949D0286
:1019200082E699E069E573E054C082E699E068E6F2
:1019300073E00E94F72582E699E060E041E00E94B2
:101940009D0282E699E067E773E043C082E699E092
:1019500065E873E00E94F72582E699E060E041E0E7
:101960000E949D0282E699E062E973E032C082E65D
:1019700099E062EA73E00E94F72582E699E060E070
:1019800041E00E949D0282E699E061EB73E021C094
:1019900082E699E061EC73E00E94F72582E699E027
:1019A00060E041E00E949D0282E699E061ED73E013
:1019B00010C082E699E061EE73E00E94F72582E6AE
:1019C00099E060E041E00E949D0282E699E061EFCB
:1019D00073E00E94F72562E370E080E090E00E94EF
:1019E000AD200E94E107882309F42ACF089565C03D
:1019F0000E94A00684E090E00E942B0B90939B092C
:101A000080939A0981309105F1F0823091051CF4A0
:101A1000892B41F04CC08230910531F1039709F0D8
:101A200046C033C082E699E061E074E00E94F72589
:101A300082E699E060E041E00E949D0282E699E042
:101A400060E174E032C082E699E06CE174E00E94EB
:101A5000F72582E699E060E041E00E949D0282E67F
:101A600099E069E274E021C082E699E068E374E0FD
:101A70000E94F72582E699E060E041E00E949D0225
:101A800082E699E065E474E010C082E699E063E5DF
:101A900074E00E94F72582E699E060E041E00E9450
:101AA0009D0282E699E061E674E00E94F72562E318
:101AB00070E080E090E00E94AD200E94E107882362
:101AC00009F496CF089552C00E94A00684E090E0E9
:101AD0000E942B0B90939B0980939A09813091056A
:101AE000C9F0823091051CF4892B39F039C082305D
:101AF0009105E9F00397A1F527C082E699E060E738
:101B000074E00E94F7250E94280A882349F10E9468
:101B1000F70C26C082E699E068E774E00E94F7259A
:101B20000E94280A8823E1F00E941F0C19C082E657
:101B300099E061E874E00E94F7250E94280A882352
:101B400079F00E94E10B0CC082E699E068E874E04D
:101B50000E94F7250E94280A882311F00E94AF0BEB
:101B600062E370E080E090E00E94AD200E94E10717
:101B7000882309F4A9CF08952EC081E090E00E9447
:101B80002B0B90939B0980939A090E94A006809149
:101B90009A0990919B09009719F00997B1F40DC02B
:101BA00082E699E06FE874E00E94F7250E94280A17
:101BB000882359F00E94AD0608C082E699E06BE9DF
:101BC00074E00E94F7250E94280A62E370E080E03A
:101BD00090E00E94AD200E94E107882371F20895F1
:101BE0000F931F93CF93DF934CC00E94A00681E018
:101BF0000E94DB21EC0182E00E94DB218C0182E665
:101C000099E066EA74E00E94F72583E0CF3FD807A9
:101C10001CF4CD33D1053CF482E699E06DEA74E022
:101C20000E94F72507C082E699E0BE014AE050E035
:101C30000E94E32682E699E060E041E00E949D0276
:101C400082E699E061EB74E00E94F72583E00F3FA4
:101C500018071CF40D3311053CF482E699E06DEA97
:101C600074E00E94F72507C082E699E0B8014AE0D7
:101C700050E00E94E32662E370E080E090E00E9482
:101C8000AD200E94E107882309F4AFCFDF91CF9107
:101C90001F910F910895EF92FF920F931F93CF938F
:101CA000DF93F8C00E94A00684E090E00E942B0B16
:101CB00090939B0980939A0984E00E94DB21EC01B8
:101CC00085E00E94DB218C0183E00E94DB217C0106
:101CD00080919A0990919B098130910509F46BC01C
:101CE000823091051CF4892B49F0CEC082309105D9
:101CF00009F483C0039709F0C7C0A1C082E699E048
:101D000068EB74E00E94F72580917609909177093D
:101D1000C817D9072CF082E699E06AEB74E004C09A
:101D200082E699E06DEB74E00E94F72582E699E087
:101D3000BE014AE050E00E94E32682E699E061ECB1
:101D400074E00E94F725809178099091790908172D
:101D500019072CF082E699E06AEB74E004C082E691
:101D600099E06DEB74E00E94F72582E699E0B801F6
:101D70004AE050E00E94E32682E699E060E041E01C
:101D80000E949D0282E699E064EC74E00E94F725CF
:101D90008091900990919109E816F9062CF082E65D
:101DA00099E06AEB74E004C082E699E06DEB74E0C0
:101DB0000E94F72562C082E699E066EC74E00E941A
:101DC000F7258091760990917709C817D9072CF0EB
:101DD00082E699E06EEC74E004C082E699E063ED7F
:101DE00074E00E94F72582E699E060E041E00E94FD
:101DF0009D0282E699E0BE0143C082E699E068ED6B
:101E000074E00E94F725809178099091790908176C
:101E100019072CF082E699E06EEC74E004C082E6CB
:101E200099E063ED74E00E94F72582E699E060E0B6
:101E300041E00E949D0282E699E0B80121C082E65D
:101E400099E060EE74E00E94F725809190099091EE
:101E50009109E816F9062CF082E699E06EEC74E040
:101E600004C082E699E063ED74E00E94F72582E603
:101E700099E060E041E00E949D0282E699E0B701AE
:101E80004AE050E00E94E32662E370E080E090E0E8
:101E90000E94AD200E94E107882309F403CFDF915F
:101EA000CF911F910F91FF90EF900895CF92DF9205
:101EB000EF92FF920F931F938AE699E060E070E043
:101EC0000E94D20000917E0910917F09E090800964
:101ED000F090810968E6C62E69E0D62E4427552782
:101EE0004E195F09401B510B4E5C5F4FC60160E00D
:101EF00070E00E947F00025310400E191F09C601B6
:101F000062E070E0A8010E947F0068EE73E080E06C
:101F100090E00E94AD201F910F91FF90EF90DF9015
:101F2000CF90089588E699E061E070E040E050E0ED
:101F30000E947F00089588E699E061E070E044EF38
:101F400051E00E947F000895AF92BF92CF92DF923E
:101F5000EF92FF920F931F936C015B010E949B0F06
:101F60000E94A00602E619E078EEE72E74E0F72E54
:101F7000C801B7010E94F725C80160E041E00E9456
:101F80009D02C80163EF74E00E94F72584EB90E0A6
:101F9000B60140E050E00E944F0664EF71E080E03F
:101FA00090E00E94AD200E94A006C801B7010E94E7
:101FB000F725C80160E041E00E949D02C8016EEF74
:101FC00074E00E94F72580E090E064EB70E040E070
:101FD00050E00E944F0664EF71E080E090E00E94C4
:101FE000AD200E94A006C80168E075E00E94F725B8
:101FF000C80160E041E00E949D02C80161E175E016
:102000000E94F72584E390E0B50141E050E00E9492
:102010004F0664EF71E080E090E00E94AD200E94E6
:10202000A006C8016EE175E00E94F725C80160E0D6
:1020300041E00E949D02C8016DE275E00E94F72513
:10204000809194099091950964E370E041E050E03B
:102050000E944F06809192099091930960E070E090
:1020600040E050E00E944F0664EF71E080E090E0B5
:102070000E94AD2064EF71E080E090E00E94AD200E
:1020800064EF71E080E090E00E94AD200E94920F2A
:102090001F910F91FF90EF90DF90CF90BF90AF9086
:1020A00008950F931F93CF93DF930E94BC06609116
:1020B0009209709193098AE699E00E94D20060919A
:1020C0009409709195098EE699E00E94D2006CED1A
:1020D00075E080E090E00E94AD200091920910919F
:1020E0009309C0919409D091950916C00E94A00649
:1020F00082E699E069E375E00E94F7250E944008B6
:10210000882321F0C801BE010E94A40F62E370E0A1
:1021100080E090E00E94AD200E94E107882331F327
:10212000DF91CF911F910F9108950F931F9308E6B0
:1021300019E0C80160E070E04AE050E00E947F00D2
:10214000C80162E070E04AE050E00E947F001F9109
:102150000F910895CF92DF92EF92FF920F931F930A
:10216000CF93DF9384E00E94DB216C0185E00E9425
:10217000DB217C0183E00E94DB21EC0111E001E026
:1021800036C044275527481B590B421B530B4E5C46
:102190005F4F88E699E060E070E00E947F00409128
:1021A0007E0950917F09425350408091800990915F
:1021B000810915C0280F391F2253304088E699E065
:1021C00060E070E0A9010E947F0040918009509179
:1021D00081094E5C5F4F80917E0990917F09481B79
:1021E000590B88E699E062E070E00E947F008091E0
:1021F000760990917709C816D9065CF58091900907
:1022000090919109C817D90724F580917809909188
:102210007909E816F906ECF40E94E1078823C9F46D
:1022200084E00E94DB216C0185E00E94DB217C01BF
:1022300083E00E94DB21EC011027809180099091BE
:10224000810920917E0930917F09112309F099CFEE
:10225000B1CF0E949510DF91CF911F910F91FF9008
:10226000EF90DF90CF9008956F927F928F929F9220
:10227000AF92BF92CF92DF92EF92FF920F931F9394
:10228000CF93DF930E94A0060E94BC066091920942
:10229000709193098AE699E00E94D20060919409B6
:1022A000709195098EE699E00E94D200AA24BB2481
:1022B000882499246624772405C184E00E94DB21C8
:1022C0008C0185E00E94DB21EC0183E00E94DB2190
:1022D000BC018091760990917709409190095091C5
:1022E0009109081719076CF4209178093091790940
:1022F000641775070CF1C217D3079CF4CC24DD24B6
:1023000036C02091780930917909641775076CF00F
:1023100080E090E0C217D30714F481E090E06C01F4
:1023200026C0CC24CA94DC2C22C0C217D307FCF4EC
:10233000B3E0CB2ED12C1BC0C217D3072CF0ADEFCE
:10234000CA2EAFEFDA2E13C01A141B0424F4F5E0E2
:10235000CF2ED12C0CC0A114B10429F4C0E0D0E0E0
:10236000CC24DD240EC0EBEFCE2EEFEFDE2ECA1410
:10237000DB0419F4C0E0D0E004C0E4012196882415
:10238000992460917C0970917D09882777FD80955B
:10239000982F0E948D287B018C01B6016A197B0958
:1023A000882777FD8095982F0E948D289B01AC018E
:1023B000C801B7010E9419297B018C01C80DD91DE4
:1023C000BE01882777FD8095982F0E948D289B015C
:1023D000AC01C801B7010E94F2270E945A28EB0104
:1023E00080917A0990917B099C01C29EC001C39E95
:1023F000900DD29E900D1124C80FD91F34E663169C
:10240000710429F4C6010E944307662477248DEFE6
:10241000C434D8073CF488E699E060E070E04CEB07
:1024200052E025C080917E0990917F0940918009FA
:102430005091810922E0CD3BD2078CF0480F591F03
:102440004C1B5D0B88E699E060E070E00E947F0025
:1024500088E699E062E070E04CEB52E01AC0480F69
:10246000591F4C1B5D0B88E699E060E070E00E940C
:102470007F0040917E0950917F0980918009909161
:102480008109481B590B4C0F5D1F88E699E062E0FB
:1024900070E00E947F000E944008882361F00E9443
:1024A000951060919409709195098091920990918D
:1024B00093090E94A40F0894611C711C0894811C4C
:1024C000911C56010E94E107882309F4F6CE89EC9D
:1024D00098E064E070E00E94160395E0899FC001D7
:1024E000112490937F0980937E090E949510DF91BB
:1024F000CF911F910F91FF90EF90DF90CF90BF9001
:10250000AF909F908F907F906F9008952F923F9201
:102510004F925F926F927F928F929F92AF92BF92F3
:10252000CF92DF92EF92FF920F931F93DF93CF939F
:1025300000D000D0CDB7DEB70E94A0060E94BC0636
:1025400060919209709193098AE699E00E94D20005
:1025500060919409709195098EE699E00E94D200ED
:10256000882483941A821982992493945BEFC52E50
:102570005FEFD52E4BEFA42E4FEFB42E66247724B9
:102580004424552462C184E00E94DB218C0185E053
:102590000E94DB211C0183E00E94DB21AC018091C1
:1025A0007609909177092091900930919109081747
:1025B00019075CF4809178099091790942175307C3
:1025C0000CF12816390664F43AC08091780990918C
:1025D00079094217530774F02816390634F02FC0D2
:1025E0009924CC24CA94DC2C2DC0992431E0C32E2C
:1025F000D12C28C0281639062CF5992423E0C22EA8
:10260000D12C20C02816390634F099249DEFC92E0C
:102610009FEFD92E17C01A141B0424F485E0C82E8E
:10262000D12C10C0A114B10429F41C821B82CC242B
:10263000DD2415C00BEFC02E0FEFD02E03C0992460
:10264000CC24DD24CA14DB0419F41C821B8207C0CD
:1026500093012F5F3F4F3C832B8366247724209088
:102660007A0930907B0900917C0910917D0934E64C
:102670004316510429F4C6010E94430744245524FB
:102680000E9440088823C9F18820B9F189819A8184
:10269000039794F40E9495106091940970919509A4
:1026A00080919209909193090E94A40FE981FA8187
:1026B0003196FA83E983F5C00E94951060919209E2
:1026C0007091930984EB90E040E050E00E944F0647
:1026D00064EF71E080E090E00E94AD2080E090E047
:1026E00064EB70E040E050E00E944F060E94560FFD
:1026F000882415E0C12ED12CD4C0992009F061C0E6
:10270000B801882777FD8095982F0E948D287B013E
:102710008C01B6016A197B09882777FD8095982F6F
:102720000E948D289B01AC01C801B7010E941929A4
:102730007B018C012B813C81260D371DB901882737
:1027400077FD8095982F0E948D289B01AC01C801D0
:10275000B7010E94F2270E945A28C29C9001C39C94
:10276000300DD29C300D1124620F731F40917E09F1
:1027700050917F092091800930918109F901E40F7E
:10278000F51F8A01021B130B060F171FE61BF70B21
:1027900032E0ED3BF30714F0ECEBF2E088E699E071
:1027A00060E070E0AF010E947F00A80182E00D3B75
:1027B000180714F04CEB52E088E699E062E070E014
:1027C0003BC01C141D04CCF400917E0910917F09BC
:1027D000E0908009F0908109442755274E195F0940
:1027E000401B510B4E5C5F4F88E699E060E070E063
:1027F0000E947F000253104018C0C114D104F1F0B0
:10280000E0907E09F0907F09009180091091810984
:10281000A701400F511F4253504088E699E060E005
:1028200070E00E947F000E5C1F4F0E191F0988E6A2
:1028300099E062E070E0A8010E947F000894411CCA
:10284000511C0894611C711C56010E94E1078823E9
:1028500009F499CE89EC98E064E070E00E941603D8
:1028600095E0899FC001112490937F0980937E0990
:102870000E9495100F900F900F900F90CF91DF91C5
:102880001F910F91FF90EF90DF90CF90BF90AF908E
:102890009F908F907F906F905F904F903F902F9080
:1028A0000895992493948DCF2F923F924F925F92E7
:1028B0006F927F928F929F92AF92BF92CF92DF9250
:1028C000EF92FF920F931F93CF93DF930E94A00686
:1028D0000E94BC0660919209709193098AE699E082
:1028E0000E94D20060919409709195098EE699E05A
:1028F0000E94D2008824839499249394AA24BB2410
:10290000662477244424552452C184E00E94DB21AC
:102910008C0185E00E94DB21EC0183E00E94DB2139
:10292000AC018091760990917709209190093091BE
:102930009109081719075CF4809178099091790939
:10294000421753070CF1C817D90764F43AC08091B5
:102950007809909179094217530774F0C817D9077D
:1029600034F02FC09924CC24CA94DC2C2DC0992497
:10297000B1E0CB2ED12C28C0C817D9072CF599244B
:10298000A3E0CA2ED12C20C0C817D90734F099244F
:10299000FDEFCF2EFFEFDF2E17C01A141B0424F417
:1029A000E5E0CE2ED12C10C0A114B10429F4C0E072
:1029B000D0E0CC24DD2412C07BEFC72E7FEFD72ED2
:1029C00003C09924CC24DD24CA14DB0419F4C0E02C
:1029D000D0E004C0E30121966624772420907A0990
:1029E00030907B0900917C0910917D0984E648169E
:1029F000510429F4C6010E944307442455240E942F
:102A00004008882319F1882009F10E9495106091EF
:102A100092097091930984EB90E040E050E00E94AD
:102A20004F0664EF71E080E090E00E94AD2080E00E
:102A300090E064EB70E040E050E00E944F060E949E
:102A4000560F882465E0C62ED12C65C0992009F068
:102A50005FC0B801882777FD8095982F0E948D2848
:102A60007B018C01B6016A197B09882777FD809567
:102A7000982F0E948D289B01AC01C801B7010E94CC
:102A800019297B018C01C60DD71DBE01882777FD52
:102A90008095982F0E948D289B01AC01C801B70139
:102AA0000E94F2270E945A28C29C9001C39C300DBC
:102AB000D29C300D1124620F731F40917E095091FA
:102AC0007F092091800930918109F901E40FF51FF8
:102AD000EA01C21BD30BC60FD71FE61BF70B82E020
:102AE000ED3BF80714F0ECEBF2E088E699E060E0EB
:102AF00070E0AF010E947F00AE0182E0CD3BD807BD
:102B000014F04CEB52E088E699E062E070E046C0D9
:102B10001C141D0424F500917E0910917F09E0909A
:102B20008009F0908109442755274E195F09401B01
:102B3000510B4E5C5F4F88E699E060E070E00E94C8
:102B40007F00025310400E191F0988E699E062E0E9
:102B500070E0A8010E947F009924939421C0C114C1
:102B6000D104F1F0E0907E09F0907F090091800996
:102B700010918109A701400F511F4253504088E630
:102B800099E060E070E00E947F000E5C1F4F0E191C
:102B90001F0988E699E062E070E0A8010E947F00CA
:102BA0000894411C511C0894611C711C56010E9420
:102BB000E107882309F4A9CE0E949510DF91CF91F7
:102BC0001F910F91FF90EF90DF90CF90BF90AF904B
:102BD0009F908F907F906F905F904F903F902F903D
:102BE00008950F931F9388E795E00E947E0825C003
:102BF0000E94A00688E795E00E947E088C010C5B8D
:102C0000124088E699E063E070E0A8010E947F002E
:102C100082E699E064E475E00E94F7250E948A0646
:102C200082E699E0B8014AE050E00E94E32662E3C0
:102C300070E080E090E00E94AD200E94E1078823D0
:102C4000B9F288E699E063E070E040E050E00E946D
:102C50007F001F910F9108950F931F9388E795E0D0
:102C60000E947E0825C00E94A00688E795E00E9489
:102C70007E088C010C5B124088E699E061E070E010
:102C8000A8010E947F0082E699E062E575E00E945B
:102C9000F7250E948A0682E699E0B8014AE050E0F2
:102CA0000E94E32662E370E080E090E00E94AD20A5
:102CB0000E94E1078823B9F288E699E061E070E0BC
:102CC00040E050E00E947F001F910F9108950F9304
:102CD0001F93CF93DF930E94BC0612C185E090E062
:102CE0000E942B0B90939B0980939A098230910547
:102CF00009F44BC08330910534F4009761F00197DB
:102D000009F0F8C01AC08330910509F463C0049734
:102D100009F0F0C089C00E94A00682E699E06FE544
:102D200075E00E94F72520917E0930917F098091FE
:102D3000800990918109A9019DC00E94A00682E6A8
:102D400099E066E775E00E94F72560918609709129
:102D5000870982E699E04AE050E00E94E32682E695
:102D600099E068E775E00E94F72540917E0950914F
:102D70007F098091800990918109EC01C40FD51FD2
:102D800020918609309187094CC00E94A00682E6F6
:102D900099E066E775E00E94F725609186097091D9
:102DA000870982E699E04AE050E00E94E32682E645
:102DB00099E06EE775E00E94F72520917E09309139
:102DC0007F098091800990918109409186095091F5
:102DD00087094EC00E94A00682E699E066E775E08A
:102DE0000E94F725609188097091890982E699E02F
:102DF0004AE050E00E94E32682E699E068E775E049
:102E00000E94F72540917E0950917F0980918009A9
:102E100090918109EC01C40FD51F20918809309150
:102E20008909481B590B29C00E94A00682E699E037
:102E300066E775E00E94F72560918809709189091D
:102E400082E699E04AE050E00E94E32682E699E0BB
:102E50006EE775E00E94F72520917E0930917F0989
:102E60008091800990918109409188095091890948
:102E7000420F531F481B590BEC01C20FD31F82E0B6
:102E8000CD3BD80714F0CCEBD2E08A0182E04D3B79
:102E9000580714F00CEB12E088E699E060E070E06F
:102EA000AE010E947F0088E699E062E070E0A80130
:102EB0000E947F0082E699E060E041E00E949D026E
:102EC00082E699E06DE675E00E94F72582E699E0DA
:102ED000BE014AE050E00E94E32682E699E061E705
:102EE00075E00E94F72582E699E0B8014AE050E0DB
:102EF0000E94E32662E370E080E090E00E94AD2053
:102F00000E94E107882309F4E9CE0E949510DF9121
:102F1000CF911F910F9108956F927F928F929F9200
:102F2000AF92BF92CF92DF92EF92FF920F931F93D7
:102F3000CF93DF930E94A0060E94BC0666247724EC
:102F400088249924AA24BB2416C184E00E94DB2192
:102F50008C0185E00E94DB21EC0183E00E94DB21F3
:102F6000BC01809176099091770940919009509128
:102F70009109081719076CF42091780930917909A3
:102F8000641775070CF1C217D3079CF4CC24DD2419
:102F90003BC02091780930917909641775076CF06E
:102FA00060E070E0C217D30714F461E070E06B01D9
:102FB0002BC0CC24CA94DC2C27C0C217D30724F51D
:102FC00003E0C02ED12C20C0C217D3072CF01DEF78
:102FD000C12E1FEFD12E18C01A141B042CF4C09060
:102FE0008A09D0908B0910C0A114B10429F4C0E063
:102FF000D0E0CC24DD2412C080918A0990918B0905
:10300000CC24DD24C81AD90ACA14DB0419F4C0E0A0
:10301000D0E004C0E30121966624772460917C0906
:1030200070917D09882777FD8095982F0E948D28C3
:103030007B018C01B6016A197B09882777FD809591
:10304000982F0E948D289B01AC01C801B7010E94F6
:1030500019297B018C01C60DD71DBE01882777FD7C
:103060008095982F0E948D289B01AC01C801B70163
:103070000E94F2270E945A288B0180917A09909130
:103080007B099C01C29EC001C39E900DD29E900DF3
:103090001124080F191F20917E0930917F0980911A
:1030A000800990918109AC01420F531FE901C81BAF
:1030B000D90BC00FD11F401B510B32E04D3B5307C2
:1030C00014F04CEB52E088E699E060E070E00E947A
:1030D0007F00AE0182E0CD3BD80714F04CEB52E00C
:1030E00088E699E062E070E00E947F0024E68216A4
:1030F0009104D1F50E94A00682E699E065E875E0AA
:103100000E94F725609180097091810980917E0964
:1031100090917F09680F791F601B710B82E699E01F
:103120004AE050E00E94E32682E699E060E041E058
:103130000E949D0282E699E06DE875E00E94F72505
:1031400060917E0970917F09809180099091810939
:10315000681B790B600F711F82E699E04AE050E02E
:103160000E94E326882499240894811C911C0894C9
:10317000611C711C56010E94E107882309F4E5CE09
:103180000E949510DF91CF911F910F91FF90EF90CA
:10319000DF90CF90BF90AF909F908F907F906F9077
:1031A00008950E94BC06D2C088E090E00E942B0BDC
:1031B00090939B0980939A098330910509F453C039
:1031C000843091054CF48130910519F182309105DC
:1031D00084F5892B89F0B4C08530910509F467C066
:1031E000853091050CF456C08630910509F46FC006
:1031F000079709F0A5C085C00E94A00682E699E065
:1032000065E975E00E94F725409184095091850990
:103210001FC00E94A00682E699E062EA75E00E9463
:10322000F7254091840950918509509541955F4F4C
:1032300026C00E94A00682E699E060EB75E00E943D
:10324000F7254091840950918509509541955F4F2C
:1032500088E699E060E070E00E947F004091840978
:103260005091850967C00E94A00682E699E06AEB4A
:1032700075E00E94F725409184095091850988E600
:1032800099E060E070E00E947F00409184095091D5
:1032900085094DC00E94A00682E699E065EC75E0C4
:1032A0000E94F72540918209509183091FC00E9416
:1032B000A00682E699E062ED75E00E94F725409154
:1032C000820950918309509541955F4F26C00E9415
:1032D000A00682E699E060EE75E00E94F725409135
:1032E000820950918309509541955F4F88E699E096
:1032F00060E070E00E947F00409182095091830954
:1033000019C00E94A00682E699E06AEE75E00E946C
:10331000F725409182095091830988E699E060E0A1
:1033200070E00E947F00409182095091830950957E
:1033300041955F4F88E699E062E070E00E947F006F
:1033400062E370E080E090E00E94AD200E94E1071F
:10335000882309F429CF0E94951008956EE170E04A
:1033600080E090E00E94AD208FB7F894979A8FBFCD
:103370008FE090E00E942B218FB7F89497988FBF31
:1033800088E061E00E94862788E061E00E9486274D
:10339000CB0108950F931F931EC00E94AE198C019C
:1033A0000E948A0682E699E063E176E00E94F725B2
:1033B00082E699E0B8014AE050E00E94E32682E606
:1033C00099E06AE176E00E94F72562E370E080E030
:1033D00090E00E94AD200E94E1078823F1F21F9146
:1033E0000F9108959AC086E090E00E942B0B909375
:1033F0009B0980939A090E94A00680919A09909156
:103400009B098330910509F446C0843091054CF442
:103410008130910521F1823091057CF5892B89F06D
:1034200076C08530910509F450C0853091050CF4C3
:103430003FC08630910509F455C0099709F067C06F
:103440005EC082E699E06DE176E00E94F7250E9479
:10345000280A882309F45BC00E94671658C082E6D8
:1034600099E06DE276E00E94F7250E94280A882301
:1034700009F44DC00E94CA194AC082E699E069E386
:1034800076E00E94F7250E94280A882309F43FC0AD
:103490000E942C163CC082E699E068E476E00E9427
:1034A000F7250E94280A882391F10E94F1152FC068
:1034B00082E699E064E576E00E94F7250E94280AFA
:1034C000882329F10E94541422C082E699E065E61F
:1034D00076E00E94F7250E94280A8823C1F00E9406
:1034E000861215C082E699E066E776E00E94F7252D
:1034F0000E94280A882359F00E94AA1008C082E678
:1035000099E065E876E00E94F7250E94280A62E3C8
:1035100070E080E090E00E94AD200E94E1078823E7
:1035200009F461CF0895C8C08AE090E00E942B0B97
:1035300090939B0980939A090E94A00680919A0912
:1035400090919B098430910509F462C08530910502
:1035500084F48130910591F1823091051CF4892B1E
:10356000F9F0A4C082309105B9F1039709F09EC02B
:1035700041C08730910509F473C08830910544F447
:103580008530910509F452C0069709F08FC05BC0E1
:103590008830910509F471C0099709F087C07AC095
:1035A00082E699E060E976E00E94F7250E94280A09
:1035B000882309F47BC00E94D11878C082E699E084
:1035C0006FE976E00E94F7250E94280A882309F413
:1035D0006DC00E948C176AC082E699E060EB76E0CD
:1035E0000E94F7250E94280A882309F45FC00E94E0
:1035F00046085CC082E699E06FEB76E00E94F72512
:103600000E94280A882309F451C00E94680B4EC00A
:1036100082E699E06CEC76E00E94F7250E94280A89
:10362000882309F443C00E944B0E40C082E699E013
:1036300067ED76E00E94F7250E94280A8823B1F101
:103640000E94F00D33C082E699E067EE76E00E94BA
:10365000F7250E94280A882349F10E94F00726C016
:1036600082E699E066EF76E00E94F7250E94280A3C
:103670008823E1F00E941D0819C082E699E067E006
:1036800077E00E94F7250E94280A882379F00E949B
:1036900051100CC082E699E066E177E00E94F725C0
:1036A0000E94280A882311F00E94F21962E370E058
:1036B00080E090E00E94AD200E94E107882309F499
:1036C00033CF08951F9315E0DBC18AE090E00E949C
:1036D0002B0B90939B0980939A090E94A0068091DE
:1036E0009A0990919B098430910509F4EAC08530CC
:1036F000910594F48130910509F45FC08230910501
:103700001CF4892B01F1B6C18230910509F47AC00D
:10371000039709F0AFC19BC08730910509F455C1EB
:103720008830910544F48530910509F404C1069769
:1037300009F0A0C125C18830910509F46BC1099732
:1037400009F098C18BC182E699E061E277E00E94BE
:10375000F7250E94280A882309F48CC180918809E2
:103760009091890964EF71E00E94B809AA2797FD3A
:10377000A095BA2FBC01CD010E948D2820E030E039
:1037800040EA50E40E94F2270E945A289B01AC01B3
:1037900089EC98E069E070E0422F0E94110389EC07
:1037A00098E069E070E00E941603819FC001112437
:1037B00090938909809388095DC182E699E06FE260
:1037C00077E00E94F7250E94280A882309F452C155
:1037D00080918A0990918B096AE070E00E94BB0891
:1037E000482F89EC98E06AE070E00E94110389ECB0
:1037F00098E06AE070E00E94160380938A091092B4
:103800008B0938C182E699E060E477E00E94F725F1
:103810000E94280A882309F42DC180918C09909177
:103820008D096AE170E00E94BB08482F89EC98E09E
:103830006BE070E00E94110389EC98E06BE070E0AF
:103840000E94160380938C0910928D0913C182E6A1
:1038500099E06CE477E00E94F7250E94280A88230B
:1038600009F408C180918E0990918F0969EB70E08D
:103870000E94B809AA2797FDA095BA2FBC01CD01D7
:103880000E948D2820E030E040EA50E40E94F227B8
:103890000E945A289B01AC0189EC98E06CE070E032
:1038A000422F0E94110389EC98E06CE070E00E94C6
:1038B0001603819FC001112490938F0980938E0974
:1038C000D9C082E699E06DE577E00E94F7250E9475
:1038D000280A882309F4CEC080919009909191091B
:1038E0006CEB72E00E94B809AA2797FDA095BA2F49
:1038F000BC01CD010E948D2820E030E040EA50E478
:103900000E94F2270E945A289B01AC0189EC98E0A2
:103910006DE070E0422F0E94110389EC98E06DE0A9
:1039200070E00E941603819FC001112490939109B9
:10393000809390099FC082E699E06AE677E00E9452
:10394000F7250E94280A882309F494C080919209DF
:103950009091930964EB70E00E94BB08482F89ECBA
:1039600098E06EE070E00E94110389EC98E06EE050
:1039700070E00E94160380939209109293097AC016
:1039800082E699E06BE777E00E94F7250E94280A1B
:10399000882309F46FC0809194099091950964EB94
:1039A00070E00E94BB08482F89EC98E06FE070E05F
:1039B0000E94110389EC98E06FE070E00E9416030A
:1039C000809394091092950955C082E699E06CE8BD
:1039D00077E00E94F7250E94280A882309F44AC04C
:1039E000809196099091970968E770E00E94BB0862
:1039F000482F89EC98E060E170E00E94110389ECA7
:103A000098E060E170E00E9416038093960910929E
:103A1000970930C082E699E06AE977E00E94F725CD
:103A20000E94280A882331F1809198099091990980
:103A300068E770E00E94BB08482F89EC98E061E1DC
:103A400070E00E94110389EC98E061E170E00E944F
:103A5000160380939809109299090CC082E699E0A8
:103A600065E876E00E94F7250E94280A882311F075
:103A70000E94BC0D62E370E080E090E00E94AD2007
:103A80000E94E107882309F420CE1F9108951F9317
:103A9000CF93DF9315E0CBEFDFEF7EC28AE090E0BB
:103AA0000E942B0B90939B0980939A090E94A00679
:103AB00080919A0990919B098430910509F414C171
:103AC0008530910594F48130910509F45FC082300E
:103AD00091051CF4892B01F159C28230910509F43A
:103AE0008FC0039709F052C2C5C08730910509F411
:103AF000CEC18830910544F48530910509F42EC17A
:103B0000069709F043C289C18830910509F4F9C1CB
:103B1000099709F03BC22EC282E699E068EA77E095
:103B20000E94F7250E94280A882309F42FC2809159
:103B30007609909177096CEB72E00E94B809AA2788
:103B400097FDA095BA2FBC01CD010E948D2820E0E1
:103B500030E040EA50E40E94F2270E945A289B017C
:103B6000AC0189EC98E060E070E0422F0E94110304
:103B700089EC98E060E070E00E941603819FC0012C
:103B80001124909377098093760900C282E699E028
:103B900065EB77E00E94F7250E94280A882309F444
:103BA000F5C180917809909179096CEB72E00E94DF
:103BB000B809AA2797FDA095BA2FBC01CD010E9494
:103BC0008D2820E030E040EA50E40E94F2270E9475
:103BD0005A289B01AC0189EC98E061E070E0422F2B
:103BE0000E94110389EC98E061E070E00E941603E6
:103BF000819FC00111249093790980937809C6C1EF
:103C000082E699E062EC77E00E94F7250E94280A9C
:103C1000882309F4BBC180917A0990917B096AEFEE
:103C200070E00E94B809AA2797FDA095BA2FBC01A1
:103C3000CD010E948D2820E030E040EA50E40E944F
:103C4000F2270E945A289B01AC0189EC98E062E0BF
:103C500070E0422F0E94110389EC98E062E070E06E
:103C60000E941603819FC001112490937B098093C9
:103C70007A098CC182E699E06CEC77E00E94F72526
:103C80000E94280A882309F481C180917C099091BF
:103C90007D096AEF70E00E94B809AA2797FDA095F8
:103CA000BA2FBC01CD010E948D2820E030E040EA0F
:103CB00050E40E94F2270E945A289B01AC0189EC33
:103CC00098E063E070E0422F0E94110389EC98E0D5
:103CD00063E070E00E941603819FC001112490935D
:103CE0007D0980937C0952C182E699E066ED77E018
:103CF0000E94F7250E94280A882309F447C1809171
:103D00007E0990917F096CEB72E00E94B809AA27A6
:103D100097FDA095BA2FBC01CD010E948D2820E00F
:103D200030E040EA50E40E94F2270E945A289B01AA
:103D3000AC0189EC98E064E070E0422F0E9411032E
:103D400089EC98E064E070E00E941603819FC00156
:103D5000112490937F0980937E0918C182E699E02F
:103D600064EE77E00E94F7250E94280A882309F470
:103D70000DC180918009909181096EE571E00E94EA
:103D80003409AA2797FDA095BA2FBC01CD010E9446
:103D90008D2820E030E040EA50E40E94F2270E94A3
:103DA0005A28462F77FD17C089EC98E065E070E04F
:103DB0000E94110389EC98E062E170E041E00E940A
:103DC000110389EC98E065E070E00E941603819F82
:103DD000C00111241DC0419589EC98E065E070E0B8
:103DE0000E94110389EC98E062E170E040E00E94DB
:103DF000110389EC98E065E070E00E94160390E002
:103E00009C012C9FC0012D9F900D3C9F900D112473
:103E10009093810980938009B9C082E699E064EFAC
:103E200077E00E94F7250E94280A882309F4AEC093
:103E300080918209909183096CEB72E00E94B8092D
:103E4000AA2797FDA095BA2FBC01CD010E948D280D
:103E500020E030E040EA50E40E94F2270E945A2815
:103E60009B01AC0189EC98E066E070E0422F0E9473
:103E7000110389EC98E066E070E00E941603819FD0
:103E8000C001112490938309809382097FC082E648
:103E900099E064E078E00E94F7250E94280A8823D0
:103EA00009F474C080918409909185096CEB72E0EB
:103EB0000E94B809AA2797FDA095BA2FBC01CD0191
:103EC0000E948D2820E030E040EA50E40E94F22772
:103ED0000E945A289B01AC0189EC98E067E070E0F1
:103EE000422F0E94110389EC98E067E070E00E9485
:103EF0001603819FC0011124909385098093840942
:103F000045C082E699E064E178E00E94F7250E94CE
:103F1000280A8823D9F180918609909187096CE25B
:103F200071E00E94B809AA2797FDA095BA2FBC019D
:103F3000CD010E948D2820E030E040EA50E40E944C
:103F4000F2270E945A289B01AC0189EC98E068E0B6
:103F500070E0422F0E94110389EC98E068E070E065
:103F60000E941603819FC0011124909387098093BA
:103F700086090CC082E699E066E177E00E94F725A9
:103F80000E94280A882311F00E94621B62E370E0FD
:103F900080E090E00E94AD200E94E107882309F4B0
:103FA0007DCDDF91CF911F9108950E94A00684E0FE
:103FB00090E00E942B0B90939B0980939A0981308B
:103FC0009105C9F0823091051CF4892B39F039C074
:103FD00082309105E9F00397A1F527C082E699E0C8
:103FE00064E278E00E94F7250E94280A882349F1BC
:103FF0000E94341126C082E699E06FE278E00E94C8
:10400000F7250E94280A8823E1F00E94931A19C01C
:1040100082E699E06AE378E00E94F7250E94280A88
:10402000882379F00E94471D0CC082E699E069E47C
:1040300078E00E94F7250E94280A882311F00E9448
:10404000630D62E370E080E090E00E94AD2008958F
:1040500080E061E00E94AE2181E060E00E94AE213C
:104060008AE699E063E270E00E9484018EE699E0BE
:104070006FE170E00E94840182E799E062E270E003
:104080000E9484018AE699E060E070E00E94D2001C
:1040900060919409709195098EE699E00E94D20092
:1040A00082E799E064EB70E00E94D20089EC98E02E
:1040B00062E170E00E94160389EC98E065E070E030
:1040C0000E9416030E94951008951F920F920FB63A
:1040D0000F9211242F933F938F939F93AF93BF938E
:1040E0008091A0099091A109A091A209B091A30982
:1040F0003091A4090196A11DB11D232F2D5F2D37ED
:1041000020F02D570196A11DB11D2093A409809385
:10411000A0099093A109A093A209B093A30980914B
:104120009C0990919D09A0919E09B0919F090196CB
:10413000A11DB11D80939C0990939D09A0939E0998
:10414000B0939F09BF91AF919F918F913F912F9114
:104150000F900FBE0F901F901895AF92BF92CF9205
:10416000DF92EF92FF920F931F935B016C019FB759
:10417000F89420919C0930919D0940919E0950919D
:104180009F0982B7E82EFF2400E010E006B600FE8B
:104190000AC08FEFE816F1040105110521F02F5F29
:1041A0003F4F4F4F5F4F9FBFB42FA32F922F8827B2
:1041B0008E0D9F1DA01FB11F12E0880F991FAA1F0F
:1041C000BB1F1A95D1F7BC0138C09FB7F894209156
:1041D0009C0930919D0940919E0950919F0982B799
:1041E000E82EFF2400E010E006B600FE0AC08FEFC4
:1041F000E816F1040105110521F02F5F3F4F4F4FE5
:104200005F4F9FBFB42FA32F922F88278E0D9F1D26
:10421000A01FB11FE2E0880F991FAA1FBB1FEA95DC
:10422000D1F7861B970B885E934078F20894A1081B
:10423000B108C108D10868517C4FA114B104C10470
:10424000D10419F61F910F91FF90EF90DF90CF905E
:10425000BF90AF900895019739F0880F991F880F8C
:10426000991F02970197F1F70895E82FE695E695D3
:10427000E695A82FB0E0613099F42FB7F894F0E0FC
:10428000EE0FFF1FEA59F74F0190F081E02D90816A
:10429000A770B070A855B74F8C91982B908313C01E
:1042A0002FB7F894F0E0EE0FFF1FEA59F74F019097
:1042B000F081E02D9081A770B070A855B74F8C9118
:1042C0008095892380832FBF0895A82FE82FE69536
:1042D000E695E695F0E0EE0FFF1FEC58F74F0190E2
:1042E000F081E02DE081B0E0A770B070A855B74F25
:1042F0008C91E82309F0E1E08E2F0895E82FE695F0
:10430000E695E695A82FB0E0613099F42FB7F894C0
:10431000F0E0EE0FFF1FE85AF74F0190F081E02D1B
:104320009081A770B070A855B74F8C91982B90834F
:1043300013C02FB7F894F0E0EE0FFF1FE85AF74FC5
:104340000190F081E02D9081A770B070A855B74F13
:104350008C918095892380832FBF0895E82FF0E00A
:10436000613051F4EE0FFF1FEA59F74F0190F081D1
:10437000E02D8FEF80830895EE0FFF1FEA59F74F6E
:104380000190F081E02D10820895E82FF0E0EE0F0B
:10439000FF1FEC58F74F0190F081E02D80810895C8
:1043A000E82FF0E0EE0FFF1FE85AF74F0190F08181
:1043B000E02D60830895982F80918208813051F418
:1043C000109261001092620080E487B987EE86B98E
:1043D0001092820880918308981721F4349A349BB4
:1043E000FECF0DC09093830887B19770807E892B94
:1043F00087B9349A349BFECF349A349BFECF24B1D4
:1044000035B1C9010895853031F48FB580688FBD0D
:104410008FB58F7B0FC0843031F48FB580628FBD34
:104420008FB58F7E07C0833039F48FB588608FBD1C
:104430008FB58B7F8FBD0895823049F480918B00BA
:10444000806880938B0080918B008F7B0AC08130C5
:1044500059F480918B00806280938B0080918B0057
:104460008F7E80938B000895882351F480918B0078
:10447000886080938B0080918B008B7F80938B0072
:10448000089585B5887F826085BD14BC87B7806438
:1044900087BF089595B5987F982B95BD0895803175
:1044A00040F4E82FF0E0EE0FFF1FEA55F64F71835E
:1044B00060830895893031F48FB582608FBD8FB5E8
:1044C0008E7F0AC08A3019F48FB5826002C08FB522
:1044D0008D7F8FBD8FB581608FBD1BBC1ABC19BC91
:1044E00018BC10927900109278000895893049F430
:1044F00080918B00826080938B0080918B008E7FF7
:104500000EC08A3021F480918B00826003C08091BC
:104510008B008D7F80938B0080918B0081608093D6
:104520008B001092870010928600109285001092E6
:10453000840010928300109282000895FF920F93DE
:104540001F93CF93DF93182FF62E072F8D31B0F0E6
:104550008F3111F413E014C08E3111F414E010C047
:104560008D3109F4B1C0853211F410E044C08432B9
:1045700011F411E040C0833219F4A4C08330D8F1A3
:104580008091A50986FD12C08EB5887F83608EBD9F
:104590001DBC1CBC87B7846087BF78948AE00E94EA
:1045A0005A228091A50980648093A5098091A5096C
:1045B000C12FD0E090E0012E02C0959587950A9416
:1045C000E2F780FD59C087B3FE01E055F74F9081B7
:1045D000892B87BB812F0E9403222091A50981E0AE
:1045E00090E0012E02C0880F991F0A94E2F7282B51
:1045F0002093A50941C08091A50987FD18C080912D
:104600008A00887F836080938A00109289001092CC
:10461000880080917D00846080937D0078948AE09A
:104620000E9476228091A50980688093A5098091D7
:10463000A509C12FD0E090E0012E02C09595879585
:104640000A94E2F780FD22C082B1FE01E055F74FE7
:104650009081892B82B9812F0E9403222091A50984
:1046600081E090E0012E02C0880F991F0A94E2F7C2
:10467000282B2093A5090AC0153019F40BBDFABCEC
:1046800025C0143019F409BDF8BC20C0133029F43A
:1046900000937900F092780019C0123029F4009349
:1046A0008700F092860012C0113029F40093850033
:1046B000F09284000BC0112349F400938300F09220
:1046C000820004C012E097CF15E05ACFDF91CF915E
:1046D0001F910F91FF9008951F920F920FB60F92A6
:1046E0000BB60F9211242F933F934F935F936F93C9
:1046F0007F938F939F93AF93BF93EF93FF9380919B
:10470000AC099091AD09892B29F0E091AC09F091A9
:10471000AD090995FF91EF91BF91AF919F918F9155
:104720007F916F915F914F913F912F910F900BBEB1
:104730000F900FBE0F901F9018951F920F920FB6FB
:104740000F920BB60F9211242F933F934F935F93C9
:104750006F937F938F939F93AF93BF93EF93FF9349
:104760008091B6099091B709892B29F0E091B6099B
:10477000F091B7090995FF91EF91BF91AF919F918A
:104780008F917F916F915F914F913F912F910F90FA
:104790000BBE0F900FBE0F901F9018951F920F9297
:1047A0000FB60F920BB60F9211242F933F934F9396
:1047B0005F936F937F938F939F93AF93BF93EF9389
:1047C000FF938091BC099091BD09892B29F0E0915C
:1047D000BC09F091BD090995FF91EF91BF91AF918F
:1047E0009F918F917F916F915F914F913F912F9109
:1047F0000F900BBE0F900FBE0F901F9018951F9239
:104800000F920FB60F920BB60F9211242F933F9376
:104810004F935F936F937F938F939F93AF93BF93C8
:10482000EF93FF938091A8099091A909892B29F012
:10483000E091A809F091A9090995FF91EF91BF9125
:10484000AF919F918F917F916F915F914F913F9128
:104850002F910F900BBE0F900FBE0F901F901895C9
:104860001F920F920FB60F920BB60F9211242F9337
:104870003F934F935F936F937F938F939F93AF93E8
:10488000BF93EF93FF938091AE099091AF09892B6D
:1048900029F0E091AE09F091AF090995FF91EF91F0
:1048A000BF91AF919F918F917F916F915F914F9148
:1048B0003F912F910F900BBE0F900FBE0F901F9046
:1048C00018951F920F920FB60F920BB60F921124EC
:1048D0002F933F934F935F936F937F938F939F9308
:1048E000AF93BF93EF93FF938091B0099091B1097B
:1048F000892B29F0E091B009F091B1090995FF9158
:10490000EF91BF91AF919F918F917F916F915F9147
:104910004F913F912F910F900BBE0F900FBE0F90B4
:104920001F9018951F920F920FB60F920BB60F9211
:1049300011242F933F934F935F936F937F938F93A4
:104940009F93AF93BF93EF93FF938091B2099091A0
:10495000B309892B29F0E091B209F091B3090995C7
:10496000FF91EF91BF91AF919F918F917F916F9147
:104970005F914F913F912F910F900BBE0F900FBE03
:104980000F901F9018951F920F920FB60F920BB6B3
:104990000F9211242F933F934F935F936F937F93C5
:1049A0008F939F93AF93BF93EF93FF938091B4093D
:1049B0009091B509892B29F0E091B409F091B509DE
:1049C0000995FF91EF91BF91AF919F918F917F9149
:1049D0006F915F914F913F912F910F900BBE0F9070
:1049E0000FBE0F901F9018951F920F920FB60F9247
:1049F0000BB60F9211242F933F934F935F936F93B6
:104A00007F938F939F93AF93BF93EF93FF93809187
:104A1000B8099091B909892B29F0E091B809F09172
:104A2000B9090995FF91EF91BF91AF919F918F9136
:104A30007F916F915F914F913F912F910F900BBE9E
:104A40000F900FBE0F901F9018951F920F920FB6E8
:104A50000F920BB60F9211242F933F934F935F93B6
:104A60006F937F938F939F93AF93BF93EF93FF9336
:104A70008091BE099091BF09892B29F0E091BE0970
:104A8000F091BF090995FF91EF91BF91AF919F916F
:104A90008F917F916F915F914F913F912F910F90E7
:104AA0000BBE0F900FBE0F901F9018951F920F9284
:104AB0000FB60F920BB60F9211242F933F934F9383
:104AC0005F936F937F938F939F93AF93BF93EF9376
:104AD000FF938091C0099091C109892B29F0E09141
:104AE000C009F091C1090995FF91EF91BF91AF9174
:104AF0009F918F917F916F915F914F913F912F91F6
:104B00000F900BBE0F900FBE0F901F9018951F9225
:104B10000F920FB60F920BB60F9211242F933F9363
:104B20004F935F936F937F938F939F93AF93BF93B5
:104B3000EF93FF938091C2099091C309892B29F0CB
:104B4000E091C209F091C3090995FF91EF91BF91DE
:104B5000AF919F918F917F916F915F914F913F9115
:104B60002F910F900BBE0F900FBE0F901F901895B6
:104B70001F920F920FB60F920BB60F9211242F9324
:104B80003F934F935F936F937F938F939F93AF93D5
:104B9000BF93EF93FF938091C4099091C509892B2E
:104BA00029F0E091C409F091C5090995FF91EF91B1
:104BB000BF91AF919F918F917F916F915F914F9135
:104BC0003F912F910F900BBE0F900FBE0F901F9033
:104BD000189583E061E00E94AE2184E061E00E94CC
:104BE000AE2178940E9428200E94D51FFDCF0F93FC
:104BF0001F93CF93DF938C01EB0109C02196D8015D
:104C0000ED91FC910190F081E02DC801099568813A
:104C10006623A1F7DF91CF911F910F9108952F92F5
:104C20003F924F925F926F927F928F929F92AF923C
:104C3000BF92CF92DF92EF92FF920F931F93DF9379
:104C4000CF93CDB7DEB7A0970FB6F894DEBF0FBEF7
:104C5000CDBF1C016A017B0141155105610571053C
:104C600049F4DC01ED91FC910190F081E02D60E3CD
:104C7000099554C0882499245401422E5524662451
:104C8000772401E010E00C0F1D1F080D191DC7014E
:104C9000B601A30192010E949B29F8016083089448
:104CA000811C911CA11CB11CC701B601A30192017A
:104CB0000E949B29C901DA016C017D01C114D10454
:104CC000E104F104F1F681E0E82EF12CEC0EFD1E7A
:104CD000E80CF91C3E010894611C711CD501C4014B
:104CE0000197A109B1096C01C818D90814C0F601CF
:104CF000EE0DFF1D60816A3010F4605D01C0695CDB
:104D0000D101ED91FC910190F081E02DC101099557
:104D10000894E108F1086E147F0449F7A0960FB6D5
:104D2000F894DEBF0FBECDBFCF91DF911F910F91E1
:104D3000FF90EF90DF90CF90BF90AF909F908F90BB
:104D40007F906F905F904F903F902F900895EF92DB
:104D5000FF920F931F93CF93DF93EC017A018B01A6
:104D600077FF0FC0E881F9810190F081E02D6DE2BD
:104D7000099510950095F094E094E11CF11C011D3B
:104D8000111DCE01B801A7012AE00E940F26DF9174
:104D9000CF911F910F91FF90EF900895DC012115A5
:104DA000310541F4ED91FC910190F081E02D642FEB
:104DB000099508952A30310519F40E94A72608950F
:104DC0000E940F260895EF92FF920F931F937B018D
:104DD0009A010027F7FC0095102FB801A7010E9447
:104DE000CE261F910F91FF90EF900895EF92FF92C2
:104DF0000F931F93CF93DF9379018A01E82FE695F4
:104E0000E695E695F0E0EE0FFF1FEC58F74F0190A6
:104E1000F081E02DB09790E087709070C1E0D0E015
:104E2000082E02C0CC0FDD1F0A94E2F72FEF3FEFF0
:104E30004FEF5FE0E222F32204231523A0E0B0E06D
:104E4000662311F0A1E0B0E002C0AA0FBB1F8A9553
:104E5000E2F720E030E040E050E0B0966A2F70E0EA
:104E60000AC02E153F054007510709F442C02F5FC5
:104E70003F4F4F4F5F4F808190E08C239D238617DB
:104E8000970779F309C02E153F054007510789F1AF
:104E90002F5F3F4F4F4F5F4F808190E08C239D23CA
:104EA0008617970781F720E030E040E050E004C02B
:104EB0002F5F3F4F4F4F5F4F808190E08C239D23AA
:104EC00086179707A9F3CA01B9012AE030E040E04C
:104ED00050E00E947C299B01AC01205F3F4F4F4F67
:104EE0005F4F84E056954795379527958A95D1F77A
:104EF00004C020E030E040E050E0B901CA01DF9199
:104F0000CF911F910F91FF90EF90089520E432E42C
:104F10004FE050E00E94F62608955058BB27AA277C
:104F20000ED04DC13ED130F043D120F031F49F3F3F
:104F300011F41EF433C10EF4E095E7FB29C1E92F0B
:104F40004FD180F3BA17620773078407950718F0EB
:104F500071F49EF567C10EF4E0950B2EBA2FA02DCB
:104F60000B01B90190010C01CA01A0011124FF2716
:104F7000591B99F0593F50F4503E68F11A16F04011
:104F8000A22F232F342F4427585FF3CF4695379510
:104F90002795A795F0405395C9F77EF41F16BA0BD5
:104FA000620B730B840BBAF09150A1F0FF0FBB1F83
:104FB000661F771F881FC2F70EC0BA0F621F731FCC
:104FC000841F48F4879577956795B795F7959E3F29
:104FD00008F0B3CF9395880F08F09927EE0F9795B7
:104FE000879508950CD0EBC0E3D040F0DAD030F0D4
:104FF00021F45F3F19F0CCC0511115C1CFC0F0D0E2
:1050000098F39923C9F35523B1F3951B550BBB278F
:10501000AA2762177307840738F09F5F5F4F220F3C
:10502000331F441FAA1FA9F333D00E2E3AF0E0E835
:1050300030D091505040E695001CCAF729D0FE2F81
:1050400027D0660F771F881FBB1F26173707480713
:10505000AB07B0E809F0BB0B802DBF01FF279358C9
:105060005F4F2AF09E3F510568F092C0DCC05F3F61
:10507000ECF3983EDCF3869577956795B795F795B1
:105080009F5FC9F7880F911D9695879597F90895A9
:10509000E1E0660F771F881FBB1F62177307840745
:1050A000BA0720F0621B730B840BBA0BEE1F88F754
:1050B000E095089504D06894B111B5C0089598D0D2
:1050C00088F09F5790F0B92F9927B751A0F0D1F0F1
:1050D000660F771F881F991F1AF0BA95C9F712C07B
:1050E000B13081F09FD0B1E008959CC0672F782F38
:1050F0008827B85F39F0B93FCCF3869577956795E7
:10510000B395D9F73EF490958095709561957F4F52
:105110008F4F9F4F0895E89409C097FB3EF49095F8
:105120008095709561957F4F8F4F9F4F9923A9F080
:10513000F92F96E9BB279395F6958795779567950F
:10514000B795F111F8CFFAF4BB0F11F460FF1BC053
:105150006F5F7F4F8F4F9F4F16C0882311F096E9E6
:1051600011C0772321F09EE8872F762F05C0662394
:1051700071F096E8862F70E060E02AF09A95660F4D
:10518000771F881FDAF7880F9695879597F9089506
:1051900097F99F6780E870E060E008959FEF80ECEA
:1051A000089500240A94161617061806090608958D
:1051B00000240A9412161306140605060895092EF3
:1051C0000394000C11F4882352F0BB0F40F4BF2B62
:1051D00011F460FF04C06F5F7F4F8F4F9F4F0895A2
:1051E00057FD9058440F551F59F05F3F71F0479598
:1051F000880F97FB991F61F09F3F79F0879508957D
:10520000121613061406551FF2CF4695F1DF08C09B
:10521000161617061806991FF1CF869571056105B8
:1052200008940895E894BB2766277727CB0197F960
:1052300008950BD0C4CFB5DF28F0BADF18F095235E
:1052400009F0A6CFABCF1124EECFCADFA0F3959F14
:10525000D1F3950F50E0551F629FF001729FBB275D
:10526000F00DB11D639FAA27F00DB11DAA1F649F09
:105270006627B00DA11D661F829F2227B00DA11DBC
:10528000621F739FB00DA11D621F839FA00D611D42
:10529000221F749F3327A00D611D231F849F600D63
:1052A000211D822F762F6A2F11249F5750408AF09C
:1052B000E1F088234AF0EE0FFF1FBB1F661F771F28
:1052C000881F91505040A9F79E3F510570F060CF64
:1052D000AACF5F3FECF3983EDCF386957795679510
:1052E000B795F795E7959F5FC1F7FE2B880F911D46
:1052F0009695879597F90895629FD001739FF00165
:10530000829FE00DF11D649FE00DF11D929FF00D55
:10531000839FF00D749FF00D659FF00D9927729F8C
:10532000B00DE11DF91F639FB00DE11DF91FBD0117
:10533000CF0111240895A1E21A2EAA1BBB1BFD0167
:105340000DC0AA1FBB1FEE1FFF1FA217B307E40764
:10535000F50720F0A21BB30BE40BF50B661F771FBC
:10536000881F991F1A9469F760957095809590959C
:105370009B01AC01BD01CF010895EE0FFF1F059009
:10538000F491E02D0994E199FECF9FBB8EBBE09A8A
:1053900099278DB30895262FE199FECF9FBB8EBB31
:1053A0002DBB0FB6F894E29AE19A0FBE01960895CC
:0453B000F894FFCF9F
:1053B40020202020202020202020202020202020E9
:1053C40000506172616D7320536574004D6F766592
:1053D4006D656E7420426567696E7320696E003373
:1053E4002E2E2E00322E2E2E00312E2E2E005472F2
:1053F40069676765723A200052656C656173650080
:10540400547269676765723A0052657475726E000A
:105414002020202020232323232323202020202076
:1054240000232323002323232020202020202020A6
:105434002020202020002323232323202020202079
:105444002020202020200023232323232323232060
:105454002020202020202000202020202020202068
:10546400202020202023232300202020202020204F
:105474002020202023232323230020202020202039
:10548400202023232323232323230054656C6573C3
:10549400636F70652041726D00436F6D696E6720A4
:1054A400536F6F6E2E2E2E0057616974696E672ECE
:1054B4002E2E0050726573732053776974636800ED
:1054C400436F6C6C6563746F7220416374697665B5
:1054D40000426567696E48696C6C20416374697643
:1054E4006500204375723A20004E65773A200059D2
:1054F4006573004E6F00536572766F002040205034
:105504006F732000536572766F20003A2000437653
:105514003A20002046696E3A2000436F6C6C656344
:10552400746F722041726D00537765657065720007
:1055340054524D20547269676765720053303A20A3
:10554400436F6C6C6563742041726D0053313A2073
:10555400537765657065720053323A2054524D207A
:1055640052656C65617365004D303A204D6F746F00
:1055740072204C656674004D313A20436F6E766537
:10558400796F72004D323A204D6F746F72205269F8
:10559400676874004D333A2057696E636800446944
:1055A4006720302D373A204F757470757400446944
:1055B4006720382D31353A20496E707574004430B7
:1055C4003A203C20556E75736564203E0044313AA0
:1055D400203C20556E75736564203E0044323A20A9
:1055E4003C20556E75736564203E0044333A203C7C
:1055F40020556E75736564203E0044343A203C2087
:10560400556E75736564203E0044353A203C205540
:105614006E75736564203E0044363A203C20556E16
:1056240075736564203E0044373A20536F6E61728F
:10563400204F75740044383A20536F6E61722049CC
:105644006E0044393A2049646F6C436F6C6C656337
:1056540074004431303A20537461727448696C6C3C
:10566400004431313A203C20556E75736564203E08
:10567400004431323A203C20556E75736564203EF7
:10568400004431333A203C20556E75736564203EE6
:10569400004431343A203C20556E75736564203ED5
:1056A400004431353A203C20556E75736564203EC4
:1056B4000041303A203C20556E75736564203E00ED
:1056C40041313A204C6566742049520041323A20F7
:1056D40052696768742049520041333A2051524458
:1056E4002043656E7472650041343A20515244205F
:1056F4004C6566740041353A205152442052696722
:1057040068740041363A204D656E75204B6E6F62A9
:105714000041373A2056616C7565204B6E6F62000C
:10572400416E616C6F673F004469676974616C3FE7
:10573400004D6F746F723F00536572766F3F00497E
:105744006E697420454550524F4D003C20504147EE
:10575400452034203E004C2049523A20004F4F52FD
:1057640000522049523A20004C004F4E004F46460A
:105774000020520043004C205152443A2000204F54
:105784004E20004F4646200052205152443A2000F9
:1057940043205152443A2000436F6C6C6563746F2C
:1057A400723A00546F7563682049646F6C005261EB
:1057B4006973652041726D00537765657065723A4F
:1057C400004465706F7369742049646F6C00436FA3
:1057D4006C6C2E202B2053776565703A00526574EB
:1057E40075726E20486F6D65004C6F6F6B696E67E4
:1057F4002E2E2E0057696E63682053706565643AD7
:105804002000436F6E762053706565643A2000452E
:1058140056454E205374726169676874004C3A208F
:105824000020523A20002B00204C65667400205260
:1058340069676874004C204D4F543A200052204D43
:105844004F543A2000466F727761726420534C4F74
:1058540057004261636B7761726420534C4F570069
:105864004C65667420534C4F570052696768742026
:10587400534C4F5700466F72776172642046415310
:1058840054004261636B7761726420464153540053
:105894004C6566742046415354005269676874200D
:1058A40046415354004564676520446574656374D8
:1058B4006564005072657373203C20537461727484
:1058C400203E00446973743A2000636D005465738C
:1058D40074204672776444726976653F0054657338
:1058E4007420536F6E61723F005465737420436F6C
:1058F4006E7665796F723F00546573742057696ED4
:1059040063683F004772616220312026205265742B
:1059140075726E3F00477261622033202620526503
:105924007475726E3F0054657374205461706553CE
:1059340063616E3F003C20504147452033203E00C8
:105944005465737420482D4272696467653F00543E
:105954006573742054617065466F6C6C6F773F009B
:10596400546573742053776974636865733F005496
:1059740065737420536572766F733F005465737456
:1059840020515244733F005465737420495220449B
:1059940065746563743F00546573742054656C2E9C
:1059A4002041726D3F0054657374205A4C20547228
:1059B40069676765723F00546573742049646F6C4E
:1059C400477261623F003C20504147452032203EEF
:1059D400004C6F74732D5374726169676874004C62
:1059E40061726765204572726F72204D756C740028
:1059F400536572766F2044656C61790053657276E5
:105A04006F2044656661756C74506F730043205158
:105A140052442054687265736800436F6C6C2E2086
:105A240044656661756C74506F7300537765657077
:105A34002044656661756C74506F730048696C6CC2
:105A440020536F6E617256616C0045646765205324
:105A54006F6E617256616C004C2051524420546840
:105A64007265736800522051524420546872657301
:105A7400680050726F70204761696E0044657276E9
:105A8400204761696E0042617365204D6F745370E5
:105A9400656564004F6666736574204D6F7453705A
:105AA400656564004D6F746F724661737420537042
:105AB400656564004D6F746F72536C6F772053701B
:105AC40065656400536C696768742D537472616909
:105AD4006768740046756C6C204D6F64653F0044C4
