:100000000C9448000C947D000C947D000C947D00B1
:100010000C947D000C947D000C947D000C947D006C
:100020000C947D000C9452260C94FB240C942126F5
:100030000C948E250C94BF250C94CA240C945D2539
:100040000C94CD210C947D000C941A030C94600345
:100050000C947D000C947D000C947D000C947D002C
:100060000C94F0250C9416270C9483260C94B4263B
:100070000C94E5260C942C250C94B9030C94FF03E6
:100080000C947D000C947D000C947D00CB046605DF
:1000900011241FBECFEFD0E1DEBFCDBF88E483BF08
:1000A00083B7887F846083BF12BE87B7816087BFB4
:1000B000789418E0A0E0B1E0E4E0F5E500E00BBFE3
:1000C00002C007900D92AA3DB107D9F719E0AAED39
:1000D000B8E001C01D92AE3DB107E1F710E0C0E904
:1000E000D0E004C02297FE010E94672ACC38D107D5
:1000F000C9F70E9447270C94802A0C9400000F93A4
:100100001F93CF93DF93EB018A01CC0FDD1F57FDC7
:100110000CC0FE01E855F74F808161E00E94DC22AF
:10012000C055D74F8881B8010EC0FE01E855F74F82
:10013000808160E00E94DC22C055D74F6627772778
:10014000601B710B88810E94FC23DF91CF911F916E
:100150000F9108951F93CF93DF93C0E0D0E0FE018D
:10016000E855F74F1081812F61E00E949322812F83
:1001700061E00E94DC22FE01E055F74F808160E0E3
:1001800070E00E94FC232296C830D10541F7DF9130
:10019000CF911F910895FC0110828AE090E0938333
:1001A00082830895CF93DF93EC01882777FD8095B4
:1001B000982F0E94542920E030E044E353E40E9449
:1001C000B92820E030E040EF51E40E94E02920E02F
:1001D00030E040E251E40E9455280E942629CB01DC
:1001E0006A30710510F48AE090E08932910510F0D0
:1001F00088E290E09B838A83DF91CF910895E0911C
:100200007B08E7FD15C0FF27E7FDF095EE0FFF1F08
:10021000E652F74F0190F081E02D818160E00E946D
:10022000DC2206C02F5F81919191892B69F00EC06D
:1002300020917B082F5FE22FFF27E7FDF0952150EB
:10024000EE0FFF1FE652F74F273064F320937B0831
:10025000E0917B08FF27E7FDF095EE0FFF1FE652C8
:10026000F74F0190F081E02D309761F48FEF80938C
:100270007B0824EF31E08091EB089091EC08281B7B
:10028000390B12C0818161E00E94DC22E0917B0881
:10029000FF27E7FDF095EE0FFF1FE652F74F0190A5
:1002A000F081E02D2281338183B5820F83BD80915F
:1002B000EB089091EC08820F931F9093EC088093C9
:1002C000EB08845F914020F01092EC081092EB084C
:1002D00008950E949F2387B78F7787BF85E00E948C
:1002E000A82389E06FEF70E00E94AD2383B58C50A6
:1002F00083BD87B7806887BF1092EC081092EB0827
:100300008FEF80937B080895CF93DF93EC0180916A
:10031000EA08893010F080E03DC06983862F61E0F3
:100320000E949322E881F0E0EE0FFF1FE652F74FA4
:1003300080819181C817D90761F14091EA0844236F
:1003400041F4EAEDF8E01192119288E0EA3EF807F4
:10035000D1F7EAEDF8E020E030E080819181892B4F
:1003600061F4F901EE0FFF1FE652F74FD183C0830E
:1003700028834F5F4093EA0806C02F5F3F4F3296B5
:100380002830310551F78091EA08813011F40E943C
:10039000690181E0DF91CF910895CF93DF93EC0164
:1003A0008A8160E00E94DC228D8160E00E940C2343
:1003B0008D8160E00E942E238B8161E00E94DC220F
:1003C0008C8161E00E94DC220000000010C08C8162
:1003D00060E00E94DC2200000000000000008C8130
:1003E00061E00E94DC2200000000000000008D811E
:1003F0000E94232387FDEBCF8C8160E00E94DC22EA
:10040000DF91CF910895FF920F931F938C01F62EE9
:100410000E94CD01F801828161E00E94DC22F80196
:10042000838160E00E94DC22F801848161E00E9407
:10043000DC22F801858161E00E940C23F8018581AE
:100440006F2D0E942E230000000000000000F80124
:10045000848160E00E94DC22F801858160E00E94D6
:100460000C23F80185816FEF0E942E231F910F91BD
:10047000FF900895EF92FF920F931F93CF93DF9316
:100480007C01042F6115710551F0EB0110E005C0EE
:10049000C70169910E9403021F5F1017C8F3DF9123
:1004A000CF911F910F91FF90EF900895DF93CF931D
:1004B0000F92CDB7DEB76983BE016F5F7F4F41E01A
:1004C0000E943A020F90CF91DF910895FF920F930F
:1004D0001F938C01F62E0E94CD01F801828160E00D
:1004E0000E94DC22F801838160E00E94DC22F80196
:1004F000848161E00E94DC22F801858161E00E9434
:100500000C23F80185816F2D0E942E23000000002E
:1005100000000000F801848160E00E94DC22F80104
:10052000858160E00E940C23F80185816FEF0E94B5
:100530002E231F910F91FF900895423031F04330E8
:1005400031F0413029F4605C03C06C5E01C06C5A2C
:1005500060680E946602089562E00E946602089543
:1005600061E00E94660208950F931F938C01FC01C5
:10057000828160E00E94DC22F801838160E00E94B9
:10058000DC22F801848160E00E94DC22F801828193
:1005900061E00E949322F801838161E00E9493222E
:1005A000F801848161E00E949322F801858160E076
:1005B0000E940C23F80185816FEF0E942E231F916A
:1005C0000F9108950F931F938C010E94B402C801EC
:1005D00068E30E946602C80161E00E946602C801E9
:1005E00066E00E946602C8016CE00E946602C801D3
:1005F00062E00E946602C80160E80E9466021F91E4
:100600000F9108950F93FC018CEB98E09183808308
:100610006283438324830583CF010E94E2020F910A
:100620000895CB01642F0E94732A0895CB010E9484
:100630006B2A08951F920F920FB60F920BB60F926E
:1006400011242F933F938F939F93EF93FF93E09108
:100650003809F091390920818091F2089091F308CE
:1006600080970CF58091F2089091F3080196909391
:10067000F3088093F2088091F4089091F508FC014A
:10068000E251F74F228701969093F5088093F40882
:100690002091F0083091F1088217930724F010920E
:1006A000F5081092F408FF91EF919F918F913F917F
:1006B0002F910F900BBE0F900FBE0F901F901895AB
:1006C0001F920F920FB60F920BB60F9211242F9319
:1006D0003F934F938F939F93AF93BF93EF93FF936A
:1006E00080911A0990911B091816190634F5A091EA
:1006F0003809B091390980911A0990911B09019725
:1007000090931B0980931A0980911E0990911F09EB
:10071000FC01E251F74F42A9019690931F09809383
:100720001E0920911809309119098217930724F0A6
:1007300010921F0910921E094C9380911A099091F2
:100740001B09892B31F4E0913609F091370988E9CA
:100750008083FF91EF91BF91AF919F918F914F91C6
:100760003F912F910F900BBE0F900FBE0F901F90D7
:1007700018951F920F920FB60F920BB60F9211247D
:100780002F933F938F939F93EF93FF93E09184096F
:10079000F0918509208180913E0990913F098097D1
:1007A0000CF580913E0990913F09019690933F0985
:1007B00080933E098091400990914109FC01E65CDB
:1007C000F64F22870196909341098093400920912A
:1007D0003C0930913D098217930724F0109241099A
:1007E00010924009FF91EF919F918F913F912F912E
:1007F0000F900BBE0F900FBE0F901F9018951F9279
:100800000F920FB60F920BB60F9211242F933F93B6
:100810004F938F939F93AF93BF93EF93FF938091E9
:100820006609909167091816190634F5A091840994
:10083000B09185098091660990916709019790931D
:1008400067098093660980916A0990916B09FC01A0
:10085000E65CF64F42A9019690936B0980936A0972
:1008600020916409309165098217930724F0109252
:100870006B0910926A094C938091660990916709FF
:10088000892B31F4E0918209F091830988E9808312
:10089000FF91EF91BF91AF919F918F914F913F91B8
:1008A0002F910F900BBE0F900FBE0F901F901895B9
:1008B000FC0124813581C9010895DC01FC0184819A
:1008C0009581892B19F42FEF3FEF18C0FD0184812A
:1008D000958101979583848380859185E80FF91F21
:1008E00042850196FD01918780872281338182179D
:1008F000930714F011861086242F30E0C901089563
:10090000CF93DF93DC01EC018C819D81892B19F45D
:100910002FEF3FEF08C0ED01E885F985EA0FFB1FD7
:100920008285282F30E0C901DF91CF910895FC0125
:10093000158214828481958191878087978386832D
:100940000895DC01FD0184A595A54097DCF7F89496
:10095000FD0184A595A54097ACF484A595A50196C5
:1009600095A784A786A597A5E80FF91F62AB019606
:10097000FD0197A786A722A533A58217930714F038
:1009800017A616A6A85BBF4FED91FC9180818062EF
:1009900080837894089562EC78E07093EF08609318
:1009A000EE0840E250E05093F1084093F0081092B6
:1009B000F3081092F2088091F2089091F308909356
:1009C000F7088093F6089093F5088093F40820E1E7
:1009D00030E0309319092093180910921B091092E6
:1009E0001A0980911A0990911B0990931F0980930D
:1009F0001E0990931D0980931C0980E990E0909353
:100A000031098093300989E290E090933309809313
:100A100032098BE290E090933509809334098AE2A1
:100A200090E090933709809336098CE290E09093A0
:100A300039098093380970933B0960933A095093C0
:100A40003D0940933C0910923F0910923E09809164
:100A50003E0990913F0990934309809342099093F6
:100A600041098093400930936509209364091092ED
:100A700067091092660980916609909167099093C1
:100A80006B0980936A09909369098093680988E9E2
:100A900090E090937D0980937C0989E990E09093A0
:100AA0007F0980937E098BE990E090938109809380
:100AB00080098AE990E090938309809382098CE908
:100AC00090E090938509809384090895FF920F9395
:100AD0001F9386E899E06AE14BE12CE102E00E9475
:100AE00002038CE899E00E94AA008EE899E00E9437
:100AF000CB0082E999E00E94CB0086E999E00E9450
:100B0000CB000DEE18E0C80160E070E00E94160313
:100B100095E0F92E8F9DC001112490939B0980933D
:100B20009A09C80161E070E00E9416038F9DC00120
:100B3000112490939D0980939C09C8016DE070E099
:100B40000E9416038F9DC001112490939F098093EA
:100B50009E09C80162E070E00E9416038F9DC001EB
:100B600011249093A1098093A009C80163E070E06B
:100B70000E9416038F9DC00111249093A3098093B6
:100B8000A209C80164E070E00E9416038F9DC001B5
:100B900011249093A5098093A409C80165E070E031
:100BA0000E9416038F9DC00111249093A709809382
:100BB000A609C8016BE070E00E9416038093A809A3
:100BC0001092A909C8016EE070E00E94160380939C
:100BD000AA091092AB09C8016FE070E00E941603E9
:100BE0008093AC091092AD09C80163E170E00E94E6
:100BF00016038F9DC00111249093AF098093AE0915
:100C0000C80164E170E00E9416038F9DC0011124A9
:100C10009093B1098093B0091F910F91FF900895AF
:100C2000EF92FF920F931F93CF93DF937C01EB0121
:100C30008A0127C0EC16FD0614F4219704C0CE15D6
:100C4000DF050CF421960130110549F00230110541
:100C500049F00115110559F48EE899E005C082E9C3
:100C600099E002C086E999E0BE010E94D20060913D
:100C7000A8097091A909882777FD8095982F0E946F
:100C80001522CE15DF05B1F6DF91CF911F910F919F
:100C9000FF90EF90089582309105E9F0833091053F
:100CA0002CF40097E1F10197C9F50CC0843091054F
:100CB000D9F0843091051CF0059781F51EC024E021
:100CC00030E02FC08EE899E064EB70E00E94D20023
:100CD00022E030E026C08EE899E060E070E00E94FB
:100CE000D20023E030E01DC082E999E064E370E0C7
:100CF0000E94D20025E030E014C06091AC097091F0
:100D0000AD0982E999E00E94D2006091AA09709130
:100D1000AB098EE899E00E94D20001C0089520E05E
:100D200030E0C90108950F931F9306E819E0C80148
:100D300060E041E00E949D02C80160E071E00E9415
:100D40005527C80160E041E00E949D021F910F916C
:100D500008950F931F9306E819E0C8010E94B0029E
:100D6000C8010E94AC021F910F9108950E94A9062C
:100D700086E899E061E171E00E9455276CED75E02D
:100D800080E090E00E94152208950F931F930E9427
:100D9000A90606E819E0C8016CE171E00E94552738
:100DA000C80160E041E00E949D02C8016FE271E06D
:100DB0000E94552768EE73E080E090E00E941522C3
:100DC000C80160E041E00E949D02C80164E371E057
:100DD0000E94552768EE73E080E090E00E941522A3
:100DE000C80160E041E00E949D02C80169E371E032
:100DF0000E94552768EE73E080E090E00E94152283
:100E00000E94A9061F910F910895EF92FF920F93F0
:100E10001F930E94A90606E819E0C8016EE371E07D
:100E20000E945527C80160E041E00E949D02C80170
:100E300068E471E00E94552726E9E22E29E0F22EAF
:100E4000C70162E370E00E94D20064EF71E080E0CD
:100E500090E00E9415220E94A906C80160E571E099
:100E60000E945527C80160E041E00E949D02C80130
:100E700069E571E00E945527C70164EB70E00E94AC
:100E8000D20064EF71E080E090E00E9415221F9193
:100E90000F91FF90EF900895CF93DF93EC010E94A4
:100EA000A906209769F11C161D06BCF08FEFCB3FF9
:100EB000D80709F458C08FEFCC3FD8072CF4C95F8E
:100EC000DF4F09F0B7C060C08FEFCD3FD807D1F139
:100ED000CF5FDF4F09F0AEC024C0C330D10509F4A5
:100EE00075C0C430D10524F4219709F0A3C05DC0BA
:100EF000C530D10509F47BC0279709F09BC088C095
:100F000086E899E060E671E00E94552786E899E05E
:100F100060E041E00E949D0286E899E060E671E0B1
:100F200087C086E899E061E771E00E94552786E86E
:100F300099E060E041E00E949D0286E899E065E763
:100F400071E076C086E899E066E871E00E94552776
:100F500086E899E060E041E00E949D0286E899E021
:100F600066E871E065C086E899E067E971E00E9493
:100F7000552786E899E060E041E00E949D0286E8FE
:100F800099E067E971E054C086E899E068EA71E0A9
:100F90000E94552786E899E060E041E00E949D02AA
:100FA00086E899E068EA71E043C086E899E069EB79
:100FB00071E00E94552786E899E060E041E00E94D8
:100FC0009D0286E899E069EB71E032C086E899E01D
:100FD0006AEC71E00E94552786E899E060E041E004
:100FE0000E949D0286E899E06AEC71E021C086E8E3
:100FF00099E06BED71E00E94552786E899E060E08A
:1010000041E00E949D0286E899E06BED71E010C01E
:1010100086E899E06CEE71E00E94552786E899E039
:1010200060E041E00E949D0286E899E06CEE71E08C
:101030000E945527DF91CF910895AF92BF92CF9232
:10104000DF92EF92FF920F931F936C015B010E945E
:10105000A90606E819E05DEFE52E51E0F52EC8017E
:10106000B7010E945527C80160E041E00E949D023F
:10107000C80168E072E00E94552784EB90E0B60159
:1010800040E050E00E94100664EF71E080E090E0E4
:101090000E9415220E94A906C801B7010E94552787
:1010A000C80160E041E00E949D02C80163E172E076
:1010B0000E94552780E090E064EB70E040E050E053
:1010C0000E94100664EF71E080E090E00E9415221B
:1010D00064EF71E080E090E00E9415220E94A90672
:1010E000C8016DE172E00E945527C80160E041E04F
:1010F0000E949D02C80166E272E00E94552784E3C7
:1011000090E0B50141E050E00E94100664EF71E00C
:1011100080E090E00E9415220E94A906C80163E3C6
:1011200072E00E945527C80160E041E00E949D02E4
:10113000C80162E472E00E9455278091AC09909149
:10114000AD0964E370E041E050E00E941006809138
:10115000AA099091AB0960E070E040E050E00E9485
:10116000100664EF71E080E090E00E94152264EFC9
:1011700071E080E090E00E94152264EF71E080E071
:1011800090E00E9415221F910F91FF90EF90DF9049
:10119000CF90BF90AF90089581E30E94C32288232F
:1011A00011F080E0089564EF71E080E090E00E942B
:1011B000152281E0089582E30E94C322882311F062
:1011C00080E0089564EF71E080E090E00E941522D5
:1011D00081E008950F931F9306E819E0C80160E0CD
:1011E00041E00E949D02C8016EE472E00E94552712
:1011F0000E94DB081F910F91089515C00E94A90657
:1012000086E899E06CE572E00E94552782E30E942F
:10121000C322882311F40E94050762E370E080E096
:1012200090E00E9415220E94CC08882339F308958B
:1012300088E00E94C322811181E008958FE00E941E
:10124000C322811181E0089589E00E94C3228111A7
:1012500081E0089544C00E94A90686E899E067E607
:1012600072E00E9455270E942409882371F00E9491
:10127000A90686E899E064E772E00E94552768EEC7
:1012800073E080E090E00E9415220E941E098823EE
:1012900071F00E94A90686E899E065E872E00E9474
:1012A000552768EE73E080E090E00E9415220E94CE
:1012B0001809882371F00E94A90686E899E064E97C
:1012C00072E00E94552768EE73E080E090E00E9493
:1012D000152262E370E080E090E00E9415220E94F7
:1012E000CC08882309F4B7CF08950F931F93CF93A9
:1012F000DF930E94C5066091AA097091AB098EE840
:1013000099E00E94D2006091AC097091AD0982E928
:1013100099E00E94D2006CED75E080E090E00E94C0
:1013200015220091AA091091AB09C091AC09D09186
:10133000AD0916C00E94A90686E899E064EA72E049
:101340000E9455270E942409882321F0C801BE016C
:101350000E941D0862E370E080E090E00E94152288
:101360000E94CC08882331F3DF91CF911F910F9118
:101370000895EF92FF920F931F93CF93DF93EC01A9
:1013800087E00E943923AA2797FDA095BA2FBC01B8
:10139000CD010E9454292AE939E949E95FE30E9415
:1013A000E0297B018C01BE01882777FD8095982F6D
:1013B0000E9454299B01AC01C801B7010E94E02999
:1013C00020E030E040E85AE30E94E0290E94212911
:1013D0006C177D071CF0BE0161507040CB01DF919E
:1013E000CF911F910F91FF90EF900895EF92FF9290
:1013F0000F931F93CF93DF93F82EE92EEB0160C07C
:1014000086E899E060E041E00E949D0286E899E06C
:1014100060E071E00E94552786E899E060E041E0D5
:101420000E949D02CE010E94B909182F092F86E85B
:1014300099E0612F702F4AE050E00E94412886E831
:1014400099E06FEA72E00E94552786E899E06F2DD7
:101450007E2D4AE050E00E9441280E94DB0888234C
:1014600049F186E899E060E041E00E949D0286E84B
:1014700099E060E071E00E94552786E899E060E01D
:1014800041E00E949D0286E899E066EB72E00E94CE
:10149000552786E899E0612F702F4AE050E00E94BE
:1014A00041286CED75E080E090E00E941522612FEC
:1014B000702F0DC062E370E080E090E00E94152282
:1014C0000E94CC08882309F49BCF6F2D7E2DCB0181
:1014D000DF91CF911F910F91FF90EF9008958F9220
:1014E0009F92AF92BF92CF92DF92EF92FF920F93B3
:1014F0001F93982E892E5B01CC24B7FCC094DC2C62
:101500005FC00E949306C601B5010E94542920E0E5
:1015100030E040E250E40E94B9280E942129DC0119
:10152000CB018C010E94B909880F991F801B910B78
:10153000AA2797FDA095BA2FBC01CD010E9454297E
:1015400020E030E040E250E40E94E0290E9421299E
:101550007B018C0186E899E0B7014AE050E00E94E7
:10156000412886E899E06FEA72E00E94552786E8F4
:1015700099E0692D782D4AE050E00E9441280E94B0
:10158000DB088823B9F00E94930686E899E066EBB1
:1015900072E00E94552786E899E0B7014AE050E0E2
:1015A0000E9441286CED75E080E090E00E941522D9
:1015B000B7010DC062E370E080E090E00E94152268
:1015C0000E94CC08882309F49CCF692D782DCB018B
:1015D0001F910F91FF90EF90DF90CF90BF90AF9051
:1015E0009F908F900895CF92DF92EF92FF920F938A
:1015F0001F93CF93DF93D82EC92E7B010027F7FCD2
:101600000095102F4FC00E949306C801B7010E9499
:10161000542920E030E040EA50E40E94B9280E94BA
:101620002129DC01CB010E94B909EC01CC0FDD1F9F
:10163000CC0FDD1FC80FD91F86E899E0BE014AE034
:1016400050E00E94412886E899E06FEA72E00E942B
:10165000552786E899E06D2D7C2D4AE050E00E94E8
:1016600041280E94DB088823B9F00E94930686E88F
:1016700099E066EB72E00E94552786E899E0BE018A
:101680004AE050E00E9441286CED75E080E090E077
:101690000E941522BE010DC062E370E080E090E080
:1016A0000E9415220E94CC08882309F4ACCF6D2D2E
:1016B0007C2DCB01DF91CF911F910F91FF90EF9087
:1016C000DF90CF900895CF92DF92EF92FF920F9329
:1016D0001F93CF93DF938C010E94C50686E899E0A3
:1016E0006CEB72E00E94552786E899E0B8014AE069
:1016F00050E00E94412886E899E062EC72E00E9486
:10170000552786E899E06AE570E04AE050E00E94DB
:1017100041280130110549F00230110549F0011549
:10172000110591F48EE899E005C082E999E002C0C4
:1017300086E999E06AE570E00E94D2006CED75E000
:1017400080E090E00E9415220E94A90686E899E0B8
:101750006AEC72E00E94552786E899E0B8014AE0F9
:1017600050E00E94412886E899E061ED72E00E9415
:101770005527CAE5D0E068C00E94930685EB90E04B
:101780000E94B9096C0186E899E064ED72E00E945C
:10179000552786E899E0BE014AE050E00E944128C2
:1017A00086E899E069ED72E00E94552786E899E0A5
:1017B000B6014AE050E00E944128EE24FF242AC0EE
:1017C000CC16DD0614F4219704C0CC15DD050CF40D
:1017D00021960130110549F00230110549F001153B
:1017E000110559F48EE899E005C082E999E002C03C
:1017F00086E999E0BE010E94D2006091A80970912B
:10180000A909882777FD8095982F0E9415220894B2
:10181000E11CF11C6091A8097091A9096F5F7F4FCD
:10182000882777FD8095982F0E9454299B01AC0151
:1018300060E070E088E492E40E94B9280E942129C7
:10184000E616F7060CF4BCCF0E94CC08882309F4F6
:1018500093CFDF91CF911F910F91FF90EF90DF9089
:10186000CF900895EF92FF920F931F93CF93DF9342
:10187000EC0186E00E943923AA2797FDA095BA2F94
:10188000BC01CD010E9454292AE939E949E95FE305
:101890000E94E0297B018C01BE01882777FD80959D
:1018A000982F0E9454299B01AC01C801B7010E94E6
:1018B000E02920E030E040E85AE30E94E0290E945D
:1018C00021296C177D071CF0BE0161507040CB01CF
:1018D000DF91CF911F910F91FF90EF90089540C03D
:1018E0000E94A90683E090E00E94320C9093B30915
:1018F0008093B2098130910591F082309105E1F039
:10190000892B41F586E899E060EE72E00E94552748
:101910000E94EA088823F1F080E090E019C086E890
:1019200099E06EEE72E00E9455270E94EA08882333
:1019300089F081E090E00CC086E899E066EF72E003
:101940000E9455270E94EA08882321F082E090E057
:101950000E94630B62E370E080E090E00E94152239
:101960000E94CC08882309F4BBCF08952CC00E94A4
:10197000A90682E090E00E94320C9093B309809314
:10198000B209009719F00197C1F411C086E899E0F7
:1019900062E073E00E94552786E899E060E041E04C
:1019A0000E949D0286E899E062E173E004C086E847
:1019B00099E06EE173E00E94552762E370E080E0F9
:1019C00090E00E9415220E94CC08882381F208959D
:1019D00038C00E94A90682E090E00E94320C9093E9
:1019E000B3098093B209009719F0019721F511C04E
:1019F00086E899E06EE273E00E94552786E899E058
:101A000060E041E00E949D0286E899E06DE373E0AA
:101A100010C086E899E067E473E00E94552786E8E5
:101A200099E060E041E00E949D0286E899E067E568
:101A300073E00E94552762E370E080E090E00E942E
:101A400015220E94CC08882321F20895D1C00E945B
:101A5000A90689E090E00E94320C9093B30980932C
:101A6000B2098430910509F467C08530910584F48A
:101A70008130910571F1823091051CF4892BC1F000
:101A8000B1C082309105B1F1039709F0ABC043C0FA
:101A90008630910509F472C0863091050CF45DC062
:101AA0008730910509F47BC0089709F09BC088C076
:101AB00086E899E066E673E00E94552786E899E09B
:101AC00060E041E00E949D0286E899E066E773E0ED
:101AD00087C086E899E066E873E00E94552786E8AB
:101AE00099E060E041E00E949D0286E899E065E9A6
:101AF00073E076C086E899E064EA73E00E945527B7
:101B000086E899E060E041E00E949D0286E899E065
:101B100063EB73E065C086E899E062EC73E00E94D5
:101B2000552786E899E060E041E00E949D0286E842
:101B300099E061ED73E054C086E899E060EE73E0EF
:101B40000E94552786E899E060E041E00E949D02EE
:101B500086E899E06FEE73E043C086E899E06EEFA7
:101B600073E00E94552786E899E060E041E00E941A
:101B70009D0286E899E06DE074E032C086E899E065
:101B80006EE174E00E94552786E899E060E041E04C
:101B90000E949D0286E899E06DE274E021C086E82B
:101BA00099E06DE374E00E94552786E899E060E0D3
:101BB00041E00E949D0286E899E06DE474E010C067
:101BC00086E899E06DE574E00E94552786E899E083
:101BD00060E041E00E949D0286E899E06DE674E0D5
:101BE0000E94552762E370E080E090E00E94152299
:101BF0000E94CC08882309F42ACF089565C00E946A
:101C0000A90684E090E00E94320C9093B30980937F
:101C1000B20981309105F1F0823091051CF4892BD5
:101C200041F04CC08230910531F1039709F046C074
:101C300033C086E899E06DE774E00E94552786E896
:101C400099E060E041E00E949D0286E899E06CE83E
:101C500074E032C086E899E068E974E00E94552794
:101C600086E899E060E041E00E949D0286E899E004
:101C700065EA74E021C086E899E064EB74E00E94B4
:101C8000552786E899E060E041E00E949D0286E8E1
:101C900099E061EC74E010C086E899E06FEC74E0C4
:101CA0000E94552786E899E060E041E00E949D028D
:101CB00086E899E06DED74E00E94552762E370E0DC
:101CC00080E090E00E9415220E94CC08882309F44D
:101CD00096CF089552C00E94A90684E090E00E9429
:101CE000320C9093B3098093B20981309105C9F009
:101CF000823091051CF4892B39F039C0823091056E
:101D0000E9F00397A1F527C086E899E06CEE74E04E
:101D10000E9455270E94EA08882349F10E94FE0D7F
:101D200026C086E899E064EF74E00E9455270E947F
:101D3000EA088823E1F00E94260D19C086E899E0A0
:101D40006DEF74E00E9455270E94EA08882379F01D
:101D50000E94E80C0CC086E899E064E075E00E94FF
:101D600055270E94EA08882311F00E94B60C62E30E
:101D700070E080E090E00E9415220E94CC08882349
:101D800009F4A9CF08950F931F93CF93DF934AC00F
:101D90000E94A90681E00E943923EC0182E00E94A2
:101DA00039238C0186E899E06BE075E00E945527A5
:101DB00083E0CF3FD80714F4D7FF07C086E899E047
:101DC00062E175E00E94552707C086E899E0BE01F0
:101DD0004AE050E00E94412886E899E060E041E056
:101DE0000E949D0286E899E066E175E00E94552711
:101DF00083E00F3F180714F417FF07C086E899E047
:101E000062E175E00E94552707C086E899E0B801B5
:101E10004AE050E00E94412862E370E080E090E0F8
:101E20000E9415220E94CC08882309F4B1CFDF91CB
:101E3000CF911F910F910895EF92FF920F931F93EF
:101E4000CF93DF93F8C00E94A90684E090E00E943F
:101E5000320C9093B3098093B20984E00E94392335
:101E6000EC0185E00E9439238C0183E00E94392334
:101E70007C018091B2099091B3098130910509F4F8
:101E80006BC0823091051CF4892B49F0CEC08230A2
:101E9000910509F483C0039709F0C7C0A1C086E883
:101EA00099E06DE175E00E94552780919A09909123
:101EB0009B09C817D9072CF086E899E06FE175E017
:101EC00004C086E899E062E275E00E94552786E842
:101ED00099E0BE014AE050E00E94412886E899E07E
:101EE00066E275E00E94552780919C0990919D09BA
:101EF000081719072CF086E899E06FE175E004C037
:101F000086E899E062E275E00E94552786E899E04C
:101F1000B8014AE050E00E94412886E899E060E07C
:101F200041E00E949D0286E899E069E275E00E9426
:101F3000552780919E0990919F09E816F9062CF08B
:101F400086E899E06FE175E004C086E899E062E216
:101F500075E00E94552762C086E899E06BE275E063
:101F60000E94552780919A0990919B09C817D9071B
:101F70002CF086E899E063E375E004C086E899E018
:101F800068E375E00E94552786E899E060E041E04B
:101F90000E949D0286E899E0BE0143C086E899E070
:101FA0006DE375E00E94552780919C0990919D09F1
:101FB000081719072CF086E899E063E375E004C080
:101FC00086E899E068E375E00E94552786E899E085
:101FD00060E041E00E949D0286E899E0B80121C0DE
:101FE00086E899E065E475E00E94552780919E0996
:101FF00090919F09E816F9062CF086E899E063E3D2
:1020000075E004C086E899E068E375E00E94552712
:1020100086E899E060E041E00E949D0286E899E050
:10202000B7014AE050E00E94412862E370E080E09E
:1020300090E00E9415220E94CC08882309F403CF67
:10204000DF91CF911F910F91FF90EF9008958CE851
:1020500099E063E070E040E050E00E947F00089566
:10206000AC018CE899E063E070E00E947F00089585
:102070008FEF93E00E94301068EE73E080E090E014
:102080000E9415220E942710089581E09CEF0E9473
:10209000301068EE73E080E090E00E94152288EA3C
:1020A0009DEF0E94301008951F9311E077C00E94A9
:1020B000A90686E899E06CE572E00E9455270E9427
:1020C000DB08882309F464C00E94A90686E899E029
:1020D0006DE475E00E9455270E944510112309F414
:1020E00056C00E94A90686E899E068E575E00E945E
:1020F00055270E94930686E899E06EE472E00E94FC
:1021000055270E94DB08882319F00E9427100BC076
:102110000E94CC088823D9F562E370E080E090E06B
:102120000E941522DECF0E94A90686E899E065E6A6
:1021300075E00E9455270E94930686E899E06EE4B8
:1021400072E00E9455270E94DB08882359F40E9400
:10215000CC088823E1F462E370E080E090E00E9424
:102160001522E1CF0E94A90686E899E065E775E0AF
:102170000E9455270E94930686E899E06AE775E079
:102180000E9455270E94C5060E94050701C010E065
:1021900062E370E080E090E00E9415220E94CC088B
:1021A000882309F484CF0E9427101F9108950F936C
:1021B0001F9301E010E040C00E94A90686E899E064
:1021C0006CE572E00E94552782E30E94C3228823B7
:1021D000A1F4002391F00E94A90686E899E067E83F
:1021E00075E00E9455270E94451068EE73E080E07C
:1021F00090E00E94152200E011E082E30E94C322D9
:102200008823A1F4112391F00E94A90686E899E0A1
:1022100066E975E00E9455270E94381068EE73E069
:1022200080E090E00E94152201E010E062E370E09F
:1022300080E090E00E9415220E94CC08882309F4D7
:10224000BBCF0E9427101F910F910895CF93DF936A
:1022500050C00E94A90682E090E00E94320C909348
:10226000B3098093B20980EA9FE00E94B909EC01AA
:102270008091B2099091B309009719F0019799F5EF
:1022800014C086E899E065EA75E00E94552786E863
:1022900099E0BE014AE050E00E9441280E94EA080D
:1022A000882309F181E09CEF13C086E899E06CEA8D
:1022B00075E00E94552786E899E0BE014AE050E0AB
:1022C0000E9441280E94EA08882369F08FEF93E07A
:1022D0000E943010BE01882777FD8095982F0E94BC
:1022E00015220E94271062E370E080E090E00E94D7
:1022F00015220E94CC08882309F4ABCF0E94271036
:10230000DF91CF9108953EC082E090E00E94320CB0
:102310009093B3098093B2090E94A9068091B209F3
:102320009091B3098130910591F089309105E1F0E8
:10233000892B11F586E899E065EB75E00E94552739
:102340000E94EA088823C1F00E94541015C086E854
:1023500099E065EC75E00E9455270E94EA08882301
:1023600059F00E94261108C086E899E065ED75E0F5
:102370000E9455270E94EA0862E370E080E090E046
:102380000E9415220E94CC08882309F4BDCF08952D
:10239000CF92DF92EF92FF920F931F938EE899E016
:1023A00060E070E00E94D2000091A4091091A5099C
:1023B000E090A609F090A709FCE8CF2EF9E0DF2E07
:1023C000442755274E195F09401B510B4A565F4F52
:1023D000C60160E070E00E947F00065910400E19AF
:1023E0001F09C60162E070E0A8010E947F006CED49
:1023F00075E080E090E00E9415221F910F91FF9000
:10240000EF90DF90CF9008950F931F930CE819E0A1
:10241000C80160E070E04AE050E00E947F00C8011F
:1024200062E070E04AE050E00E947F001F910F914F
:1024300008950F931F9388E795E00E94B9090E94C1
:10244000C50625C00E94A90688E795E00E94B90943
:102450008C010C5B12408CE899E063E070E0A8010D
:102460000E947F0086E899E060EE75E00E945527A3
:102470000E94930686E899E0B8014AE050E00E9485
:10248000412862E370E080E090E00E9415220E9403
:10249000CC088823B9F28CE899E063E070E040E072
:1024A00050E00E947F001F910F9108950E94C50681
:1024B000C7C088E090E00E94320C9093B3098093EB
:1024C000B2098330910509F451C0843091054CF470
:1024D0008130910529F1823091058CF5892B89F0A5
:1024E000A9C08530910509F467C0853091050CF4C9
:1024F00054C08630910509F46EC0079709F09AC060
:1025000081C00E94A90686E899E06EEE75E00E94FF
:1025100055278CE899E060E070E04EE551E01DC081
:102520000E94A90686E899E06BEF75E00E945527A6
:102530008CE899E060E070E042EA5EEF25C00E941E
:10254000A90686E899E069E076E00E9455278CE8C4
:1025500099E060E070E042EA5EEF0E947F008CE864
:1025600099E062E070E04EE551E062C00E94A90689
:1025700086E899E063E176E00E9455278CE899E0CF
:1025800060E070E04EE551E00E947F008CE899E049
:1025900062E070E042EA5EEF4BC00E94A90686E866
:1025A00099E06EE176E00E9455278CE899E060E0C2
:1025B00070E04CEB52E01DC00E94A90686E899E04D
:1025C0006BE276E00E9455278CE899E060E070E0CD
:1025D00044E45DEF25C00E94A90686E899E069E31E
:1025E00076E00E9455278CE899E060E070E044E4D2
:1025F0005DEF0E947F008CE899E062E070E04CEBB8
:1026000052E016C00E94A90686E899E063E476E0ED
:102610000E9455278CE899E060E070E04CEB52E0B6
:102620000E947F008CE899E062E070E044E45DEF96
:102630000E947F0062E370E080E090E00E9415223B
:102640000E94CC08882309F434CF0E940412089514
:10265000C8C08AE090E00E94320C9093B309809346
:10266000B2090E94A9068091B2099091B309843001
:10267000910509F462C08530910584F4813091059B
:1026800091F1823091051CF4892BF9F0A4C08230BD
:102690009105B9F1039709F09EC041C087309105BB
:1026A00009F473C08830910544F48530910509F42C
:1026B00052C0069709F08FC05BC08830910509F4BD
:1026C00071C0099709F087C07AC086E899E06EE486
:1026D00076E00E9455270E94EA08882309F47BC00F
:1026E0000E94561278C086E899E06DE576E00E9477
:1026F00055270E94EA08882309F46DC00E942A0920
:102700006AC086E899E06CE676E00E9455270E9450
:10271000EA08882309F45FC00E946F0C5CC086E859
:1027200099E069E776E00E9455270E94EA0888232D
:1027300009F451C00E941C0F4EC086E899E064E87D
:1027400076E00E9455270E94EA08882309F443C0D6
:102750000E94C30E40C086E899E064E976E00E94DA
:1027600055270E94EA088823B1F10E94D71033C090
:1027700086E899E063EA76E00E9455270E94EA081D
:10278000882349F10E94FD0826C086E899E064EBA1
:1027900076E00E9455270E94EA088823E1F00E9413
:1027A000750919C086E899E063EC76E00E94552728
:1027B0000E94EA08882379F00E9419120CC086E86A
:1027C00099E06FEC76E00E9455270E94EA08882382
:1027D00011F00E94831162E370E080E090E00E94BB
:1027E00015220E94CC08882309F433CF08952F9234
:1027F0003F924F925F926F927F928F929F92AF9291
:10280000BF92CF92DF92EF92FF920F931F93DF93CD
:10281000CF93CDB7DEB72A970FB6F894DEBF0FBEC1
:10282000CDBF0E94A9060E94C5066091AA097091B9
:10283000AB098EE899E00E94D2006091AC097091DA
:10284000AD0982E999E00E94D200442443941E829B
:102850001D825524539425E0C22ED12C95E0892E5B
:10286000912C22243324662477241C821B821A8212
:1028700019827DC184E00E9439238C0185E00E9489
:1028800039235C0183E00E943923AC0180919A09CD
:1028900090919B0920919E0930919F090817190773
:1028A0005CF480919C0990919D0942175307F4F0C4
:1028B000A816B90664F438C080919C0990919D09CE
:1028C0004217530764F0A816B9062CF02DC0552402
:1028D0004FEF5FEF11C0552481E090E015C0A816BE
:1028E000B90634F55524E3E0F0E01BC0A816B9069C
:1028F00034F055244DEF5FEF5A8749871BC01814F9
:1029000019042CF485E090E09A87898713C081141C
:10291000910429F4AA24BB241A86198619C0EBEF66
:10292000FFEFFA87E98706C055241A86198602C088
:10293000DA86C98649855A854815590519F4AA24A5
:10294000BB2406C051010894A11CB11C22243324CD
:102950008091A0099091A10998878F830091A20985
:102960001091A3090E9424098823A9F0442099F01A
:10297000ED81FE813196FE83ED8333973CF4C9846B
:10298000DA84442481E0682E712C2AC00E9404124B
:10299000B1E06B2E712C4D815E8144305105BCF449
:1029A00053E06516710499F40E94C8118091A4093E
:1029B0009091A509845690409093A5098093A4090D
:1029C000442455245394A5E0CA2ED12C09C0611487
:1029D000710421F0C984DA84442402C0C984DA84F1
:1029E0008B819C8184369105A9F4C6010E944C0715
:1029F000E981FA81F29731F4C3010E944B063C0150
:102A00001A82198249815A814F5F5F4F5A834983E5
:102A10001C821B82552009F064C0B801882777FD0D
:102A20008095982F0E9454297B018C0169857A85B5
:102A300068197909882777FD8095982F0E94542975
:102A40009B01AC01C801B7010E94E0297B018C0108
:102A5000A20CB31CB501882777FD8095982F0E94A2
:102A600054299B01AC01C801B7010E94B9280E94FA
:102A7000212989859A85EF81F8858E9F90018F9F06
:102A8000300D9E9F300D1124620F731F4091A409D9
:102A90005091A5092091A6093091A709F901E40FE9
:102AA000F51F8A01021B130B060F171FE61BF70BFE
:102AB00042E0ED3BF40714F0ECEBF2E08CE899E037
:102AC00060E070E0AF010E947F00A80182E00D3B52
:102AD000180714F04CEB52E08CE899E062E070E0EB
:102AE0003BC01C141D04CCF40091A4091091A5094D
:102AF000E090A609F090A709442755274E195F09D1
:102B0000401B510B4C595F4F8CE899E060E070E03E
:102B10000E947F000456104018C0C114D104F1F087
:102B2000E090A409F090A5090091A6091091A709C9
:102B3000A701400F511F445650408CE899E060E0D7
:102B400070E00E947F000C591F4F0E191F098CE87E
:102B500099E062E070E0A8010E947F00EB81FC81B7
:102B60003196FC83EB830894211C311C46010E94A2
:102B7000CC08882309F47ECE8DEE98E064E070E006
:102B80000E94160395E0899FC00111249093A50926
:102B90008093A4090E9404122A960FB6F894DEBF0F
:102BA0000FBECDBFCF91DF911F910F91FF90EF909E
:102BB000DF90CF90BF90AF909F908F907F906F905D
:102BC0005F904F903F902F9008952F923F924F9299
:102BD0005F926F927F928F929F92AF92BF92CF92AD
:102BE000DF92EF92FF920F931F93DF93CF9300D06A
:102BF00000D0CDB7DEB70E94A9060E94C50660913D
:102C0000AA097091AB098EE899E00E94D200609108
:102C1000AC097091AD0982E999E00E94D200882444
:102C200083942224332499249394A5E0CA2ED12C92
:102C3000F5E0AF2EB12C662477244424552458C1E6
:102C400084E00E9439238C0185E00E9439237C01B5
:102C500083E00E943923AC0180919A0990919B09ED
:102C600020919E0930919F09081719075CF4809103
:102C70009C0990919D09421753070CF1E816F9063B
:102C800064F43AC080919C0990919D0942175307C2
:102C900074F0E816F90634F02FC09924CC24CA94B5
:102CA000DC2C2DC09924E1E0CE2ED12C28C0E816D2
:102CB000F9062CF5992473E0C72ED12C20C0E81614
:102CC000F90634F099246DEFC62E6FEFD62E17C09B
:102CD0001A141B0424F455E0C52ED12C10C0A114E5
:102CE000B10429F41C821B82CC24DD2415C04BEFD7
:102CF000C42E4FEFD42E03C09924CC24DD24CA1453
:102D0000DB0419F41C821B8207C093012F5F3F4F25
:102D10003C832B83662477248091A0099091A1099C
:102D20009A8389830091A2091091A30994E6491618
:102D3000510429F4C6010E944C07442455240E94E2
:102D40002409882359F1882049F10894211C311C59
:102D5000E4E02E16310414F50E9404126091AC09CF
:102D60007091AD098091AA099091AB090E941D084C
:102D7000F3E02F16310409F0E7C00E94C8118091DA
:102D8000A4099091A509845690409093A509809339
:102D9000A409882435E0C32ED12CD6C0992009F08F
:102DA00063C0B801882777FD8095982F0E94542929
:102DB0007B018C01B6016A197B09882777FD809514
:102DC000982F0E9454299B01AC01C801B7010E94B1
:102DD000E0297B018C012B813C81260D371DB90137
:102DE000882777FD8095982F0E9454299B01AC017C
:102DF000C801B7010E94B9280E94212989819A81BE
:102E0000C89E9001C99E300DD89E300D1124620FCE
:102E1000731F4091A4095091A5092091A6093091F2
:102E2000A709F901E40FF51F8A01021B130B060F16
:102E3000171FE61BF70B92E0ED3BF90714F0ECEBE4
:102E4000F2E08CE899E060E070E0AF010E947F0062
:102E5000A801E2E00D3B1E0714F04CEB52E08CE8B9
:102E600099E062E070E03BC01C141D04CCF40091BA
:102E7000A4091091A509E090A609F090A70944279C
:102E800055274E195F09401B510B4C595F4F8CE879
:102E900099E060E070E00E947F000456104018C086
:102EA000C114D104F1F0E090A409F090A5090091BB
:102EB000A6091091A709A701400F511F4456504081
:102EC0008CE899E060E070E00E947F000C591F4F91
:102ED0000E191F098CE899E062E070E0A8010E94D9
:102EE0007F000894411C511C0894611C711C560100
:102EF0000E94CC08882309F4A3CE8DEE98E064E00C
:102F000070E00E94160395E0899FC0011124909300
:102F1000A5098093A4090E9404120F900F900F90AE
:102F20000F90CF91DF911F910F91FF90EF90DF9065
:102F3000CF90BF90AF909F908F907F906F905F9059
:102F40004F903F902F900895992493948DCF2F9276
:102F50003F924F925F926F927F928F929F92AF9229
:102F6000BF92CF92DF92EF92FF920F931F93CF9376
:102F7000DF930E94A9060E94C5066091AA0970917C
:102F8000AB098EE899E00E94D2006091AC09709183
:102F9000AD0982E999E00E94D200882483949924A3
:102FA000939445E0C42ED12C35E0A32EB12C662499
:102FB00077244424552452C184E00E9439238C0193
:102FC00085E00E943923EC0183E00E943923AC01A3
:102FD00080919A0990919B0920919E0930919F09B7
:102FE000081719075CF480919C0990919D0942177C
:102FF00053070CF1C817D90764F43AC080919C09B3
:1030000090919D094217530774F0C817D90734F0FF
:103010002FC09924CC24CA94DC2C2DC0992421E003
:10302000C22ED12C28C0C817D9072CF5992493E0BB
:10303000C92ED12C20C0C817D90734F099248DEFA0
:10304000C82E8FEFD82E17C01A141B0424F405E0E5
:10305000C02ED12C10C0A114B10429F4C0E0D0E0DE
:10306000CC24DD2412C01BEFC12E1FEFD12E03C0D4
:103070009924CC24DD24CA14DB0419F4C0E0D0E088
:1030800004C0E3012196662477242090A0093090A3
:10309000A1090091A2091091A30984E648165104E0
:1030A00029F4C6010E944C07442455240E94240997
:1030B000882319F1882009F10E9404126091AA095D
:1030C0007091AB0984EB90E040E050E00E94100664
:1030D00064EF71E080E090E00E94152280E090E0D3
:1030E00064EB70E040E050E00E9410060E94C811BE
:1030F0008824B5E0CB2ED12C65C0992009F05FC0A3
:10310000B801882777FD8095982F0E9454297B016C
:103110008C01B6016A197B09882777FD8095982F65
:103120000E9454299B01AC01C801B7010E94E0290B
:103130007B018C01C60DD71DBE01882777FD8095C8
:10314000982F0E9454299B01AC01C801B7010E942D
:10315000B9280E942129C29C9001C39C300DD29CA9
:10316000300D1124620F731F4091A4095091A509DD
:103170002091A6093091A709F901E40FF51FEA0192
:10318000C21BD30BC60FD71FE61BF70B82E0ED3B2C
:10319000F80714F0ECEBF2E08CE899E060E070E006
:1031A000AF010E947F00AE0182E0CD3BD80714F052
:1031B0004CEB52E08CE899E062E070E046C01C14F1
:1031C0001D0424F50091A4091091A509E090A60919
:1031D000F090A709442755274E195F09401B510B52
:1031E0004C595F4F8CE899E060E070E00E947F00EE
:1031F000045610400E191F098CE899E062E070E057
:10320000A8010E947F009924939421C0C114D10485
:10321000F1F0E090A409F090A5090091A6091091A1
:10322000A709A701400F511F445650408CE899E070
:1032300060E070E00E947F000C591F4F0E191F09BB
:103240008CE899E062E070E0A8010E947F00089499
:10325000411C511C0894611C711C56010E94CC0831
:10326000882309F4A9CE0E940412DF91CF911F9107
:103270000F91FF90EF90DF90CF90BF90AF909F9015
:103280008F907F906F905F904F903F902F90089518
:103290008F929F92AF92BF92CF92DF92EF92FF9266
:1032A0000F931F93CF93DF930E94A9060E94C50638
:1032B000AA24BB248824992423C181E00E943923B5
:1032C000EC0182E00E943923CD33D1050CF464C0B7
:1032D0008D3391050CF453C023E0CF3FD20724F483
:1032E00023E08F3F920714F10E9404121AC00E943B
:1032F000A90686E899E06AED76E00E94552786E8FF
:1033000099E060E041E00E949D0286E899E067EE66
:1033100076E00E94552762E370E080E090E00E9432
:1033200015220E94DB08882311F347C023E0C23333
:10333000D20754F022E0853692070CF049C0825340
:1033400091400CF0F9C0F0C022E0C536D2072CF055
:10335000825391400CF03CC0EFC0C253D1402CF0DE
:10336000825393400CF0E4C033C023E082339207D1
:103370000CF0E6C0855692400CF0DAC029C083E01C
:10338000C233D8070CF0D8C0C556D2400CF0CCC020
:10339000F5E0CF2ED12C17C08D339105CCF023E072
:1033A000823392070CF0C4C0855692400CF0C8C01E
:1033B000EBEFCE2EEFEFDE2E06C0C114D10419F4D0
:1033C000C0E0D0E009C0E5012196AA24BB2404C0D6
:1033D000C0E0D0E0CC24DD246091B0097091B10947
:1033E000882777FD8095982F0E9454297B018C01B6
:1033F000B601882777FD8095982F0E9454299B015C
:10340000AC01C801B7010E94E0297B018C01CA0D03
:10341000DB1DBE01882777FD8095982F0E945429D7
:103420009B01AC01C801B7010E94B9280E94212963
:103430002091AE093091AF09C901C89E9001C99E83
:10344000300DD89E300D1124620F731F4091A409D6
:103450005091A5092091A6093091A709E901C40F4F
:10346000D51F421B530B460F571FC61BD70B92E0AD
:10347000CD3BD90714F0CCEBD2E08A0122E04D3BE2
:10348000520714F00CEB12E08CE899E060E070E079
:10349000AE010E947F008CE899E062E070E0A80134
:1034A0000E947F0084E68816910421F50E94A906F7
:1034B00086E899E068EF76E00E94552786E899E073
:1034C000BE014AE050E00E94412886E899E060E0B1
:1034D00041E00E949D0286E899E060E077E00E946A
:1034E000552786E899E0B8014AE050E00E9441285B
:1034F000882499240894811C911C0894A11CB11C57
:103500000E94CC08882309F4D8CE0E940412DF91CF
:10351000CF911F910F91FF90EF90DF90CF90BF90D0
:10352000AF909F908F90089573E0C72ED12C4BCF12
:10353000CC24CA94DC2C47CF61E0C62ED12C43CFDB
:103540005DEFC52E5FEFD52E3ECF6F927F928F92AB
:103550009F92AF92BF92CF92DF92EF92FF920F9322
:103560001F93CF93DF930E94A9060E94C50695E0A2
:10357000C92ED12C85E0A82EB12C8824992466244C
:103580007724FBC084E00E9439238C0185E00E94EF
:103590003923EC0183E00E943923AC0180919A0920
:1035A00090919B0920919E0930919F090817190756
:1035B0006CF480919C0990919D09421753070CF17E
:1035C000C817D9079CF4CC24DD2436C080919C090F
:1035D00090919D09421753076CF020E030E0C81726
:1035E000D90714F421E030E0690126C0CC24CA9444
:1035F000DC2C22C0C817D907FCF403E0C02ED12C64
:103600001BC0C817D9072CF01DEFC12E1FEFD12EFC
:1036100013C01A141B0424F4B5E0CB2ED12C0CC01B
:10362000A114B10429F4C0E0D0E0CC24DD240EC004
:10363000ABEFCA2EAFEFDA2ECA14DB0419F4C0E0E8
:10364000D0E004C0E4012196882499246091A20965
:103650007091A309882777FD8095982F0E9454299F
:103660007B018C01B6016A197B09882777FD80955B
:10367000982F0E9454299B01AC01C801B7010E94F8
:10368000E0297B018C01C80DD91DBE01882777FD7B
:103690008095982F0E9454299B01AC01C801B70165
:1036A0000E94B9280E9421292091A0093091A109E6
:1036B000C901C89E9001C99E300DD89E300D1124BD
:1036C000620F731F4091A4095091A5092091A6098A
:1036D0003091A709E901C40FD51F421B530B460FB8
:1036E000571FC61BD70B92E0CD3BD90714F0CCEB8C
:1036F000D2E08A0182E04D3B580714F00CEB12E057
:103700008CE899E060E070E0AE010E947F008CE8F8
:1037100099E062E070E0A8010E947F0094E66916DB
:10372000710421F50E94A90686E899E068EF76E029
:103730000E94552786E899E0BE014AE050E00E94C9
:10374000412886E899E060E041E00E949D0286E819
:1037500099E060E077E00E94552786E899E0B8019B
:103760004AE050E00E944128662477240894611CB6
:10377000711C0894811C911C56010E94CC0888235E
:1037800009F400CF0E940412DF91CF911F910F9195
:10379000FF90EF90DF90CF90BF90AF909F908F9071
:1037A0007F906F90089563C00E94A90685E090E025
:1037B0000E94320C9093B3098093B2098230910534
:1037C00051F18330910534F4009759F0019709F0D5
:1037D00048C014C08330910559F1049709F041C0E5
:1037E00034C086E899E068E077E00E9455270E949F
:1037F000EA088823B1F10E94A51A33C086E899E04F
:1038000069E177E00E9455270E94EA08882349F180
:103810000E94481926C086E899E069E277E00E9494
:1038200055270E94EA088823E1F00E94A71719C0D3
:1038300086E899E06AE377E00E9455270E94EA084B
:10384000882379F00E94E5150CC086E899E06BE4C6
:1038500077E00E9455270E94EA08882311F00E9411
:10386000F71362E370E080E090E00E9415220E946E
:10387000CC08882309F498CF08952F923F924F9255
:103880005F927F928F929F92AF92BF92CF92DF9280
:10389000EF92FF920F931F93DF93CF9300D000D04E
:1038A000CDB7DEB70E94A9066091AA097091AB0955
:1038B0008EE899E00E94D2006091AC097091AD0948
:1038C00082E999E00E94D2007724739405E0C02E2B
:1038D000D12C15E0A12EB12C442455248824992400
:1038E0002224332455C184E00E9439238C0185E0D1
:1038F0000E9439237C0183E00E943923AC0180912E
:103900009A0990919B0920919E0930919F0908176F
:1039100019075CF480919C0990919D094217530707
:103920000CF1E816F90664F43AC080919C09909174
:103930009D094217530774F0E816F90634F02FC0BA
:103940007724CC24CA94DC2C2DC07724B1E0CB2E74
:10395000D12C28C0E816F9062CF57724A3E0CA2E4E
:10396000D12C20C0E816F90634F07724FDEFCF2ED5
:10397000FFEFDF2E17C01A141B0424F4E5E0CE2E4F
:10398000D12C10C0A114B10429F41C821B82CC24B8
:10399000DD2415C07BEFC72E7FEFD72E03C0772421
:1039A000CC24DD24CA14DB0419F41C821B8207C05A
:1039B00092012F5F3F4F3C832B83442455248091F9
:1039C000A0099091A1099A838983E090A209F090BF
:1039D000A30994E689169104F1F4C6010E944C07EC
:1039E00081E00E9439238C0182E00E9439230E334A
:1039F00011053CF4CE972CF48824992422243324F6
:103A00000AC00894211C311CE5E02E16310409F48B
:103A1000C4C0882499240E942409882379F00E9434
:103A200004126091AC097091AD098091AA0990913E
:103A3000AB090E941D087724739466C0772009F0B3
:103A400063C0B701882777FD8095982F0E9454297D
:103A50007B018C01B6016A197B09882777FD809567
:103A6000982F0E9454299B01AC01C801B7010E9404
:103A7000E0297B018C012B813C81240D351DB9018E
:103A8000882777FD8095982F0E9454299B01AC01CF
:103A9000C801B7010E94B9280E94212989819A8111
:103AA000C89E9001C99E300DD89E300D1124620F22
:103AB000731F4091A4095091A5092091A609309146
:103AC000A709F901E40FF51F7A01E21AF30AE60EDD
:103AD000F71EE61BF70B92E0ED3BF90714F0ECEB59
:103AE000F2E08CE899E060E070E0AF010E947F00B6
:103AF000A701E2E04D3B5E0714F04CEB52E08CE88E
:103B000099E062E070E03BC01C141D04CCF400910D
:103B1000A4091091A509E090A609F090A7094427EF
:103B200055274E195F09401B510B4A565F4F8CE8D1
:103B300099E060E070E00E947F000659104018C0D4
:103B4000C114D104F1F0E090A409F090A50900910E
:103B5000A6091091A709A701400F511F46595040CF
:103B60008CE899E060E070E00E947F000A561F4FE9
:103B70000E191F098CE899E062E070E0A8010E942C
:103B80007F000894811C911C0894411C511C560113
:103B90000E94CC08882309F4A6CE0E9404120F903C
:103BA0000F900F900F90CF91DF911F910F91FF9089
:103BB000EF90DF90CF90BF90AF909F908F907F90CD
:103BC0005F904F903F902F9008950E94C5060E94ED
:103BD0003D1C08951F9315E000C185E090E00E9410
:103BE000320C9093B3098093B2090E94A906809188
:103BF000B2099091B3098230910509F45FC0833016
:103C0000910534F4009781F0019709F0E0C031C0CC
:103C10008430910509F4C6C0843091050CF488C045
:103C2000099709F0D4C0CBC086E899E067E877E04F
:103C30000E9455270E94EA08882309F4C8C0809191
:103C4000AA099091AB0969EB70E00E94F609482F30
:103C50008DEE98E06EE070E00E9411038DEE98E02A
:103C60006EE070E00E9416038093AA091092AB09DF
:103C7000AEC086E899E068E977E00E9455270E9487
:103C8000EA08882309F4A3C08091AC099091AD099A
:103C900069EB70E00E94F609482F8DEE98E06FE026
:103CA00070E00E9411038DEE98E06FE070E00E94DA
:103CB00016038093AC091092AD0989C086E899E09B
:103CC00069EA77E00E9455270E94EA08882309F4F0
:103CD0007EC08091AE099091AF096AEF70E00E94BA
:103CE000F30AAA2797FDA095BA2FBC01CD010E9427
:103CF000542920E030E040EA50E40E94B9280E94B4
:103D000021299B01AC018DEE98E063E170E0422F28
:103D10000E9411038DEE98E063E170E00E941603AB
:103D2000819FC00111249093AF098093AE094FC0C9
:103D300086E899E066EB77E00E9455270E94EA0842
:103D4000882309F444C08091B0099091B1096AEFC9
:103D500070E00E94F30AAA2797FDA095BA2FBC0134
:103D6000CD010E94542920E030E040EA50E40E9456
:103D7000B9280E9421299B01AC018DEE98E064E1F5
:103D800070E0422F0E9411038DEE98E064E170E034
:103D90000E941603819FC00111249093B109809362
:103DA000B00915C086E899E063EC77E00E945527DA
:103DB0000E94EA08882359F00E94B60608C086E8E7
:103DC00099E065ED75E00E9455270E94EA0862E3DC
:103DD00070E080E090E00E9415220E94CC088823C9
:103DE00009F4FBCE1F9108951F93CF93DF9315E045
:103DF000CBEFDFEF28C289E090E00E94320C909375
:103E0000B3098093B2090E94A9068091B2099091EA
:103E1000B3098430910509F40DC18530910594F4FE
:103E20008130910509F458C0823091051CF4892B2A
:103E3000C9F003C28230910509F488C0039709F0E4
:103E4000FCC1BEC08630910509F468C18630910579
:103E50000CF42AC18730910509F4BFC1089709F015
:103E6000ECC1DFC186E899E06FEC77E00E9455274E
:103E70000E94EA08882309F4E0C180919A09909190
:103E80009B096CEB72E00E94F30AAA2797FDA095AC
:103E9000BA2FBC01CD010E94542920E030E040EA55
:103EA00050E40E94B9280E9421299B01AC018DEEAB
:103EB00098E060E070E0422F0E9411038DEE98E0E0
:103EC00060E070E00E941603819FC001112490936E
:103ED0009B0980939A09B1C186E899E06CED77E07F
:103EE0000E9455270E94EA08882309F4A6C1809100
:103EF0009C0990919D096CEB72E00E94F30AAA273D
:103F000097FDA095BA2FBC01CD010E94542920E055
:103F100030E040EA50E40E94B9280E9421299B0128
:103F2000AC018DEE98E061E070E0422F0E94110339
:103F30008DEE98E061E070E00E941603819FC00161
:103F4000112490939D0980939C0977C186E899E09C
:103F500069EE77E00E9455270E94EA08882309F459
:103F60006CC180919E0990919F096CEB72E00E9458
:103F7000F30AAA2797FDA095BA2FBC01CD010E9494
:103F8000542920E030E040EA50E40E94B9280E9421
:103F900021299B01AC018DEE98E06DE070E0422F8D
:103FA0000E9411038DEE98E06DE070E00E94160310
:103FB000819FC001112490939F0980939E093DC168
:103FC00086E899E066EF77E00E9455270E94EA08AC
:103FD000882309F432C18091A0099091A1096AEF68
:103FE00070E00E94F30AAA2797FDA095BA2FBC01A2
:103FF000CD010E94542920E030E040EA50E40E94C4
:10400000B9280E9421299B01AC018DEE98E062E065
:1040100070E0422F0E9411038DEE98E062E070E0A4
:104020000E941603819FC00111249093A1098093DF
:10403000A00903C186E899E063E078E00E94552773
:104040000E94EA08882309F4F8C08091A20990919F
:10405000A3096AEF70E00E94F30AAA2797FDA095D2
:10406000BA2FBC01CD010E94542920E030E040EA83
:1040700050E40E94B9280E9421299B01AC018DEED9
:1040800098E063E070E0422F0E9411038DEE98E00B
:1040900063E070E00E941603819FC0011124909399
:1040A000A3098093A209C9C086E899E060E178E09D
:1040B0000E9455270E94EA08882309F4BEC0809117
:1040C000A4099091A5096CEB72E00E94F30AAA275B
:1040D00097FDA095BA2FBC01CD010E94542920E084
:1040E00030E040EA50E40E94B9280E9421299B0157
:1040F000AC018DEE98E064E070E0422F0E94110365
:104100008DEE98E064E070E00E941603819FC0018C
:1041100011249093A5098093A4098FC086E899E0A3
:104120006EE178E00E9455270E94EA08882309F48E
:1041300084C08091A6099091A7096EE571E00E9464
:104140006F0AAA2797FDA095BA2FBC01CD010E9446
:10415000542920E030E040EA50E40E94B9280E944F
:104160002129462F77FD17C08DEE98E065E070E0BD
:104170000E9411038DEE98E062E170E041E00E9440
:1041800011038DEE98E065E070E00E941603819FB8
:10419000C00111241DC041958DEE98E065E070E0EE
:1041A0000E9411038DEE98E062E170E040E00E9411
:1041B00011038DEE98E065E070E00E94160390E038
:1041C0009C012C9FC0012D9F900D3C9F900D1124B0
:1041D0009093A7098093A60930C086E899E06EE223
:1041E00078E00E9455270E94EA08882331F18091E7
:1041F000A8099091A9096AE170E00E94F609482F88
:104200008DEE98E06BE070E00E9411038DEE98E077
:104210006BE070E00E9416038093A8091092A90930
:104220000CC086E899E06FEC76E00E9455270E946A
:10423000EA08882311F00E94EA1D62E370E080E042
:1042400090E00E9415220E94CC08882309F4D3CD67
:10425000DF91CF911F9108950E94A90685E090E01B
:104260000E94320C9093B3098093B2098230910579
:1042700051F18330910534F4009759F0019709F01A
:1042800048C014C08330910559F1049709F041C02A
:1042900034C086E899E06AE378E00E9455270E94DE
:1042A000EA088823B1F10E94E51D33C086E899E051
:1042B00065E478E00E9455270E94EA08882349F1C6
:1042C0000E94D31B26C086E899E063E578E00E944F
:1042D00055270E94EA088823E1F00E94281319C09C
:1042E00086E899E06EE578E00E9455270E94EA088A
:1042F000882379F00E94F41E0CC086E899E06DE6F0
:1043000078E00E9455270E94EA08882311F00E9455
:104310006A0E62E370E080E090E00E94152208954A
:1043200080E061E00E940C2381E060E00E940C23A9
:104330008EE899E063E270E00E94840182E999E0EE
:104340006FE170E00E94840186E999E062E270E02A
:104350000E9484018EE899E060E070E00E94D20043
:104360006091AC097091AD0982E999E00E94D20098
:1043700086E999E064EB70E00E94D2008DEE98E04F
:1043800062E170E00E9416038DEE98E065E070E057
:104390000E9416030E94041208951F920F920FB6F6
:1043A0000F9211242F933F938F939F93AF93BF93BB
:1043B0008091B8099091B909A091BA09B091BB094F
:1043C0003091BC090196A11DB11D232F2D5F2D3702
:1043D00020F02D570196A11DB11D2093BC0980939B
:1043E000B8099093B909A093BA09B093BB09809119
:1043F000B4099091B509A091B609B091B709019699
:10440000A11DB11D8093B4099093B509A093B6097D
:10441000B093B709BF91AF919F918F913F912F9129
:104420000F900FBE0F901F901895AF92BF92CF9232
:10443000DF92EF92FF920F931F935B016C019FB786
:10444000F8942091B4093091B5094091B609509182
:10445000B70982B7E82EFF2400E010E006B600FEA0
:104460000AC08FEFE816F1040105110521F02F5F56
:104470003F4F4F4F5F4F9FBFB42FA32F922F8827DF
:104480008E0D9F1DA01FB11F12E0880F991FAA1F3C
:10449000BB1F1A95D1F7BC0138C09FB7F894209183
:1044A000B4093091B5094091B6095091B70982B766
:1044B000E82EFF2400E010E006B600FE0AC08FEFF1
:1044C000E816F1040105110521F02F5F3F4F4F4F12
:1044D0005F4F9FBFB42FA32F922F88278E0D9F1D54
:1044E000A01FB11FE2E0880F991FAA1FBB1FEA950A
:1044F000D1F7861B970B885E934078F20894A10849
:10450000B108C108D10868517C4FA114B104C1049D
:10451000D10419F61F910F91FF90EF90DF90CF908B
:10452000BF90AF900895E82FE695E695E695A82F01
:10453000B0E0613099F42FB7F894F0E0EE0FFF1F70
:10454000E657F74F0190F081E02D9081A770B07091
:10455000A453B74F8C91982B908313C02FB7F89426
:10456000F0E0EE0FFF1FE657F74F0190F081E02DCE
:104570009081A770B070A453B74F8C918095892318
:1045800080832FBF0895A82FE82FE695E695E6953E
:10459000F0E0EE0FFF1FE856F74F0190F081E02D9D
:1045A000E081B0E0A770B070A453B74F8C91E823BE
:1045B00009F0E1E08E2F0895E82FE695E695E6955F
:1045C000A82FB0E0613099F42FB7F894F0E0EE0F27
:1045D000FF1FE458F74F0190F081E02D9081A77004
:1045E000B070A453B74F8C91982B908313C02FB702
:1045F000F894F0E0EE0FFF1FE458F74F0190F081C0
:10460000E02D9081A770B070A453B74F8C91809526
:10461000892380832FBF0895E82FF0E0613051F4A3
:10462000EE0FFF1FE657F74F0190F081E02D8FEF5F
:1046300080830895EE0FFF1FE657F74F0190F0813A
:10464000E02D10820895E82FF0E0EE0FFF1FE856EE
:10465000F74F0190F081E02D80810895E82FF0E080
:10466000EE0FFF1FE458F74F0190F081E02D6083BB
:104670000895982F8091A608813051F4109261001E
:104680001092620080E487B987EE86B91092A6087E
:104690008091A708981721F4349A349BFECF0DC05F
:1046A0009093A70887B19770807E892B87B9349A39
:1046B000349BFECF349A349BFECF24B135B1C9016F
:1046C0000895853031F48FB580688FBD8FB58F7BAD
:1046D0000FC0843031F48FB580628FBD8FB58F7E6F
:1046E00007C0833039F48FB588608FBD8FB58B7F5D
:1046F0008FBD0895823049F480918B00806880934B
:104700008B0080918B008F7B0AC0813059F480919F
:104710008B00806280938B0080918B008F7E8093D2
:104720008B000895882351F480918B0088608093DA
:104730008B0080918B008B7F80938B00089585B5D3
:10474000887F826085BD14BC87B7806487BF089569
:1047500095B5987F982B95BD0895803140F4E82F4A
:10476000F0E0EE0FFF1FE254F64F7183608308956F
:10477000893031F48FB582608FBD8FB58E7F0AC0CE
:104780008A3019F48FB5826002C08FB58D7F8FBDDE
:104790008FB581608FBD1BBC1ABC19BC18BC1092B0
:1047A0007900109278000895893049F480918B0047
:1047B000826080938B0080918B008E7F0EC08A3048
:1047C00021F480918B00826003C080918B008D7FEB
:1047D00080938B0080918B00816080938B0010927E
:1047E000870010928600109285001092840010922B
:1047F0008300109282000895FF920F931F93CF932E
:10480000DF93182FF62E072F8D31B0F08F3111F472
:1048100013E014C08E3111F414E010C08D3109F48E
:10482000B1C0853211F410E044C0843211F411E0BB
:1048300040C0833219F4A4C08330D8F18091BD09FF
:1048400086FD12C08EB5887F83608EBD1DBC1CBCEA
:1048500087B7846087BF78948AE00E94B8238091EC
:10486000BD0980648093BD098091BD09C12FD0E04E
:1048700090E0012E02C0959587950A94E2F780FD9D
:1048800059C087B3FE01EC52F74F9081892B87BB4B
:10489000812F0E9461232091BD0981E090E0012ECB
:1048A00002C0880F991F0A94E2F7282B2093BD09B4
:1048B00041C08091BD0987FD18C080918A00887F22
:1048C000836080938A001092890010928800809102
:1048D0007D00846080937D0078948AE00E94D423D8
:1048E0008091BD0980688093BD098091BD09C12F69
:1048F000D0E090E0012E02C0959587950A94E2F7EA
:1049000080FD22C082B1FE01EC52F74F9081892BCD
:1049100082B9812F0E9461232091BD0981E090E03E
:10492000012E02C0880F991F0A94E2F7282B2093CA
:10493000BD090AC0153019F40BBDFABC25C01430EE
:1049400019F409BDF8BC20C0133029F40093790094
:10495000F092780019C0123029F400938700F09289
:10496000860012C0113029F400938500F092840073
:104970000BC0112349F400938300F092820004C01D
:1049800012E097CF15E05ACFDF91CF911F910F9191
:10499000FF9008951F920F920FB60F920BB60F92D1
:1049A00011242F933F934F935F936F937F938F9334
:1049B0009F93AF93BF93EF93FF938091C40990911E
:1049C000C509892B29F0E091C409F091C509099521
:1049D000FF91EF91BF91AF919F918F917F916F91D7
:1049E0005F914F913F912F910F900BBE0F900FBE93
:1049F0000F901F9018951F920F920FB60F920BB643
:104A00000F9211242F933F934F935F936F937F9354
:104A10008F939F93AF93BF93EF93FF938091CE09B2
:104A20009091CF09892B29F0E091CE09F091CF091F
:104A30000995FF91EF91BF91AF919F918F917F91D8
:104A40006F915F914F913F912F910F900BBE0F90FF
:104A50000FBE0F901F9018951F920F920FB60F92D6
:104A60000BB60F9211242F933F934F935F936F9345
:104A70007F938F939F93AF93BF93EF93FF93809117
:104A8000D4099091D509892B29F0E091D409F091AE
:104A9000D5090995FF91EF91BF91AF919F918F91AA
:104AA0007F916F915F914F913F912F910F900BBE2E
:104AB0000F900FBE0F901F9018951F920F920FB678
:104AC0000F920BB60F9211242F933F934F935F9346
:104AD0006F937F938F939F93AF93BF93EF93FF93C6
:104AE0008091C0099091C109892B29F0E091C009FA
:104AF000F091C1090995FF91EF91BF91AF919F91FD
:104B00008F917F916F915F914F913F912F910F9076
:104B10000BBE0F900FBE0F901F9018951F920F9213
:104B20000FB60F920BB60F9211242F933F934F9312
:104B30005F936F937F938F939F93AF93BF93EF9305
:104B4000FF938091C6099091C709892B29F0E091C4
:104B5000C609F091C7090995FF91EF91BF91AF91F7
:104B60009F918F917F916F915F914F913F912F9185
:104B70000F900BBE0F900FBE0F901F9018951F92B5
:104B80000F920FB60F920BB60F9211242F933F93F3
:104B90004F935F936F937F938F939F93AF93BF9345
:104BA000EF93FF938091C8099091C909892B29F04F
:104BB000E091C809F091C9090995FF91EF91BF9162
:104BC000AF919F918F917F916F915F914F913F91A5
:104BD0002F910F900BBE0F900FBE0F901F90189546
:104BE0001F920F920FB60F920BB60F9211242F93B4
:104BF0003F934F935F936F937F938F939F93AF9365
:104C0000BF93EF93FF938091CA099091CB09892BB1
:104C100029F0E091CA09F091CB090995FF91EF9134
:104C2000BF91AF919F918F917F916F915F914F91C4
:104C30003F912F910F900BBE0F900FBE0F901F90C2
:104C400018951F920F920FB60F920BB60F92112468
:104C50002F933F934F935F936F937F938F939F9384
:104C6000AF93BF93EF93FF938091CC099091CD09BF
:104C7000892B29F0E091CC09F091CD090995FF919C
:104C8000EF91BF91AF919F918F917F916F915F91C4
:104C90004F913F912F910F900BBE0F900FBE0F9031
:104CA0001F9018951F920F920FB60F920BB60F928E
:104CB00011242F933F934F935F936F937F938F9321
:104CC0009F93AF93BF93EF93FF938091D0099091FF
:104CD000D109892B29F0E091D009F091D1090995EA
:104CE000FF91EF91BF91AF919F918F917F916F91C4
:104CF0005F914F913F912F910F900BBE0F900FBE80
:104D00000F901F9018951F920F920FB60F920BB62F
:104D10000F9211242F933F934F935F936F937F9341
:104D20008F939F93AF93BF93EF93FF938091D60997
:104D30009091D709892B29F0E091D609F091D709F4
:104D40000995FF91EF91BF91AF919F918F917F91C5
:104D50006F915F914F913F912F910F900BBE0F90EC
:104D60000FBE0F901F9018951F920F920FB60F92C3
:104D70000BB60F9211242F933F934F935F936F9332
:104D80007F938F939F93AF93BF93EF93FF93809104
:104D9000D8099091D909892B29F0E091D809F0918F
:104DA000D9090995FF91EF91BF91AF919F918F9193
:104DB0007F916F915F914F913F912F910F900BBE1B
:104DC0000F900FBE0F901F9018951F920F920FB665
:104DD0000F920BB60F9211242F933F934F935F9333
:104DE0006F937F938F939F93AF93BF93EF93FF93B3
:104DF0008091DA099091DB09892B29F0E091DA0999
:104E0000F091DB090995FF91EF91BF91AF919F91CF
:104E10008F917F916F915F914F913F912F910F9063
:104E20000BBE0F900FBE0F901F9018951F920F9200
:104E30000FB60F920BB60F9211242F933F934F93FF
:104E40005F936F937F938F939F93AF93BF93EF93F2
:104E5000FF938091DC099091DD09892B29F0E09185
:104E6000DC09F091DD090995FF91EF91BF91AF91B8
:104E70009F918F917F916F915F914F913F912F9172
:104E80000F900BBE0F900FBE0F901F90189583E0F0
:104E900061E00E940C2384E061E00E940C2378947E
:104EA0000E9490210E942C21FDCF0F931F93CF933E
:104EB000DF938C01EB0109C02196D801ED91FC91A3
:104EC0000190F081E02DC801099568816623A1F762
:104ED000DF91CF911F910F9108952F923F924F92A2
:104EE0005F926F927F928F929F92AF92BF92CF927A
:104EF000DF92EF92FF920F931F93DF93CF93CDB783
:104F0000DEB7A0970FB6F894DEBF0FBECDBF1C0171
:104F10006A017B01411551056105710549F4DC0108
:104F2000ED91FC910190F081E02D60E3099554C072
:104F3000882499245401422E55246624772401E0C4
:104F400010E00C0F1D1F080D191DC701B601A301AC
:104F500092010E94432AF80160830894811C911CED
:104F6000A11CB11CC701B601A30192010E94432AF2
:104F7000C901DA016C017D01C114D104E104F1041D
:104F8000F1F681E0E82EF12CEC0EFD1EE80CF91C88
:104F90003E010894611C711CD501C4010197A1094F
:104FA000B1096C01C818D90814C0F601EE0DFF1D37
:104FB00060816A3010F4605D01C0695CD101ED91DF
:104FC000FC910190F081E02DC10109950894E10860
:104FD000F1086E147F0449F7A0960FB6F894DEBF6F
:104FE0000FBECDBFCF91DF911F910F91FF90EF903A
:104FF000DF90CF90BF90AF909F908F907F906F90F9
:105000005F904F903F902F900895EF92FF920F93F3
:105010001F93CF93DF93EC017A018B0177FF0FC0D1
:10502000E881F9810190F081E02D6DE209951095FC
:105030000095F094E094E11CF11C011D111DCE01BE
:10504000B801A7012AE00E946D27DF91CF911F913F
:105050000F91FF90EF900895DC012115310541F487
:10506000ED91FC910190F081E02D642F0995089558
:105070002A30310519F40E94052808950E946D27F1
:105080000895EF92FF920F931F937B019A010027DF
:10509000F7FC0095102FB801A7010E942C281F9142
:1050A0000F91FF90EF9008955058BB27AA270ED07C
:1050B0004DC13ED130F043D120F031F49F3F11F487
:1050C0001EF433C10EF4E095E7FB29C1E92F4FD15F
:1050D00080F3BA17620773078407950718F071F415
:1050E0009EF567C10EF4E0950B2EBA2FA02D0B0193
:1050F000B90190010C01CA01A0011124FF27591B1D
:1051000099F0593F50F4503E68F11A16F040A22F22
:10511000232F342F4427585FF3CF46953795279593
:10512000A795F0405395C9F77EF41F16BA0B620B92
:10513000730B840BBAF09150A1F0FF0FBB1F661FD9
:10514000771F881FC2F70EC0BA0F621F731F841F1C
:1051500048F4879577956795B795F7959E3F08F042
:10516000B3CF9395880F08F09927EE0F9795879501
:1051700008950CD0EBC0E3D040F0DAD030F021F449
:105180005F3F19F0CCC0511115C1CFC0F0D098F3DA
:105190009923C9F35523B1F3951B550BBB27AA27B8
:1051A00062177307840738F09F5F5F4F220F331F2A
:1051B000441FAA1FA9F333D00E2E3AF0E0E830D0F6
:1051C00091505040E695001CCAF729D0FE2F27D0F9
:1051D000660F771F881FBB1F261737074807AB07C7
:1051E000B0E809F0BB0B802DBF01FF2793585F4F3C
:1051F0002AF09E3F510568F092C0DCC05F3FECF39F
:10520000983EDCF3869577956795B795F7959F5F00
:10521000C9F7880F911D9695879597F90895E1E054
:10522000660F771F881FBB1F621773078407BA07B3
:1052300020F0621B730B840BBA0BEE1F88F7E0950E
:10524000089504D06894B111B5C0089598D088F03D
:105250009F5790F0B92F9927B751A0F0D1F0660F62
:10526000771F881F991F1AF0BA95C9F712C0B1307D
:1052700081F09FD0B1E008959CC0672F782F8827D8
:10528000B85F39F0B93FCCF3869577956795B395BC
:10529000D9F73EF490958095709561957F4F8F4F2B
:1052A0009F4F0895E89409C097FB3EF49095809530
:1052B000709561957F4F8F4F9F4F9923A9F0F92FDC
:1052C00096E9BB279395F695879577956795B7955A
:1052D000F111F8CFFAF4BB0F11F460FF1BC06F5F40
:1052E0007F4F8F4F9F4F16C0882311F096E911C052
:1052F000772321F09EE8872F762F05C0662371F073
:1053000096E8862F70E060E02AF09A95660F771F86
:10531000881FDAF7880F9695879597F9089597F97A
:105320009F6780E870E060E008959FEF80EC08954B
:1053300000240A9416161706180609060895002474
:105340000A9412161306140605060895092E0394EE
:10535000000C11F4882352F0BB0F40F4BF2B11F462
:1053600060FF04C06F5F7F4F8F4F9F4F089557FDC1
:105370009058440F551F59F05F3F71F04795880FC3
:1053800097FB991F61F09F3F79F08795089512165A
:1053900013061406551FF2CF4695F1DF08C0161606
:1053A00017061806991FF1CF8695710561050894B7
:1053B0000895E894BB2766277727CB0197F90895CE
:1053C0000BD0C4CFB5DF28F0BADF18F0952309F071
:1053D000A6CFABCF1124EECFCADFA0F3959FD1F3B8
:1053E000950F50E0551F629FF001729FBB27F00D93
:1053F000B11D639FAA27F00DB11DAA1F649F6627E8
:10540000B00DA11D661F829F2227B00DA11D621F36
:10541000739FB00DA11D621F839FA00D611D221FF0
:10542000749F3327A00D611D231F849F600D211DD4
:10543000822F762F6A2F11249F5750408AF0E1F077
:1054400088234AF0EE0FFF1FBB1F661F771F881FC0
:1054500091505040A9F79E3F510570F060CFAACF00
:105460005F3FECF3983EDCF3869577956795B795AB
:10547000F795E7959F5FC1F7FE2B880F911D9695D5
:10548000879597F90895A1E21A2EAA1BBB1BFD016F
:105490000DC0AA1FBB1FEE1FFF1FA217B307E40713
:1054A000F50720F0A21BB30BE40BF50B661F771F6B
:1054B000881F991F1A9469F760957095809590954B
:1054C0009B01AC01BD01CF010895EE0FFF1F0590B8
:1054D000F491E02D0994E199FECF9FBB8EBBE09A39
:1054E00099278DB30895262FE199FECF9FBB8EBBE0
:1054F0002DBB0FB6F894E29AE19A0FBE019608957B
:04550000F894FFCF4D
:105504002020202020202020202020202020202097
:1055140000506172616D7320536574004D6F766540
:105524006D656E7420426567696E7320696E003321
:105534002E2E2E00322E2E2E00312E2E2E005472A0
:1055440069676765723A200052656C65617365002E
:10555400547269676765723A0052657475726E00B9
:105564002020202020232323232323202020202025
:105574000023232300232323202020202020202055
:105584002020202020002323232323202020202028
:105594002020202020200023232323232323202012
:1055A40020202020202020002323232323232323FF
:1055B4002320202020202020002020202020202004
:1055C40020202020202023232300202020202020EE
:1055D40020202020202323232323002020202020D8
:1055E40020202020232323232323230020202020C2
:1055F40020202023232323232323232300436F6CEE
:105604006C6563746F723A00546F75636820496403
:105614006F6C0052616973652041726D0053776548
:10562400657065723A004465706F736974204964EB
:105634006F6C00436F6C6C2E202B20537765657064
:105644003A0052657475726E20486F6D6500507231
:10565400657373203C53746172743E0057616974BE
:10566400696E672E2E2E005072657373205377690E
:1056740074636800436F6C6C6563746F722041637C
:1056840074697665004C656674205A4C20416374D5
:10569400697665005269676874205A4C20416374C6
:1056A400697665004C6F6F6B696E672E2E2E002035
:1056B4004375723A20004E65773A2000536572763E
:1056C4006F00204020506F732000536572766F2066
:1056D400003A200043763A20002046696E3A2000C2
:1056E400436F6C6C6563746F722041726D00537705
:1056F40065657065720054524D2054726967676520
:10570400720053303A20436F6C6C656374204172AD
:105714006D0053313A2053776565706572005332DA
:105724003A2054524D2052656C65617365004D30CA
:105734003A204D6F746F72204C656674004D313A97
:105744002057696E6368004D323A204D6F746F7252
:10575400205269676874004D333A203C20556E75B9
:10576400736564203E0044696720302D373A204F2A
:1057740075747075740044696720382D31353A208A
:10578400496E7075740044303A203C20556E757330
:105794006564203E0044313A203C20556E757365A3
:1057A40064203E0044323A203C20556E7573656493
:1057B400203E0044333A203C20556E7573656420C6
:1057C4003E0044343A203C20556E75736564203E97
:1057D4000044353A203C20556E75736564203E00C4
:1057E40044363A203C20556E75736564203E00446F
:1057F400373A203C20556E75736564203E0044386A
:105804003A203C20556E75736564203E0044393A55
:1058140020436F6C6C2E20537769746368004431A5
:10582400303A20537461727448696C6C00443131AD
:105834003A203C20556E75736564203E0044313235
:105844003A203C20556E75736564203E0044313324
:105854003A203C20556E75736564203E0044313413
:105864003A203C20556E75736564203E0044313502
:105874003A203C20556E75736564203E0041303AF1
:10588400203C20556E75736564203E0041313A20FA
:105894004C6566742049520041323A205269676867
:1058A400742049520041333A205152442043656EDA
:1058B4007472650041343A20515244204C65667438
:1058C4000041353A205152442052696768740041BE
:1058D400363A204D656E75204B6E6F620041373A43
:1058E4002056616C7565204B6E6F6200416E616C71
:1058F4006F673F004469676974616C3F004D6F7462
:105904006F723F00536572766F3F004C2049523AE4
:1059140020004F4F5200522049523A20004C004F71
:105924004E004F46460020520043004C2051524442
:105934003A2000204F4E20004F464620005220516E
:1059440052443A200043205152443A2000526169A3
:1059540073696E672E2E2E00496E20506F73697422
:10596400696F6E3F00526561647920666F72204AE8
:10597400756D703F00424F4F4D00525542424552A3
:105984002042414E44530052616973652057696E49
:1059940063682E2E2E004C6F7765722057696E63F4
:1059A400682E2E2E0055703F20743D00446F776E94
:1059B4003F20743D00546573742052656163682010
:1059C4004261723F00546573742057696E63685472
:1059D400696D653F003C20504147452033203E001F
:1059E40057696E63682053706565643A2000466F9A
:1059F400727761726420534C4F57004261636B7736
:105A040061726420534C4F57004C65667420534CAC
:105A14004F5700526967687420534C4F5700466FC4
:105A240072776172642046415354004261636B771C
:105A34006172642046415354004C656674204641AB
:105A440053540052696768742046415354005465A6
:105A5400737420482D4272696467653F005465730E
:105A6400742053776974636865733F005465737475
:105A740020536572766F733F0054657374205152DE
:105A840044733F005465737420495220446574651F
:105A940063743F00546573742054656C2E20417206
:105AA4006D3F0054657374205A4C205472696767C3
:105AB40065723F00546573742049646F6C4772616A
:105AC400623F00546573742057696E63683F003CFD
:105AD40020504147452032203E004D6178204465E6
