:100000000C9448000C947D000C947D000C947D00B1
:100010000C947D000C947D000C947D000C947D006C
:100020000C947D000C94020C0C94AB0A0C94D10B34
:100030000C943E0B0C946F0B0C947A0A0C940D0BE1
:100040000C9496070C947D000C9412020C945802A8
:100050000C947D000C947D000C947D000C947D002C
:100060000C94A00B0C94C60C0C94330C0C94640CE4
:100070000C94950C0C94DC0A0C94B1020C94F702CD
:100080000C947D000C947D000C947D00C3035E04F1
:1000900011241FBECFEFD0E1DEBFCDBF88E483BF08
:1000A00083B7887F846083BF12BE87B7816087BFB4
:1000B000789411E0A0E0B1E0E0E7FFE100E00BBFE1
:1000C00002C007900D92AA3BB107D9F712E0AAEB44
:1000D000B1E001C01D92AF3AB107E1F710E0C0E90D
:1000E000D0E004C02297FE010E94B20FCC38D107A5
:1000F000C9F70E94F70C0C94B60F0C9400000F93F4
:100100001F93CF93DF93EB018A01CC0FDD1F57FDC7
:100110000CC0FE01E957FE4F808161E00E94A508F6
:10012000C157DE4F8881B8010EC0FE01E957FE4F6E
:10013000808160E00E94A508C157DE4F66277727BF
:10014000601B710B88810E94AC09DF91CF911F91D8
:100150000F9108951F93CF93DF93C0E0D0E0FE018D
:10016000E957FE4F1081812F61E00E945C08812FCA
:1001700061E00E94A508FE01E157FE4F808160E02A
:1001800070E00E94AC092296C830D10541F7DF919A
:10019000CF911F910895FC0110828AE090E0938333
:1001A00082830895CF93DF93EC018A8160E00E94FF
:1001B000A5088D8160E00E94D5088D8160E00E94D5
:1001C000F7088B8161E00E94A5088C8161E00E94A4
:1001D000A5080000000010C08C8160E00E94A50806
:1001E00000000000000000008C8161E00E94A50872
:1001F00000000000000000008D810E94EC0887FDD7
:10020000EBCF8C8160E00E94A508DF91CF9108952B
:10021000FF920F931F938C01F62E0E94D200F801DB
:10022000828161E00E94A508F801838160E00E945C
:10023000A508F801848161E00E94A508F801858184
:1002400061E00E94D508F80185816F2D0E94F708B2
:100250000000000000000000F801848160E00E94BE
:10026000A508F801858160E00E94D508F801858124
:100270006FEF0E94F7081F910F91FF900895EF9282
:10028000FF920F931F93CF93DF937C01042F61158F
:10029000710551F0EB0110E005C0C70169910E94A2
:1002A00008011F5F1017C8F3DF91CF911F910F91C5
:1002B000FF90EF900895DF93CF930F92CDB7DEB705
:1002C0006983BE016F5F7F4F41E00E943F010F9045
:1002D000CF91DF910895FF920F931F938C01F62E1B
:1002E0000E94D200F801828160E00E94A508F80116
:1002F000838160E00E94A508F801848161E00E948A
:10030000A508F801858161E00E94D508F801858182
:100310006F2D0E94F7080000000000000000F801A7
:10032000848160E00E94A508F801858160E00E9458
:10033000D508F80185816FEF0E94F7081F910F9192
:10034000FF900895423031F0433031F0413029F4CC
:10035000605C03C06C5E01C06C5A60680E946B01F7
:10036000089561E00E946B0108950F931F938C0123
:10037000FC01828160E00E94A508F801838160E0B1
:100380000E94A508F801848160E00E94A508F80198
:10039000828161E00E945C08F801838161E00E9433
:1003A0005C08F801848161E00E945C08F8018581A5
:1003B00060E00E94D508F80185816FEF0E94F70880
:1003C0001F910F9108950F931F938C010E94B50107
:1003D000C80168E30E946B01C80161E00E946B01E3
:1003E000C80166E00E946B01C8016CE00E946B01CD
:1003F000C80162E00E946B01C80160E80E946B01C5
:100400001F910F9108950F93FC018BE991E0918367
:1004100080836283438324830583CF010E94E301A9
:100420000F9108951F920F920FB60F920BB60F9275
:1004300011242F933F938F939F93EF93FF93E0911A
:100440000402F091050220818091BE019091BF01CC
:1004500080970CF58091BE019091BF010196909319
:10046000BF018093BE018091C0019091C101FC0148
:10047000E654FE4F228701969093C1018093C001FC
:100480002091BC013091BD018217930724F0109296
:10049000C1011092C001FF91EF919F918F913F9107
:1004A0002F910F900BBE0F900FBE0F901F901895BD
:1004B0001F920F920FB60F920BB60F9211242F932B
:1004C0003F934F938F939F93AF93BF93EF93FF937C
:1004D0008091E6019091E7011816190634F5A09174
:1004E0000402B09105028091E6019091E701019725
:1004F0009093E7018093E6018091EA019091EB01EE
:10050000FC01E654FE4F42A901969093EB018093C3
:10051000EA012091E4013091E5018217930724F06C
:100520001092EB011092EA014C938091E6019091B8
:10053000E701892B31F4E0910202F091030288E98E
:100540008083FF91EF91BF91AF919F918F914F91D8
:100550003F912F910F900BBE0F900FBE0F901F90E9
:1005600018951F920F920FB60F920BB60F9211248F
:100570002F933F938F939F93EF93FF93E0915002BC
:10058000F0915102208180910A0290910B02809794
:100590000CF580910A0290910B02019690930B0248
:1005A00080930A0280910C0290910D02FC01EA5F97
:1005B000FD4F2287019690930D0280930C022091AB
:1005C0000802309109028217930724F010920D025D
:1005D00010920C02FF91EF919F918F913F912F917B
:1005E0000F900BBE0F900FBE0F901F9018951F928B
:1005F0000F920FB60F920BB60F9211242F933F93C9
:100600004F938F939F93AF93BF93EF93FF938091FB
:100610003202909133021816190634F5A091500257
:10062000B0915102809132029091330201979093E0
:100630003302809332028091360290913702FC019E
:10064000EA5FFD4F42A901969093370280933602EC
:1006500020913002309131028217930724F01092DA
:100660003702109236024C938091320290913302FD
:10067000892B31F4E0914E02F0914F0288E980839A
:10068000FF91EF91BF91AF919F918F914F913F91CA
:100690002F910F900BBE0F900FBE0F901F901895CB
:1006A000FC0124813581C9010895DC01FC018481AC
:1006B0009581892B19F42FEF3FEF18C0FD0184813C
:1006C000958101979583848380859185E80FF91F33
:1006D00042850196FD0191878087228133818217AF
:1006E000930714F011861086242F30E0C901089575
:1006F000CF93DF93DC01EC018C819D81892B19F470
:100700002FEF3FEF08C0ED01E885F985EA0FFB1FE9
:100710008285282F30E0C901DF91CF910895FC0137
:10072000158214828481958191878087978386833F
:100730000895DC01FD0184A595A54097DCF7F894A8
:10074000FD0184A595A54097ACF484A595A50196D7
:1007500095A784A786A597A5E80FF91F62AB019618
:10076000FD0197A786A722A533A58217930714F04A
:1007700017A616A6A85BBF4FED91FC918081806201
:1007800080837894089561EA71E07093BB0160936F
:10079000BA0140E250E05093BD014093BC01109279
:1007A000BF011092BE018091BE019091BF01909354
:1007B000C3018093C2019093C1018093C00120E1E5
:1007C00030E03093E5012093E4011092E7011092AC
:1007D000E6018091E6019091E7019093EB0180930F
:1007E000EA019093E9018093E80180E990E0909319
:1007F000FD018093FC0189E290E09093FF018093DA
:10080000FE018BE290E090930102809300028AE265
:1008100090E090930302809302028CE290E0909328
:1008200005028093040270930702609306025093BE
:1008300009024093080210920B0210920A02809162
:100840000A0290910B0290930F0280930E029093F4
:100850000D0280930C0230933102209330021092EB
:1008600033021092320280913202909133029093BF
:10087000370280933602909335028093340288E9E0
:1008800090E0909349028093480289E990E0909328
:100890004B0280934A028BE990E090934D02809343
:1008A0004C028AE990E090934F0280934E028CE9CB
:1008B00090E0909351028093500208950F9382E547
:1008C00092E06AE14BE12CE102E00E94030288E53C
:1008D00092E00E94AA008AE592E00E94CB008EE599
:1008E00092E00E94CB0082E692E00E94CB000F9142
:1008F0000895AF92BF92CF92DF92EF92FF920F9343
:100900001F93CF93DF9384E00E94020990936702C4
:100910008093660285E00E940209909369028093A9
:100920006802409166025091670220915701309110
:1009300058012417350774F4281739072CF410923E
:100940006B0210926A0222C082179307FCF48FEFA9
:100950009FEF18C042175307CCF4281739071CF42F
:1009600081E090E00FC08217930784F480916C02BD
:1009700090916D02181619061CF485E090E002C0F3
:100980008BEF9FEF90936B0280936A02C0916A0293
:10099000D0916B02A0906C02B0906D02CA15DB057D
:1009A00071F080916E0290916F02019690937102A6
:1009B0008093700210926F0210926E0204C0109227
:1009C00071021092700280917202909173028C9F5A
:1009D00060018D9FD00C9C9FD00C1124D092770287
:1009E000C09276026091740270917502882777FD3B
:1009F0008095982F0E949F0E7B018C01CA19DB09FC
:100A0000BE01882777FD8095982F0E949F0E9B013D
:100A1000AC01C801B7010E942B0F7B018C016091D2
:100A20006E0270916F022091700230917102620F1C
:100A3000731F882777FD8095982F0E949F0E9B013A
:100A4000AC01C801B7010E94040E0E946C0E9B010C
:100A500070937902609378022C0D3D1D30937B02D8
:100A600020937A028091830290918402C29709F0C8
:100A7000C8C1109284021092830282E30E948C0803
:100A8000882309F03FC280918102882309F03AC28D
:100A90008091590190915A018430910519F481E0B7
:100AA00090E001C0019690935A01809359011092F1
:100AB000800281E08093810264EF71E080E090E049
:100AC0000E94DE070AC080918202882309F020C2BA
:100AD00081E0809380028093820282E592E00E940E
:100AE000B1018091590190915A018230910509F428
:100AF0008CC08330910524F4019709F082C108C0AD
:100B00008330910509F4FEC0049709F07AC147C10A
:100B100082E592E060E071E00E94050D86E00E94AF
:100B20000209AA2797FDA095BA2FBC01CD010E940A
:100B30009F0E20E030E048EC52E40E942B0F20E0B2
:100B400030E040E85AE30E942B0F0E946C0E9B019C
:100B5000AC0170937F0260937E0280917402909149
:100B600075028217930741F080918002882321F05B
:100B70003093750220937402609174027091750233
:100B800082E592E04AE050E00E94F10D82E592E0B9
:100B900060E041E00E94A20182E592E067E071E03E
:100BA0000E94050D87E00E940209AA2797FDA095E3
:100BB000BA2FBC01CD010E949F0E20E030E048EC2E
:100BC00052E40E942B0F20E030E040E85AE30E94FC
:100BD0002B0F0E946C0E9B01AC0170937F026093FF
:100BE0007E0280917202909173028217930741F006
:100BF00080918002882321F0309373022093720247
:100C00006091720270917302F6C082E592E06EE02C
:100C100071E00E94050D86E00E940209AA2797FD57
:100C2000A095BA2FBC01CD010E949F0E20E030E0BC
:100C30004FE254E40E942B0F20E030E040E85AE3FA
:100C40000E942B0F0E946C0E9B01AC0170937F02DF
:100C500060937E028091570190915801821793070B
:100C600041F080918002882321F030935801209335
:100C70005701609157017091580182E592E04AE076
:100C800050E00E94F10D82E592E060E041E00E94B8
:100C9000A20182E592E067E171E00E94050D87E024
:100CA0000E940209AA2797FDA095BA2FBC01CD0189
:100CB0000E949F0E20E030E04FE254E40E942B0F90
:100CC00020E030E040E85AE30E942B0F0E946C0EB7
:100CD0009B01AC0170937F0260937E0280917C0245
:100CE00090917D028217930741F0809180028823C2
:100CF00021F030937D0220937C0260917C02709100
:100D00007D0279C082E592E06FE171E00E94050DFD
:100D100020916602309167028091570190915801AD
:100D2000821793072CF482E592E067E271E004C039
:100D300082E592E06CE271E00E94050D609166022E
:100D40007091670282E592E04AE050E00E94F10D66
:100D500082E592E060E041E00E94A20182E592E03B
:100D600062E371E00E94050D2091680230916902F2
:100D70008091570190915801821793072CF482E5D6
:100D800092E067E271E004C082E592E06CE271E01B
:100D90000E94050D60916802709169022CC082E585
:100DA00092E06AE371E00E94050D60917C0270910F
:100DB0007D0280917A0290917B02681B790B82E51B
:100DC00092E04AE050E00E94F10D82E592E060E09E
:100DD00041E00E94A20182E592E063E471E00E949A
:100DE000050D60917A0270917B0280917C02909156
:100DF0007D02680F791F82E592E04AE050E00E9490
:100E0000F10D80917A0290917B022DEF843492074C
:100E1000DCF488E592E060E070E04CEB52E00E9488
:100E20007F0040917C0250917D0288E592E061E074
:100E300070E00E947F0082E592E00E94B10182E5AD
:100E400092E06DE471E01EC040917C0250917D0201
:100E500022E08D3B9207CCF088E592E060E070E004
:100E60000E947F0088E592E061E070E04CEB52E088
:100E70000E947F0082E592E00E94B10182E592E04B
:100E800062E571E00E94050D18C0481B590B88E50A
:100E900092E060E070E00E947F0040917A02509101
:100EA0007B0280917C0290917D02480F591F88E55A
:100EB00092E061E070E00E947F0080916A02909170
:100EC0006B0290936D0280936C02809183029091EB
:100ED00084020196909384028093830280916E0233
:100EE00090916F02019690936F0280936E02DF9152
:100EF000CF911F910F91FF90EF90DF90CF90BF9017
:100F0000AF90089581E30E948C08882309F4DBCD1B
:100F10001092820210928102E0CD84E060E00E9493
:100F2000D50885E060E00E94D50808951F920F92D1
:100F30000FB60F9211242F933F938F939F93AF93EC
:100F4000BF938091890290918A02A0918B02B09107
:100F50008C0230918D020196A11DB11D232F2D5FB2
:100F60002D3720F02D570196A11DB11D20938D0224
:100F70008093890290938A02A0938B02B0938C0293
:100F80008091850290918602A0918702B09188029B
:100F90000196A11DB11D8093850290938602A093B6
:100FA0008702B0938802BF91AF919F918F913F913B
:100FB0002F910F900FBE0F901F901895AF92BF9278
:100FC000CF92DF92EF92FF920F931F935B016C0120
:100FD0009FB7F89420918502309186024091870254
:100FE0005091880282B7E82EFF2400E010E006B698
:100FF00000FE0AC08FEFE816F1040105110521F08B
:101000002F5F3F4F4F4F5F4F9FBFB42FA32F922FA4
:1010100088278E0D9F1DA01FB11F12E0880F991FFA
:10102000AA1FBB1F1A95D1F7BC0138C09FB7F8940F
:10103000209185023091860240918702509188026A
:1010400082B7E82EFF2400E010E006B600FE0AC0DA
:101050008FEFE816F1040105110521F02F5F3F4FD6
:101060004F4F5F4F9FBFB42FA32F922F88278E0D16
:101070009F1DA01FB11FE2E0880F991FAA1FBB1F71
:10108000EA95D1F7861B970B885E934078F2089417
:10109000A108B108C108D10868517C4FA114B1045E
:1010A000C104D10419F61F910F91FF90EF90DF90CA
:1010B000CF90BF90AF900895E82FE695E695E6951E
:1010C000A82FB0E0613099F42FB7F894F0E0EE0F5C
:1010D000FF1FE759FE4F0190F081E02D9081A7702E
:1010E000B070A555BE4F8C91982B908313C02FB72D
:1010F000F894F0E0EE0FFF1FE759FE4F0190F081EA
:10110000E02D9081A770B070A555BE4F8C91809551
:10111000892380832FBF0895A82FE82FE695E695B1
:10112000E695F0E0EE0FFF1FE958FE4F0190F081C9
:10113000E02DE081B0E0A770B070A555BE4F8C9156
:10114000E82309F0E1E08E2F0895E82FE695E69573
:10115000E695A82FB0E0613099F42FB7F894F0E04D
:10116000EE0FFF1FE55AFE4F0190F081E02D9081B8
:10117000A770B070A555BE4F8C91982B908313C06B
:101180002FB7F894F0E0EE0FFF1FE55AFE4F0190E5
:10119000F081E02D9081A770B070A555BE4F8C9165
:1011A0008095892380832FBF0895E82FF0E0613078
:1011B00051F4EE0FFF1FE759FE4F0190F081E02D33
:1011C0008FEF80830895EE0FFF1FE759FE4F0190C8
:1011D000F081E02D10820895E82FF0E0EE0FFF1F60
:1011E000E958FE4F0190F081E02D80810895E82FAD
:1011F000F0E0EE0FFF1FE55AFE4F0190F081E02D69
:1012000060830895982F80918501813051F4109268
:1012100061001092620080E487B987EE86B910926F
:10122000850180918601981721F4349A349BFECF72
:101230000DC09093860187B19770807E892B87B906
:10124000349A349BFECF349A349BFECF24B135B10F
:10125000C9010895853031F48FB580688FBD8FB591
:101260008F7B0FC0843031F48FB580628FBD8FB516
:101270008F7E07C0833039F48FB588608FBD8FB5FE
:101280008B7F8FBD0895823049F480918B008068F8
:1012900080938B0080918B008F7B0AC0813059F442
:1012A00080918B00806280938B0080918B008F7E79
:1012B00080938B000895882351F480918B0088607F
:1012C00080938B0080918B008B7F80938B0008959F
:1012D000893031F48FB582608FBD8FB58E7F0AC0A3
:1012E0008A3019F48FB5826002C08FB58D7F8FBDB3
:1012F0008FB581608FBD1BBC1ABC19BC18BC109285
:101300007900109278000895893049F480918B001B
:10131000826080938B0080918B008E7F0EC08A301C
:1013200021F480918B00826003C080918B008D7FBF
:1013300080938B0080918B00816080938B00109252
:1013400087001092860010928500109284001092FF
:101350008300109282000895FF920F931F93CF9302
:10136000DF93182FF62E072F8D31B0F08F3111F447
:1013700013E014C08E3111F414E010C08D3109F463
:10138000B1C0853211F410E044C0843211F411E090
:1013900040C0833219F4A4C08330D8F180918E020A
:1013A00086FD12C08EB5887F83608EBD1DBC1CBCBF
:1013B00087B7846087BF78948AE00E94680980912B
:1013C0008E02806480938E0280918E02C12FD0E0C5
:1013D00090E0012E02C0959587950A94E2F780FD72
:1013E00059C087B3FE01ED54FE4F9081892B87BB16
:1013F000812F0E942A0920918E0281E090E0012E27
:1014000002C0880F991F0A94E2F7282B20938E02BE
:1014100041C080918E0287FD18C080918A00887F2C
:10142000836080938A0010928900109288008091D6
:101430007D00846080937D0078948AE00E94840916
:1014400080918E02806880938E0280918E02C12FDF
:10145000D0E090E0012E02C0959587950A94E2F7BE
:1014600080FD22C082B1FE01ED54FE4F9081892B98
:1014700082B9812F0E942A0920918E0281E090E09A
:10148000012E02C0880F991F0A94E2F7282B20939F
:101490008E020AC0153019F40BBDFABC25C01430F9
:1014A00019F409BDF8BC20C0133029F40093790069
:1014B000F092780019C0123029F400938700F0925E
:1014C000860012C0113029F400938500F092840048
:1014D0000BC0112349F400938300F092820004C0F2
:1014E00012E097CF15E05ACFDF91CF911F910F9166
:1014F000FF9008951F920F920FB60F920BB60F92A6
:1015000011242F933F934F935F936F937F938F9308
:101510009F93AF93BF93EF93FF9380919502909128
:101520009602892B29F0E0919502F0919602099597
:10153000FF91EF91BF91AF919F918F917F916F91AB
:101540005F914F913F912F910F900BBE0F900FBE67
:101550000F901F9018951F920F920FB60F920BB617
:101560000F9211242F933F934F935F936F937F9329
:101570008F939F93AF93BF93EF93FF9380919F02BD
:101580009091A002892B29F0E0919F02F091A00296
:101590000995FF91EF91BF91AF919F918F917F91AD
:1015A0006F915F914F913F912F910F900BBE0F90D4
:1015B0000FBE0F901F9018951F920F920FB60F92AB
:1015C0000BB60F9211242F933F934F935F936F931A
:1015D0007F938F939F93AF93BF93EF93FF938091EC
:1015E000A5029091A602892B29F0E091A502F09125
:1015F000A6020995FF91EF91BF91AF919F918F91B5
:101600007F916F915F914F913F912F910F900BBE02
:101610000F900FBE0F901F9018951F920F920FB64C
:101620000F920BB60F9211242F933F934F935F931A
:101630006F937F938F939F93AF93BF93EF93FF939A
:101640008091910290919202892B29F0E091910270
:10165000F09192020995FF91EF91BF91AF919F9107
:101660008F917F916F915F914F913F912F910F904B
:101670000BBE0F900FBE0F901F9018951F920F92E8
:101680000FB60F920BB60F9211242F933F934F93E7
:101690005F936F937F938F939F93AF93BF93EF93DA
:1016A000FF938091970290919802892B29F0E09105
:1016B0009702F09198020995FF91EF91BF91AF9138
:1016C0009F918F917F916F915F914F913F912F915A
:1016D0000F900BBE0F900FBE0F901F9018951F928A
:1016E0000F920FB60F920BB60F9211242F933F93C8
:1016F0004F935F936F937F938F939F93AF93BF931A
:10170000EF93FF938091990290919A02892B29F08F
:10171000E0919902F0919A020995FF91EF91BF91A2
:10172000AF919F918F917F916F915F914F913F9179
:101730002F910F900BBE0F900FBE0F901F9018951A
:101740001F920F920FB60F920BB60F9211242F9388
:101750003F934F935F936F937F938F939F93AF9339
:10176000BF93EF93FF9380919B0290919C02892BF2
:1017700029F0E0919B02F0919C020995FF91EF9175
:10178000BF91AF919F918F917F916F915F914F9199
:101790003F912F910F900BBE0F900FBE0F901F9097
:1017A00018951F920F920FB60F920BB60F9211243D
:1017B0002F933F934F935F936F937F938F939F9359
:1017C000AF93BF93EF93FF9380919D0290919E0200
:1017D000892B29F0E0919D02F0919E020995FF91DD
:1017E000EF91BF91AF919F918F917F916F915F9199
:1017F0004F913F912F910F900BBE0F900FBE0F9006
:101800001F9018951F920F920FB60F920BB60F9262
:1018100011242F933F934F935F936F937F938F93F5
:101820009F93AF93BF93EF93FF938091A102909109
:10183000A202892B29F0E091A102F091A202099560
:10184000FF91EF91BF91AF919F918F917F916F9198
:101850005F914F913F912F910F900BBE0F900FBE54
:101860000F901F9018951F920F920FB60F920BB604
:101870000F9211242F933F934F935F936F937F9316
:101880008F939F93AF93BF93EF93FF938091A702A2
:101890009091A802892B29F0E091A702F091A8026B
:1018A0000995FF91EF91BF91AF919F918F917F919A
:1018B0006F915F914F913F912F910F900BBE0F90C1
:1018C0000FBE0F901F9018951F920F920FB60F9298
:1018D0000BB60F9211242F933F934F935F936F9307
:1018E0007F938F939F93AF93BF93EF93FF938091D9
:1018F000A9029091AA02892B29F0E091A902F09106
:10190000AA020995FF91EF91BF91AF919F918F919D
:101910007F916F915F914F913F912F910F900BBEEF
:101920000F900FBE0F901F9018951F920F920FB639
:101930000F920BB60F9211242F933F934F935F9307
:101940006F937F938F939F93AF93BF93EF93FF9387
:101950008091AB029091AC02892B29F0E091AB020F
:10196000F091AC020995FF91EF91BF91AF919F91DA
:101970008F917F916F915F914F913F912F910F9038
:101980000BBE0F900FBE0F901F9018951F920F92D5
:101990000FB60F920BB60F9211242F933F934F93D4
:1019A0005F936F937F938F939F93AF93BF93EF93C7
:1019B000FF938091AD029091AE02892B29F0E091C6
:1019C000AD02F091AE020995FF91EF91BF91AF91F9
:1019D0009F918F917F916F915F914F913F912F9147
:1019E0000F900BBE0F900FBE0F901F90189583E0C5
:1019F00061E00E94D50884E061E00E94D5087894F7
:101A00000E948D070E947904FDCF0F931F93CF93FF
:101A1000DF938C01EB0109C02196D801ED91FC9177
:101A20000190F081E02DC801099568816623A1F736
:101A3000DF91CF911F910F9108952F923F924F9276
:101A40005F926F927F928F929F92AF92BF92CF924E
:101A5000DF92EF92FF920F931F93DF93CF93CDB757
:101A6000DEB7A0970FB6F894DEBF0FBECDBF1C0146
:101A70006A017B01411551056105710549F4DC01DD
:101A8000ED91FC910190F081E02D60E3099554C047
:101A9000882499245401422E55246624772401E099
:101AA00010E00C0F1D1F080D191DC701B601A30181
:101AB00092010E948E0FF80160830894811C911C92
:101AC000A11CB11CC701B601A30192010E948E0F97
:101AD000C901DA016C017D01C114D104E104F104F2
:101AE000F1F681E0E82EF12CEC0EFD1EE80CF91C5D
:101AF0003E010894611C711CD501C4010197A10924
:101B0000B1096C01C818D90814C0F601EE0DFF1D0B
:101B100060816A3010F4605D01C0695CD101ED91B3
:101B2000FC910190F081E02DC10109950894E10834
:101B3000F1086E147F0449F7A0960FB6F894DEBF43
:101B40000FBECDBFCF91DF911F910F91FF90EF900E
:101B5000DF90CF90BF90AF909F908F907F906F90CD
:101B60005F904F903F902F900895EF92FF920F93C8
:101B70001F93CF93DF93EC017A018B0177FF0FC0A6
:101B8000E881F9810190F081E02D6DE209951095D1
:101B90000095F094E094E11CF11C011D111DCE0193
:101BA000B801A7012AE00E941D0DDF91CF911F917E
:101BB0000F91FF90EF900895DC012115310541F45C
:101BC000ED91FC910190F081E02D642F099508952D
:101BD0002A30310519F40E94B50D08950E941D0D9B
:101BE0000895EF92FF920F931F937B019A010027B4
:101BF000F7FC0095102FB801A7010E94DC0D1F9182
:101C00000F91FF90EF9008950CD0EBC0E3D040F01F
:101C1000DAD030F021F45F3F19F0CCC0511115C17A
:101C2000CFC0F0D098F39923C9F35523B1F3951B96
:101C3000550BBB27AA2762177307840738F09F5FED
:101C40005F4F220F331F441FAA1FA9F333D00E2E5C
:101C50003AF0E0E830D091505040E695001CCAF7C9
:101C600029D0FE2F27D0660F771F881FBB1F26178E
:101C700037074807AB07B0E809F0BB0B802DBF0161
:101C8000FF2793585F4F2AF09E3F510568F092C09E
:101C9000DCC05F3FECF3983EDCF386957795679563
:101CA000B795F7959F5FC9F7880F911D9695879512
:101CB00097F90895E1E0660F771F881FBB1F621731
:101CC00073078407BA0720F0621B730B840BBA0BEF
:101CD000EE1F88F7E095089504D06894B111B5C05F
:101CE000089598D088F09F5790F0B92F9927B75151
:101CF000A0F0D1F0660F771F881F991F1AF0BA95D0
:101D0000C9F712C0B13081F09FD0B1E008959CC0F6
:101D1000672F782F8827B85F39F0B93FCCF38695C5
:101D200077956795B395D9F73EF490958095709522
:101D300061957F4F8F4F9F4F0895E89409C097FB9F
:101D40003EF490958095709561957F4F8F4F9F4F92
:101D50009923A9F0F92F96E9BB279395F6958795D6
:101D600077956795B795F111F8CFFAF4BB0F11F499
:101D700060FF1BC06F5F7F4F8F4F9F4F16C0882340
:101D800011F096E911C0772321F09EE8872F762F76
:101D900005C0662371F096E8862F70E060E02AF0B7
:101DA0009A95660F771F881FDAF7880F96958795A3
:101DB00097F9089597F99F6780E870E060E00895CB
:101DC0009FEF80EC089500240A9416161706180653
:101DD0000906089500240A9412161306140605062F
:101DE0000895092E0394000C11F4882352F0BB0FC0
:101DF00040F4BF2B11F460FF04C06F5F7F4F8F4F23
:101E00009F4F089557FD9058440F551F59F05F3F5D
:101E100071F04795880F97FB991F61F09F3F79F00C
:101E200087950895121613061406551FF2CF46958E
:101E3000F1DF08C0161617061806991FF1CF869510
:101E40007105610508940895E894BB2766277727F4
:101E5000CB0197F908950BD0C4CFB5DF28F0BADFD6
:101E600018F0952309F0A6CFABCF1124EECFCADF2F
:101E7000A0F3959FD1F3950F50E0551F629FF0019D
:101E8000729FBB27F00DB11D639FAA27F00DB11DF6
:101E9000AA1F649F6627B00DA11D661F829F22277F
:101EA000B00DA11D621F739FB00DA11D621F839F06
:101EB000A00D611D221F749F3327A00D611D231FDC
:101EC000849F600D211D822F762F6A2F11249F572A
:101ED00050408AF0E1F088234AF0EE0FFF1FBB1F4D
:101EE000661F771F881F91505040A9F79E3F5105EC
:101EF00070F060CFAACF5F3FECF3983EDCF386959D
:101F000077956795B795F795E7959F5FC1F7FE2B96
:101F1000880F911D9695879597F90895A1E21A2E3D
:101F2000AA1BBB1BFD010DC0AA1FBB1FEE1FFF1F7D
:101F3000A217B307E407F50720F0A21BB30BE40BCD
:101F4000F50B661F771F881F991F1A9469F7609514
:101F50007095809590959B01AC01BD01CF010895CE
:101F6000EE0FFF1F0590F491E02D0994F894FFCF38
:101F7000446572763A200050726F703A20005468BF
:101F8000726573683A200053706565643A20004CAE
:101F9000205152443A2000204F4E2000204F464608
:101FA000200052205152443A20004D204C65667466
:101FB0003A20004D2052696768743A20004C494D20
:101FC0002D004C494D2B002C010100320035003B07
:101FD000003800230062006500310034003A003709
:101FE0000022006100640030003300390036002117
:101FF000002000630001FF180019002600270005DB
:1020000000040001000000000000005B010000006F
:102010000099035003780355038F0301020408104D
:0A20200020408020100880402000BE
:00000001FF
