:100000000C9448000C947D000C947D000C947D00B1
:100010000C947D000C947D000C947D000C947D006C
:100020000C947D000C94E80B0C94910A0C94B70B83
:100030000C94240B0C94550B0C94600A0C94F30A4A
:100040000C9463070C947D000C94E2020C9428033A
:100050000C947D000C947D000C947D000C947D002C
:100060000C94860B0C94AC0C0C94190C0C944A0C4C
:100070000C947B0C0C94C20A0C9481030C94C7035F
:100080000C947D000C947D000C947D0093042E054F
:1000900011241FBECFEFD0E1DEBFCDBF88E483BF08
:1000A00083B7887F846083BF12BE87B7816087BFB4
:1000B000789411E0A0E0B1E0E6E0F0E200E00BBFF0
:1000C00002C007900D92A639B107D9F712E0A6E950
:1000D000B1E001C01D92A938B107E1F710E0C0E915
:1000E000D0E004C02297FE010E94FD0FCC38D1075A
:1000F000C9F70E94DD0C0C9401100C9400001F93B2
:10010000CF93DF93C0E0D0E0FE01EC59FE4F1081A9
:10011000812F61E00E942908812F61E00E9472080E
:10012000FE01E459FE4F808160E070E00E94920978
:100130002296C830D10541F7DF91CF911F910895E4
:10014000FC0110828AE090E0938382830895CF932C
:10015000DF93EC01882777FD8095982F0E94EA0EA7
:1001600020E030E044E353E40E944F0E20E030E012
:1001700040EF51E40E94760F20E030E040E251E48D
:100180000E94EB0D0E94BC0ECB016A30710510F489
:100190008AE090E08932910510F088E290E09B833C
:1001A0008A83DF91CF910895E0912F01E7FD15C07B
:1001B000FF27E7FDF095EE0FFF1FEA56FE4F019077
:1001C000F081E02D818160E00E94720806C02F5FFF
:1001D00081919191892B69F00EC020912F012F5FA1
:1001E000E22FFF27E7FDF0952150EE0FFF1FEA56A3
:1001F000FE4F273064F320932F01E0912F01FF275A
:10020000E7FDF095EE0FFF1FEA56FE4F0190F081DB
:10021000E02D309761F48FEF80932F0124EF31E0D0
:100220008091A7019091A801281B390B12C08181F0
:1002300061E00E947208E0912F01FF27E7FDF09531
:10024000EE0FFF1FEA56FE4F0190F081E02D228154
:10025000338183B5820F83BD8091A7019091A8015E
:10026000820F931F9093A8018093A701845F914010
:1002700020F01092A8011092A70108950E9435095C
:1002800087B78F7787BF85E00E943E0989E064EDDC
:1002900070E00E94430983B58C5083BD87B78068A6
:1002A00087BF1092A8011092A7018FEF80932F01B2
:1002B0000895CF93DF93EC018091A601893010F06F
:1002C00080E03DC06983862F61E00E942908E881B3
:1002D000F0E0EE0FFF1FEA56FE4F80819181C817B4
:1002E000D90761F14091A601442341F4E6E9F1E028
:1002F0001192119281E0E63AF807D1F7E6E9F1E0D0
:1003000020E030E080819181892B61F4F901EE0FCA
:10031000FF1FEA56FE4FD183C08328834F5F40936F
:10032000A60106C02F5F3F4F32962830310551F7A6
:100330008091A601813011F40E943E0181E0DF919D
:10034000CF910895CF93DF93EC018A8160E00E9402
:1003500072088D8160E00E94A2088D8160E00E9499
:10036000C4088B8161E00E9472088C8161E00E9468
:1003700072080000000010C08C8160E00E947208CA
:1003800000000000000000008C8161E00E94720803
:1003900000000000000000008D810E94B90887FD68
:1003A000EBCF8C8160E00E947208DF91CF910895BD
:1003B000FF920F931F938C01F62E0E94A201F80169
:1003C000828161E00E947208F801838160E00E94EE
:1003D0007208F801848161E00E947208F801858149
:1003E00061E00E94A208F80185816F2D0E94C40877
:1003F0000000000000000000F801848160E00E941D
:100400007208F801858160E00E94A208F8018581E8
:100410006FEF0E94C4081F910F91FF900895EF9213
:10042000FF920F931F93CF93DF937C01042F6115ED
:10043000710551F0EB0110E005C0C70169910E9400
:10044000D8011F5F1017C8F3DF91CF911F910F9153
:10045000FF90EF900895DF93CF930F92CDB7DEB763
:100460006983BE016F5F7F4F41E00E940F020F90D2
:10047000CF91DF910895FF920F931F938C01F62E79
:100480000E94A201F801828160E00E947208F801D6
:10049000838160E00E947208F801848161E00E941B
:1004A0007208F801858161E00E94A208F801858147
:1004B0006F2D0E94C4080000000000000000F80139
:1004C000848160E00E947208F801858160E00E94EA
:1004D000A208F80185816FEF0E94C4081F910F9157
:1004E000FF900895423031F0433031F0413029F42B
:1004F000605C03C06C5E01C06C5A60680E943B0285
:10050000089561E00E943B0208950F931F938C01B0
:10051000FC01828160E00E947208F801838160E042
:100520000E947208F801848160E00E947208F8015C
:10053000828161E00E942908F801838161E00E94C4
:100540002908F801848161E00E942908F801858169
:1005500060E00E94A208F80185816FEF0E94C40844
:100560001F910F9108950F931F938C010E94850294
:10057000C80168E30E943B02C80161E00E943B029F
:10058000C80166E00E943B02C8016CE00E943B0289
:10059000C80162E00E943B02C80160E80E943B0281
:1005A0001F910F9108950F93FC0188E791E09183CB
:1005B00080836283438324830583CF010E94B30237
:1005C0000F9108951F920F920FB60F920BB60F92D4
:1005D00011242F933F938F939F93EF93FF93E09179
:1005E000F301F091F40120818091AD019091AE0171
:1005F00080970CF58091AD019091AE01019690939A
:10060000AE018093AD018091AF019091B001FC01EA
:10061000E755FE4F228701969093B0018093AF017A
:100620002091AB013091AC018217930724F0109216
:10063000B0011092AF01FF91EF919F918F913F9187
:100640002F910F900BBE0F900FBE0F901F9018951B
:100650001F920F920FB60F920BB60F9211242F9389
:100660003F934F938F939F93AF93BF93EF93FF93DA
:100670008091D5019091D6011816190634F5A091F4
:10068000F301B091F4018091D5019091D6010197C9
:100690009093D6018093D5018091D9019091DA0190
:1006A000FC01E755FE4F42A901969093DA01809331
:1006B000D9012091D3013091D4018217930724F0FE
:1006C0001092DA011092D9014C938091D50190914A
:1006D000D601892B31F4E091F101F091F20188E922
:1006E0008083FF91EF91BF91AF919F918F914F9137
:1006F0003F912F910F900BBE0F900FBE0F901F9048
:1007000018951F920F920FB60F920BB60F921124ED
:100710002F933F938F939F93EF93FF93E0913F022B
:10072000F091400220818091F9019091FA01809727
:100730000CF58091F9019091FA0101969093FA01DC
:100740008093F9018091FB019091FC01FC01EB5039
:10075000FE4F228701969093FC018093FB0120912C
:10076000F7013091F8018217930724F01092FC01F1
:100770001092FB01FF91EF919F918F913F912F91EB
:100780000F900BBE0F900FBE0F901F9018951F92E9
:100790000F920FB60F920BB60F9211242F933F9327
:1007A0004F938F939F93AF93BF93EF93FF9380915A
:1007B0002102909122021816190634F5A0913F02E9
:1007C000B091400280912102909122020197909372
:1007D0002202809321028091250290912602FC0141
:1007E000EB50FE4F42A9019690932602809325027A
:1007F00020911F02309120028217930724F010925B
:100800002602109225024C9380912102909122029F
:10081000892B31F4E0913D02F0913E0288E980831A
:10082000FF91EF91BF91AF919F918F914F913F9128
:100830002F910F900BBE0F900FBE0F901F90189529
:10084000FC0124813581C9010895DC01FC0184810A
:100850009581892B19F42FEF3FEF18C0FD0184819A
:10086000958101979583848380859185E80FF91F91
:1008700042850196FD01918780872281338182170D
:10088000930714F011861086242F30E0C9010895D3
:10089000CF93DF93DC01EC018C819D81892B19F4CE
:1008A0002FEF3FEF08C0ED01E885F985EA0FFB1F48
:1008B0008285282F30E0C901DF91CF910895FC0196
:1008C000158214828481958191878087978386839E
:1008D0000895DC01FD0184A595A54097DCF7F89407
:1008E000FD0184A595A54097ACF484A595A5019636
:1008F00095A784A786A597A5E80FF91F62AB019677
:10090000FD0197A786A722A533A58217930714F0A8
:1009100017A616A6A85BBF4FED91FC91808180625F
:100920008083789408956EE771E07093AA016093D4
:10093000A90140E250E05093AC014093AB0110920A
:10094000AE011092AD018091AD019091AE019093F6
:10095000B2018093B1019093B0018093AF0120E187
:1009600030E03093D4012093D3011092D60110923D
:10097000D5018091D5019091D6019093DA018093B1
:10098000D9019093D8018093D70180E990E09093AA
:10099000EC018093EB0189E290E09093EE0180936B
:1009A000ED018BE290E09093F0018093EF018AE2F9
:1009B00090E09093F2018093F1018CE290E09093AB
:1009C000F4018093F3017093F6016093F501509365
:1009D000F8014093F7011092FA011092F901809109
:1009E000F9019091FA019093FE018093FD0190939B
:1009F000FC018093FB013093200220931F02109290
:100A00002202109221028091210290912202909361
:100A1000260280932502909324028093230288E982
:100A200090E0909338028093370289E990E09093A8
:100A30003A02809339028BE990E090933C028093D4
:100A40003B028AE990E090933E0280933D028CE95C
:100A500090E09093400280933F0208950F9381E4C9
:100A600092E06AE14BE12CE102E00E94D30287E4CC
:100A700092E00E947F0089E492E00E94A0008DE451
:100A800092E00E94A00081E592E00E94A0000F91F8
:100A9000089568EC70E080E090E00E94AB0768EC9D
:100AA00070E080E090E00E94AB0708956091300113
:100AB000709131018DE492E00E94A70010925902DA
:100AC0008091570290915802C29709F095C11092F7
:100AD00058021092570282E30E945908882309F0B5
:100AE000CCC180915D02882309F0C7C18091340197
:100AF000909135018330910519F481E090E001C0B7
:100B00000196909335018093340110925C0281E04C
:100B100080935D0264EF71E080E090E00E94AB079B
:100B20000AC080915E02882309F0ADC181E0809304
:100B30005C0280935E0281E492E00E9481028091D7
:100B40003401909135018230910509F482C08330DF
:100B5000910509F4FBC0019709F04EC181E492E0D0
:100B600060E071E00E94EB0C86E00E94CF08AA27AB
:100B700097FDA095BA2FBC01CD010E94EA0E20E09E
:100B800030E044E353E40E94760F20E030E040E898
:100B90005AE30E94760F0E94B70E9B01AC0170933E
:100BA0005B0260935A02809130019091310182176B
:100BB000930741F080915C02882321F0309331014A
:100BC00020933001609130017091310181E492E015
:100BD0004AE050E00E94D70D81E492E060E041E0FD
:100BE0000E94720281E492E067E071E00E94EB0CE7
:100BF00087E00E94CF08AA2797FDA095BA2FBC01D5
:100C0000CD010E94EA0E9B01AC010E94EB0D20E099
:100C100030E040E85AE30E94760F0E94B70E9B0135
:100C2000AC0170935B0260935A02809136019091FF
:100C300037018217930741F080915C02882321F0ED
:100C4000309337012093360160913601709137015E
:100C5000CDC081E492E067E171E00E94EB0C86E098
:100C60000E94CF08AA2797FDA095BA2FBC01CD01FD
:100C70000E94EA0E20E030E044E353E40E94760F45
:100C800020E030E040E85AE30E94760F0E94B70E61
:100C90009B01AC0170935B0260935A0280915502F4
:100CA000909156028217930741F080915C0288234D
:100CB00021F03093560220935502609155027091B5
:100CC000560281E492E04AE050E00E94D70D81E4B0
:100CD00092E060E041E00E94720281E492E06DE106
:100CE00071E00E94EB0C87E00E94CF08AA2797FDD5
:100CF000A095BA2FBC01CD010E94EA0E20E030E0A1
:100D000044E353E40E94760F20E030E040E85AE3E9
:100D10000E94760F0E94B70E9B01AC0170935B029C
:100D200060935A02809132019091330182179307A8
:100D300041F080915C02882321F0309333012093AD
:100D40003201609132017091330150C081E492E030
:100D500063E271E00E94EB0C86E00E94CF08AA27B4
:100D600097FDA095BA2FBC01CD010E94EA0E20E0AC
:100D700030E044E353E40E94760F20E030E040E8A6
:100D80005AE30E94760F0E94B70E882777FD809560
:100D9000982F0E94EA0E20E030E040EC5FE30E94D2
:100DA000760F0E94B70E9B01AC0130935B0220933B
:100DB0005A0280913001909131016817790791F0C2
:100DC00080915C02882371F0643B71053CF084EBF8
:100DD00090E0909331018093300104C03093310151
:100DE00020933001609130017091310181E492E0F3
:100DF0004AE050E00E94D70D809136019091370172
:100E0000019789F580E00E945908811181E0809363
:100E10005902882341F160915502709156028DE488
:100E200092E00E94A70068EC70E080E090E00E94F1
:100E3000AB07609132017091330189E492E00E9426
:100E4000A70068EC70E080E090E00E94AB070E9491
:100E5000490560913001709131018DE492E00E946A
:100E6000A700109259028091570290915802019662
:100E70009093580280935702089581E30E94590885
:100E8000882309F44ECE10925E0210925D0253CE7A
:100E900080E061E00E94A20881E060E00E94A20878
:100EA00089E492E063E270E00E9459018DE492E0EF
:100EB0006FE170E00E94590181E592E062E270E02A
:100EC0000E94590108951F920F920FB60F9211249C
:100ED0002F933F938F939F93AF93BF938091630220
:100EE00090916402A0916502B09166023091670210
:100EF0000196A11DB11D232F2D5F2D3720F02D57F9
:100F00000196A11DB11D2093670280936302909307
:100F10006402A0936502B093660280915F02909193
:100F20006002A0916102B09162020196A11DB11D03
:100F300080935F0290936002A0936102B09362027B
:100F4000BF91AF919F918F913F912F910F900FBEC5
:100F50000F901F901895AF92BF92CF92DF92EF92B1
:100F6000FF920F931F935B016C019FB7F894209140
:100F70005F0230916002409161025091620282B73B
:100F8000E82EFF2400E010E006B600FE0AC08FEF56
:100F9000E816F1040105110521F02F5F3F4F4F4F77
:100FA0005F4F9FBFB42FA32F922F88278E0D9F1DB9
:100FB000A01FB11F12E0880F991FAA1FBB1F1A950F
:100FC000D1F7BC0138C09FB7F89420915F023091EF
:100FD0006002409161025091620282B7E82EFF24C4
:100FE00000E010E006B600FE0AC08FEFE816F1043C
:100FF0000105110521F02F5F3F4F4F4F5F4F9FBFFE
:10100000B42FA32F922F88278E0D9F1DA01FB11FD5
:10101000E2E0880F991FAA1FBB1FEA95D1F7861B34
:10102000970B885E934078F20894A108B108C10834
:10103000D10868517C4FA114B104C104D10419F640
:101040001F910F91FF90EF90DF90CF90BF90AF90E6
:101050000895E82FE695E695E695A82FB0E0613073
:1010600099F42FB7F894F0E0EE0FFF1FEA5BFE4F04
:101070000190F081E02D9081A770B070A857BE4F0D
:101080008C91982B908313C02FB7F894F0E0EE0F5B
:10109000FF1FEA5BFE4F0190F081E02D9081A77069
:1010A000B070A857BE4F8C918095892380832FBF45
:1010B0000895A82FE82FE695E695E695F0E0EE0F67
:1010C000FF1FEC5AFE4F0190F081E02DE081B0E06F
:1010D000A770B070A857BE4F8C91E82309F0E1E0EB
:1010E0008E2F0895E82FE695E695E695A82FB0E0B7
:1010F000613099F42FB7F894F0E0EE0FFF1FE85C31
:10110000FE4F0190F081E02D9081A770B070A8573C
:10111000BE4F8C91982B908313C02FB7F894F0E0BA
:10112000EE0FFF1FE85CFE4F0190F081E02D9081F3
:10113000A770B070A857BE4F8C918095892380838B
:101140002FBF0895E82FF0E0613051F4EE0FFF1F3C
:10115000EA5BFE4F0190F081E02D8FEF80830895D0
:10116000EE0FFF1FEA5BFE4F0190F081E02D108231
:101170000895E82FF0E0EE0FFF1FEC5AFE4F0190AC
:10118000F081E02D80810895E82FF0E0EE0FFF1F41
:10119000E85CFE4F0190F081E02D60830895982F68
:1011A00080916201813051F41092610010926200CE
:1011B00080E487B987EE86B910926201809163015D
:1011C000981721F4349A349BFECF0DC0909363019D
:1011D00087B19770807E892B87B9349A349BFECF74
:1011E000349A349BFECF24B135B1C90108958530BE
:1011F00031F48FB580688FBD8FB58F7B0FC0843081
:1012000031F48FB580628FBD8FB58F7E07C083307C
:1012100039F48FB588608FBD8FB58B7F8FBD0895F2
:10122000823049F480918B00806880938B0080919C
:101230008B008F7B0AC0813059F480918B008062D3
:1012400080938B0080918B008F7E80938B0008951C
:10125000882351F480918B00886080938B0080916B
:101260008B008B7F80938B00089585B5887F82608B
:1012700085BD14BC87B7806487BF089595B5987FF6
:10128000982B95BD0895803140F4E82FF0E0EE0FE3
:10129000FF1FE759FD4F718360830895893031F452
:1012A0008FB582608FBD8FB58E7F0AC08A3019F4EA
:1012B0008FB5826002C08FB58D7F8FBD8FB5816085
:1012C0008FBD1BBC1ABC19BC18BC109279001092BF
:1012D00078000895893049F480918B008260809372
:1012E0008B0080918B008E7F0EC08A3021F480911C
:1012F0008B00826003C080918B008D7F80938B0078
:1013000080918B00816080938B00109287001092F7
:101310008600109285001092840010928300109233
:1013200082000895FF920F931F93CF93DF93182F9E
:10133000F62E072F8D31B0F08F3111F413E014C069
:101340008E3111F414E010C08D3109F4B1C0853232
:1013500011F410E044C0843211F411E040C0833233
:1013600019F4A4C08330D8F18091680286FD12C0C0
:101370008EB5887F83608EBD1DBC1CBC87B7846022
:1013800087BF78948AE00E944E0980916802806449
:101390008093680280916802C12FD0E090E0012E16
:1013A00002C0959587950A94E2F780FD59C087B3EE
:1013B000FE01E057FE4F9081892B87BB812F0E9451
:1013C000F7082091680281E090E0012E02C0880FAA
:1013D000991F0A94E2F7282B2093680241C080915C
:1013E000680287FD18C080918A00887F836080939F
:1013F0008A00109289001092880080917D0084609C
:1014000080937D0078948AE00E946A098091680246
:1014100080688093680280916802C12FD0E090E0DC
:10142000012E02C0959587950A94E2F780FD22C0AF
:1014300082B1FE01E057FE4F9081892B82B9812F46
:101440000E94F7082091680281E090E0012E02C01E
:10145000880F991F0A94E2F7282B209368020AC08C
:10146000153019F40BBDFABC25C0143019F409BDB0
:10147000F8BC20C0133029F400937900F092780072
:1014800019C0123029F400938700F092860012C030
:10149000113029F400938500F09284000BC01123D1
:1014A00049F400938300F092820004C012E097CFC9
:1014B00015E05ACFDF91CF911F910F91FF900895C2
:1014C0001F920F920FB60F920BB60F9211242F930B
:1014D0003F934F935F936F937F938F939F93AF93BC
:1014E000BF93EF93FF9380916F0290917002892BCD
:1014F00029F0E0916F02F09170020995FF91EF9150
:10150000BF91AF919F918F917F916F915F914F911B
:101510003F912F910F900BBE0F900FBE0F901F9019
:1015200018951F920F920FB60F920BB60F921124BF
:101530002F933F934F935F936F937F938F939F93DB
:10154000AF93BF93EF93FF938091790290917A02CA
:10155000892B29F0E0917902F0917A020995FF91A7
:10156000EF91BF91AF919F918F917F916F915F911B
:101570004F913F912F910F900BBE0F900FBE0F9088
:101580001F9018951F920F920FB60F920BB60F92E5
:1015900011242F933F934F935F936F937F938F9378
:1015A0009F93AF93BF93EF93FF9380917F029091AE
:1015B0008002892B29F0E0917F02F0918002099549
:1015C000FF91EF91BF91AF919F918F917F916F911B
:1015D0005F914F913F912F910F900BBE0F900FBED7
:1015E0000F901F9018951F920F920FB60F920BB687
:1015F0000F9211242F933F934F935F936F937F9399
:101600008F939F93AF93BF93EF93FF9380916B0260
:1016100090916C02892B29F0E0916B02F0916C02A1
:101620000995FF91EF91BF91AF919F918F917F911C
:101630006F915F914F913F912F910F900BBE0F9043
:101640000FBE0F901F9018951F920F920FB60F921A
:101650000BB60F9211242F933F934F935F936F9389
:101660007F938F939F93AF93BF93EF93FF9380915B
:10167000710290917202892B29F0E0917102F09130
:1016800072020995FF91EF91BF91AF919F918F9158
:101690007F916F915F914F913F912F910F900BBE72
:1016A0000F900FBE0F901F9018951F920F920FB6BC
:1016B0000F920BB60F9211242F933F934F935F938A
:1016C0006F937F938F939F93AF93BF93EF93FF930A
:1016D0008091730290917402892B29F0E09173023A
:1016E000F09174020995FF91EF91BF91AF919F9195
:1016F0008F917F916F915F914F913F912F910F90BB
:101700000BBE0F900FBE0F901F9018951F920F9257
:101710000FB60F920BB60F9211242F933F934F9356
:101720005F936F937F938F939F93AF93BF93EF9349
:10173000FF938091750290917602892B29F0E091B8
:101740007502F09176020995FF91EF91BF91AF91EB
:101750009F918F917F916F915F914F913F912F91C9
:101760000F900BBE0F900FBE0F901F9018951F92F9
:101770000F920FB60F920BB60F9211242F933F9337
:101780004F935F936F937F938F939F93AF93BF9389
:10179000EF93FF938091770290917802892B29F043
:1017A000E0917702F09178020995FF91EF91BF9156
:1017B000AF919F918F917F916F915F914F913F91E9
:1017C0002F910F900BBE0F900FBE0F901F9018958A
:1017D0001F920F920FB60F920BB60F9211242F93F8
:1017E0003F934F935F936F937F938F939F93AF93A9
:1017F000BF93EF93FF9380917B0290917C02892BA2
:1018000029F0E0917B02F0917C020995FF91EF9124
:10181000BF91AF919F918F917F916F915F914F9108
:101820003F912F910F900BBE0F900FBE0F901F9006
:1018300018951F920F920FB60F920BB60F921124AC
:101840002F933F934F935F936F937F938F939F93C8
:10185000AF93BF93EF93FF938091810290918202A7
:10186000892B29F0E0918102F09182020995FF9184
:10187000EF91BF91AF919F918F917F916F915F9108
:101880004F913F912F910F900BBE0F900FBE0F9075
:101890001F9018951F920F920FB60F920BB60F92D2
:1018A00011242F933F934F935F936F937F938F9365
:1018B0009F93AF93BF93EF93FF9380918302909197
:1018C0008402892B29F0E0918302F091840209952A
:1018D000FF91EF91BF91AF919F918F917F916F9108
:1018E0005F914F913F912F910F900BBE0F900FBEC4
:1018F0000F901F9018951F920F920FB60F920BB674
:101900000F9211242F933F934F935F936F937F9385
:101910008F939F93AF93BF93EF93FF938091850233
:1019200090918602892B29F0E0918502F091860240
:101930000995FF91EF91BF91AF919F918F917F9109
:101940006F915F914F913F912F910F900BBE0F9030
:101950000FBE0F901F9018951F920F920FB60F9207
:101960000BB60F9211242F933F934F935F936F9376
:101970007F938F939F93AF93BF93EF93FF93809148
:10198000870290918802892B29F0E0918702F091DB
:1019900088020995FF91EF91BF91AF919F918F912F
:1019A0007F916F915F914F913F912F910F900BBE5F
:1019B0000F900FBE0F901F90189583E061E00E947A
:1019C000A20884E061E00E94A20878940E9448077F
:1019D0000E945605FDCF0F931F93CF93DF938C0189
:1019E000EB0109C02196D801ED91FC910190F081A5
:1019F000E02DC801099568816623A1F7DF91CF9199
:101A00001F910F9108952F923F924F925F926F9284
:101A10007F928F929F92AF92BF92CF92DF92EF927E
:101A2000FF920F931F93DF93CF93CDB7DEB7A097AD
:101A30000FB6F894DEBF0FBECDBF1C016A017B015B
:101A4000411551056105710549F4DC01ED91FC91E9
:101A50000190F081E02D60E3099554C08824992419
:101A60005401422E55246624772401E010E00C0F27
:101A70001D1F080D191DC701B601A30192010E9487
:101A8000D90FF80160830894811C911CA11CB11C22
:101A9000C701B601A30192010E94D90FC901DA0161
:101AA0006C017D01C114D104E104F104F1F681E07F
:101AB000E82EF12CEC0EFD1EE80CF91C3E010894FA
:101AC000611C711CD501C4010197A109B1096C0108
:101AD000C818D90814C0F601EE0DFF1D60816A30E8
:101AE00010F4605D01C0695CD101ED91FC91019041
:101AF000F081E02DC10109950894E108F1086E1408
:101B00007F0449F7A0960FB6F894DEBF0FBECDBF95
:101B1000CF91DF911F910F91FF90EF90DF90CF90C9
:101B2000BF90AF909F908F907F906F905F904F90FD
:101B30003F902F900895EF92FF920F931F93CF93B2
:101B4000DF93EC017A018B0177FF0FC0E881F98107
:101B50000190F081E02D6DE2099510950095F094CB
:101B6000E094E11CF11C011D111DCE01B801A7017B
:101B70002AE00E94030DDF91CF911F910F91FF90FA
:101B8000EF900895DC012115310541F4ED91FC91B0
:101B90000190F081E02D642F099508952A303105D8
:101BA00019F40E949B0D08950E94030D0895EF9271
:101BB000FF920F931F937B019A010027F7FC00957A
:101BC000102FB801A7010E94C20D1F910F91FF9025
:101BD000EF9008955058BB27AA270ED04DC13ED193
:101BE00030F043D120F031F49F3F11F41EF433C1A3
:101BF0000EF4E095E7FB29C1E92F4FD180F3BA1726
:101C0000620773078407950718F071F49EF567C1A2
:101C10000EF4E0950B2EBA2FA02D0B01B901900107
:101C20000C01CA01A0011124FF27591B99F0593F4B
:101C300050F4503E68F11A16F040A22F232F342F93
:101C40004427585FF3CF469537952795A795F040E1
:101C50005395C9F77EF41F16BA0B620B730B840BF6
:101C6000BAF09150A1F0FF0FBB1F661F771F881FAE
:101C7000C2F70EC0BA0F621F731F841F48F4879506
:101C800077956795B795F7959E3F08F0B3CF9395F5
:101C9000880F08F09927EE0F9795879508950CD037
:101CA000EBC0E3D040F0DAD030F021F45F3F19F020
:101CB000CCC0511115C1CFC0F0D098F39923C9F30E
:101CC0005523B1F3951B550BBB27AA276217730742
:101CD000840738F09F5F5F4F220F331F441FAA1FF6
:101CE000A9F333D00E2E3AF0E0E830D091505040B6
:101CF000E695001CCAF729D0FE2F27D0660F771F64
:101D0000881FBB1F261737074807AB07B0E809F045
:101D1000BB0B802DBF01FF2793585F4F2AF09E3FDA
:101D2000510568F092C0DCC05F3FECF3983EDCF3F5
:101D3000869577956795B795F7959F5FC9F7880F53
:101D4000911D9695879597F90895E1E0660F771FA5
:101D5000881FBB1F621773078407BA0720F0621B36
:101D6000730B840BBA0BEE1F88F7E095089504D02F
:101D70006894B111B5C0089598D088F09F5790F03D
:101D8000B92F9927B751A0F0D1F0660F771F881FA0
:101D9000991F1AF0BA95C9F712C0B13081F09FD0DF
:101DA000B1E008959CC0672F782F8827B85F39F07D
:101DB000B93FCCF3869577956795B395D9F73EF4FF
:101DC00090958095709561957F4F8F4F9F4F0895A7
:101DD000E89409C097FB3EF49095809570956195C5
:101DE0007F4F8F4F9F4F9923A9F0F92F96E9BB277B
:101DF0009395F695879577956795B795F111F8CFF7
:101E0000FAF4BB0F11F460FF1BC06F5F7F4F8F4F61
:101E10009F4F16C0882311F096E911C0772321F057
:101E20009EE8872F762F05C0662371F096E8862FEF
:101E300070E060E02AF09A95660F771F881FDAF746
:101E4000880F9695879597F9089597F99F6780E889
:101E500070E060E008959FEF80EC089500240A94FC
:101E60001616170618060906089500240A94121675
:101E70001306140605060895092E0394000C11F4A8
:101E8000882352F0BB0F40F4BF2B11F460FF04C055
:101E90006F5F7F4F8F4F9F4F089557FD9058440FAE
:101EA000551F59F05F3F71F04795880F97FB991FB9
:101EB00061F09F3F79F08795089512161306140676
:101EC000551FF2CF4695F1DF08C016161706180603
:101ED000991FF1CF86957105610508940895E894DE
:101EE000BB2766277727CB0197F908950BD0C4CF7E
:101EF000B5DF28F0BADF18F0952309F0A6CFABCFF5
:101F00001124EECFCADFA0F3959FD1F3950F50E0D7
:101F1000551F629FF001729FBB27F00DB11D639F9B
:101F2000AA27F00DB11DAA1F649F6627B00DA11D41
:101F3000661F829F2227B00DA11D621F739FB00DE7
:101F4000A11D621F839FA00D611D221F749F332757
:101F5000A00D611D231F849F600D211D822F762FF0
:101F60006A2F11249F5750408AF0E1F088234AF0ED
:101F7000EE0FFF1FBB1F661F771F881F9150504039
:101F8000A9F79E3F510570F060CFAACF5F3FECF3F9
:101F9000983EDCF3869577956795B795F795E79525
:101FA0009F5FC1F7FE2B880F911D9695879597F936
:101FB0000895A1E21A2EAA1BBB1BFD010DC0AA1F8A
:101FC000BB1FEE1FFF1FA217B307E407F50720F0A2
:101FD000A21BB30BE40BF50B661F771F881F991F1D
:101FE0001A9469F760957095809590959B01AC0166
:101FF000BD01CF010895EE0FFF1F0590F491E02D74
:062000000994F894FFCFE3
:10200600526573743A2000436F6C6C6563743F3A93
:1020160020592F4E2020004D696E3A20004D6178E0
:102026003A20005465737452616E67653A2000FF6A
:102036001E00B40001000100320035003B003800EC
:10204600230062006500310034003A0037002200A8
:1020560061006400300033003900360021002000A2
:10206600630001FF18001900260027000500040080
:1020760001000000000000002B02000000006904BF
:102086002004480425045F0401020408102040804F
:062096002010088040202C
:00000001FF
